{
  "contracts/mock-memo.sol": {
    "MEMOries": {
      "abi": [
        {
          "inputs": [],
          "stateMutability": "nonpayable",
          "type": "constructor"
        },
        {
          "anonymous": false,
          "inputs": [
            {
              "indexed": true,
              "internalType": "address",
              "name": "owner",
              "type": "address"
            },
            {
              "indexed": true,
              "internalType": "address",
              "name": "spender",
              "type": "address"
            },
            {
              "indexed": false,
              "internalType": "uint256",
              "name": "value",
              "type": "uint256"
            }
          ],
          "name": "Approval",
          "type": "event"
        },
        {
          "anonymous": false,
          "inputs": [
            {
              "indexed": true,
              "internalType": "uint256",
              "name": "epoch",
              "type": "uint256"
            },
            {
              "indexed": false,
              "internalType": "uint256",
              "name": "rebase",
              "type": "uint256"
            },
            {
              "indexed": false,
              "internalType": "uint256",
              "name": "index",
              "type": "uint256"
            }
          ],
          "name": "LogRebase",
          "type": "event"
        },
        {
          "anonymous": false,
          "inputs": [
            {
              "indexed": false,
              "internalType": "address",
              "name": "stakingContract",
              "type": "address"
            }
          ],
          "name": "LogStakingContractUpdated",
          "type": "event"
        },
        {
          "anonymous": false,
          "inputs": [
            {
              "indexed": true,
              "internalType": "uint256",
              "name": "epoch",
              "type": "uint256"
            },
            {
              "indexed": false,
              "internalType": "uint256",
              "name": "timestamp",
              "type": "uint256"
            },
            {
              "indexed": false,
              "internalType": "uint256",
              "name": "totalSupply",
              "type": "uint256"
            }
          ],
          "name": "LogSupply",
          "type": "event"
        },
        {
          "anonymous": false,
          "inputs": [
            {
              "indexed": true,
              "internalType": "address",
              "name": "previousOwner",
              "type": "address"
            },
            {
              "indexed": true,
              "internalType": "address",
              "name": "newOwner",
              "type": "address"
            }
          ],
          "name": "OwnershipPulled",
          "type": "event"
        },
        {
          "anonymous": false,
          "inputs": [
            {
              "indexed": true,
              "internalType": "address",
              "name": "previousOwner",
              "type": "address"
            },
            {
              "indexed": true,
              "internalType": "address",
              "name": "newOwner",
              "type": "address"
            }
          ],
          "name": "OwnershipPushed",
          "type": "event"
        },
        {
          "anonymous": false,
          "inputs": [
            {
              "indexed": true,
              "internalType": "address",
              "name": "from",
              "type": "address"
            },
            {
              "indexed": true,
              "internalType": "address",
              "name": "to",
              "type": "address"
            },
            {
              "indexed": false,
              "internalType": "uint256",
              "name": "value",
              "type": "uint256"
            }
          ],
          "name": "Transfer",
          "type": "event"
        },
        {
          "inputs": [],
          "name": "DOMAIN_SEPARATOR",
          "outputs": [
            {
              "internalType": "bytes32",
              "name": "",
              "type": "bytes32"
            }
          ],
          "stateMutability": "view",
          "type": "function"
        },
        {
          "inputs": [],
          "name": "INDEX",
          "outputs": [
            {
              "internalType": "uint256",
              "name": "",
              "type": "uint256"
            }
          ],
          "stateMutability": "view",
          "type": "function"
        },
        {
          "inputs": [],
          "name": "PERMIT_TYPEHASH",
          "outputs": [
            {
              "internalType": "bytes32",
              "name": "",
              "type": "bytes32"
            }
          ],
          "stateMutability": "view",
          "type": "function"
        },
        {
          "inputs": [
            {
              "internalType": "address",
              "name": "owner_",
              "type": "address"
            },
            {
              "internalType": "address",
              "name": "spender",
              "type": "address"
            }
          ],
          "name": "allowance",
          "outputs": [
            {
              "internalType": "uint256",
              "name": "",
              "type": "uint256"
            }
          ],
          "stateMutability": "view",
          "type": "function"
        },
        {
          "inputs": [
            {
              "internalType": "address",
              "name": "spender",
              "type": "address"
            },
            {
              "internalType": "uint256",
              "name": "value",
              "type": "uint256"
            }
          ],
          "name": "approve",
          "outputs": [
            {
              "internalType": "bool",
              "name": "",
              "type": "bool"
            }
          ],
          "stateMutability": "nonpayable",
          "type": "function"
        },
        {
          "inputs": [
            {
              "internalType": "uint256",
              "name": "gons",
              "type": "uint256"
            }
          ],
          "name": "balanceForGons",
          "outputs": [
            {
              "internalType": "uint256",
              "name": "",
              "type": "uint256"
            }
          ],
          "stateMutability": "view",
          "type": "function"
        },
        {
          "inputs": [
            {
              "internalType": "address",
              "name": "who",
              "type": "address"
            }
          ],
          "name": "balanceOf",
          "outputs": [
            {
              "internalType": "uint256",
              "name": "",
              "type": "uint256"
            }
          ],
          "stateMutability": "view",
          "type": "function"
        },
        {
          "inputs": [],
          "name": "circulatingSupply",
          "outputs": [
            {
              "internalType": "uint256",
              "name": "",
              "type": "uint256"
            }
          ],
          "stateMutability": "view",
          "type": "function"
        },
        {
          "inputs": [],
          "name": "decimals",
          "outputs": [
            {
              "internalType": "uint8",
              "name": "",
              "type": "uint8"
            }
          ],
          "stateMutability": "view",
          "type": "function"
        },
        {
          "inputs": [
            {
              "internalType": "address",
              "name": "spender",
              "type": "address"
            },
            {
              "internalType": "uint256",
              "name": "subtractedValue",
              "type": "uint256"
            }
          ],
          "name": "decreaseAllowance",
          "outputs": [
            {
              "internalType": "bool",
              "name": "",
              "type": "bool"
            }
          ],
          "stateMutability": "nonpayable",
          "type": "function"
        },
        {
          "inputs": [
            {
              "internalType": "uint256",
              "name": "amount",
              "type": "uint256"
            }
          ],
          "name": "gonsForBalance",
          "outputs": [
            {
              "internalType": "uint256",
              "name": "",
              "type": "uint256"
            }
          ],
          "stateMutability": "view",
          "type": "function"
        },
        {
          "inputs": [
            {
              "internalType": "address",
              "name": "spender",
              "type": "address"
            },
            {
              "internalType": "uint256",
              "name": "addedValue",
              "type": "uint256"
            }
          ],
          "name": "increaseAllowance",
          "outputs": [
            {
              "internalType": "bool",
              "name": "",
              "type": "bool"
            }
          ],
          "stateMutability": "nonpayable",
          "type": "function"
        },
        {
          "inputs": [],
          "name": "index",
          "outputs": [
            {
              "internalType": "uint256",
              "name": "",
              "type": "uint256"
            }
          ],
          "stateMutability": "view",
          "type": "function"
        },
        {
          "inputs": [
            {
              "internalType": "address",
              "name": "stakingContract_",
              "type": "address"
            }
          ],
          "name": "initialize",
          "outputs": [
            {
              "internalType": "bool",
              "name": "",
              "type": "bool"
            }
          ],
          "stateMutability": "nonpayable",
          "type": "function"
        },
        {
          "inputs": [],
          "name": "initializer",
          "outputs": [
            {
              "internalType": "address",
              "name": "",
              "type": "address"
            }
          ],
          "stateMutability": "view",
          "type": "function"
        },
        {
          "inputs": [],
          "name": "manager",
          "outputs": [
            {
              "internalType": "address",
              "name": "",
              "type": "address"
            }
          ],
          "stateMutability": "view",
          "type": "function"
        },
        {
          "inputs": [],
          "name": "name",
          "outputs": [
            {
              "internalType": "string",
              "name": "",
              "type": "string"
            }
          ],
          "stateMutability": "view",
          "type": "function"
        },
        {
          "inputs": [
            {
              "internalType": "address",
              "name": "owner",
              "type": "address"
            }
          ],
          "name": "nonces",
          "outputs": [
            {
              "internalType": "uint256",
              "name": "",
              "type": "uint256"
            }
          ],
          "stateMutability": "view",
          "type": "function"
        },
        {
          "inputs": [
            {
              "internalType": "address",
              "name": "owner",
              "type": "address"
            },
            {
              "internalType": "address",
              "name": "spender",
              "type": "address"
            },
            {
              "internalType": "uint256",
              "name": "amount",
              "type": "uint256"
            },
            {
              "internalType": "uint256",
              "name": "deadline",
              "type": "uint256"
            },
            {
              "internalType": "uint8",
              "name": "v",
              "type": "uint8"
            },
            {
              "internalType": "bytes32",
              "name": "r",
              "type": "bytes32"
            },
            {
              "internalType": "bytes32",
              "name": "s",
              "type": "bytes32"
            }
          ],
          "name": "permit",
          "outputs": [],
          "stateMutability": "nonpayable",
          "type": "function"
        },
        {
          "inputs": [],
          "name": "pullManagement",
          "outputs": [],
          "stateMutability": "nonpayable",
          "type": "function"
        },
        {
          "inputs": [
            {
              "internalType": "address",
              "name": "newOwner_",
              "type": "address"
            }
          ],
          "name": "pushManagement",
          "outputs": [],
          "stateMutability": "nonpayable",
          "type": "function"
        },
        {
          "inputs": [
            {
              "internalType": "uint256",
              "name": "profit_",
              "type": "uint256"
            },
            {
              "internalType": "uint256",
              "name": "epoch_",
              "type": "uint256"
            }
          ],
          "name": "rebase",
          "outputs": [
            {
              "internalType": "uint256",
              "name": "",
              "type": "uint256"
            }
          ],
          "stateMutability": "nonpayable",
          "type": "function"
        },
        {
          "inputs": [
            {
              "internalType": "uint256",
              "name": "",
              "type": "uint256"
            }
          ],
          "name": "rebases",
          "outputs": [
            {
              "internalType": "uint256",
              "name": "epoch",
              "type": "uint256"
            },
            {
              "internalType": "uint256",
              "name": "rebase",
              "type": "uint256"
            },
            {
              "internalType": "uint256",
              "name": "totalStakedBefore",
              "type": "uint256"
            },
            {
              "internalType": "uint256",
              "name": "totalStakedAfter",
              "type": "uint256"
            },
            {
              "internalType": "uint256",
              "name": "amountRebased",
              "type": "uint256"
            },
            {
              "internalType": "uint256",
              "name": "index",
              "type": "uint256"
            },
            {
              "internalType": "uint32",
              "name": "timeOccured",
              "type": "uint32"
            }
          ],
          "stateMutability": "view",
          "type": "function"
        },
        {
          "inputs": [],
          "name": "renounceManagement",
          "outputs": [],
          "stateMutability": "nonpayable",
          "type": "function"
        },
        {
          "inputs": [
            {
              "internalType": "uint256",
              "name": "_INDEX",
              "type": "uint256"
            }
          ],
          "name": "setIndex",
          "outputs": [
            {
              "internalType": "bool",
              "name": "",
              "type": "bool"
            }
          ],
          "stateMutability": "nonpayable",
          "type": "function"
        },
        {
          "inputs": [],
          "name": "stakingContract",
          "outputs": [
            {
              "internalType": "address",
              "name": "",
              "type": "address"
            }
          ],
          "stateMutability": "view",
          "type": "function"
        },
        {
          "inputs": [],
          "name": "symbol",
          "outputs": [
            {
              "internalType": "string",
              "name": "",
              "type": "string"
            }
          ],
          "stateMutability": "view",
          "type": "function"
        },
        {
          "inputs": [],
          "name": "totalSupply",
          "outputs": [
            {
              "internalType": "uint256",
              "name": "",
              "type": "uint256"
            }
          ],
          "stateMutability": "view",
          "type": "function"
        },
        {
          "inputs": [
            {
              "internalType": "address",
              "name": "to",
              "type": "address"
            },
            {
              "internalType": "uint256",
              "name": "value",
              "type": "uint256"
            }
          ],
          "name": "transfer",
          "outputs": [
            {
              "internalType": "bool",
              "name": "",
              "type": "bool"
            }
          ],
          "stateMutability": "nonpayable",
          "type": "function"
        },
        {
          "inputs": [
            {
              "internalType": "address",
              "name": "from",
              "type": "address"
            },
            {
              "internalType": "address",
              "name": "to",
              "type": "address"
            },
            {
              "internalType": "uint256",
              "name": "value",
              "type": "uint256"
            }
          ],
          "name": "transferFrom",
          "outputs": [
            {
              "internalType": "bool",
              "name": "",
              "type": "bool"
            }
          ],
          "stateMutability": "nonpayable",
          "type": "function"
        }
      ],
      "devdoc": {
        "kind": "dev",
        "methods": {
          "decimals()": {
            "details": "Returns the number of decimals used to get its user representation. For example, if `decimals` equals `2`, a balance of `505` tokens should be displayed to a user as `5,05` (`505 / 10 ** 2`). Tokens usually opt for a value of 18, imitating the relationship between Ether and Wei. This is the value {ERC20} uses, unless {_setupDecimals} is called. NOTE: This information is only used for _display_ purposes: it in no way affects any of the arithmetic of the contract, including {IERC20-balanceOf} and {IERC20-transfer}."
          },
          "decreaseAllowance(address,uint256)": {
            "details": "Atomically decreases the allowance granted to `spender` by the caller. This is an alternative to {approve} that can be used as a mitigation for problems described in {IERC20-approve}. Emits an {Approval} event indicating the updated allowance. Requirements: - `spender` cannot be the zero address. - `spender` must have allowance for the caller of at least `subtractedValue`."
          },
          "increaseAllowance(address,uint256)": {
            "details": "Atomically increases the allowance granted to `spender` by the caller. This is an alternative to {approve} that can be used as a mitigation for problems described in {IERC20-approve}. Emits an {Approval} event indicating the updated allowance. Requirements: - `spender` cannot be the zero address."
          },
          "name()": {
            "details": "Returns the name of the token."
          },
          "nonces(address)": {
            "details": "See {IERC2612Permit-nonces}."
          },
          "permit(address,address,uint256,uint256,uint8,bytes32,bytes32)": {
            "details": "See {IERC2612Permit-permit}."
          },
          "rebase(uint256,uint256)": {
            "params": {
              "profit_": "uint256"
            },
            "returns": {
              "_0": "uint256"
            }
          },
          "symbol()": {
            "details": "Returns the symbol of the token, usually a shorter version of the name."
          },
          "totalSupply()": {
            "details": "See {IERC20-totalSupply}."
          }
        },
        "version": 1
      },
      "evm": {
        "bytecode": {
          "linkReferences": {},
          "object": "60806040523480156200001157600080fd5b5060408051808201825260088152674d454d4f7269657360c01b6020808301918252835180850190945260048452634d454d4f60e01b90840152815191929160099162000062916003919062000310565b5081516200007890600490602085019062000310565b506005805460ff191660ff92909216919091179055504690507f8b73c3c69bb8fe3d512ecc4cf759cc79239f7b179b0ffacaa9a75d522b39400f620000bc620001e0565b805160209182012060408051808201825260018152603160f81b90840152805192830193909352918101919091527fc89efdaa54c0f20c7adf612882df0950f5a951637e0307cdcb4c672f298b8bc66060820152608081018290523060a082015260c00160408051601f19818403018152908290528051602090910120600755600880546001600160a01b0319163317908190556001600160a01b031691506000907fea8258f2d9ddb679928cf34b78cf645b7feda9acc828e4dd82d014eaae270eba908290a3600b80546001600160a01b031916331790556611c37937e080006002819055620001d790620001b58160001962000484565b620001c39060001962000423565b6200027a60201b620010d11790919060201c565b600e55620004b1565b606060038054620001f19062000447565b80601f01602080910402602001604051908101604052809291908181526020018280546200021f9062000447565b8015620002705780601f10620002445761010080835404028352916020019162000270565b820191906000526020600020905b8154815290600101906020018083116200025257829003601f168201915b5050505050905090565b6000620002c483836040518060400160405280601a81526020017f536166654d6174683a206469766973696f6e206279207a65726f000000000000815250620002cb60201b60201c565b9392505050565b60008183620002f85760405162461bcd60e51b8152600401620002ef9190620003b6565b60405180910390fd5b5060006200030784866200040c565b95945050505050565b8280546200031e9062000447565b90600052602060002090601f0160209004810192826200034257600085556200038d565b82601f106200035d57805160ff19168380011785556200038d565b828001600101855582156200038d579182015b828111156200038d57825182559160200191906001019062000370565b506200039b9291506200039f565b5090565b5b808211156200039b5760008155600101620003a0565b6000602080835283518082850152825b81811015620003e457858101830151858201604001528201620003c6565b81811115620003f65783604083870101525b50601f01601f1916929092016040019392505050565b6000826200041e576200041e6200049b565b500490565b6000828210156200044257634e487b7160e01b81526011600452602481fd5b500390565b6002810460018216806200045c57607f821691505b602082108114156200047e57634e487b7160e01b600052602260045260246000fd5b50919050565b6000826200049657620004966200049b565b500690565b634e487b7160e01b600052601260045260246000fd5b61179980620004c16000396000f3fe608060405234801561001057600080fd5b50600436106101da5760003560e01c8063481c6a751161010457806395d89b41116100a2578063c4d66de811610071578063c4d66de814610401578063d505accf14610414578063dd62ed3e14610427578063ee99205c14610460576101da565b806395d89b41146103c05780639ce110d7146103c8578063a457c2d7146103db578063a9059cbb146103ee576101da565b806373c69eb7116100de57806373c69eb7146103445780637965d56d146103925780637ecebe00146103a55780639358928b146103b8576101da565b8063481c6a75146103045780635a96ac0a1461032957806370a0823114610331576101da565b80632986c0e51161017c5780633644e5151161014b5780633644e515146102c257806339509351146102cb57806340a5737f146102de57806346f68ee9146102f1576101da565b80632986c0e5146102755780632df75cb11461027d57806330adf81f14610286578063313ce567146102ad576101da565b8063095ea7b3116101b8578063095ea7b31461022457806318160ddd146102475780631bd396741461024f57806323b872dd14610262576101da565b8063058ecdb4146101df57806306fdde0314610205578063089208d81461021a575b600080fd5b6101f26101ed3660046115bd565b610473565b6040519081526020015b60405180910390f35b61020d6105d3565b6040516101fc91906115de565b610222610665565b005b61023761023236600461157c565b6106e2565b60405190151581526020016101fc565b6002546101f2565b6101f261025d3660046115a5565b61073c565b6102376102703660046114d0565b61075b565b6101f2610898565b6101f2600d5481565b6101f27f6e71edae12b1b97f4d1f60370fef10105fa2faae0126114a169c64845d6126c981565b60055460405160ff90911681526020016101fc565b6101f260075481565b6102376102d936600461157c565b6108aa565b6102376102ec3660046115a5565b61091d565b6102226102ff366004611484565b61096b565b6008546001600160a01b03165b6040516001600160a01b0390911681526020016101fc565b610222610a56565b6101f261033f366004611484565b610b1e565b6103576103523660046115a5565b610b46565b604080519788526020880196909652948601939093526060850191909152608084015260a083015263ffffffff1660c082015260e0016101fc565b6101f26103a03660046115a5565b610b9b565b6101f26103b3366004611484565b610bb2565b6101f2610bd0565b61020d610bf5565b600b54610311906001600160a01b031681565b6102376103e936600461157c565b610c04565b6102376103fc36600461157c565b610cda565b61023761040f366004611484565b610d8c565b61022261042236600461150b565b610ea8565b6101f261043536600461149e565b6001600160a01b03918216600090815260106020908152604080832093909416825291909152205490565b600a54610311906001600160a01b031681565b600a546000906001600160a01b0316331461048d57600080fd5b600080610498610bd0565b90508461053457837f917acfbe39be6509ccf7fecb66a7e42ce2be1083c2d7dd3b9b7491dabddb8da4426002546040516104dc929190918252602082015260400190565b60405180910390a2837f6012dbce857565c4a40974aa5de8373a761fc429077ef0c8c8611d1e20d63fb26000610510610898565b6040805192835260208301919091520160405180910390a2600254925050506105cd565b801561056057610559816105536002548861111a90919063ffffffff16565b906110d1565b9150610564565b8491505b6002546105719083611199565b60028190556001600160801b031015610590576001600160801b036002555b6002546105b6906105aa6611c37937e08000600019611703565b610553906000196116b1565b600e556105c48186866111f8565b50600254925050505b92915050565b6060600380546105e2906116c8565b80601f016020809104026020016040519081016040528092919081815260200182805461060e906116c8565b801561065b5780601f106106305761010080835404028352916020019161065b565b820191906000526020600020905b81548152906001019060200180831161063e57829003601f168201915b5050505050905090565b6008546001600160a01b031633146106985760405162461bcd60e51b815260040161068f90611631565b60405180910390fd5b6008546040516000916001600160a01b0316907fea8258f2d9ddb679928cf34b78cf645b7feda9acc828e4dd82d014eaae270eba908390a3600880546001600160a01b0319169055565b3360008181526010602090815260408083206001600160a01b038716808552925280832085905551919290916000805160206117448339815191529061072b9086815260200190565b60405180910390a350600192915050565b6000610753600e548361111a90919063ffffffff16565b90505b919050565b6001600160a01b03831660009081526010602090815260408083203384529091528120546107899083611357565b6001600160a01b03851660008181526010602090815260408083203380855290835292819020859055519384529092600080516020611744833981519152910160405180910390a360006107dc8361073c565b6001600160a01b0386166000908152600f60205260409020549091506108029082611357565b6001600160a01b038087166000908152600f602052604080822093909355908616815220546108319082611199565b6001600160a01b038086166000818152600f602052604090819020939093559151908716907fddf252ad1be2c89b69c2b068fc378daa952ba7f163c4a11628f55a4df523b3ef906108859087815260200190565b60405180910390a3506001949350505050565b60006108a5600d54610b9b565b905090565b3360009081526010602090815260408083206001600160a01b03861684529091528120546108d89083611199565b3360008181526010602090815260408083206001600160a01b03891680855290835292819020859055519384529092600080516020611744833981519152910161072b565b6008546000906001600160a01b0316331461094a5760405162461bcd60e51b815260040161068f90611631565b600d541561095757600080fd5b6109608261073c565b600d55506001919050565b6008546001600160a01b031633146109955760405162461bcd60e51b815260040161068f90611631565b6001600160a01b0381166109fa5760405162461bcd60e51b815260206004820152602660248201527f4f776e61626c653a206e6577206f776e657220697320746865207a65726f206160448201526564647265737360d01b606482015260840161068f565b6008546040516001600160a01b038084169216907fea8258f2d9ddb679928cf34b78cf645b7feda9acc828e4dd82d014eaae270eba90600090a3600980546001600160a01b0319166001600160a01b0392909216919091179055565b6009546001600160a01b03163314610abb5760405162461bcd60e51b815260206004820152602260248201527f4f776e61626c653a206d757374206265206e6577206f776e657220746f2070756044820152611b1b60f21b606482015260840161068f565b6009546008546040516001600160a01b0392831692909116907faa151555690c956fc3ea32f106bb9f119b5237a061eaa8557cff3e51e3792c8d90600090a3600954600880546001600160a01b0319166001600160a01b03909216919091179055565b600e546001600160a01b0382166000908152600f6020526040812054909161075391906110d1565b600c8181548110610b5657600080fd5b60009182526020909120600790910201805460018201546002830154600384015460048501546005860154600690960154949650929491939092919063ffffffff1687565b6000610753600e54836110d190919063ffffffff16565b6001600160a01b038116600090815260066020526040812054610753565b600a546000906108a590610bec906001600160a01b0316610b1e565b60025490611357565b6060600480546105e2906116c8565b3360009081526010602090815260408083206001600160a01b0386168452909152812054808310610c58573360009081526010602090815260408083206001600160a01b0388168452909152812055610c87565b610c628184611357565b3360009081526010602090815260408083206001600160a01b03891684529091529020555b3360008181526010602090815260408083206001600160a01b0389168085529083529281902054905190815291929160008051602061174483398151915291015b60405180910390a35060019392505050565b600080610cf2600e548461111a90919063ffffffff16565b336000908152600f6020526040902054909150610d0f9082611357565b336000908152600f6020526040808220929092556001600160a01b03861681522054610d3b9082611199565b6001600160a01b0385166000818152600f60205260409081902092909255905133907fddf252ad1be2c89b69c2b068fc378daa952ba7f163c4a11628f55a4df523b3ef90610cc89087815260200190565b600b546000906001600160a01b03163314610da657600080fd5b6001600160a01b038216610db957600080fd5b600a80546001600160a01b0319166001600160a01b038416179055610de76611c37937e08000600019611703565b610df3906000196116b1565b600a80546001600160a01b039081166000908152600f602052604080822094909455915460025493519116927fddf252ad1be2c89b69c2b068fc378daa952ba7f163c4a11628f55a4df523b3ef91610e4d91815260200190565b60405180910390a36040516001600160a01b03831681527f817c653428858ed536dc085c5d8273734c517b55de44b55f5c5877a75e3373a19060200160405180910390a15050600b80546001600160a01b0319169055600190565b83421115610ef85760405162461bcd60e51b815260206004820152601860248201527f5065726d69743a206578706972656420646561646c696e650000000000000000604482015260640161068f565b6001600160a01b0387811660008181526006602090815260408083205481517f6e71edae12b1b97f4d1f60370fef10105fa2faae0126114a169c64845d6126c98185015280830195909552948b166060850152608084018a905260a084019490945260c08084018990528451808503909101815260e08401855280519082012060075461190160f01b61010086015261010285015261012280850182905285518086039091018152610142850180875281519184019190912090849052610162850180875281905260ff89166101828601526101a285018890526101c2850187905294519094936001926101e2808301939192601f198301929081900390910190855afa15801561100d573d6000803e3d6000fd5b5050604051601f1901519150506001600160a01b038116158015906110435750896001600160a01b0316816001600160a01b0316145b6110995760405162461bcd60e51b815260206004820152602160248201527f5a65726f537761705065726d69743a20496e76616c6964207369676e617475726044820152606560f81b606482015260840161068f565b6001600160a01b038a1660009081526006602052604090206110ba90611399565b6110c58a8a8a6113b6565b50505050505050505050565b600061111383836040518060400160405280601a81526020017f536166654d6174683a206469766973696f6e206279207a65726f000000000000815250611405565b9392505050565b600082611129575060006105cd565b60006111358385611692565b905082611142858361167e565b146111135760405162461bcd60e51b815260206004820152602160248201527f536166654d6174683a206d756c7469706c69636174696f6e206f766572666c6f6044820152607760f81b606482015260840161068f565b6000806111a68385611666565b9050838110156111135760405162461bcd60e51b815260206004820152601b60248201527f536166654d6174683a206164646974696f6e206f766572666c6f770000000000604482015260640161068f565b6000806112118561055386670de0b6b3a764000061111a565b9050600c6040518060e0016040528085815260200183815260200187815260200161123a610bd0565b815260200186815260200161124d610898565b81524263ffffffff81811660209384015284546001808201875560009687529584902085516007909202019081558484015195810195909555604080850151600280880191909155606086015160038801556080860151600488015560a0860151600588015560c0909501516006909601805463ffffffff191696909216959095179055915483519283529082015284917f917acfbe39be6509ccf7fecb66a7e42ce2be1083c2d7dd3b9b7491dabddb8da4910160405180910390a2827f6012dbce857565c4a40974aa5de8373a761fc429077ef0c8c8611d1e20d63fb282611334610898565b6040805192835260208301919091520160405180910390a2506001949350505050565b600061111383836040518060400160405280601e81526020017f536166654d6174683a207375627472616374696f6e206f766572666c6f77000081525061143c565b60018160000160008282546113ae9190611666565b909155505050565b6001600160a01b038381166000818152601060209081526040808320948716808452948252918290208590559051848152600080516020611744833981519152910160405180910390a3505050565b600081836114265760405162461bcd60e51b815260040161068f91906115de565b506000611433848661167e565b95945050505050565b600081848411156114605760405162461bcd60e51b815260040161068f91906115de565b50600061143384866116b1565b80356001600160a01b038116811461075657600080fd5b600060208284031215611495578081fd5b6111138261146d565b600080604083850312156114b0578081fd5b6114b98361146d565b91506114c76020840161146d565b90509250929050565b6000806000606084860312156114e4578081fd5b6114ed8461146d565b92506114fb6020850161146d565b9150604084013590509250925092565b600080600080600080600060e0888a031215611525578283fd5b61152e8861146d565b965061153c6020890161146d565b95506040880135945060608801359350608088013560ff8116811461155f578384fd5b9699959850939692959460a0840135945060c09093013592915050565b6000806040838503121561158e578182fd5b6115978361146d565b946020939093013593505050565b6000602082840312156115b6578081fd5b5035919050565b600080604083850312156115cf578182fd5b50508035926020909101359150565b6000602080835283518082850152825b8181101561160a578581018301518582016040015282016115ee565b8181111561161b5783604083870101525b50601f01601f1916929092016040019392505050565b6020808252818101527f4f776e61626c653a2063616c6c6572206973206e6f7420746865206f776e6572604082015260600190565b6000821982111561167957611679611717565b500190565b60008261168d5761168d61172d565b500490565b60008160001904831182151516156116ac576116ac611717565b500290565b6000828210156116c3576116c3611717565b500390565b6002810460018216806116dc57607f821691505b602082108114156116fd57634e487b7160e01b600052602260045260246000fd5b50919050565b6000826117125761171261172d565b500690565b634e487b7160e01b600052601160045260246000fd5b634e487b7160e01b600052601260045260246000fdfe8c5be1e5ebec7d5bd14f71427d1e84f3dd0314c0f7b2291e5b200ac8c7c3b925a2646970667358221220a4d732374dbe39fd06a182b041ff377129a8e6d9e249629e15498b7b0e4225b164736f6c63430008020033",
          "opcodes": "PUSH1 0x80 PUSH1 0x40 MSTORE CALLVALUE DUP1 ISZERO PUSH3 0x11 JUMPI PUSH1 0x0 DUP1 REVERT JUMPDEST POP PUSH1 0x40 DUP1 MLOAD DUP1 DUP3 ADD DUP3 MSTORE PUSH1 0x8 DUP2 MSTORE PUSH8 0x4D454D4F72696573 PUSH1 0xC0 SHL PUSH1 0x20 DUP1 DUP4 ADD SWAP2 DUP3 MSTORE DUP4 MLOAD DUP1 DUP6 ADD SWAP1 SWAP5 MSTORE PUSH1 0x4 DUP5 MSTORE PUSH4 0x4D454D4F PUSH1 0xE0 SHL SWAP1 DUP5 ADD MSTORE DUP2 MLOAD SWAP2 SWAP3 SWAP2 PUSH1 0x9 SWAP2 PUSH3 0x62 SWAP2 PUSH1 0x3 SWAP2 SWAP1 PUSH3 0x310 JUMP JUMPDEST POP DUP2 MLOAD PUSH3 0x78 SWAP1 PUSH1 0x4 SWAP1 PUSH1 0x20 DUP6 ADD SWAP1 PUSH3 0x310 JUMP JUMPDEST POP PUSH1 0x5 DUP1 SLOAD PUSH1 0xFF NOT AND PUSH1 0xFF SWAP3 SWAP1 SWAP3 AND SWAP2 SWAP1 SWAP2 OR SWAP1 SSTORE POP CHAINID SWAP1 POP PUSH32 0x8B73C3C69BB8FE3D512ECC4CF759CC79239F7B179B0FFACAA9A75D522B39400F PUSH3 0xBC PUSH3 0x1E0 JUMP JUMPDEST DUP1 MLOAD PUSH1 0x20 SWAP2 DUP3 ADD KECCAK256 PUSH1 0x40 DUP1 MLOAD DUP1 DUP3 ADD DUP3 MSTORE PUSH1 0x1 DUP2 MSTORE PUSH1 0x31 PUSH1 0xF8 SHL SWAP1 DUP5 ADD MSTORE DUP1 MLOAD SWAP3 DUP4 ADD SWAP4 SWAP1 SWAP4 MSTORE SWAP2 DUP2 ADD SWAP2 SWAP1 SWAP2 MSTORE PUSH32 0xC89EFDAA54C0F20C7ADF612882DF0950F5A951637E0307CDCB4C672F298B8BC6 PUSH1 0x60 DUP3 ADD MSTORE PUSH1 0x80 DUP2 ADD DUP3 SWAP1 MSTORE ADDRESS PUSH1 0xA0 DUP3 ADD MSTORE PUSH1 0xC0 ADD PUSH1 0x40 DUP1 MLOAD PUSH1 0x1F NOT DUP2 DUP5 SUB ADD DUP2 MSTORE SWAP1 DUP3 SWAP1 MSTORE DUP1 MLOAD PUSH1 0x20 SWAP1 SWAP2 ADD KECCAK256 PUSH1 0x7 SSTORE PUSH1 0x8 DUP1 SLOAD PUSH1 0x1 PUSH1 0x1 PUSH1 0xA0 SHL SUB NOT AND CALLER OR SWAP1 DUP2 SWAP1 SSTORE PUSH1 0x1 PUSH1 0x1 PUSH1 0xA0 SHL SUB AND SWAP2 POP PUSH1 0x0 SWAP1 PUSH32 0xEA8258F2D9DDB679928CF34B78CF645B7FEDA9ACC828E4DD82D014EAAE270EBA SWAP1 DUP3 SWAP1 LOG3 PUSH1 0xB DUP1 SLOAD PUSH1 0x1 PUSH1 0x1 PUSH1 0xA0 SHL SUB NOT AND CALLER OR SWAP1 SSTORE PUSH7 0x11C37937E08000 PUSH1 0x2 DUP2 SWAP1 SSTORE PUSH3 0x1D7 SWAP1 PUSH3 0x1B5 DUP2 PUSH1 0x0 NOT PUSH3 0x484 JUMP JUMPDEST PUSH3 0x1C3 SWAP1 PUSH1 0x0 NOT PUSH3 0x423 JUMP JUMPDEST PUSH3 0x27A PUSH1 0x20 SHL PUSH3 0x10D1 OR SWAP1 SWAP2 SWAP1 PUSH1 0x20 SHR JUMP JUMPDEST PUSH1 0xE SSTORE PUSH3 0x4B1 JUMP JUMPDEST PUSH1 0x60 PUSH1 0x3 DUP1 SLOAD PUSH3 0x1F1 SWAP1 PUSH3 0x447 JUMP JUMPDEST DUP1 PUSH1 0x1F ADD PUSH1 0x20 DUP1 SWAP2 DIV MUL PUSH1 0x20 ADD PUSH1 0x40 MLOAD SWAP1 DUP2 ADD PUSH1 0x40 MSTORE DUP1 SWAP3 SWAP2 SWAP1 DUP2 DUP2 MSTORE PUSH1 0x20 ADD DUP3 DUP1 SLOAD PUSH3 0x21F SWAP1 PUSH3 0x447 JUMP JUMPDEST DUP1 ISZERO PUSH3 0x270 JUMPI DUP1 PUSH1 0x1F LT PUSH3 0x244 JUMPI PUSH2 0x100 DUP1 DUP4 SLOAD DIV MUL DUP4 MSTORE SWAP2 PUSH1 0x20 ADD SWAP2 PUSH3 0x270 JUMP JUMPDEST DUP3 ADD SWAP2 SWAP1 PUSH1 0x0 MSTORE PUSH1 0x20 PUSH1 0x0 KECCAK256 SWAP1 JUMPDEST DUP2 SLOAD DUP2 MSTORE SWAP1 PUSH1 0x1 ADD SWAP1 PUSH1 0x20 ADD DUP1 DUP4 GT PUSH3 0x252 JUMPI DUP3 SWAP1 SUB PUSH1 0x1F AND DUP3 ADD SWAP2 JUMPDEST POP POP POP POP POP SWAP1 POP SWAP1 JUMP JUMPDEST PUSH1 0x0 PUSH3 0x2C4 DUP4 DUP4 PUSH1 0x40 MLOAD DUP1 PUSH1 0x40 ADD PUSH1 0x40 MSTORE DUP1 PUSH1 0x1A DUP2 MSTORE PUSH1 0x20 ADD PUSH32 0x536166654D6174683A206469766973696F6E206279207A65726F000000000000 DUP2 MSTORE POP PUSH3 0x2CB PUSH1 0x20 SHL PUSH1 0x20 SHR JUMP JUMPDEST SWAP4 SWAP3 POP POP POP JUMP JUMPDEST PUSH1 0x0 DUP2 DUP4 PUSH3 0x2F8 JUMPI PUSH1 0x40 MLOAD PUSH3 0x461BCD PUSH1 0xE5 SHL DUP2 MSTORE PUSH1 0x4 ADD PUSH3 0x2EF SWAP2 SWAP1 PUSH3 0x3B6 JUMP JUMPDEST PUSH1 0x40 MLOAD DUP1 SWAP2 SUB SWAP1 REVERT JUMPDEST POP PUSH1 0x0 PUSH3 0x307 DUP5 DUP7 PUSH3 0x40C JUMP JUMPDEST SWAP6 SWAP5 POP POP POP POP POP JUMP JUMPDEST DUP3 DUP1 SLOAD PUSH3 0x31E SWAP1 PUSH3 0x447 JUMP JUMPDEST SWAP1 PUSH1 0x0 MSTORE PUSH1 0x20 PUSH1 0x0 KECCAK256 SWAP1 PUSH1 0x1F ADD PUSH1 0x20 SWAP1 DIV DUP2 ADD SWAP3 DUP3 PUSH3 0x342 JUMPI PUSH1 0x0 DUP6 SSTORE PUSH3 0x38D JUMP JUMPDEST DUP3 PUSH1 0x1F LT PUSH3 0x35D JUMPI DUP1 MLOAD PUSH1 0xFF NOT AND DUP4 DUP1 ADD OR DUP6 SSTORE PUSH3 0x38D JUMP JUMPDEST DUP3 DUP1 ADD PUSH1 0x1 ADD DUP6 SSTORE DUP3 ISZERO PUSH3 0x38D JUMPI SWAP2 DUP3 ADD JUMPDEST DUP3 DUP2 GT ISZERO PUSH3 0x38D JUMPI DUP3 MLOAD DUP3 SSTORE SWAP2 PUSH1 0x20 ADD SWAP2 SWAP1 PUSH1 0x1 ADD SWAP1 PUSH3 0x370 JUMP JUMPDEST POP PUSH3 0x39B SWAP3 SWAP2 POP PUSH3 0x39F JUMP JUMPDEST POP SWAP1 JUMP JUMPDEST JUMPDEST DUP1 DUP3 GT ISZERO PUSH3 0x39B JUMPI PUSH1 0x0 DUP2 SSTORE PUSH1 0x1 ADD PUSH3 0x3A0 JUMP JUMPDEST PUSH1 0x0 PUSH1 0x20 DUP1 DUP4 MSTORE DUP4 MLOAD DUP1 DUP3 DUP6 ADD MSTORE DUP3 JUMPDEST DUP2 DUP2 LT ISZERO PUSH3 0x3E4 JUMPI DUP6 DUP2 ADD DUP4 ADD MLOAD DUP6 DUP3 ADD PUSH1 0x40 ADD MSTORE DUP3 ADD PUSH3 0x3C6 JUMP JUMPDEST DUP2 DUP2 GT ISZERO PUSH3 0x3F6 JUMPI DUP4 PUSH1 0x40 DUP4 DUP8 ADD ADD MSTORE JUMPDEST POP PUSH1 0x1F ADD PUSH1 0x1F NOT AND SWAP3 SWAP1 SWAP3 ADD PUSH1 0x40 ADD SWAP4 SWAP3 POP POP POP JUMP JUMPDEST PUSH1 0x0 DUP3 PUSH3 0x41E JUMPI PUSH3 0x41E PUSH3 0x49B JUMP JUMPDEST POP DIV SWAP1 JUMP JUMPDEST PUSH1 0x0 DUP3 DUP3 LT ISZERO PUSH3 0x442 JUMPI PUSH4 0x4E487B71 PUSH1 0xE0 SHL DUP2 MSTORE PUSH1 0x11 PUSH1 0x4 MSTORE PUSH1 0x24 DUP2 REVERT JUMPDEST POP SUB SWAP1 JUMP JUMPDEST PUSH1 0x2 DUP2 DIV PUSH1 0x1 DUP3 AND DUP1 PUSH3 0x45C JUMPI PUSH1 0x7F DUP3 AND SWAP2 POP JUMPDEST PUSH1 0x20 DUP3 LT DUP2 EQ ISZERO PUSH3 0x47E JUMPI PUSH4 0x4E487B71 PUSH1 0xE0 SHL PUSH1 0x0 MSTORE PUSH1 0x22 PUSH1 0x4 MSTORE PUSH1 0x24 PUSH1 0x0 REVERT JUMPDEST POP SWAP2 SWAP1 POP JUMP JUMPDEST PUSH1 0x0 DUP3 PUSH3 0x496 JUMPI PUSH3 0x496 PUSH3 0x49B JUMP JUMPDEST POP MOD SWAP1 JUMP JUMPDEST PUSH4 0x4E487B71 PUSH1 0xE0 SHL PUSH1 0x0 MSTORE PUSH1 0x12 PUSH1 0x4 MSTORE PUSH1 0x24 PUSH1 0x0 REVERT JUMPDEST PUSH2 0x1799 DUP1 PUSH3 0x4C1 PUSH1 0x0 CODECOPY PUSH1 0x0 RETURN INVALID PUSH1 0x80 PUSH1 0x40 MSTORE CALLVALUE DUP1 ISZERO PUSH2 0x10 JUMPI PUSH1 0x0 DUP1 REVERT JUMPDEST POP PUSH1 0x4 CALLDATASIZE LT PUSH2 0x1DA JUMPI PUSH1 0x0 CALLDATALOAD PUSH1 0xE0 SHR DUP1 PUSH4 0x481C6A75 GT PUSH2 0x104 JUMPI DUP1 PUSH4 0x95D89B41 GT PUSH2 0xA2 JUMPI DUP1 PUSH4 0xC4D66DE8 GT PUSH2 0x71 JUMPI DUP1 PUSH4 0xC4D66DE8 EQ PUSH2 0x401 JUMPI DUP1 PUSH4 0xD505ACCF EQ PUSH2 0x414 JUMPI DUP1 PUSH4 0xDD62ED3E EQ PUSH2 0x427 JUMPI DUP1 PUSH4 0xEE99205C EQ PUSH2 0x460 JUMPI PUSH2 0x1DA JUMP JUMPDEST DUP1 PUSH4 0x95D89B41 EQ PUSH2 0x3C0 JUMPI DUP1 PUSH4 0x9CE110D7 EQ PUSH2 0x3C8 JUMPI DUP1 PUSH4 0xA457C2D7 EQ PUSH2 0x3DB JUMPI DUP1 PUSH4 0xA9059CBB EQ PUSH2 0x3EE JUMPI PUSH2 0x1DA JUMP JUMPDEST DUP1 PUSH4 0x73C69EB7 GT PUSH2 0xDE JUMPI DUP1 PUSH4 0x73C69EB7 EQ PUSH2 0x344 JUMPI DUP1 PUSH4 0x7965D56D EQ PUSH2 0x392 JUMPI DUP1 PUSH4 0x7ECEBE00 EQ PUSH2 0x3A5 JUMPI DUP1 PUSH4 0x9358928B EQ PUSH2 0x3B8 JUMPI PUSH2 0x1DA JUMP JUMPDEST DUP1 PUSH4 0x481C6A75 EQ PUSH2 0x304 JUMPI DUP1 PUSH4 0x5A96AC0A EQ PUSH2 0x329 JUMPI DUP1 PUSH4 0x70A08231 EQ PUSH2 0x331 JUMPI PUSH2 0x1DA JUMP JUMPDEST DUP1 PUSH4 0x2986C0E5 GT PUSH2 0x17C JUMPI DUP1 PUSH4 0x3644E515 GT PUSH2 0x14B JUMPI DUP1 PUSH4 0x3644E515 EQ PUSH2 0x2C2 JUMPI DUP1 PUSH4 0x39509351 EQ PUSH2 0x2CB JUMPI DUP1 PUSH4 0x40A5737F EQ PUSH2 0x2DE JUMPI DUP1 PUSH4 0x46F68EE9 EQ PUSH2 0x2F1 JUMPI PUSH2 0x1DA JUMP JUMPDEST DUP1 PUSH4 0x2986C0E5 EQ PUSH2 0x275 JUMPI DUP1 PUSH4 0x2DF75CB1 EQ PUSH2 0x27D JUMPI DUP1 PUSH4 0x30ADF81F EQ PUSH2 0x286 JUMPI DUP1 PUSH4 0x313CE567 EQ PUSH2 0x2AD JUMPI PUSH2 0x1DA JUMP JUMPDEST DUP1 PUSH4 0x95EA7B3 GT PUSH2 0x1B8 JUMPI DUP1 PUSH4 0x95EA7B3 EQ PUSH2 0x224 JUMPI DUP1 PUSH4 0x18160DDD EQ PUSH2 0x247 JUMPI DUP1 PUSH4 0x1BD39674 EQ PUSH2 0x24F JUMPI DUP1 PUSH4 0x23B872DD EQ PUSH2 0x262 JUMPI PUSH2 0x1DA JUMP JUMPDEST DUP1 PUSH4 0x58ECDB4 EQ PUSH2 0x1DF JUMPI DUP1 PUSH4 0x6FDDE03 EQ PUSH2 0x205 JUMPI DUP1 PUSH4 0x89208D8 EQ PUSH2 0x21A JUMPI JUMPDEST PUSH1 0x0 DUP1 REVERT JUMPDEST PUSH2 0x1F2 PUSH2 0x1ED CALLDATASIZE PUSH1 0x4 PUSH2 0x15BD JUMP JUMPDEST PUSH2 0x473 JUMP JUMPDEST PUSH1 0x40 MLOAD SWAP1 DUP2 MSTORE PUSH1 0x20 ADD JUMPDEST PUSH1 0x40 MLOAD DUP1 SWAP2 SUB SWAP1 RETURN JUMPDEST PUSH2 0x20D PUSH2 0x5D3 JUMP JUMPDEST PUSH1 0x40 MLOAD PUSH2 0x1FC SWAP2 SWAP1 PUSH2 0x15DE JUMP JUMPDEST PUSH2 0x222 PUSH2 0x665 JUMP JUMPDEST STOP JUMPDEST PUSH2 0x237 PUSH2 0x232 CALLDATASIZE PUSH1 0x4 PUSH2 0x157C JUMP JUMPDEST PUSH2 0x6E2 JUMP JUMPDEST PUSH1 0x40 MLOAD SWAP1 ISZERO ISZERO DUP2 MSTORE PUSH1 0x20 ADD PUSH2 0x1FC JUMP JUMPDEST PUSH1 0x2 SLOAD PUSH2 0x1F2 JUMP JUMPDEST PUSH2 0x1F2 PUSH2 0x25D CALLDATASIZE PUSH1 0x4 PUSH2 0x15A5 JUMP JUMPDEST PUSH2 0x73C JUMP JUMPDEST PUSH2 0x237 PUSH2 0x270 CALLDATASIZE PUSH1 0x4 PUSH2 0x14D0 JUMP JUMPDEST PUSH2 0x75B JUMP JUMPDEST PUSH2 0x1F2 PUSH2 0x898 JUMP JUMPDEST PUSH2 0x1F2 PUSH1 0xD SLOAD DUP2 JUMP JUMPDEST PUSH2 0x1F2 PUSH32 0x6E71EDAE12B1B97F4D1F60370FEF10105FA2FAAE0126114A169C64845D6126C9 DUP2 JUMP JUMPDEST PUSH1 0x5 SLOAD PUSH1 0x40 MLOAD PUSH1 0xFF SWAP1 SWAP2 AND DUP2 MSTORE PUSH1 0x20 ADD PUSH2 0x1FC JUMP JUMPDEST PUSH2 0x1F2 PUSH1 0x7 SLOAD DUP2 JUMP JUMPDEST PUSH2 0x237 PUSH2 0x2D9 CALLDATASIZE PUSH1 0x4 PUSH2 0x157C JUMP JUMPDEST PUSH2 0x8AA JUMP JUMPDEST PUSH2 0x237 PUSH2 0x2EC CALLDATASIZE PUSH1 0x4 PUSH2 0x15A5 JUMP JUMPDEST PUSH2 0x91D JUMP JUMPDEST PUSH2 0x222 PUSH2 0x2FF CALLDATASIZE PUSH1 0x4 PUSH2 0x1484 JUMP JUMPDEST PUSH2 0x96B JUMP JUMPDEST PUSH1 0x8 SLOAD PUSH1 0x1 PUSH1 0x1 PUSH1 0xA0 SHL SUB AND JUMPDEST PUSH1 0x40 MLOAD PUSH1 0x1 PUSH1 0x1 PUSH1 0xA0 SHL SUB SWAP1 SWAP2 AND DUP2 MSTORE PUSH1 0x20 ADD PUSH2 0x1FC JUMP JUMPDEST PUSH2 0x222 PUSH2 0xA56 JUMP JUMPDEST PUSH2 0x1F2 PUSH2 0x33F CALLDATASIZE PUSH1 0x4 PUSH2 0x1484 JUMP JUMPDEST PUSH2 0xB1E JUMP JUMPDEST PUSH2 0x357 PUSH2 0x352 CALLDATASIZE PUSH1 0x4 PUSH2 0x15A5 JUMP JUMPDEST PUSH2 0xB46 JUMP JUMPDEST PUSH1 0x40 DUP1 MLOAD SWAP8 DUP9 MSTORE PUSH1 0x20 DUP9 ADD SWAP7 SWAP1 SWAP7 MSTORE SWAP5 DUP7 ADD SWAP4 SWAP1 SWAP4 MSTORE PUSH1 0x60 DUP6 ADD SWAP2 SWAP1 SWAP2 MSTORE PUSH1 0x80 DUP5 ADD MSTORE PUSH1 0xA0 DUP4 ADD MSTORE PUSH4 0xFFFFFFFF AND PUSH1 0xC0 DUP3 ADD MSTORE PUSH1 0xE0 ADD PUSH2 0x1FC JUMP JUMPDEST PUSH2 0x1F2 PUSH2 0x3A0 CALLDATASIZE PUSH1 0x4 PUSH2 0x15A5 JUMP JUMPDEST PUSH2 0xB9B JUMP JUMPDEST PUSH2 0x1F2 PUSH2 0x3B3 CALLDATASIZE PUSH1 0x4 PUSH2 0x1484 JUMP JUMPDEST PUSH2 0xBB2 JUMP JUMPDEST PUSH2 0x1F2 PUSH2 0xBD0 JUMP JUMPDEST PUSH2 0x20D PUSH2 0xBF5 JUMP JUMPDEST PUSH1 0xB SLOAD PUSH2 0x311 SWAP1 PUSH1 0x1 PUSH1 0x1 PUSH1 0xA0 SHL SUB AND DUP2 JUMP JUMPDEST PUSH2 0x237 PUSH2 0x3E9 CALLDATASIZE PUSH1 0x4 PUSH2 0x157C JUMP JUMPDEST PUSH2 0xC04 JUMP JUMPDEST PUSH2 0x237 PUSH2 0x3FC CALLDATASIZE PUSH1 0x4 PUSH2 0x157C JUMP JUMPDEST PUSH2 0xCDA JUMP JUMPDEST PUSH2 0x237 PUSH2 0x40F CALLDATASIZE PUSH1 0x4 PUSH2 0x1484 JUMP JUMPDEST PUSH2 0xD8C JUMP JUMPDEST PUSH2 0x222 PUSH2 0x422 CALLDATASIZE PUSH1 0x4 PUSH2 0x150B JUMP JUMPDEST PUSH2 0xEA8 JUMP JUMPDEST PUSH2 0x1F2 PUSH2 0x435 CALLDATASIZE PUSH1 0x4 PUSH2 0x149E JUMP JUMPDEST PUSH1 0x1 PUSH1 0x1 PUSH1 0xA0 SHL SUB SWAP2 DUP3 AND PUSH1 0x0 SWAP1 DUP2 MSTORE PUSH1 0x10 PUSH1 0x20 SWAP1 DUP2 MSTORE PUSH1 0x40 DUP1 DUP4 KECCAK256 SWAP4 SWAP1 SWAP5 AND DUP3 MSTORE SWAP2 SWAP1 SWAP2 MSTORE KECCAK256 SLOAD SWAP1 JUMP JUMPDEST PUSH1 0xA SLOAD PUSH2 0x311 SWAP1 PUSH1 0x1 PUSH1 0x1 PUSH1 0xA0 SHL SUB AND DUP2 JUMP JUMPDEST PUSH1 0xA SLOAD PUSH1 0x0 SWAP1 PUSH1 0x1 PUSH1 0x1 PUSH1 0xA0 SHL SUB AND CALLER EQ PUSH2 0x48D JUMPI PUSH1 0x0 DUP1 REVERT JUMPDEST PUSH1 0x0 DUP1 PUSH2 0x498 PUSH2 0xBD0 JUMP JUMPDEST SWAP1 POP DUP5 PUSH2 0x534 JUMPI DUP4 PUSH32 0x917ACFBE39BE6509CCF7FECB66A7E42CE2BE1083C2D7DD3B9B7491DABDDB8DA4 TIMESTAMP PUSH1 0x2 SLOAD PUSH1 0x40 MLOAD PUSH2 0x4DC SWAP3 SWAP2 SWAP1 SWAP2 DUP3 MSTORE PUSH1 0x20 DUP3 ADD MSTORE PUSH1 0x40 ADD SWAP1 JUMP JUMPDEST PUSH1 0x40 MLOAD DUP1 SWAP2 SUB SWAP1 LOG2 DUP4 PUSH32 0x6012DBCE857565C4A40974AA5DE8373A761FC429077EF0C8C8611D1E20D63FB2 PUSH1 0x0 PUSH2 0x510 PUSH2 0x898 JUMP JUMPDEST PUSH1 0x40 DUP1 MLOAD SWAP3 DUP4 MSTORE PUSH1 0x20 DUP4 ADD SWAP2 SWAP1 SWAP2 MSTORE ADD PUSH1 0x40 MLOAD DUP1 SWAP2 SUB SWAP1 LOG2 PUSH1 0x2 SLOAD SWAP3 POP POP POP PUSH2 0x5CD JUMP JUMPDEST DUP1 ISZERO PUSH2 0x560 JUMPI PUSH2 0x559 DUP2 PUSH2 0x553 PUSH1 0x2 SLOAD DUP9 PUSH2 0x111A SWAP1 SWAP2 SWAP1 PUSH4 0xFFFFFFFF AND JUMP JUMPDEST SWAP1 PUSH2 0x10D1 JUMP JUMPDEST SWAP2 POP PUSH2 0x564 JUMP JUMPDEST DUP5 SWAP2 POP JUMPDEST PUSH1 0x2 SLOAD PUSH2 0x571 SWAP1 DUP4 PUSH2 0x1199 JUMP JUMPDEST PUSH1 0x2 DUP2 SWAP1 SSTORE PUSH1 0x1 PUSH1 0x1 PUSH1 0x80 SHL SUB LT ISZERO PUSH2 0x590 JUMPI PUSH1 0x1 PUSH1 0x1 PUSH1 0x80 SHL SUB PUSH1 0x2 SSTORE JUMPDEST PUSH1 0x2 SLOAD PUSH2 0x5B6 SWAP1 PUSH2 0x5AA PUSH7 0x11C37937E08000 PUSH1 0x0 NOT PUSH2 0x1703 JUMP JUMPDEST PUSH2 0x553 SWAP1 PUSH1 0x0 NOT PUSH2 0x16B1 JUMP JUMPDEST PUSH1 0xE SSTORE PUSH2 0x5C4 DUP2 DUP7 DUP7 PUSH2 0x11F8 JUMP JUMPDEST POP PUSH1 0x2 SLOAD SWAP3 POP POP POP JUMPDEST SWAP3 SWAP2 POP POP JUMP JUMPDEST PUSH1 0x60 PUSH1 0x3 DUP1 SLOAD PUSH2 0x5E2 SWAP1 PUSH2 0x16C8 JUMP JUMPDEST DUP1 PUSH1 0x1F ADD PUSH1 0x20 DUP1 SWAP2 DIV MUL PUSH1 0x20 ADD PUSH1 0x40 MLOAD SWAP1 DUP2 ADD PUSH1 0x40 MSTORE DUP1 SWAP3 SWAP2 SWAP1 DUP2 DUP2 MSTORE PUSH1 0x20 ADD DUP3 DUP1 SLOAD PUSH2 0x60E SWAP1 PUSH2 0x16C8 JUMP JUMPDEST DUP1 ISZERO PUSH2 0x65B JUMPI DUP1 PUSH1 0x1F LT PUSH2 0x630 JUMPI PUSH2 0x100 DUP1 DUP4 SLOAD DIV MUL DUP4 MSTORE SWAP2 PUSH1 0x20 ADD SWAP2 PUSH2 0x65B JUMP JUMPDEST DUP3 ADD SWAP2 SWAP1 PUSH1 0x0 MSTORE PUSH1 0x20 PUSH1 0x0 KECCAK256 SWAP1 JUMPDEST DUP2 SLOAD DUP2 MSTORE SWAP1 PUSH1 0x1 ADD SWAP1 PUSH1 0x20 ADD DUP1 DUP4 GT PUSH2 0x63E JUMPI DUP3 SWAP1 SUB PUSH1 0x1F AND DUP3 ADD SWAP2 JUMPDEST POP POP POP POP POP SWAP1 POP SWAP1 JUMP JUMPDEST PUSH1 0x8 SLOAD PUSH1 0x1 PUSH1 0x1 PUSH1 0xA0 SHL SUB AND CALLER EQ PUSH2 0x698 JUMPI PUSH1 0x40 MLOAD PUSH3 0x461BCD PUSH1 0xE5 SHL DUP2 MSTORE PUSH1 0x4 ADD PUSH2 0x68F SWAP1 PUSH2 0x1631 JUMP JUMPDEST PUSH1 0x40 MLOAD DUP1 SWAP2 SUB SWAP1 REVERT JUMPDEST PUSH1 0x8 SLOAD PUSH1 0x40 MLOAD PUSH1 0x0 SWAP2 PUSH1 0x1 PUSH1 0x1 PUSH1 0xA0 SHL SUB AND SWAP1 PUSH32 0xEA8258F2D9DDB679928CF34B78CF645B7FEDA9ACC828E4DD82D014EAAE270EBA SWAP1 DUP4 SWAP1 LOG3 PUSH1 0x8 DUP1 SLOAD PUSH1 0x1 PUSH1 0x1 PUSH1 0xA0 SHL SUB NOT AND SWAP1 SSTORE JUMP JUMPDEST CALLER PUSH1 0x0 DUP2 DUP2 MSTORE PUSH1 0x10 PUSH1 0x20 SWAP1 DUP2 MSTORE PUSH1 0x40 DUP1 DUP4 KECCAK256 PUSH1 0x1 PUSH1 0x1 PUSH1 0xA0 SHL SUB DUP8 AND DUP1 DUP6 MSTORE SWAP3 MSTORE DUP1 DUP4 KECCAK256 DUP6 SWAP1 SSTORE MLOAD SWAP2 SWAP3 SWAP1 SWAP2 PUSH1 0x0 DUP1 MLOAD PUSH1 0x20 PUSH2 0x1744 DUP4 CODECOPY DUP2 MLOAD SWAP2 MSTORE SWAP1 PUSH2 0x72B SWAP1 DUP7 DUP2 MSTORE PUSH1 0x20 ADD SWAP1 JUMP JUMPDEST PUSH1 0x40 MLOAD DUP1 SWAP2 SUB SWAP1 LOG3 POP PUSH1 0x1 SWAP3 SWAP2 POP POP JUMP JUMPDEST PUSH1 0x0 PUSH2 0x753 PUSH1 0xE SLOAD DUP4 PUSH2 0x111A SWAP1 SWAP2 SWAP1 PUSH4 0xFFFFFFFF AND JUMP JUMPDEST SWAP1 POP JUMPDEST SWAP2 SWAP1 POP JUMP JUMPDEST PUSH1 0x1 PUSH1 0x1 PUSH1 0xA0 SHL SUB DUP4 AND PUSH1 0x0 SWAP1 DUP2 MSTORE PUSH1 0x10 PUSH1 0x20 SWAP1 DUP2 MSTORE PUSH1 0x40 DUP1 DUP4 KECCAK256 CALLER DUP5 MSTORE SWAP1 SWAP2 MSTORE DUP2 KECCAK256 SLOAD PUSH2 0x789 SWAP1 DUP4 PUSH2 0x1357 JUMP JUMPDEST PUSH1 0x1 PUSH1 0x1 PUSH1 0xA0 SHL SUB DUP6 AND PUSH1 0x0 DUP2 DUP2 MSTORE PUSH1 0x10 PUSH1 0x20 SWAP1 DUP2 MSTORE PUSH1 0x40 DUP1 DUP4 KECCAK256 CALLER DUP1 DUP6 MSTORE SWAP1 DUP4 MSTORE SWAP3 DUP2 SWAP1 KECCAK256 DUP6 SWAP1 SSTORE MLOAD SWAP4 DUP5 MSTORE SWAP1 SWAP3 PUSH1 0x0 DUP1 MLOAD PUSH1 0x20 PUSH2 0x1744 DUP4 CODECOPY DUP2 MLOAD SWAP2 MSTORE SWAP2 ADD PUSH1 0x40 MLOAD DUP1 SWAP2 SUB SWAP1 LOG3 PUSH1 0x0 PUSH2 0x7DC DUP4 PUSH2 0x73C JUMP JUMPDEST PUSH1 0x1 PUSH1 0x1 PUSH1 0xA0 SHL SUB DUP7 AND PUSH1 0x0 SWAP1 DUP2 MSTORE PUSH1 0xF PUSH1 0x20 MSTORE PUSH1 0x40 SWAP1 KECCAK256 SLOAD SWAP1 SWAP2 POP PUSH2 0x802 SWAP1 DUP3 PUSH2 0x1357 JUMP JUMPDEST PUSH1 0x1 PUSH1 0x1 PUSH1 0xA0 SHL SUB DUP1 DUP8 AND PUSH1 0x0 SWAP1 DUP2 MSTORE PUSH1 0xF PUSH1 0x20 MSTORE PUSH1 0x40 DUP1 DUP3 KECCAK256 SWAP4 SWAP1 SWAP4 SSTORE SWAP1 DUP7 AND DUP2 MSTORE KECCAK256 SLOAD PUSH2 0x831 SWAP1 DUP3 PUSH2 0x1199 JUMP JUMPDEST PUSH1 0x1 PUSH1 0x1 PUSH1 0xA0 SHL SUB DUP1 DUP7 AND PUSH1 0x0 DUP2 DUP2 MSTORE PUSH1 0xF PUSH1 0x20 MSTORE PUSH1 0x40 SWAP1 DUP2 SWAP1 KECCAK256 SWAP4 SWAP1 SWAP4 SSTORE SWAP2 MLOAD SWAP1 DUP8 AND SWAP1 PUSH32 0xDDF252AD1BE2C89B69C2B068FC378DAA952BA7F163C4A11628F55A4DF523B3EF SWAP1 PUSH2 0x885 SWAP1 DUP8 DUP2 MSTORE PUSH1 0x20 ADD SWAP1 JUMP JUMPDEST PUSH1 0x40 MLOAD DUP1 SWAP2 SUB SWAP1 LOG3 POP PUSH1 0x1 SWAP5 SWAP4 POP POP POP POP JUMP JUMPDEST PUSH1 0x0 PUSH2 0x8A5 PUSH1 0xD SLOAD PUSH2 0xB9B JUMP JUMPDEST SWAP1 POP SWAP1 JUMP JUMPDEST CALLER PUSH1 0x0 SWAP1 DUP2 MSTORE PUSH1 0x10 PUSH1 0x20 SWAP1 DUP2 MSTORE PUSH1 0x40 DUP1 DUP4 KECCAK256 PUSH1 0x1 PUSH1 0x1 PUSH1 0xA0 SHL SUB DUP7 AND DUP5 MSTORE SWAP1 SWAP2 MSTORE DUP2 KECCAK256 SLOAD PUSH2 0x8D8 SWAP1 DUP4 PUSH2 0x1199 JUMP JUMPDEST CALLER PUSH1 0x0 DUP2 DUP2 MSTORE PUSH1 0x10 PUSH1 0x20 SWAP1 DUP2 MSTORE PUSH1 0x40 DUP1 DUP4 KECCAK256 PUSH1 0x1 PUSH1 0x1 PUSH1 0xA0 SHL SUB DUP10 AND DUP1 DUP6 MSTORE SWAP1 DUP4 MSTORE SWAP3 DUP2 SWAP1 KECCAK256 DUP6 SWAP1 SSTORE MLOAD SWAP4 DUP5 MSTORE SWAP1 SWAP3 PUSH1 0x0 DUP1 MLOAD PUSH1 0x20 PUSH2 0x1744 DUP4 CODECOPY DUP2 MLOAD SWAP2 MSTORE SWAP2 ADD PUSH2 0x72B JUMP JUMPDEST PUSH1 0x8 SLOAD PUSH1 0x0 SWAP1 PUSH1 0x1 PUSH1 0x1 PUSH1 0xA0 SHL SUB AND CALLER EQ PUSH2 0x94A JUMPI PUSH1 0x40 MLOAD PUSH3 0x461BCD PUSH1 0xE5 SHL DUP2 MSTORE PUSH1 0x4 ADD PUSH2 0x68F SWAP1 PUSH2 0x1631 JUMP JUMPDEST PUSH1 0xD SLOAD ISZERO PUSH2 0x957 JUMPI PUSH1 0x0 DUP1 REVERT JUMPDEST PUSH2 0x960 DUP3 PUSH2 0x73C JUMP JUMPDEST PUSH1 0xD SSTORE POP PUSH1 0x1 SWAP2 SWAP1 POP JUMP JUMPDEST PUSH1 0x8 SLOAD PUSH1 0x1 PUSH1 0x1 PUSH1 0xA0 SHL SUB AND CALLER EQ PUSH2 0x995 JUMPI PUSH1 0x40 MLOAD PUSH3 0x461BCD PUSH1 0xE5 SHL DUP2 MSTORE PUSH1 0x4 ADD PUSH2 0x68F SWAP1 PUSH2 0x1631 JUMP JUMPDEST PUSH1 0x1 PUSH1 0x1 PUSH1 0xA0 SHL SUB DUP2 AND PUSH2 0x9FA JUMPI PUSH1 0x40 MLOAD PUSH3 0x461BCD PUSH1 0xE5 SHL DUP2 MSTORE PUSH1 0x20 PUSH1 0x4 DUP3 ADD MSTORE PUSH1 0x26 PUSH1 0x24 DUP3 ADD MSTORE PUSH32 0x4F776E61626C653A206E6577206F776E657220697320746865207A65726F2061 PUSH1 0x44 DUP3 ADD MSTORE PUSH6 0x646472657373 PUSH1 0xD0 SHL PUSH1 0x64 DUP3 ADD MSTORE PUSH1 0x84 ADD PUSH2 0x68F JUMP JUMPDEST PUSH1 0x8 SLOAD PUSH1 0x40 MLOAD PUSH1 0x1 PUSH1 0x1 PUSH1 0xA0 SHL SUB DUP1 DUP5 AND SWAP3 AND SWAP1 PUSH32 0xEA8258F2D9DDB679928CF34B78CF645B7FEDA9ACC828E4DD82D014EAAE270EBA SWAP1 PUSH1 0x0 SWAP1 LOG3 PUSH1 0x9 DUP1 SLOAD PUSH1 0x1 PUSH1 0x1 PUSH1 0xA0 SHL SUB NOT AND PUSH1 0x1 PUSH1 0x1 PUSH1 0xA0 SHL SUB SWAP3 SWAP1 SWAP3 AND SWAP2 SWAP1 SWAP2 OR SWAP1 SSTORE JUMP JUMPDEST PUSH1 0x9 SLOAD PUSH1 0x1 PUSH1 0x1 PUSH1 0xA0 SHL SUB AND CALLER EQ PUSH2 0xABB JUMPI PUSH1 0x40 MLOAD PUSH3 0x461BCD PUSH1 0xE5 SHL DUP2 MSTORE PUSH1 0x20 PUSH1 0x4 DUP3 ADD MSTORE PUSH1 0x22 PUSH1 0x24 DUP3 ADD MSTORE PUSH32 0x4F776E61626C653A206D757374206265206E6577206F776E657220746F207075 PUSH1 0x44 DUP3 ADD MSTORE PUSH2 0x1B1B PUSH1 0xF2 SHL PUSH1 0x64 DUP3 ADD MSTORE PUSH1 0x84 ADD PUSH2 0x68F JUMP JUMPDEST PUSH1 0x9 SLOAD PUSH1 0x8 SLOAD PUSH1 0x40 MLOAD PUSH1 0x1 PUSH1 0x1 PUSH1 0xA0 SHL SUB SWAP3 DUP4 AND SWAP3 SWAP1 SWAP2 AND SWAP1 PUSH32 0xAA151555690C956FC3EA32F106BB9F119B5237A061EAA8557CFF3E51E3792C8D SWAP1 PUSH1 0x0 SWAP1 LOG3 PUSH1 0x9 SLOAD PUSH1 0x8 DUP1 SLOAD PUSH1 0x1 PUSH1 0x1 PUSH1 0xA0 SHL SUB NOT AND PUSH1 0x1 PUSH1 0x1 PUSH1 0xA0 SHL SUB SWAP1 SWAP3 AND SWAP2 SWAP1 SWAP2 OR SWAP1 SSTORE JUMP JUMPDEST PUSH1 0xE SLOAD PUSH1 0x1 PUSH1 0x1 PUSH1 0xA0 SHL SUB DUP3 AND PUSH1 0x0 SWAP1 DUP2 MSTORE PUSH1 0xF PUSH1 0x20 MSTORE PUSH1 0x40 DUP2 KECCAK256 SLOAD SWAP1 SWAP2 PUSH2 0x753 SWAP2 SWAP1 PUSH2 0x10D1 JUMP JUMPDEST PUSH1 0xC DUP2 DUP2 SLOAD DUP2 LT PUSH2 0xB56 JUMPI PUSH1 0x0 DUP1 REVERT JUMPDEST PUSH1 0x0 SWAP2 DUP3 MSTORE PUSH1 0x20 SWAP1 SWAP2 KECCAK256 PUSH1 0x7 SWAP1 SWAP2 MUL ADD DUP1 SLOAD PUSH1 0x1 DUP3 ADD SLOAD PUSH1 0x2 DUP4 ADD SLOAD PUSH1 0x3 DUP5 ADD SLOAD PUSH1 0x4 DUP6 ADD SLOAD PUSH1 0x5 DUP7 ADD SLOAD PUSH1 0x6 SWAP1 SWAP7 ADD SLOAD SWAP5 SWAP7 POP SWAP3 SWAP5 SWAP2 SWAP4 SWAP1 SWAP3 SWAP2 SWAP1 PUSH4 0xFFFFFFFF AND DUP8 JUMP JUMPDEST PUSH1 0x0 PUSH2 0x753 PUSH1 0xE SLOAD DUP4 PUSH2 0x10D1 SWAP1 SWAP2 SWAP1 PUSH4 0xFFFFFFFF AND JUMP JUMPDEST PUSH1 0x1 PUSH1 0x1 PUSH1 0xA0 SHL SUB DUP2 AND PUSH1 0x0 SWAP1 DUP2 MSTORE PUSH1 0x6 PUSH1 0x20 MSTORE PUSH1 0x40 DUP2 KECCAK256 SLOAD PUSH2 0x753 JUMP JUMPDEST PUSH1 0xA SLOAD PUSH1 0x0 SWAP1 PUSH2 0x8A5 SWAP1 PUSH2 0xBEC SWAP1 PUSH1 0x1 PUSH1 0x1 PUSH1 0xA0 SHL SUB AND PUSH2 0xB1E JUMP JUMPDEST PUSH1 0x2 SLOAD SWAP1 PUSH2 0x1357 JUMP JUMPDEST PUSH1 0x60 PUSH1 0x4 DUP1 SLOAD PUSH2 0x5E2 SWAP1 PUSH2 0x16C8 JUMP JUMPDEST CALLER PUSH1 0x0 SWAP1 DUP2 MSTORE PUSH1 0x10 PUSH1 0x20 SWAP1 DUP2 MSTORE PUSH1 0x40 DUP1 DUP4 KECCAK256 PUSH1 0x1 PUSH1 0x1 PUSH1 0xA0 SHL SUB DUP7 AND DUP5 MSTORE SWAP1 SWAP2 MSTORE DUP2 KECCAK256 SLOAD DUP1 DUP4 LT PUSH2 0xC58 JUMPI CALLER PUSH1 0x0 SWAP1 DUP2 MSTORE PUSH1 0x10 PUSH1 0x20 SWAP1 DUP2 MSTORE PUSH1 0x40 DUP1 DUP4 KECCAK256 PUSH1 0x1 PUSH1 0x1 PUSH1 0xA0 SHL SUB DUP9 AND DUP5 MSTORE SWAP1 SWAP2 MSTORE DUP2 KECCAK256 SSTORE PUSH2 0xC87 JUMP JUMPDEST PUSH2 0xC62 DUP2 DUP5 PUSH2 0x1357 JUMP JUMPDEST CALLER PUSH1 0x0 SWAP1 DUP2 MSTORE PUSH1 0x10 PUSH1 0x20 SWAP1 DUP2 MSTORE PUSH1 0x40 DUP1 DUP4 KECCAK256 PUSH1 0x1 PUSH1 0x1 PUSH1 0xA0 SHL SUB DUP10 AND DUP5 MSTORE SWAP1 SWAP2 MSTORE SWAP1 KECCAK256 SSTORE JUMPDEST CALLER PUSH1 0x0 DUP2 DUP2 MSTORE PUSH1 0x10 PUSH1 0x20 SWAP1 DUP2 MSTORE PUSH1 0x40 DUP1 DUP4 KECCAK256 PUSH1 0x1 PUSH1 0x1 PUSH1 0xA0 SHL SUB DUP10 AND DUP1 DUP6 MSTORE SWAP1 DUP4 MSTORE SWAP3 DUP2 SWAP1 KECCAK256 SLOAD SWAP1 MLOAD SWAP1 DUP2 MSTORE SWAP2 SWAP3 SWAP2 PUSH1 0x0 DUP1 MLOAD PUSH1 0x20 PUSH2 0x1744 DUP4 CODECOPY DUP2 MLOAD SWAP2 MSTORE SWAP2 ADD JUMPDEST PUSH1 0x40 MLOAD DUP1 SWAP2 SUB SWAP1 LOG3 POP PUSH1 0x1 SWAP4 SWAP3 POP POP POP JUMP JUMPDEST PUSH1 0x0 DUP1 PUSH2 0xCF2 PUSH1 0xE SLOAD DUP5 PUSH2 0x111A SWAP1 SWAP2 SWAP1 PUSH4 0xFFFFFFFF AND JUMP JUMPDEST CALLER PUSH1 0x0 SWAP1 DUP2 MSTORE PUSH1 0xF PUSH1 0x20 MSTORE PUSH1 0x40 SWAP1 KECCAK256 SLOAD SWAP1 SWAP2 POP PUSH2 0xD0F SWAP1 DUP3 PUSH2 0x1357 JUMP JUMPDEST CALLER PUSH1 0x0 SWAP1 DUP2 MSTORE PUSH1 0xF PUSH1 0x20 MSTORE PUSH1 0x40 DUP1 DUP3 KECCAK256 SWAP3 SWAP1 SWAP3 SSTORE PUSH1 0x1 PUSH1 0x1 PUSH1 0xA0 SHL SUB DUP7 AND DUP2 MSTORE KECCAK256 SLOAD PUSH2 0xD3B SWAP1 DUP3 PUSH2 0x1199 JUMP JUMPDEST PUSH1 0x1 PUSH1 0x1 PUSH1 0xA0 SHL SUB DUP6 AND PUSH1 0x0 DUP2 DUP2 MSTORE PUSH1 0xF PUSH1 0x20 MSTORE PUSH1 0x40 SWAP1 DUP2 SWAP1 KECCAK256 SWAP3 SWAP1 SWAP3 SSTORE SWAP1 MLOAD CALLER SWAP1 PUSH32 0xDDF252AD1BE2C89B69C2B068FC378DAA952BA7F163C4A11628F55A4DF523B3EF SWAP1 PUSH2 0xCC8 SWAP1 DUP8 DUP2 MSTORE PUSH1 0x20 ADD SWAP1 JUMP JUMPDEST PUSH1 0xB SLOAD PUSH1 0x0 SWAP1 PUSH1 0x1 PUSH1 0x1 PUSH1 0xA0 SHL SUB AND CALLER EQ PUSH2 0xDA6 JUMPI PUSH1 0x0 DUP1 REVERT JUMPDEST PUSH1 0x1 PUSH1 0x1 PUSH1 0xA0 SHL SUB DUP3 AND PUSH2 0xDB9 JUMPI PUSH1 0x0 DUP1 REVERT JUMPDEST PUSH1 0xA DUP1 SLOAD PUSH1 0x1 PUSH1 0x1 PUSH1 0xA0 SHL SUB NOT AND PUSH1 0x1 PUSH1 0x1 PUSH1 0xA0 SHL SUB DUP5 AND OR SWAP1 SSTORE PUSH2 0xDE7 PUSH7 0x11C37937E08000 PUSH1 0x0 NOT PUSH2 0x1703 JUMP JUMPDEST PUSH2 0xDF3 SWAP1 PUSH1 0x0 NOT PUSH2 0x16B1 JUMP JUMPDEST PUSH1 0xA DUP1 SLOAD PUSH1 0x1 PUSH1 0x1 PUSH1 0xA0 SHL SUB SWAP1 DUP2 AND PUSH1 0x0 SWAP1 DUP2 MSTORE PUSH1 0xF PUSH1 0x20 MSTORE PUSH1 0x40 DUP1 DUP3 KECCAK256 SWAP5 SWAP1 SWAP5 SSTORE SWAP2 SLOAD PUSH1 0x2 SLOAD SWAP4 MLOAD SWAP2 AND SWAP3 PUSH32 0xDDF252AD1BE2C89B69C2B068FC378DAA952BA7F163C4A11628F55A4DF523B3EF SWAP2 PUSH2 0xE4D SWAP2 DUP2 MSTORE PUSH1 0x20 ADD SWAP1 JUMP JUMPDEST PUSH1 0x40 MLOAD DUP1 SWAP2 SUB SWAP1 LOG3 PUSH1 0x40 MLOAD PUSH1 0x1 PUSH1 0x1 PUSH1 0xA0 SHL SUB DUP4 AND DUP2 MSTORE PUSH32 0x817C653428858ED536DC085C5D8273734C517B55DE44B55F5C5877A75E3373A1 SWAP1 PUSH1 0x20 ADD PUSH1 0x40 MLOAD DUP1 SWAP2 SUB SWAP1 LOG1 POP POP PUSH1 0xB DUP1 SLOAD PUSH1 0x1 PUSH1 0x1 PUSH1 0xA0 SHL SUB NOT AND SWAP1 SSTORE PUSH1 0x1 SWAP1 JUMP JUMPDEST DUP4 TIMESTAMP GT ISZERO PUSH2 0xEF8 JUMPI PUSH1 0x40 MLOAD PUSH3 0x461BCD PUSH1 0xE5 SHL DUP2 MSTORE PUSH1 0x20 PUSH1 0x4 DUP3 ADD MSTORE PUSH1 0x18 PUSH1 0x24 DUP3 ADD MSTORE PUSH32 0x5065726D69743A206578706972656420646561646C696E650000000000000000 PUSH1 0x44 DUP3 ADD MSTORE PUSH1 0x64 ADD PUSH2 0x68F JUMP JUMPDEST PUSH1 0x1 PUSH1 0x1 PUSH1 0xA0 SHL SUB DUP8 DUP2 AND PUSH1 0x0 DUP2 DUP2 MSTORE PUSH1 0x6 PUSH1 0x20 SWAP1 DUP2 MSTORE PUSH1 0x40 DUP1 DUP4 KECCAK256 SLOAD DUP2 MLOAD PUSH32 0x6E71EDAE12B1B97F4D1F60370FEF10105FA2FAAE0126114A169C64845D6126C9 DUP2 DUP6 ADD MSTORE DUP1 DUP4 ADD SWAP6 SWAP1 SWAP6 MSTORE SWAP5 DUP12 AND PUSH1 0x60 DUP6 ADD MSTORE PUSH1 0x80 DUP5 ADD DUP11 SWAP1 MSTORE PUSH1 0xA0 DUP5 ADD SWAP5 SWAP1 SWAP5 MSTORE PUSH1 0xC0 DUP1 DUP5 ADD DUP10 SWAP1 MSTORE DUP5 MLOAD DUP1 DUP6 SUB SWAP1 SWAP2 ADD DUP2 MSTORE PUSH1 0xE0 DUP5 ADD DUP6 MSTORE DUP1 MLOAD SWAP1 DUP3 ADD KECCAK256 PUSH1 0x7 SLOAD PUSH2 0x1901 PUSH1 0xF0 SHL PUSH2 0x100 DUP7 ADD MSTORE PUSH2 0x102 DUP6 ADD MSTORE PUSH2 0x122 DUP1 DUP6 ADD DUP3 SWAP1 MSTORE DUP6 MLOAD DUP1 DUP7 SUB SWAP1 SWAP2 ADD DUP2 MSTORE PUSH2 0x142 DUP6 ADD DUP1 DUP8 MSTORE DUP2 MLOAD SWAP2 DUP5 ADD SWAP2 SWAP1 SWAP2 KECCAK256 SWAP1 DUP5 SWAP1 MSTORE PUSH2 0x162 DUP6 ADD DUP1 DUP8 MSTORE DUP2 SWAP1 MSTORE PUSH1 0xFF DUP10 AND PUSH2 0x182 DUP7 ADD MSTORE PUSH2 0x1A2 DUP6 ADD DUP9 SWAP1 MSTORE PUSH2 0x1C2 DUP6 ADD DUP8 SWAP1 MSTORE SWAP5 MLOAD SWAP1 SWAP5 SWAP4 PUSH1 0x1 SWAP3 PUSH2 0x1E2 DUP1 DUP4 ADD SWAP4 SWAP2 SWAP3 PUSH1 0x1F NOT DUP4 ADD SWAP3 SWAP1 DUP2 SWAP1 SUB SWAP1 SWAP2 ADD SWAP1 DUP6 GAS STATICCALL ISZERO DUP1 ISZERO PUSH2 0x100D JUMPI RETURNDATASIZE PUSH1 0x0 DUP1 RETURNDATACOPY RETURNDATASIZE PUSH1 0x0 REVERT JUMPDEST POP POP PUSH1 0x40 MLOAD PUSH1 0x1F NOT ADD MLOAD SWAP2 POP POP PUSH1 0x1 PUSH1 0x1 PUSH1 0xA0 SHL SUB DUP2 AND ISZERO DUP1 ISZERO SWAP1 PUSH2 0x1043 JUMPI POP DUP10 PUSH1 0x1 PUSH1 0x1 PUSH1 0xA0 SHL SUB AND DUP2 PUSH1 0x1 PUSH1 0x1 PUSH1 0xA0 SHL SUB AND EQ JUMPDEST PUSH2 0x1099 JUMPI PUSH1 0x40 MLOAD PUSH3 0x461BCD PUSH1 0xE5 SHL DUP2 MSTORE PUSH1 0x20 PUSH1 0x4 DUP3 ADD MSTORE PUSH1 0x21 PUSH1 0x24 DUP3 ADD MSTORE PUSH32 0x5A65726F537761705065726D69743A20496E76616C6964207369676E61747572 PUSH1 0x44 DUP3 ADD MSTORE PUSH1 0x65 PUSH1 0xF8 SHL PUSH1 0x64 DUP3 ADD MSTORE PUSH1 0x84 ADD PUSH2 0x68F JUMP JUMPDEST PUSH1 0x1 PUSH1 0x1 PUSH1 0xA0 SHL SUB DUP11 AND PUSH1 0x0 SWAP1 DUP2 MSTORE PUSH1 0x6 PUSH1 0x20 MSTORE PUSH1 0x40 SWAP1 KECCAK256 PUSH2 0x10BA SWAP1 PUSH2 0x1399 JUMP JUMPDEST PUSH2 0x10C5 DUP11 DUP11 DUP11 PUSH2 0x13B6 JUMP JUMPDEST POP POP POP POP POP POP POP POP POP POP JUMP JUMPDEST PUSH1 0x0 PUSH2 0x1113 DUP4 DUP4 PUSH1 0x40 MLOAD DUP1 PUSH1 0x40 ADD PUSH1 0x40 MSTORE DUP1 PUSH1 0x1A DUP2 MSTORE PUSH1 0x20 ADD PUSH32 0x536166654D6174683A206469766973696F6E206279207A65726F000000000000 DUP2 MSTORE POP PUSH2 0x1405 JUMP JUMPDEST SWAP4 SWAP3 POP POP POP JUMP JUMPDEST PUSH1 0x0 DUP3 PUSH2 0x1129 JUMPI POP PUSH1 0x0 PUSH2 0x5CD JUMP JUMPDEST PUSH1 0x0 PUSH2 0x1135 DUP4 DUP6 PUSH2 0x1692 JUMP JUMPDEST SWAP1 POP DUP3 PUSH2 0x1142 DUP6 DUP4 PUSH2 0x167E JUMP JUMPDEST EQ PUSH2 0x1113 JUMPI PUSH1 0x40 MLOAD PUSH3 0x461BCD PUSH1 0xE5 SHL DUP2 MSTORE PUSH1 0x20 PUSH1 0x4 DUP3 ADD MSTORE PUSH1 0x21 PUSH1 0x24 DUP3 ADD MSTORE PUSH32 0x536166654D6174683A206D756C7469706C69636174696F6E206F766572666C6F PUSH1 0x44 DUP3 ADD MSTORE PUSH1 0x77 PUSH1 0xF8 SHL PUSH1 0x64 DUP3 ADD MSTORE PUSH1 0x84 ADD PUSH2 0x68F JUMP JUMPDEST PUSH1 0x0 DUP1 PUSH2 0x11A6 DUP4 DUP6 PUSH2 0x1666 JUMP JUMPDEST SWAP1 POP DUP4 DUP2 LT ISZERO PUSH2 0x1113 JUMPI PUSH1 0x40 MLOAD PUSH3 0x461BCD PUSH1 0xE5 SHL DUP2 MSTORE PUSH1 0x20 PUSH1 0x4 DUP3 ADD MSTORE PUSH1 0x1B PUSH1 0x24 DUP3 ADD MSTORE PUSH32 0x536166654D6174683A206164646974696F6E206F766572666C6F770000000000 PUSH1 0x44 DUP3 ADD MSTORE PUSH1 0x64 ADD PUSH2 0x68F JUMP JUMPDEST PUSH1 0x0 DUP1 PUSH2 0x1211 DUP6 PUSH2 0x553 DUP7 PUSH8 0xDE0B6B3A7640000 PUSH2 0x111A JUMP JUMPDEST SWAP1 POP PUSH1 0xC PUSH1 0x40 MLOAD DUP1 PUSH1 0xE0 ADD PUSH1 0x40 MSTORE DUP1 DUP6 DUP2 MSTORE PUSH1 0x20 ADD DUP4 DUP2 MSTORE PUSH1 0x20 ADD DUP8 DUP2 MSTORE PUSH1 0x20 ADD PUSH2 0x123A PUSH2 0xBD0 JUMP JUMPDEST DUP2 MSTORE PUSH1 0x20 ADD DUP7 DUP2 MSTORE PUSH1 0x20 ADD PUSH2 0x124D PUSH2 0x898 JUMP JUMPDEST DUP2 MSTORE TIMESTAMP PUSH4 0xFFFFFFFF DUP2 DUP2 AND PUSH1 0x20 SWAP4 DUP5 ADD MSTORE DUP5 SLOAD PUSH1 0x1 DUP1 DUP3 ADD DUP8 SSTORE PUSH1 0x0 SWAP7 DUP8 MSTORE SWAP6 DUP5 SWAP1 KECCAK256 DUP6 MLOAD PUSH1 0x7 SWAP1 SWAP3 MUL ADD SWAP1 DUP2 SSTORE DUP5 DUP5 ADD MLOAD SWAP6 DUP2 ADD SWAP6 SWAP1 SWAP6 SSTORE PUSH1 0x40 DUP1 DUP6 ADD MLOAD PUSH1 0x2 DUP1 DUP9 ADD SWAP2 SWAP1 SWAP2 SSTORE PUSH1 0x60 DUP7 ADD MLOAD PUSH1 0x3 DUP9 ADD SSTORE PUSH1 0x80 DUP7 ADD MLOAD PUSH1 0x4 DUP9 ADD SSTORE PUSH1 0xA0 DUP7 ADD MLOAD PUSH1 0x5 DUP9 ADD SSTORE PUSH1 0xC0 SWAP1 SWAP6 ADD MLOAD PUSH1 0x6 SWAP1 SWAP7 ADD DUP1 SLOAD PUSH4 0xFFFFFFFF NOT AND SWAP7 SWAP1 SWAP3 AND SWAP6 SWAP1 SWAP6 OR SWAP1 SSTORE SWAP2 SLOAD DUP4 MLOAD SWAP3 DUP4 MSTORE SWAP1 DUP3 ADD MSTORE DUP5 SWAP2 PUSH32 0x917ACFBE39BE6509CCF7FECB66A7E42CE2BE1083C2D7DD3B9B7491DABDDB8DA4 SWAP2 ADD PUSH1 0x40 MLOAD DUP1 SWAP2 SUB SWAP1 LOG2 DUP3 PUSH32 0x6012DBCE857565C4A40974AA5DE8373A761FC429077EF0C8C8611D1E20D63FB2 DUP3 PUSH2 0x1334 PUSH2 0x898 JUMP JUMPDEST PUSH1 0x40 DUP1 MLOAD SWAP3 DUP4 MSTORE PUSH1 0x20 DUP4 ADD SWAP2 SWAP1 SWAP2 MSTORE ADD PUSH1 0x40 MLOAD DUP1 SWAP2 SUB SWAP1 LOG2 POP PUSH1 0x1 SWAP5 SWAP4 POP POP POP POP JUMP JUMPDEST PUSH1 0x0 PUSH2 0x1113 DUP4 DUP4 PUSH1 0x40 MLOAD DUP1 PUSH1 0x40 ADD PUSH1 0x40 MSTORE DUP1 PUSH1 0x1E DUP2 MSTORE PUSH1 0x20 ADD PUSH32 0x536166654D6174683A207375627472616374696F6E206F766572666C6F770000 DUP2 MSTORE POP PUSH2 0x143C JUMP JUMPDEST PUSH1 0x1 DUP2 PUSH1 0x0 ADD PUSH1 0x0 DUP3 DUP3 SLOAD PUSH2 0x13AE SWAP2 SWAP1 PUSH2 0x1666 JUMP JUMPDEST SWAP1 SWAP2 SSTORE POP POP POP JUMP JUMPDEST PUSH1 0x1 PUSH1 0x1 PUSH1 0xA0 SHL SUB DUP4 DUP2 AND PUSH1 0x0 DUP2 DUP2 MSTORE PUSH1 0x10 PUSH1 0x20 SWAP1 DUP2 MSTORE PUSH1 0x40 DUP1 DUP4 KECCAK256 SWAP5 DUP8 AND DUP1 DUP5 MSTORE SWAP5 DUP3 MSTORE SWAP2 DUP3 SWAP1 KECCAK256 DUP6 SWAP1 SSTORE SWAP1 MLOAD DUP5 DUP2 MSTORE PUSH1 0x0 DUP1 MLOAD PUSH1 0x20 PUSH2 0x1744 DUP4 CODECOPY DUP2 MLOAD SWAP2 MSTORE SWAP2 ADD PUSH1 0x40 MLOAD DUP1 SWAP2 SUB SWAP1 LOG3 POP POP POP JUMP JUMPDEST PUSH1 0x0 DUP2 DUP4 PUSH2 0x1426 JUMPI PUSH1 0x40 MLOAD PUSH3 0x461BCD PUSH1 0xE5 SHL DUP2 MSTORE PUSH1 0x4 ADD PUSH2 0x68F SWAP2 SWAP1 PUSH2 0x15DE JUMP JUMPDEST POP PUSH1 0x0 PUSH2 0x1433 DUP5 DUP7 PUSH2 0x167E JUMP JUMPDEST SWAP6 SWAP5 POP POP POP POP POP JUMP JUMPDEST PUSH1 0x0 DUP2 DUP5 DUP5 GT ISZERO PUSH2 0x1460 JUMPI PUSH1 0x40 MLOAD PUSH3 0x461BCD PUSH1 0xE5 SHL DUP2 MSTORE PUSH1 0x4 ADD PUSH2 0x68F SWAP2 SWAP1 PUSH2 0x15DE JUMP JUMPDEST POP PUSH1 0x0 PUSH2 0x1433 DUP5 DUP7 PUSH2 0x16B1 JUMP JUMPDEST DUP1 CALLDATALOAD PUSH1 0x1 PUSH1 0x1 PUSH1 0xA0 SHL SUB DUP2 AND DUP2 EQ PUSH2 0x756 JUMPI PUSH1 0x0 DUP1 REVERT JUMPDEST PUSH1 0x0 PUSH1 0x20 DUP3 DUP5 SUB SLT ISZERO PUSH2 0x1495 JUMPI DUP1 DUP2 REVERT JUMPDEST PUSH2 0x1113 DUP3 PUSH2 0x146D JUMP JUMPDEST PUSH1 0x0 DUP1 PUSH1 0x40 DUP4 DUP6 SUB SLT ISZERO PUSH2 0x14B0 JUMPI DUP1 DUP2 REVERT JUMPDEST PUSH2 0x14B9 DUP4 PUSH2 0x146D JUMP JUMPDEST SWAP2 POP PUSH2 0x14C7 PUSH1 0x20 DUP5 ADD PUSH2 0x146D JUMP JUMPDEST SWAP1 POP SWAP3 POP SWAP3 SWAP1 POP JUMP JUMPDEST PUSH1 0x0 DUP1 PUSH1 0x0 PUSH1 0x60 DUP5 DUP7 SUB SLT ISZERO PUSH2 0x14E4 JUMPI DUP1 DUP2 REVERT JUMPDEST PUSH2 0x14ED DUP5 PUSH2 0x146D JUMP JUMPDEST SWAP3 POP PUSH2 0x14FB PUSH1 0x20 DUP6 ADD PUSH2 0x146D JUMP JUMPDEST SWAP2 POP PUSH1 0x40 DUP5 ADD CALLDATALOAD SWAP1 POP SWAP3 POP SWAP3 POP SWAP3 JUMP JUMPDEST PUSH1 0x0 DUP1 PUSH1 0x0 DUP1 PUSH1 0x0 DUP1 PUSH1 0x0 PUSH1 0xE0 DUP9 DUP11 SUB SLT ISZERO PUSH2 0x1525 JUMPI DUP3 DUP4 REVERT JUMPDEST PUSH2 0x152E DUP9 PUSH2 0x146D JUMP JUMPDEST SWAP7 POP PUSH2 0x153C PUSH1 0x20 DUP10 ADD PUSH2 0x146D JUMP JUMPDEST SWAP6 POP PUSH1 0x40 DUP9 ADD CALLDATALOAD SWAP5 POP PUSH1 0x60 DUP9 ADD CALLDATALOAD SWAP4 POP PUSH1 0x80 DUP9 ADD CALLDATALOAD PUSH1 0xFF DUP2 AND DUP2 EQ PUSH2 0x155F JUMPI DUP4 DUP5 REVERT JUMPDEST SWAP7 SWAP10 SWAP6 SWAP9 POP SWAP4 SWAP7 SWAP3 SWAP6 SWAP5 PUSH1 0xA0 DUP5 ADD CALLDATALOAD SWAP5 POP PUSH1 0xC0 SWAP1 SWAP4 ADD CALLDATALOAD SWAP3 SWAP2 POP POP JUMP JUMPDEST PUSH1 0x0 DUP1 PUSH1 0x40 DUP4 DUP6 SUB SLT ISZERO PUSH2 0x158E JUMPI DUP2 DUP3 REVERT JUMPDEST PUSH2 0x1597 DUP4 PUSH2 0x146D JUMP JUMPDEST SWAP5 PUSH1 0x20 SWAP4 SWAP1 SWAP4 ADD CALLDATALOAD SWAP4 POP POP POP JUMP JUMPDEST PUSH1 0x0 PUSH1 0x20 DUP3 DUP5 SUB SLT ISZERO PUSH2 0x15B6 JUMPI DUP1 DUP2 REVERT JUMPDEST POP CALLDATALOAD SWAP2 SWAP1 POP JUMP JUMPDEST PUSH1 0x0 DUP1 PUSH1 0x40 DUP4 DUP6 SUB SLT ISZERO PUSH2 0x15CF JUMPI DUP2 DUP3 REVERT JUMPDEST POP POP DUP1 CALLDATALOAD SWAP3 PUSH1 0x20 SWAP1 SWAP2 ADD CALLDATALOAD SWAP2 POP JUMP JUMPDEST PUSH1 0x0 PUSH1 0x20 DUP1 DUP4 MSTORE DUP4 MLOAD DUP1 DUP3 DUP6 ADD MSTORE DUP3 JUMPDEST DUP2 DUP2 LT ISZERO PUSH2 0x160A JUMPI DUP6 DUP2 ADD DUP4 ADD MLOAD DUP6 DUP3 ADD PUSH1 0x40 ADD MSTORE DUP3 ADD PUSH2 0x15EE JUMP JUMPDEST DUP2 DUP2 GT ISZERO PUSH2 0x161B JUMPI DUP4 PUSH1 0x40 DUP4 DUP8 ADD ADD MSTORE JUMPDEST POP PUSH1 0x1F ADD PUSH1 0x1F NOT AND SWAP3 SWAP1 SWAP3 ADD PUSH1 0x40 ADD SWAP4 SWAP3 POP POP POP JUMP JUMPDEST PUSH1 0x20 DUP1 DUP3 MSTORE DUP2 DUP2 ADD MSTORE PUSH32 0x4F776E61626C653A2063616C6C6572206973206E6F7420746865206F776E6572 PUSH1 0x40 DUP3 ADD MSTORE PUSH1 0x60 ADD SWAP1 JUMP JUMPDEST PUSH1 0x0 DUP3 NOT DUP3 GT ISZERO PUSH2 0x1679 JUMPI PUSH2 0x1679 PUSH2 0x1717 JUMP JUMPDEST POP ADD SWAP1 JUMP JUMPDEST PUSH1 0x0 DUP3 PUSH2 0x168D JUMPI PUSH2 0x168D PUSH2 0x172D JUMP JUMPDEST POP DIV SWAP1 JUMP JUMPDEST PUSH1 0x0 DUP2 PUSH1 0x0 NOT DIV DUP4 GT DUP3 ISZERO ISZERO AND ISZERO PUSH2 0x16AC JUMPI PUSH2 0x16AC PUSH2 0x1717 JUMP JUMPDEST POP MUL SWAP1 JUMP JUMPDEST PUSH1 0x0 DUP3 DUP3 LT ISZERO PUSH2 0x16C3 JUMPI PUSH2 0x16C3 PUSH2 0x1717 JUMP JUMPDEST POP SUB SWAP1 JUMP JUMPDEST PUSH1 0x2 DUP2 DIV PUSH1 0x1 DUP3 AND DUP1 PUSH2 0x16DC JUMPI PUSH1 0x7F DUP3 AND SWAP2 POP JUMPDEST PUSH1 0x20 DUP3 LT DUP2 EQ ISZERO PUSH2 0x16FD JUMPI PUSH4 0x4E487B71 PUSH1 0xE0 SHL PUSH1 0x0 MSTORE PUSH1 0x22 PUSH1 0x4 MSTORE PUSH1 0x24 PUSH1 0x0 REVERT JUMPDEST POP SWAP2 SWAP1 POP JUMP JUMPDEST PUSH1 0x0 DUP3 PUSH2 0x1712 JUMPI PUSH2 0x1712 PUSH2 0x172D JUMP JUMPDEST POP MOD SWAP1 JUMP JUMPDEST PUSH4 0x4E487B71 PUSH1 0xE0 SHL PUSH1 0x0 MSTORE PUSH1 0x11 PUSH1 0x4 MSTORE PUSH1 0x24 PUSH1 0x0 REVERT JUMPDEST PUSH4 0x4E487B71 PUSH1 0xE0 SHL PUSH1 0x0 MSTORE PUSH1 0x12 PUSH1 0x4 MSTORE PUSH1 0x24 PUSH1 0x0 REVERT INVALID DUP13 JUMPDEST 0xE1 0xE5 0xEB 0xEC PUSH30 0x5BD14F71427D1E84F3DD0314C0F7B2291E5B200AC8C7C3B925A264697066 PUSH20 0x58221220A4D732374DBE39FD06A182B041FF3771 0x29 0xA8 0xE6 0xD9 0xE2 0x49 PUSH3 0x9E1549 DUP12 PUSH28 0xE4225B164736F6C6343000802003300000000000000000000000000 "
        },
        "gasEstimates": {
          "creation": {
            "codeDepositCost": "1208200",
            "executionCost": "infinite",
            "totalCost": "infinite"
          },
          "external": {
            "DOMAIN_SEPARATOR()": "1029",
            "INDEX()": "1052",
            "PERMIT_TYPEHASH()": "274",
            "allowance(address,address)": "infinite",
            "approve(address,uint256)": "infinite",
            "balanceForGons(uint256)": "infinite",
            "balanceOf(address)": "infinite",
            "circulatingSupply()": "infinite",
            "decimals()": "1101",
            "decreaseAllowance(address,uint256)": "infinite",
            "gonsForBalance(uint256)": "infinite",
            "increaseAllowance(address,uint256)": "infinite",
            "index()": "infinite",
            "initialize(address)": "68528",
            "initializer()": "1104",
            "manager()": "1066",
            "name()": "infinite",
            "nonces(address)": "infinite",
            "permit(address,address,uint256,uint256,uint8,bytes32,bytes32)": "infinite",
            "pullManagement()": "25884",
            "pushManagement(address)": "24511",
            "rebase(uint256,uint256)": "infinite",
            "rebases(uint256)": "7053",
            "renounceManagement()": "24253",
            "setIndex(uint256)": "infinite",
            "stakingContract()": "1147",
            "symbol()": "infinite",
            "totalSupply()": "1049",
            "transfer(address,uint256)": "infinite",
            "transferFrom(address,address,uint256)": "infinite"
          },
          "internal": {
            "_approve(address,address,uint256)": "infinite",
            "_storeRebase(uint256,uint256,uint256)": "infinite"
          }
        },
        "methodIdentifiers": {
          "DOMAIN_SEPARATOR()": "3644e515",
          "INDEX()": "2df75cb1",
          "PERMIT_TYPEHASH()": "30adf81f",
          "allowance(address,address)": "dd62ed3e",
          "approve(address,uint256)": "095ea7b3",
          "balanceForGons(uint256)": "7965d56d",
          "balanceOf(address)": "70a08231",
          "circulatingSupply()": "9358928b",
          "decimals()": "313ce567",
          "decreaseAllowance(address,uint256)": "a457c2d7",
          "gonsForBalance(uint256)": "1bd39674",
          "increaseAllowance(address,uint256)": "39509351",
          "index()": "2986c0e5",
          "initialize(address)": "c4d66de8",
          "initializer()": "9ce110d7",
          "manager()": "481c6a75",
          "name()": "06fdde03",
          "nonces(address)": "7ecebe00",
          "permit(address,address,uint256,uint256,uint8,bytes32,bytes32)": "d505accf",
          "pullManagement()": "5a96ac0a",
          "pushManagement(address)": "46f68ee9",
          "rebase(uint256,uint256)": "058ecdb4",
          "rebases(uint256)": "73c69eb7",
          "renounceManagement()": "089208d8",
          "setIndex(uint256)": "40a5737f",
          "stakingContract()": "ee99205c",
          "symbol()": "95d89b41",
          "totalSupply()": "18160ddd",
          "transfer(address,uint256)": "a9059cbb",
          "transferFrom(address,address,uint256)": "23b872dd"
        }
      },
      "storageLayout": {
        "storage": [
          {
            "astId": 910,
            "contract": "contracts/mock-memo.sol:MEMOries",
            "label": "_balances",
            "offset": 0,
            "slot": "0",
            "type": "t_mapping(t_address,t_uint256)"
          },
          {
            "astId": 916,
            "contract": "contracts/mock-memo.sol:MEMOries",
            "label": "_allowances",
            "offset": 0,
            "slot": "1",
            "type": "t_mapping(t_address,t_mapping(t_address,t_uint256))"
          },
          {
            "astId": 918,
            "contract": "contracts/mock-memo.sol:MEMOries",
            "label": "_totalSupply",
            "offset": 0,
            "slot": "2",
            "type": "t_uint256"
          },
          {
            "astId": 920,
            "contract": "contracts/mock-memo.sol:MEMOries",
            "label": "_name",
            "offset": 0,
            "slot": "3",
            "type": "t_string_storage"
          },
          {
            "astId": 922,
            "contract": "contracts/mock-memo.sol:MEMOries",
            "label": "_symbol",
            "offset": 0,
            "slot": "4",
            "type": "t_string_storage"
          },
          {
            "astId": 924,
            "contract": "contracts/mock-memo.sol:MEMOries",
            "label": "_decimals",
            "offset": 0,
            "slot": "5",
            "type": "t_uint8"
          },
          {
            "astId": 1476,
            "contract": "contracts/mock-memo.sol:MEMOries",
            "label": "_nonces",
            "offset": 0,
            "slot": "6",
            "type": "t_mapping(t_address,t_struct(Counter)1393_storage)"
          },
          {
            "astId": 1481,
            "contract": "contracts/mock-memo.sol:MEMOries",
            "label": "DOMAIN_SEPARATOR",
            "offset": 0,
            "slot": "7",
            "type": "t_bytes32"
          },
          {
            "astId": 1651,
            "contract": "contracts/mock-memo.sol:MEMOries",
            "label": "_owner",
            "offset": 0,
            "slot": "8",
            "type": "t_address"
          },
          {
            "astId": 1653,
            "contract": "contracts/mock-memo.sol:MEMOries",
            "label": "_newOwner",
            "offset": 0,
            "slot": "9",
            "type": "t_address"
          },
          {
            "astId": 1796,
            "contract": "contracts/mock-memo.sol:MEMOries",
            "label": "stakingContract",
            "offset": 0,
            "slot": "10",
            "type": "t_address"
          },
          {
            "astId": 1798,
            "contract": "contracts/mock-memo.sol:MEMOries",
            "label": "initializer",
            "offset": 0,
            "slot": "11",
            "type": "t_address"
          },
          {
            "astId": 1837,
            "contract": "contracts/mock-memo.sol:MEMOries",
            "label": "rebases",
            "offset": 0,
            "slot": "12",
            "type": "t_array(t_struct(Rebase)1833_storage)dyn_storage"
          },
          {
            "astId": 1839,
            "contract": "contracts/mock-memo.sol:MEMOries",
            "label": "INDEX",
            "offset": 0,
            "slot": "13",
            "type": "t_uint256"
          },
          {
            "astId": 1870,
            "contract": "contracts/mock-memo.sol:MEMOries",
            "label": "_gonsPerFragment",
            "offset": 0,
            "slot": "14",
            "type": "t_uint256"
          },
          {
            "astId": 1874,
            "contract": "contracts/mock-memo.sol:MEMOries",
            "label": "_gonBalances",
            "offset": 0,
            "slot": "15",
            "type": "t_mapping(t_address,t_uint256)"
          },
          {
            "astId": 1880,
            "contract": "contracts/mock-memo.sol:MEMOries",
            "label": "_allowedValue",
            "offset": 0,
            "slot": "16",
            "type": "t_mapping(t_address,t_mapping(t_address,t_uint256))"
          }
        ],
        "types": {
          "t_address": {
            "encoding": "inplace",
            "label": "address",
            "numberOfBytes": "20"
          },
          "t_array(t_struct(Rebase)1833_storage)dyn_storage": {
            "base": "t_struct(Rebase)1833_storage",
            "encoding": "dynamic_array",
            "label": "struct MEMOries.Rebase[]",
            "numberOfBytes": "32"
          },
          "t_bytes32": {
            "encoding": "inplace",
            "label": "bytes32",
            "numberOfBytes": "32"
          },
          "t_mapping(t_address,t_mapping(t_address,t_uint256))": {
            "encoding": "mapping",
            "key": "t_address",
            "label": "mapping(address => mapping(address => uint256))",
            "numberOfBytes": "32",
            "value": "t_mapping(t_address,t_uint256)"
          },
          "t_mapping(t_address,t_struct(Counter)1393_storage)": {
            "encoding": "mapping",
            "key": "t_address",
            "label": "mapping(address => struct Counters.Counter)",
            "numberOfBytes": "32",
            "value": "t_struct(Counter)1393_storage"
          },
          "t_mapping(t_address,t_uint256)": {
            "encoding": "mapping",
            "key": "t_address",
            "label": "mapping(address => uint256)",
            "numberOfBytes": "32",
            "value": "t_uint256"
          },
          "t_string_storage": {
            "encoding": "bytes",
            "label": "string",
            "numberOfBytes": "32"
          },
          "t_struct(Counter)1393_storage": {
            "encoding": "inplace",
            "label": "struct Counters.Counter",
            "members": [
              {
                "astId": 1392,
                "contract": "contracts/mock-memo.sol:MEMOries",
                "label": "_value",
                "offset": 0,
                "slot": "0",
                "type": "t_uint256"
              }
            ],
            "numberOfBytes": "32"
          },
          "t_struct(Rebase)1833_storage": {
            "encoding": "inplace",
            "label": "struct MEMOries.Rebase",
            "members": [
              {
                "astId": 1820,
                "contract": "contracts/mock-memo.sol:MEMOries",
                "label": "epoch",
                "offset": 0,
                "slot": "0",
                "type": "t_uint256"
              },
              {
                "astId": 1822,
                "contract": "contracts/mock-memo.sol:MEMOries",
                "label": "rebase",
                "offset": 0,
                "slot": "1",
                "type": "t_uint256"
              },
              {
                "astId": 1824,
                "contract": "contracts/mock-memo.sol:MEMOries",
                "label": "totalStakedBefore",
                "offset": 0,
                "slot": "2",
                "type": "t_uint256"
              },
              {
                "astId": 1826,
                "contract": "contracts/mock-memo.sol:MEMOries",
                "label": "totalStakedAfter",
                "offset": 0,
                "slot": "3",
                "type": "t_uint256"
              },
              {
                "astId": 1828,
                "contract": "contracts/mock-memo.sol:MEMOries",
                "label": "amountRebased",
                "offset": 0,
                "slot": "4",
                "type": "t_uint256"
              },
              {
                "astId": 1830,
                "contract": "contracts/mock-memo.sol:MEMOries",
                "label": "index",
                "offset": 0,
                "slot": "5",
                "type": "t_uint256"
              },
              {
                "astId": 1832,
                "contract": "contracts/mock-memo.sol:MEMOries",
                "label": "timeOccured",
                "offset": 0,
                "slot": "6",
                "type": "t_uint32"
              }
            ],
            "numberOfBytes": "224"
          },
          "t_uint256": {
            "encoding": "inplace",
            "label": "uint256",
            "numberOfBytes": "32"
          },
          "t_uint32": {
            "encoding": "inplace",
            "label": "uint32",
            "numberOfBytes": "4"
          },
          "t_uint8": {
            "encoding": "inplace",
            "label": "uint8",
            "numberOfBytes": "1"
          }
        }
      },
      "userdoc": {
        "kind": "user",
        "methods": {
          "rebase(uint256,uint256)": {
            "notice": "increases MEMOries supply to increase staking balances relative to profit_"
          }
        },
        "version": 1
      }
    }
  }
}