{
  "_format": "hh-sol-artifact-1",
  "contractName": "RedMemoPool",
  "sourceName": "contracts/pools.sol",
  "abi": [
    {
      "anonymous": false,
      "inputs": [
        {
          "indexed": false,
          "internalType": "address",
          "name": "previousAdmin",
          "type": "address"
        },
        {
          "indexed": false,
          "internalType": "address",
          "name": "newAdmin",
          "type": "address"
        }
      ],
      "name": "AdminChanged",
      "type": "event"
    },
    {
      "anonymous": false,
      "inputs": [
        {
          "indexed": true,
          "internalType": "address",
          "name": "owner",
          "type": "address"
        },
        {
          "indexed": true,
          "internalType": "address",
          "name": "spender",
          "type": "address"
        },
        {
          "indexed": false,
          "internalType": "uint256",
          "name": "value",
          "type": "uint256"
        }
      ],
      "name": "Approval",
      "type": "event"
    },
    {
      "anonymous": false,
      "inputs": [
        {
          "indexed": true,
          "internalType": "address",
          "name": "beacon",
          "type": "address"
        }
      ],
      "name": "BeaconUpgraded",
      "type": "event"
    },
    {
      "anonymous": false,
      "inputs": [
        {
          "indexed": true,
          "internalType": "uint256",
          "name": "timestamp",
          "type": "uint256"
        },
        {
          "indexed": false,
          "internalType": "uint256",
          "name": "amount",
          "type": "uint256"
        }
      ],
      "name": "LogRebase",
      "type": "event"
    },
    {
      "anonymous": false,
      "inputs": [
        {
          "indexed": true,
          "internalType": "bytes32",
          "name": "role",
          "type": "bytes32"
        },
        {
          "indexed": true,
          "internalType": "bytes32",
          "name": "previousAdminRole",
          "type": "bytes32"
        },
        {
          "indexed": true,
          "internalType": "bytes32",
          "name": "newAdminRole",
          "type": "bytes32"
        }
      ],
      "name": "RoleAdminChanged",
      "type": "event"
    },
    {
      "anonymous": false,
      "inputs": [
        {
          "indexed": true,
          "internalType": "bytes32",
          "name": "role",
          "type": "bytes32"
        },
        {
          "indexed": true,
          "internalType": "address",
          "name": "account",
          "type": "address"
        },
        {
          "indexed": true,
          "internalType": "address",
          "name": "sender",
          "type": "address"
        }
      ],
      "name": "RoleGranted",
      "type": "event"
    },
    {
      "anonymous": false,
      "inputs": [
        {
          "indexed": true,
          "internalType": "bytes32",
          "name": "role",
          "type": "bytes32"
        },
        {
          "indexed": true,
          "internalType": "address",
          "name": "account",
          "type": "address"
        },
        {
          "indexed": true,
          "internalType": "address",
          "name": "sender",
          "type": "address"
        }
      ],
      "name": "RoleRevoked",
      "type": "event"
    },
    {
      "anonymous": false,
      "inputs": [
        {
          "indexed": true,
          "internalType": "address",
          "name": "from",
          "type": "address"
        },
        {
          "indexed": true,
          "internalType": "address",
          "name": "to",
          "type": "address"
        },
        {
          "indexed": false,
          "internalType": "uint256",
          "name": "value",
          "type": "uint256"
        }
      ],
      "name": "Transfer",
      "type": "event"
    },
    {
      "anonymous": false,
      "inputs": [
        {
          "indexed": true,
          "internalType": "address",
          "name": "implementation",
          "type": "address"
        }
      ],
      "name": "Upgraded",
      "type": "event"
    },
    {
      "inputs": [],
      "name": "ADMIN",
      "outputs": [
        {
          "internalType": "bytes32",
          "name": "",
          "type": "bytes32"
        }
      ],
      "stateMutability": "view",
      "type": "function"
    },
    {
      "inputs": [],
      "name": "CONTROLLER",
      "outputs": [
        {
          "internalType": "bytes32",
          "name": "",
          "type": "bytes32"
        }
      ],
      "stateMutability": "view",
      "type": "function"
    },
    {
      "inputs": [],
      "name": "DEFAULT_ADMIN_ROLE",
      "outputs": [
        {
          "internalType": "bytes32",
          "name": "",
          "type": "bytes32"
        }
      ],
      "stateMutability": "view",
      "type": "function"
    },
    {
      "inputs": [],
      "name": "DOMAIN_SEPARATOR",
      "outputs": [
        {
          "internalType": "bytes32",
          "name": "",
          "type": "bytes32"
        }
      ],
      "stateMutability": "view",
      "type": "function"
    },
    {
      "inputs": [
        {
          "internalType": "string",
          "name": "name",
          "type": "string"
        },
        {
          "internalType": "string",
          "name": "symbol",
          "type": "string"
        }
      ],
      "name": "__TokenPool_init",
      "outputs": [],
      "stateMutability": "nonpayable",
      "type": "function"
    },
    {
      "inputs": [
        {
          "internalType": "address",
          "name": "owner",
          "type": "address"
        },
        {
          "internalType": "address",
          "name": "spender",
          "type": "address"
        }
      ],
      "name": "allowance",
      "outputs": [
        {
          "internalType": "uint256",
          "name": "",
          "type": "uint256"
        }
      ],
      "stateMutability": "view",
      "type": "function"
    },
    {
      "inputs": [
        {
          "internalType": "address",
          "name": "spender",
          "type": "address"
        },
        {
          "internalType": "uint256",
          "name": "amount",
          "type": "uint256"
        }
      ],
      "name": "approve",
      "outputs": [
        {
          "internalType": "bool",
          "name": "",
          "type": "bool"
        }
      ],
      "stateMutability": "nonpayable",
      "type": "function"
    },
    {
      "inputs": [
        {
          "internalType": "address",
          "name": "account",
          "type": "address"
        }
      ],
      "name": "balanceOf",
      "outputs": [
        {
          "internalType": "uint256",
          "name": "",
          "type": "uint256"
        }
      ],
      "stateMutability": "view",
      "type": "function"
    },
    {
      "inputs": [
        {
          "internalType": "address",
          "name": "account",
          "type": "address"
        },
        {
          "internalType": "uint256",
          "name": "amount",
          "type": "uint256"
        }
      ],
      "name": "burn",
      "outputs": [],
      "stateMutability": "nonpayable",
      "type": "function"
    },
    {
      "inputs": [],
      "name": "decimals",
      "outputs": [
        {
          "internalType": "uint8",
          "name": "",
          "type": "uint8"
        }
      ],
      "stateMutability": "pure",
      "type": "function"
    },
    {
      "inputs": [
        {
          "internalType": "address",
          "name": "spender",
          "type": "address"
        },
        {
          "internalType": "uint256",
          "name": "subtractedValue",
          "type": "uint256"
        }
      ],
      "name": "decreaseAllowance",
      "outputs": [
        {
          "internalType": "bool",
          "name": "",
          "type": "bool"
        }
      ],
      "stateMutability": "nonpayable",
      "type": "function"
    },
    {
      "inputs": [
        {
          "internalType": "bytes32",
          "name": "role",
          "type": "bytes32"
        }
      ],
      "name": "getRoleAdmin",
      "outputs": [
        {
          "internalType": "bytes32",
          "name": "",
          "type": "bytes32"
        }
      ],
      "stateMutability": "view",
      "type": "function"
    },
    {
      "inputs": [
        {
          "internalType": "bytes32",
          "name": "role",
          "type": "bytes32"
        },
        {
          "internalType": "address",
          "name": "account",
          "type": "address"
        }
      ],
      "name": "grantRole",
      "outputs": [],
      "stateMutability": "nonpayable",
      "type": "function"
    },
    {
      "inputs": [
        {
          "internalType": "bytes32",
          "name": "role",
          "type": "bytes32"
        },
        {
          "internalType": "address",
          "name": "account",
          "type": "address"
        }
      ],
      "name": "hasRole",
      "outputs": [
        {
          "internalType": "bool",
          "name": "",
          "type": "bool"
        }
      ],
      "stateMutability": "view",
      "type": "function"
    },
    {
      "inputs": [
        {
          "internalType": "address",
          "name": "spender",
          "type": "address"
        },
        {
          "internalType": "uint256",
          "name": "addedValue",
          "type": "uint256"
        }
      ],
      "name": "increaseAllowance",
      "outputs": [
        {
          "internalType": "bool",
          "name": "",
          "type": "bool"
        }
      ],
      "stateMutability": "nonpayable",
      "type": "function"
    },
    {
      "inputs": [],
      "name": "initialize",
      "outputs": [],
      "stateMutability": "nonpayable",
      "type": "function"
    },
    {
      "inputs": [
        {
          "internalType": "address",
          "name": "account",
          "type": "address"
        },
        {
          "internalType": "uint256",
          "name": "amount",
          "type": "uint256"
        }
      ],
      "name": "mint",
      "outputs": [],
      "stateMutability": "nonpayable",
      "type": "function"
    },
    {
      "inputs": [],
      "name": "name",
      "outputs": [
        {
          "internalType": "string",
          "name": "",
          "type": "string"
        }
      ],
      "stateMutability": "view",
      "type": "function"
    },
    {
      "inputs": [
        {
          "internalType": "address",
          "name": "owner",
          "type": "address"
        }
      ],
      "name": "nonces",
      "outputs": [
        {
          "internalType": "uint256",
          "name": "",
          "type": "uint256"
        }
      ],
      "stateMutability": "view",
      "type": "function"
    },
    {
      "inputs": [],
      "name": "onUpgrade",
      "outputs": [],
      "stateMutability": "nonpayable",
      "type": "function"
    },
    {
      "inputs": [
        {
          "internalType": "address",
          "name": "owner",
          "type": "address"
        },
        {
          "internalType": "address",
          "name": "spender",
          "type": "address"
        },
        {
          "internalType": "uint256",
          "name": "value",
          "type": "uint256"
        },
        {
          "internalType": "uint256",
          "name": "deadline",
          "type": "uint256"
        },
        {
          "internalType": "uint8",
          "name": "v",
          "type": "uint8"
        },
        {
          "internalType": "bytes32",
          "name": "r",
          "type": "bytes32"
        },
        {
          "internalType": "bytes32",
          "name": "s",
          "type": "bytes32"
        }
      ],
      "name": "permit",
      "outputs": [],
      "stateMutability": "nonpayable",
      "type": "function"
    },
    {
      "inputs": [
        {
          "internalType": "uint256",
          "name": "amount",
          "type": "uint256"
        }
      ],
      "name": "rebase",
      "outputs": [],
      "stateMutability": "nonpayable",
      "type": "function"
    },
    {
      "inputs": [
        {
          "internalType": "bytes32",
          "name": "role",
          "type": "bytes32"
        },
        {
          "internalType": "address",
          "name": "account",
          "type": "address"
        }
      ],
      "name": "renounceRole",
      "outputs": [],
      "stateMutability": "nonpayable",
      "type": "function"
    },
    {
      "inputs": [
        {
          "internalType": "bytes32",
          "name": "role",
          "type": "bytes32"
        },
        {
          "internalType": "address",
          "name": "account",
          "type": "address"
        }
      ],
      "name": "revokeRole",
      "outputs": [],
      "stateMutability": "nonpayable",
      "type": "function"
    },
    {
      "inputs": [
        {
          "internalType": "address",
          "name": "controller",
          "type": "address"
        }
      ],
      "name": "setController",
      "outputs": [],
      "stateMutability": "nonpayable",
      "type": "function"
    },
    {
      "inputs": [
        {
          "internalType": "bytes4",
          "name": "interfaceId",
          "type": "bytes4"
        }
      ],
      "name": "supportsInterface",
      "outputs": [
        {
          "internalType": "bool",
          "name": "",
          "type": "bool"
        }
      ],
      "stateMutability": "view",
      "type": "function"
    },
    {
      "inputs": [],
      "name": "symbol",
      "outputs": [
        {
          "internalType": "string",
          "name": "",
          "type": "string"
        }
      ],
      "stateMutability": "view",
      "type": "function"
    },
    {
      "inputs": [],
      "name": "totalSupply",
      "outputs": [
        {
          "internalType": "uint256",
          "name": "",
          "type": "uint256"
        }
      ],
      "stateMutability": "view",
      "type": "function"
    },
    {
      "inputs": [
        {
          "internalType": "address",
          "name": "recipient",
          "type": "address"
        },
        {
          "internalType": "uint256",
          "name": "amount",
          "type": "uint256"
        }
      ],
      "name": "transfer",
      "outputs": [
        {
          "internalType": "bool",
          "name": "",
          "type": "bool"
        }
      ],
      "stateMutability": "nonpayable",
      "type": "function"
    },
    {
      "inputs": [
        {
          "internalType": "address",
          "name": "sender",
          "type": "address"
        },
        {
          "internalType": "address",
          "name": "recipient",
          "type": "address"
        },
        {
          "internalType": "uint256",
          "name": "amount",
          "type": "uint256"
        }
      ],
      "name": "transferFrom",
      "outputs": [
        {
          "internalType": "bool",
          "name": "",
          "type": "bool"
        }
      ],
      "stateMutability": "nonpayable",
      "type": "function"
    },
    {
      "inputs": [
        {
          "internalType": "address",
          "name": "newImplementation",
          "type": "address"
        }
      ],
      "name": "upgradeTo",
      "outputs": [],
      "stateMutability": "nonpayable",
      "type": "function"
    },
    {
      "inputs": [
        {
          "internalType": "address",
          "name": "newImplementation",
          "type": "address"
        },
        {
          "internalType": "bytes",
          "name": "data",
          "type": "bytes"
        }
      ],
      "name": "upgradeToAndCall",
      "outputs": [],
      "stateMutability": "payable",
      "type": "function"
    }
  ],
  "bytecode": "0x60a06040523060601b6080523480156200001857600080fd5b50600054610100900460ff16620000365760005460ff161562000040565b62000040620000ee565b620000a85760405162461bcd60e51b815260206004820152602e60248201527f496e697469616c697a61626c653a20636f6e747261637420697320616c72656160448201526d191e481a5b9a5d1a585b1a5e995960921b606482015260840160405180910390fd5b600054610100900460ff16158015620000d4576000805460ff1961ff0019909116610100171660011790555b8015620000e7576000805461ff00191690555b5062000112565b600062000106306200010c60201b6200101b1760201c565b15905090565b3b151590565b60805160601c612b056200014660003960008181610876015281816108b60152818161099b01526109db0152612b056000f3fe6080604052600436106101e35760003560e01c806370a0823111610102578063a217fddf11610095578063d505accf11610064578063d505accf1461054e578063d547741f1461056e578063dd62ed3e1461058e578063ee0fc121146105d4576101e3565b8063a217fddf146104d9578063a457c2d7146104ee578063a9059cbb1461050e578063bc4f2d6d1461052e576101e3565b806392eefe9b116100d157806392eefe9b1461046457806395d89b411461048457806396ef91a0146104995780639dc29fac146104b9576101e3565b806370a08231146103ef5780637ecebe001461040f5780638129fc1c1461042f57806391d1485414610444576101e3565b80632f2ff15d1161017a5780633659cfe6116101495780633659cfe61461037c578063395093511461039c57806340c10f19146103bc5780634f1ef286146103dc576101e3565b80632f2ff15d1461030b578063313ce5671461032b5780633644e5151461034757806336568abe1461035c576101e3565b80631824a46b116101b65780631824a46b1461028257806323b872dd14610299578063248a9ca3146102b95780632a0acc6a146102e9576101e3565b806301ffc9a7146101e857806306fdde031461021d578063095ea7b31461023f57806318160ddd1461025f575b600080fd5b3480156101f457600080fd5b506102086102033660046125d4565b6105f6565b60405190151581526020015b60405180910390f35b34801561022957600080fd5b5061023261062f565b60405161021491906126e4565b34801561024b57600080fd5b5061020861025a366004612571565b6106c1565b34801561026b57600080fd5b506102746106d7565b604051908152602001610214565b34801561028e57600080fd5b506102976106ea565b005b3480156102a557600080fd5b506102086102b4366004612466565b610707565b3480156102c557600080fd5b506102746102d436600461259a565b600090815260fe602052604090206001015490565b3480156102f557600080fd5b50610274600080516020612ab083398151915281565b34801561031757600080fd5b506102976103263660046125b2565b6107b8565b34801561033757600080fd5b5060405160098152602001610214565b34801561035357600080fd5b506102746107e3565b34801561036857600080fd5b506102976103773660046125b2565b6107ed565b34801561038857600080fd5b5061029761039736600461241a565b61086b565b3480156103a857600080fd5b506102086103b7366004612571565b610931565b3480156103c857600080fd5b506102976103d7366004612571565b61096d565b6102976103ea366004612512565b610990565b3480156103fb57600080fd5b5061027461040a36600461241a565b610a46565b34801561041b57600080fd5b5061027461042a36600461241a565b610a69565b34801561043b57600080fd5b50610297610a87565b34801561045057600080fd5b5061020861045f3660046125b2565b610b4a565b34801561047057600080fd5b5061029761047f36600461241a565b610b75565b34801561049057600080fd5b50610232610ba6565b3480156104a557600080fd5b506102976104b43660046125fc565b610bb5565b3480156104c557600080fd5b506102976104d4366004612571565b610cbb565b3480156104e557600080fd5b50610274600081565b3480156104fa57600080fd5b50610208610509366004612571565b610cde565b34801561051a57600080fd5b50610208610529366004612571565b610d77565b34801561053a57600080fd5b5061029761054936600461259a565b610d84565b34801561055a57600080fd5b506102976105693660046124a1565b610eaf565b34801561057a57600080fd5b506102976105893660046125b2565b610ff5565b34801561059a57600080fd5b506102746105a9366004612434565b6001600160a01b03918216600090815260346020908152604080832093909416825291909152205490565b3480156105e057600080fd5b50610274600080516020612a6983398151915281565b60006001600160e01b03198216637965db0b60e01b148061062757506301ffc9a760e01b6001600160e01b03198316145b90505b919050565b60606036805461063e90612a07565b80601f016020809104026020016040519081016040528092919081815260200182805461066a90612a07565b80156106b75780601f1061068c576101008083540402835291602001916106b7565b820191906000526020600020905b81548152906001019060200180831161069a57829003601f168201915b5050505050905090565b60006106ce338484611021565b50600192915050565b60006106e561019554611145565b905090565b600080516020612ab083398151915261070481335b61116b565b50565b60006107148484846111cf565b6001600160a01b03841660009081526034602090815260408083203384529091529020548281101561079e5760405162461bcd60e51b815260206004820152602860248201527f45524332303a207472616e7366657220616d6f756e74206578636565647320616044820152676c6c6f77616e636560c01b60648201526084015b60405180910390fd5b6107ab8533858403611021565b60019150505b9392505050565b600082815260fe60205260409020600101546107d481336106ff565b6107de83836113b3565b505050565b60006106e5611439565b6001600160a01b038116331461085d5760405162461bcd60e51b815260206004820152602f60248201527f416363657373436f6e74726f6c3a2063616e206f6e6c792072656e6f756e636560448201526e103937b632b9903337b91039b2b63360891b6064820152608401610795565b61086782826114b4565b5050565b306001600160a01b037f00000000000000000000000000000000000000000000000000000000000000001614156108b45760405162461bcd60e51b815260040161079590612717565b7f00000000000000000000000000000000000000000000000000000000000000006001600160a01b03166108e661151b565b6001600160a01b03161461090c5760405162461bcd60e51b815260040161079590612763565b61091581611549565b6040805160008082526020820190925261070491839190611562565b3360008181526034602090815260408083206001600160a01b038716845290915281205490916106ce918590610968908690612848565b611021565b600080516020612a6983398151915261098681336106ff565b6107de83836116ad565b306001600160a01b037f00000000000000000000000000000000000000000000000000000000000000001614156109d95760405162461bcd60e51b815260040161079590612717565b7f00000000000000000000000000000000000000000000000000000000000000006001600160a01b0316610a0b61151b565b6001600160a01b031614610a315760405162461bcd60e51b815260040161079590612763565b610a3a82611549565b61086782826001611562565b6001600160a01b0381166000908152610196602052604081205461062790611145565b6001600160a01b038116600090815260996020526040812054610627565b600054610100900460ff16610aa25760005460ff1615610aa6565b303b155b610ac25760405162461bcd60e51b8152600401610795906127af565b600054610100900460ff16158015610aed576000805460ff1961ff0019909116610100171660011790555b610b366040518060400160405280600b81526020016a14995913595b5bd41bdbdb60aa1b815250604051806040016040528060048152602001631493541360e21b815250610bb5565b8015610704576000805461ff001916905550565b600091825260fe602090815260408084206001600160a01b0393909316845291905290205460ff1690565b600080516020612ab0833981519152610b8e81336106ff565b610867600080516020612a69833981519152836113b3565b60606037805461063e90612a07565b600054610100900460ff16610bd05760005460ff1615610bd4565b303b155b610bf05760405162461bcd60e51b8152600401610795906127af565b600054610100900460ff16158015610c1b576000805460ff1961ff0019909116610100171660011790555b610c2583836117a1565b610c2e836117da565b610c36611835565b610c3e611876565b610c57600080516020612ab0833981519152335b6113b3565b610c6f600080516020612a6983398151915233610c52565b610c95600080516020612a69833981519152600080516020612ab083398151915261189d565b610ca16009600a6128bd565b6101945580156107de576000805461ff0019169055505050565b600080516020612a69833981519152610cd481336106ff565b6107de83836118e8565b3360009081526034602090815260408083206001600160a01b038616845290915281205482811015610d605760405162461bcd60e51b815260206004820152602560248201527f45524332303a2064656372656173656420616c6c6f77616e63652062656c6f77604482015264207a65726f60d81b6064820152608401610795565b610d6d3385858403611021565b5060019392505050565b60006106ce3384846111cf565b600080516020612a69833981519152610d9d81336106ff565b6000610da76106d7565b905082610db45750610867565b8015610e1a57610dc66009600a6128bd565b610dd26009600a6128bd565b82610ddf6009600a6128bd565b610de9908761298e565b610df39190612860565b610dfd9190612848565b61019454610e0b919061298e565b610e159190612860565b610194555b61019554610e30610e2b8584612848565b611a3b565b610e3a91906129ad565b6101956000828254610e4c9190612848565b9091555050610195546001600160801b031015610e70576001600160801b03610195555b427f72725a3b1e5bd622d6bcd1339bb31279c351abe8f541ac7fd320f24e1b1641f284604051610ea291815260200190565b60405180910390a2505050565b83421115610eff5760405162461bcd60e51b815260206004820152601d60248201527f45524332305065726d69743a206578706972656420646561646c696e650000006044820152606401610795565b6000609a54888888610f108c611a58565b6040805160208101969096526001600160a01b0394851690860152929091166060840152608083015260a082015260c0810186905260e0016040516020818303038152906040528051906020012090506000610f6b82611a80565b90506000610f7b82878787611ace565b9050896001600160a01b0316816001600160a01b031614610fde5760405162461bcd60e51b815260206004820152601e60248201527f45524332305065726d69743a20696e76616c6964207369676e617475726500006044820152606401610795565b610fe98a8a8a611021565b50505050505050505050565b600082815260fe602052604090206001015461101181336106ff565b6107de83836114b4565b3b151590565b6001600160a01b0383166110835760405162461bcd60e51b8152602060048201526024808201527f45524332303a20617070726f76652066726f6d20746865207a65726f206164646044820152637265737360e01b6064820152608401610795565b6001600160a01b0382166110e45760405162461bcd60e51b815260206004820152602260248201527f45524332303a20617070726f766520746f20746865207a65726f206164647265604482015261737360f01b6064820152608401610795565b6001600160a01b0383811660008181526034602090815260408083209487168084529482529182902085905590518481527f8c5be1e5ebec7d5bd14f71427d1e84f3dd0314c0f7b2291e5b200ac8c7c3b925910160405180910390a3505050565b60006111536009600a6128bd565b61019454611161908461298e565b6106279190612860565b6111758282610b4a565b6108675761118d816001600160a01b03166014611af6565b611198836020611af6565b6040516020016111a992919061266f565b60408051601f198184030181529082905262461bcd60e51b8252610795916004016126e4565b6001600160a01b0383166112335760405162461bcd60e51b815260206004820152602560248201527f45524332303a207472616e736665722066726f6d20746865207a65726f206164604482015264647265737360d81b6064820152608401610795565b6001600160a01b0382166112955760405162461bcd60e51b815260206004820152602360248201527f45524332303a207472616e7366657220746f20746865207a65726f206164647260448201526265737360e81b6064820152608401610795565b60006112a084610a46565b9050818110156113015760405162461bcd60e51b815260206004820152602660248201527f45524332303a207472616e7366657220616d6f756e7420657863656564732062604482015265616c616e636560d01b6064820152608401610795565b61130c828203611a3b565b6001600160a01b0385166000908152610196602052604090205561132f82611a3b565b6001600160a01b0384166000908152610196602052604081208054909190611358908490612848565b92505081905550826001600160a01b0316846001600160a01b03167fddf252ad1be2c89b69c2b068fc378daa952ba7f163c4a11628f55a4df523b3ef846040516113a491815260200190565b60405180910390a35b50505050565b6113bd8282610b4a565b61086757600082815260fe602090815260408083206001600160a01b03851684529091529020805460ff191660011790556113f53390565b6001600160a01b0316816001600160a01b0316837f2f8788117e7eff1d82e926ec794901d17c78024a50270940304540a733656f0d60405160405180910390a45050565b60006106e57f8b73c3c69bb8fe3d512ecc4cf759cc79239f7b179b0ffacaa9a75d522b39400f61146860655490565b6066546040805160208101859052908101839052606081018290524660808201523060a082015260009060c0016040516020818303038152906040528051906020012090509392505050565b6114be8282610b4a565b1561086757600082815260fe602090815260408083206001600160a01b0385168085529252808320805460ff1916905551339285917ff6391f5c32d9c69d2a47ea670b442974b53935d1edc7fd64eb21e047a839171b9190a45050565b7f360894a13ba1a3210667c828492db98dca3e2076cc3735a920a3ca505d382bbc546001600160a01b031690565b600080516020612ab083398151915261086781336106ff565b600061156c61151b565b905061157784611cd8565b6000835111806115845750815b15611595576115938484611d7d565b505b7f4910fdfa16fed3260ed0e7147f7cc6da11a60208b5b9406d12a635614ffd9143805460ff166116a657805460ff191660011781556040516001600160a01b038316602482015261161490869060440160408051601f198184030181529190526020810180516001600160e01b0316631b2ce7f360e11b179052611d7d565b50805460ff1916815561162561151b565b6001600160a01b0316826001600160a01b03161461169d5760405162461bcd60e51b815260206004820152602f60248201527f45524331393637557067726164653a207570677261646520627265616b73206660448201526e75727468657220757067726164657360881b6064820152608401610795565b6116a685611e68565b5050505050565b6001600160a01b0382166117035760405162461bcd60e51b815260206004820152601f60248201527f45524332303a206d696e7420746f20746865207a65726f2061646472657373006044820152606401610795565b61170c81611a3b565b610195600082825461171e9190612848565b9091555061172d905081611a3b565b6001600160a01b0383166000908152610196602052604081208054909190611756908490612848565b90915550506040518181526001600160a01b038316906000907fddf252ad1be2c89b69c2b068fc378daa952ba7f163c4a11628f55a4df523b3ef9060200160405180910390a3610867565b600054610100900460ff166117c85760405162461bcd60e51b8152600401610795906127fd565b6117d0611ea8565b6108678282611ecf565b600054610100900460ff166118015760405162461bcd60e51b8152600401610795906127fd565b611809611ea8565b61182c81604051806040016040528060018152602001603160f81b815250611f1d565b61070481611f5e565b600054610100900460ff1661185c5760405162461bcd60e51b8152600401610795906127fd565b611864611ea8565b61186c611ea8565b611874611ea8565b565b600054610100900460ff166118645760405162461bcd60e51b8152600401610795906127fd565b600082815260fe6020526040808220600101805490849055905190918391839186917fbd79b86ffe0ab8e8776151514217cd7cacd52c909f66475c3af44e129f0b00ff9190a4505050565b6001600160a01b0382166119485760405162461bcd60e51b815260206004820152602160248201527f45524332303a206275726e2066726f6d20746865207a65726f206164647265736044820152607360f81b6064820152608401610795565b600061195383610a46565b9050818110156119b05760405162461bcd60e51b815260206004820152602260248201527f45524332303a206275726e20616d6f756e7420657863656564732062616c616e604482015261636560f01b6064820152608401610795565b6119bb828203611a3b565b6001600160a01b038416600090815261019660205260409020556119de82611a3b565b61019560008282546119f091906129ad565b90915550506040518281526000906001600160a01b038516907fddf252ad1be2c89b69c2b068fc378daa952ba7f163c4a11628f55a4df523b3ef9060200160405180910390a36107de565b61019454600090611a4e6009600a6128bd565b611161908461298e565b6001600160a01b03811660009081526099602052604090208054600181018255905b50919050565b6000610627611a8d611439565b8360405161190160f01b6020820152602281018390526042810182905260009060620160405160208183030381529060405280519060200120905092915050565b6000806000611adf87878787611fac565b91509150611aec81612099565b5095945050505050565b60606000611b0583600261298e565b611b10906002612848565b67ffffffffffffffff811115611b3657634e487b7160e01b600052604160045260246000fd5b6040519080825280601f01601f191660200182016040528015611b60576020820181803683370190505b509050600360fc1b81600081518110611b8957634e487b7160e01b600052603260045260246000fd5b60200101906001600160f81b031916908160001a905350600f60fb1b81600181518110611bc657634e487b7160e01b600052603260045260246000fd5b60200101906001600160f81b031916908160001a9053506000611bea84600261298e565b611bf5906001612848565b90505b6001811115611c89576f181899199a1a9b1b9c1cb0b131b232b360811b85600f1660108110611c3757634e487b7160e01b600052603260045260246000fd5b1a60f81b828281518110611c5b57634e487b7160e01b600052603260045260246000fd5b60200101906001600160f81b031916908160001a90535060049490941c93611c82816129f0565b9050611bf8565b5083156107b15760405162461bcd60e51b815260206004820181905260248201527f537472696e67733a20686578206c656e67746820696e73756666696369656e746044820152606401610795565b803b611d3c5760405162461bcd60e51b815260206004820152602d60248201527f455243313936373a206e657720696d706c656d656e746174696f6e206973206e60448201526c1bdd08184818dbdb9d1c9858dd609a1b6064820152608401610795565b7f360894a13ba1a3210667c828492db98dca3e2076cc3735a920a3ca505d382bbc80546001600160a01b0319166001600160a01b0392909216919091179055565b6060823b611ddc5760405162461bcd60e51b815260206004820152602660248201527f416464726573733a2064656c65676174652063616c6c20746f206e6f6e2d636f6044820152651b9d1c9858dd60d21b6064820152608401610795565b600080846001600160a01b031684604051611df79190612653565b600060405180830381855af49150503d8060008114611e32576040519150601f19603f3d011682016040523d82523d6000602084013e611e37565b606091505b5091509150611e5f8282604051806060016040528060278152602001612a896027913961229c565b95945050505050565b611e7181611cd8565b6040516001600160a01b038216907fbc7cd75a20ee27fd9adebab32041f755214dbc6bffa90cc0225b39da2e5c2d3b90600090a250565b600054610100900460ff166118745760405162461bcd60e51b8152600401610795906127fd565b600054610100900460ff16611ef65760405162461bcd60e51b8152600401610795906127fd565b8151611f099060369060208501906122d5565b5080516107de9060379060208401906122d5565b600054610100900460ff16611f445760405162461bcd60e51b8152600401610795906127fd565b815160209283012081519190920120606591909155606655565b600054610100900460ff16611f855760405162461bcd60e51b8152600401610795906127fd565b507f6e71edae12b1b97f4d1f60370fef10105fa2faae0126114a169c64845d6126c9609a55565b6000807f7fffffffffffffffffffffffffffffff5d576e7357a4501ddfe92f46681b20a0831115611fe35750600090506003612090565b8460ff16601b14158015611ffb57508460ff16601c14155b1561200c5750600090506004612090565b6040805160008082526020820180845289905260ff881692820192909252606081018690526080810185905260019060a0016020604051602081039080840390855afa158015612060573d6000803e3d6000fd5b5050604051601f1901519150506001600160a01b03811661208957600060019250925050612090565b9150600090505b94509492505050565b60008160048111156120bb57634e487b7160e01b600052602160045260246000fd5b14156120c657610704565b60018160048111156120e857634e487b7160e01b600052602160045260246000fd5b14156121365760405162461bcd60e51b815260206004820152601860248201527f45434453413a20696e76616c6964207369676e617475726500000000000000006044820152606401610795565b600281600481111561215857634e487b7160e01b600052602160045260246000fd5b14156121a65760405162461bcd60e51b815260206004820152601f60248201527f45434453413a20696e76616c6964207369676e6174757265206c656e677468006044820152606401610795565b60038160048111156121c857634e487b7160e01b600052602160045260246000fd5b14156122215760405162461bcd60e51b815260206004820152602260248201527f45434453413a20696e76616c6964207369676e6174757265202773272076616c604482015261756560f01b6064820152608401610795565b600481600481111561224357634e487b7160e01b600052602160045260246000fd5b14156107045760405162461bcd60e51b815260206004820152602260248201527f45434453413a20696e76616c6964207369676e6174757265202776272076616c604482015261756560f01b6064820152608401610795565b606083156122ab5750816107b1565b8251156122bb5782518084602001fd5b8160405162461bcd60e51b815260040161079591906126e4565b8280546122e190612a07565b90600052602060002090601f0160209004810192826123035760008555612349565b82601f1061231c57805160ff1916838001178555612349565b82800160010185558215612349579182015b8281111561234957825182559160200191906001019061232e565b50612355929150612359565b5090565b5b80821115612355576000815560010161235a565b600067ffffffffffffffff8084111561238957612389612a52565b604051601f8501601f19908116603f011681019082821181831017156123b1576123b1612a52565b816040528093508581528686860111156123ca57600080fd5b858560208301376000602087830101525050509392505050565b80356001600160a01b038116811461062a57600080fd5b600082601f83011261240b578081fd5b6107b18383356020850161236e565b60006020828403121561242b578081fd5b6107b1826123e4565b60008060408385031215612446578081fd5b61244f836123e4565b915061245d602084016123e4565b90509250929050565b60008060006060848603121561247a578081fd5b612483846123e4565b9250612491602085016123e4565b9150604084013590509250925092565b600080600080600080600060e0888a0312156124bb578283fd5b6124c4886123e4565b96506124d2602089016123e4565b95506040880135945060608801359350608088013560ff811681146124f5578384fd5b9699959850939692959460a0840135945060c09093013592915050565b60008060408385031215612524578182fd5b61252d836123e4565b9150602083013567ffffffffffffffff811115612548578182fd5b8301601f81018513612558578182fd5b6125678582356020840161236e565b9150509250929050565b60008060408385031215612583578182fd5b61258c836123e4565b946020939093013593505050565b6000602082840312156125ab578081fd5b5035919050565b600080604083850312156125c4578182fd5b8235915061245d602084016123e4565b6000602082840312156125e5578081fd5b81356001600160e01b0319811681146107b1578182fd5b6000806040838503121561260e578182fd5b823567ffffffffffffffff80821115612625578384fd5b612631868387016123fb565b93506020850135915080821115612646578283fd5b50612567858286016123fb565b600082516126658184602087016129c4565b9190910192915050565b60007f416363657373436f6e74726f6c3a206163636f756e7420000000000000000000825283516126a78160178501602088016129c4565b7001034b99036b4b9b9b4b733903937b6329607d1b60179184019182015283516126d88160288401602088016129c4565b01602801949350505050565b60006020825282518060208401526127038160408501602087016129c4565b601f01601f19169190910160400192915050565b6020808252602c908201527f46756e6374696f6e206d7573742062652063616c6c6564207468726f7567682060408201526b19195b1959d85d1958d85b1b60a21b606082015260800190565b6020808252602c908201527f46756e6374696f6e206d7573742062652063616c6c6564207468726f7567682060408201526b6163746976652070726f787960a01b606082015260800190565b6020808252602e908201527f496e697469616c697a61626c653a20636f6e747261637420697320616c72656160408201526d191e481a5b9a5d1a585b1a5e995960921b606082015260800190565b6020808252602b908201527f496e697469616c697a61626c653a20636f6e7472616374206973206e6f74206960408201526a6e697469616c697a696e6760a81b606082015260800190565b6000821982111561285b5761285b612a3c565b500190565b60008261287b57634e487b7160e01b81526012600452602481fd5b500490565b80825b60018086116128925750612090565b8187048211156128a4576128a4612a3c565b808616156128b157918102915b9490941c938002612883565b60006107b160001960ff8516846000826128d9575060016107b1565b816128e6575060006107b1565b81600181146128fc576002811461290657612933565b60019150506107b1565b60ff84111561291757612917612a3c565b6001841b91508482111561292d5761292d612a3c565b506107b1565b5060208310610133831016604e8410600b8410161715612966575081810a8381111561296157612961612a3c565b6107b1565b6129738484846001612880565b80860482111561298557612985612a3c565b02949350505050565b60008160001904831182151516156129a8576129a8612a3c565b500290565b6000828210156129bf576129bf612a3c565b500390565b60005b838110156129df5781810151838201526020016129c7565b838111156113ad5750506000910152565b6000816129ff576129ff612a3c565b506000190190565b600281046001821680612a1b57607f821691505b60208210811415611a7a57634e487b7160e01b600052602260045260246000fd5b634e487b7160e01b600052601160045260246000fd5b634e487b7160e01b600052604160045260246000fdfe70546d1c92f8c2132ae23a23f5177aa8526356051c7510df99f50e012d221529416464726573733a206c6f772d6c6576656c2064656c65676174652063616c6c206661696c6564df8b4c520ffe197c5343c6f5aec59570151ef9a492f2c624fd45ddde6135ec42a26469706673582212201a906a165b92eb344774e085b920042d4a18f54fddb2d7cd2f8f669fd821663c64736f6c63430008020033",
  "linkReferences": {},
  "deployedLinkReferences": {}
}