{
  "_format": "hh-sol-artifact-1",
  "contractName": "RedMemoPool",
  "sourceName": "contracts/pools.sol",
  "abi": [
    {
      "anonymous": false,
      "inputs": [
        {
          "indexed": false,
          "internalType": "address",
          "name": "previousAdmin",
          "type": "address"
        },
        {
          "indexed": false,
          "internalType": "address",
          "name": "newAdmin",
          "type": "address"
        }
      ],
      "name": "AdminChanged",
      "type": "event"
    },
    {
      "anonymous": false,
      "inputs": [
        {
          "indexed": true,
          "internalType": "address",
          "name": "owner",
          "type": "address"
        },
        {
          "indexed": true,
          "internalType": "address",
          "name": "spender",
          "type": "address"
        },
        {
          "indexed": false,
          "internalType": "uint256",
          "name": "value",
          "type": "uint256"
        }
      ],
      "name": "Approval",
      "type": "event"
    },
    {
      "anonymous": false,
      "inputs": [
        {
          "indexed": true,
          "internalType": "address",
          "name": "beacon",
          "type": "address"
        }
      ],
      "name": "BeaconUpgraded",
      "type": "event"
    },
    {
      "anonymous": false,
      "inputs": [
        {
          "indexed": true,
          "internalType": "bytes32",
          "name": "role",
          "type": "bytes32"
        },
        {
          "indexed": true,
          "internalType": "bytes32",
          "name": "previousAdminRole",
          "type": "bytes32"
        },
        {
          "indexed": true,
          "internalType": "bytes32",
          "name": "newAdminRole",
          "type": "bytes32"
        }
      ],
      "name": "RoleAdminChanged",
      "type": "event"
    },
    {
      "anonymous": false,
      "inputs": [
        {
          "indexed": true,
          "internalType": "bytes32",
          "name": "role",
          "type": "bytes32"
        },
        {
          "indexed": true,
          "internalType": "address",
          "name": "account",
          "type": "address"
        },
        {
          "indexed": true,
          "internalType": "address",
          "name": "sender",
          "type": "address"
        }
      ],
      "name": "RoleGranted",
      "type": "event"
    },
    {
      "anonymous": false,
      "inputs": [
        {
          "indexed": true,
          "internalType": "bytes32",
          "name": "role",
          "type": "bytes32"
        },
        {
          "indexed": true,
          "internalType": "address",
          "name": "account",
          "type": "address"
        },
        {
          "indexed": true,
          "internalType": "address",
          "name": "sender",
          "type": "address"
        }
      ],
      "name": "RoleRevoked",
      "type": "event"
    },
    {
      "anonymous": false,
      "inputs": [
        {
          "indexed": true,
          "internalType": "address",
          "name": "from",
          "type": "address"
        },
        {
          "indexed": true,
          "internalType": "address",
          "name": "to",
          "type": "address"
        },
        {
          "indexed": false,
          "internalType": "uint256",
          "name": "value",
          "type": "uint256"
        }
      ],
      "name": "Transfer",
      "type": "event"
    },
    {
      "anonymous": false,
      "inputs": [
        {
          "indexed": true,
          "internalType": "address",
          "name": "implementation",
          "type": "address"
        }
      ],
      "name": "Upgraded",
      "type": "event"
    },
    {
      "inputs": [],
      "name": "ADMIN",
      "outputs": [
        {
          "internalType": "bytes32",
          "name": "",
          "type": "bytes32"
        }
      ],
      "stateMutability": "view",
      "type": "function"
    },
    {
      "inputs": [],
      "name": "CONTROLLER",
      "outputs": [
        {
          "internalType": "bytes32",
          "name": "",
          "type": "bytes32"
        }
      ],
      "stateMutability": "view",
      "type": "function"
    },
    {
      "inputs": [],
      "name": "DEFAULT_ADMIN_ROLE",
      "outputs": [
        {
          "internalType": "bytes32",
          "name": "",
          "type": "bytes32"
        }
      ],
      "stateMutability": "view",
      "type": "function"
    },
    {
      "inputs": [
        {
          "internalType": "string",
          "name": "name",
          "type": "string"
        },
        {
          "internalType": "string",
          "name": "symbol",
          "type": "string"
        }
      ],
      "name": "__TokenPool_init",
      "outputs": [],
      "stateMutability": "nonpayable",
      "type": "function"
    },
    {
      "inputs": [
        {
          "internalType": "address",
          "name": "owner",
          "type": "address"
        },
        {
          "internalType": "address",
          "name": "spender",
          "type": "address"
        }
      ],
      "name": "allowance",
      "outputs": [
        {
          "internalType": "uint256",
          "name": "",
          "type": "uint256"
        }
      ],
      "stateMutability": "view",
      "type": "function"
    },
    {
      "inputs": [
        {
          "internalType": "address",
          "name": "spender",
          "type": "address"
        },
        {
          "internalType": "uint256",
          "name": "amount",
          "type": "uint256"
        }
      ],
      "name": "approve",
      "outputs": [
        {
          "internalType": "bool",
          "name": "",
          "type": "bool"
        }
      ],
      "stateMutability": "nonpayable",
      "type": "function"
    },
    {
      "inputs": [
        {
          "internalType": "address",
          "name": "account",
          "type": "address"
        }
      ],
      "name": "balanceOf",
      "outputs": [
        {
          "internalType": "uint256",
          "name": "",
          "type": "uint256"
        }
      ],
      "stateMutability": "view",
      "type": "function"
    },
    {
      "inputs": [
        {
          "internalType": "address",
          "name": "account",
          "type": "address"
        },
        {
          "internalType": "uint256",
          "name": "amount",
          "type": "uint256"
        }
      ],
      "name": "burn",
      "outputs": [],
      "stateMutability": "nonpayable",
      "type": "function"
    },
    {
      "inputs": [],
      "name": "decimals",
      "outputs": [
        {
          "internalType": "uint8",
          "name": "",
          "type": "uint8"
        }
      ],
      "stateMutability": "view",
      "type": "function"
    },
    {
      "inputs": [
        {
          "internalType": "address",
          "name": "spender",
          "type": "address"
        },
        {
          "internalType": "uint256",
          "name": "subtractedValue",
          "type": "uint256"
        }
      ],
      "name": "decreaseAllowance",
      "outputs": [
        {
          "internalType": "bool",
          "name": "",
          "type": "bool"
        }
      ],
      "stateMutability": "nonpayable",
      "type": "function"
    },
    {
      "inputs": [
        {
          "internalType": "bytes32",
          "name": "role",
          "type": "bytes32"
        }
      ],
      "name": "getRoleAdmin",
      "outputs": [
        {
          "internalType": "bytes32",
          "name": "",
          "type": "bytes32"
        }
      ],
      "stateMutability": "view",
      "type": "function"
    },
    {
      "inputs": [
        {
          "internalType": "bytes32",
          "name": "role",
          "type": "bytes32"
        },
        {
          "internalType": "address",
          "name": "account",
          "type": "address"
        }
      ],
      "name": "grantRole",
      "outputs": [],
      "stateMutability": "nonpayable",
      "type": "function"
    },
    {
      "inputs": [
        {
          "internalType": "bytes32",
          "name": "role",
          "type": "bytes32"
        },
        {
          "internalType": "address",
          "name": "account",
          "type": "address"
        }
      ],
      "name": "hasRole",
      "outputs": [
        {
          "internalType": "bool",
          "name": "",
          "type": "bool"
        }
      ],
      "stateMutability": "view",
      "type": "function"
    },
    {
      "inputs": [
        {
          "internalType": "address",
          "name": "spender",
          "type": "address"
        },
        {
          "internalType": "uint256",
          "name": "addedValue",
          "type": "uint256"
        }
      ],
      "name": "increaseAllowance",
      "outputs": [
        {
          "internalType": "bool",
          "name": "",
          "type": "bool"
        }
      ],
      "stateMutability": "nonpayable",
      "type": "function"
    },
    {
      "inputs": [],
      "name": "initialize",
      "outputs": [],
      "stateMutability": "nonpayable",
      "type": "function"
    },
    {
      "inputs": [
        {
          "internalType": "address",
          "name": "account",
          "type": "address"
        },
        {
          "internalType": "uint256",
          "name": "amount",
          "type": "uint256"
        }
      ],
      "name": "mint",
      "outputs": [],
      "stateMutability": "nonpayable",
      "type": "function"
    },
    {
      "inputs": [],
      "name": "name",
      "outputs": [
        {
          "internalType": "string",
          "name": "",
          "type": "string"
        }
      ],
      "stateMutability": "view",
      "type": "function"
    },
    {
      "inputs": [],
      "name": "onUpgrade",
      "outputs": [],
      "stateMutability": "nonpayable",
      "type": "function"
    },
    {
      "inputs": [
        {
          "internalType": "bytes32",
          "name": "role",
          "type": "bytes32"
        },
        {
          "internalType": "address",
          "name": "account",
          "type": "address"
        }
      ],
      "name": "renounceRole",
      "outputs": [],
      "stateMutability": "nonpayable",
      "type": "function"
    },
    {
      "inputs": [
        {
          "internalType": "bytes32",
          "name": "role",
          "type": "bytes32"
        },
        {
          "internalType": "address",
          "name": "account",
          "type": "address"
        }
      ],
      "name": "revokeRole",
      "outputs": [],
      "stateMutability": "nonpayable",
      "type": "function"
    },
    {
      "inputs": [
        {
          "internalType": "uint256",
          "name": "amount",
          "type": "uint256"
        }
      ],
      "name": "rewardRebase",
      "outputs": [],
      "stateMutability": "nonpayable",
      "type": "function"
    },
    {
      "inputs": [
        {
          "internalType": "address",
          "name": "controller",
          "type": "address"
        }
      ],
      "name": "setController",
      "outputs": [],
      "stateMutability": "nonpayable",
      "type": "function"
    },
    {
      "inputs": [
        {
          "internalType": "bytes4",
          "name": "interfaceId",
          "type": "bytes4"
        }
      ],
      "name": "supportsInterface",
      "outputs": [
        {
          "internalType": "bool",
          "name": "",
          "type": "bool"
        }
      ],
      "stateMutability": "view",
      "type": "function"
    },
    {
      "inputs": [],
      "name": "symbol",
      "outputs": [
        {
          "internalType": "string",
          "name": "",
          "type": "string"
        }
      ],
      "stateMutability": "view",
      "type": "function"
    },
    {
      "inputs": [],
      "name": "totalSupply",
      "outputs": [
        {
          "internalType": "uint256",
          "name": "",
          "type": "uint256"
        }
      ],
      "stateMutability": "view",
      "type": "function"
    },
    {
      "inputs": [
        {
          "internalType": "address",
          "name": "recipient",
          "type": "address"
        },
        {
          "internalType": "uint256",
          "name": "amount",
          "type": "uint256"
        }
      ],
      "name": "transfer",
      "outputs": [
        {
          "internalType": "bool",
          "name": "",
          "type": "bool"
        }
      ],
      "stateMutability": "nonpayable",
      "type": "function"
    },
    {
      "inputs": [
        {
          "internalType": "address",
          "name": "sender",
          "type": "address"
        },
        {
          "internalType": "address",
          "name": "recipient",
          "type": "address"
        },
        {
          "internalType": "uint256",
          "name": "amount",
          "type": "uint256"
        }
      ],
      "name": "transferFrom",
      "outputs": [
        {
          "internalType": "bool",
          "name": "",
          "type": "bool"
        }
      ],
      "stateMutability": "nonpayable",
      "type": "function"
    },
    {
      "inputs": [
        {
          "internalType": "address",
          "name": "newImplementation",
          "type": "address"
        }
      ],
      "name": "upgradeTo",
      "outputs": [],
      "stateMutability": "nonpayable",
      "type": "function"
    },
    {
      "inputs": [
        {
          "internalType": "address",
          "name": "newImplementation",
          "type": "address"
        },
        {
          "internalType": "bytes",
          "name": "data",
          "type": "bytes"
        }
      ],
      "name": "upgradeToAndCall",
      "outputs": [],
      "stateMutability": "payable",
      "type": "function"
    }
  ],
  "bytecode": "0x60a06040523060601b60805234801561001757600080fd5b50600054610100900460ff1680610031575060005460ff16155b6100985760405162461bcd60e51b815260206004820152602e60248201527f496e697469616c697a61626c653a20636f6e747261637420697320616c72656160448201526d191e481a5b9a5d1a585b1a5e995960921b606482015260840160405180910390fd5b600054610100900460ff161580156100c3576000805460ff1961ff0019909116610100171660011790555b80156100d5576000805461ff00191690555b5060805160601c6121c56101096000396000818161080e0152818161084e01528181610933015261097301526121c56000f3fe6080604052600436106101c25760003560e01c806340c10f19116100f757806396ef91a011610095578063a9059cbb11610064578063a9059cbb146104ea578063d547741f1461050a578063dd62ed3e1461052a578063ee0fc12114610570576101c2565b806396ef91a0146104755780639dc29fac14610495578063a217fddf146104b5578063a457c2d7146104ca576101c2565b80638129fc1c116100d15780638129fc1c1461040b57806391d148541461042057806392eefe9b1461044057806395d89b4114610460576101c2565b806340c10f19146103a25780634f1ef286146103c257806370a08231146103d5576101c2565b8063248a9ca311610164578063313ce5671161013e578063313ce5671461032657806336568abe146103425780633659cfe6146103625780633950935114610382576101c2565b8063248a9ca3146102b45780632a0acc6a146102e45780632f2ff15d14610306576101c2565b806318160ddd116101a057806318160ddd1461023e5780631824a46b1461025d57806323b872dd14610274578063240bd75b14610294576101c2565b806301ffc9a7146101c757806306fdde03146101fc578063095ea7b31461021e575b600080fd5b3480156101d357600080fd5b506101e76101e2366004611e07565b610592565b60405190151581526020015b60405180910390f35b34801561020857600080fd5b506102116105cb565b6040516101f39190611f17565b34801561022a57600080fd5b506101e7610239366004611da4565b61065d565b34801561024a57600080fd5b506035545b6040519081526020016101f3565b34801561026957600080fd5b50610272610673565b005b34801561028057600080fd5b506101e761028f366004611d0a565b610690565b3480156102a057600080fd5b506102726102af366004611dcd565b610741565b3480156102c057600080fd5b5061024f6102cf366004611dcd565b60009081526097602052604090206001015490565b3480156102f057600080fd5b5061024f60008051602061217083398151915281565b34801561031257600080fd5b50610272610321366004611de5565b61075e565b34801561033257600080fd5b50604051600981526020016101f3565b34801561034e57600080fd5b5061027261035d366004611de5565b610789565b34801561036e57600080fd5b5061027261037d366004611cbe565b610803565b34801561038e57600080fd5b506101e761039d366004611da4565b6108c9565b3480156103ae57600080fd5b506102726103bd366004611da4565b610905565b6102726103d0366004611d45565b610928565b3480156103e157600080fd5b5061024f6103f0366004611cbe565b6001600160a01b031660009081526033602052604090205490565b34801561041757600080fd5b506102726109de565b34801561042c57600080fd5b506101e761043b366004611de5565b610a9b565b34801561044c57600080fd5b5061027261045b366004611cbe565b610ac6565b34801561046c57600080fd5b50610211610af7565b34801561048157600080fd5b50610272610490366004611e2f565b610b06565b3480156104a157600080fd5b506102726104b0366004611da4565b610bed565b3480156104c157600080fd5b5061024f600081565b3480156104d657600080fd5b506101e76104e5366004611da4565b610c10565b3480156104f657600080fd5b506101e7610505366004611da4565b610ca9565b34801561051657600080fd5b50610272610525366004611de5565b610cb6565b34801561053657600080fd5b5061024f610545366004611cd8565b6001600160a01b03918216600090815260346020908152604080832093909416825291909152205490565b34801561057c57600080fd5b5061024f60008051602061212983398151915281565b60006001600160e01b03198216637965db0b60e01b14806105c357506301ffc9a760e01b6001600160e01b03198316145b90505b919050565b6060603680546105da906120c1565b80601f0160208091040260200160405190810160405280929190818152602001828054610606906120c1565b80156106535780601f1061062857610100808354040283529160200191610653565b820191906000526020600020905b81548152906001019060200180831161063657829003601f168201915b5050505050905090565b600061066a338484610cdc565b50600192915050565b60008051602061217083398151915261068d81335b610e00565b50565b600061069d848484610e64565b6001600160a01b0384166000908152603460209081526040808320338452909152902054828110156107275760405162461bcd60e51b815260206004820152602860248201527f45524332303a207472616e7366657220616d6f756e74206578636565647320616044820152676c6c6f77616e636560c01b60648201526084015b60405180910390fd5b6107348533858403610cdc565b60019150505b9392505050565b60008051602061212983398151915261075a8133610688565b5050565b60008281526097602052604090206001015461077a8133610688565b6107848383611034565b505050565b6001600160a01b03811633146107f95760405162461bcd60e51b815260206004820152602f60248201527f416363657373436f6e74726f6c3a2063616e206f6e6c792072656e6f756e636560448201526e103937b632b9903337b91039b2b63360891b606482015260840161071e565b61075a82826110ba565b306001600160a01b037f000000000000000000000000000000000000000000000000000000000000000016141561084c5760405162461bcd60e51b815260040161071e90611f4a565b7f00000000000000000000000000000000000000000000000000000000000000006001600160a01b031661087e611121565b6001600160a01b0316146108a45760405162461bcd60e51b815260040161071e90611f96565b6108ad8161114f565b6040805160008082526020820190925261068d91839190611168565b3360008181526034602090815260408083206001600160a01b0387168452909152812054909161066a918590610900908690612030565b610cdc565b60008051602061212983398151915261091e8133610688565b61078483836112b3565b306001600160a01b037f00000000000000000000000000000000000000000000000000000000000000001614156109715760405162461bcd60e51b815260040161071e90611f4a565b7f00000000000000000000000000000000000000000000000000000000000000006001600160a01b03166109a3611121565b6001600160a01b0316146109c95760405162461bcd60e51b815260040161071e90611f96565b6109d28261114f565b61075a82826001611168565b600054610100900460ff16806109f7575060005460ff16155b610a135760405162461bcd60e51b815260040161071e90611fe2565b600054610100900460ff16158015610a3e576000805460ff1961ff0019909116610100171660011790555b610a876040518060400160405280600b81526020016a14995913595b5bd41bdbdb60aa1b815250604051806040016040528060048152602001631493541360e21b815250610b06565b801561068d576000805461ff001916905550565b60009182526097602090815260408084206001600160a01b0393909316845291905290205460ff1690565b600080516020612170833981519152610adf8133610688565b61075a60008051602061212983398151915283611034565b6060603780546105da906120c1565b600054610100900460ff1680610b1f575060005460ff16155b610b3b5760405162461bcd60e51b815260040161071e90611fe2565b600054610100900460ff16158015610b66576000805460ff1961ff0019909116610100171660011790555b610b708383611393565b610b78611405565b610b8061147d565b610b99600080516020612170833981519152335b611034565b610bb160008051602061212983398151915233610b94565b610bd76000805160206121298339815191526000805160206121708339815191526114e4565b8015610784576000805461ff0019169055505050565b600080516020612129833981519152610c068133610688565b610784838361152f565b3360009081526034602090815260408083206001600160a01b038616845290915281205482811015610c925760405162461bcd60e51b815260206004820152602560248201527f45524332303a2064656372656173656420616c6c6f77616e63652062656c6f77604482015264207a65726f60d81b606482015260840161071e565b610c9f3385858403610cdc565b5060019392505050565b600061066a338484610e64565b600082815260976020526040902060010154610cd28133610688565b61078483836110ba565b6001600160a01b038316610d3e5760405162461bcd60e51b8152602060048201526024808201527f45524332303a20617070726f76652066726f6d20746865207a65726f206164646044820152637265737360e01b606482015260840161071e565b6001600160a01b038216610d9f5760405162461bcd60e51b815260206004820152602260248201527f45524332303a20617070726f766520746f20746865207a65726f206164647265604482015261737360f01b606482015260840161071e565b6001600160a01b0383811660008181526034602090815260408083209487168084529482529182902085905590518481527f8c5be1e5ebec7d5bd14f71427d1e84f3dd0314c0f7b2291e5b200ac8c7c3b925910160405180910390a3505050565b610e0a8282610a9b565b61075a57610e22816001600160a01b0316601461167d565b610e2d83602061167d565b604051602001610e3e929190611ea2565b60408051601f198184030181529082905262461bcd60e51b825261071e91600401611f17565b6001600160a01b038316610ec85760405162461bcd60e51b815260206004820152602560248201527f45524332303a207472616e736665722066726f6d20746865207a65726f206164604482015264647265737360d81b606482015260840161071e565b6001600160a01b038216610f2a5760405162461bcd60e51b815260206004820152602360248201527f45524332303a207472616e7366657220746f20746865207a65726f206164647260448201526265737360e81b606482015260840161071e565b6001600160a01b03831660009081526033602052604090205481811015610fa25760405162461bcd60e51b815260206004820152602660248201527f45524332303a207472616e7366657220616d6f756e7420657863656564732062604482015265616c616e636560d01b606482015260840161071e565b6001600160a01b03808516600090815260336020526040808220858503905591851681529081208054849290610fd9908490612030565b92505081905550826001600160a01b0316846001600160a01b03167fddf252ad1be2c89b69c2b068fc378daa952ba7f163c4a11628f55a4df523b3ef8460405161102591815260200190565b60405180910390a35b50505050565b61103e8282610a9b565b61075a5760008281526097602090815260408083206001600160a01b03851684529091529020805460ff191660011790556110763390565b6001600160a01b0316816001600160a01b0316837f2f8788117e7eff1d82e926ec794901d17c78024a50270940304540a733656f0d60405160405180910390a45050565b6110c48282610a9b565b1561075a5760008281526097602090815260408083206001600160a01b0385168085529252808320805460ff1916905551339285917ff6391f5c32d9c69d2a47ea670b442974b53935d1edc7fd64eb21e047a839171b9190a45050565b7f360894a13ba1a3210667c828492db98dca3e2076cc3735a920a3ca505d382bbc546001600160a01b031690565b60008051602061217083398151915261075a8133610688565b6000611172611121565b905061117d8461185f565b60008351118061118a5750815b1561119b576111998484611904565b505b7f4910fdfa16fed3260ed0e7147f7cc6da11a60208b5b9406d12a635614ffd9143805460ff166112ac57805460ff191660011781556040516001600160a01b038316602482015261121a90869060440160408051601f198184030181529190526020810180516001600160e01b0316631b2ce7f360e11b179052611904565b50805460ff1916815561122b611121565b6001600160a01b0316826001600160a01b0316146112a35760405162461bcd60e51b815260206004820152602f60248201527f45524331393637557067726164653a207570677261646520627265616b73206660448201526e75727468657220757067726164657360881b606482015260840161071e565b6112ac856119ef565b5050505050565b6001600160a01b0382166113095760405162461bcd60e51b815260206004820152601f60248201527f45524332303a206d696e7420746f20746865207a65726f206164647265737300604482015260640161071e565b806035600082825461131b9190612030565b90915550506001600160a01b03821660009081526033602052604081208054839290611348908490612030565b90915550506040518181526001600160a01b038316906000907fddf252ad1be2c89b69c2b068fc378daa952ba7f163c4a11628f55a4df523b3ef9060200160405180910390a361075a565b600054610100900460ff16806113ac575060005460ff16155b6113c85760405162461bcd60e51b815260040161071e90611fe2565b600054610100900460ff161580156113f3576000805460ff1961ff0019909116610100171660011790555b6113fb611a2f565b610bd78383611aa2565b600054610100900460ff168061141e575060005460ff16155b61143a5760405162461bcd60e51b815260040161071e90611fe2565b600054610100900460ff16158015611465576000805460ff1961ff0019909116610100171660011790555b61146d611a2f565b611475611a2f565b610a87611a2f565b600054610100900460ff1680611496575060005460ff16155b6114b25760405162461bcd60e51b815260040161071e90611fe2565b600054610100900460ff1615801561146d576000805460ff1961ff001990911661010017166001179055611475611a2f565b600082815260976020526040808220600101805490849055905190918391839186917fbd79b86ffe0ab8e8776151514217cd7cacd52c909f66475c3af44e129f0b00ff9190a4505050565b6001600160a01b03821661158f5760405162461bcd60e51b815260206004820152602160248201527f45524332303a206275726e2066726f6d20746865207a65726f206164647265736044820152607360f81b606482015260840161071e565b6001600160a01b038216600090815260336020526040902054818110156116035760405162461bcd60e51b815260206004820152602260248201527f45524332303a206275726e20616d6f756e7420657863656564732062616c616e604482015261636560f01b606482015260840161071e565b6001600160a01b0383166000908152603360205260408120838303905560358054849290611632908490612067565b90915550506040518281526000906001600160a01b038516907fddf252ad1be2c89b69c2b068fc378daa952ba7f163c4a11628f55a4df523b3ef9060200160405180910390a3610784565b6060600061168c836002612048565b611697906002612030565b67ffffffffffffffff8111156116bd57634e487b7160e01b600052604160045260246000fd5b6040519080825280601f01601f1916602001820160405280156116e7576020820181803683370190505b509050600360fc1b8160008151811061171057634e487b7160e01b600052603260045260246000fd5b60200101906001600160f81b031916908160001a905350600f60fb1b8160018151811061174d57634e487b7160e01b600052603260045260246000fd5b60200101906001600160f81b031916908160001a9053506000611771846002612048565b61177c906001612030565b90505b6001811115611810576f181899199a1a9b1b9c1cb0b131b232b360811b85600f16601081106117be57634e487b7160e01b600052603260045260246000fd5b1a60f81b8282815181106117e257634e487b7160e01b600052603260045260246000fd5b60200101906001600160f81b031916908160001a90535060049490941c93611809816120aa565b905061177f565b50831561073a5760405162461bcd60e51b815260206004820181905260248201527f537472696e67733a20686578206c656e67746820696e73756666696369656e74604482015260640161071e565b803b6118c35760405162461bcd60e51b815260206004820152602d60248201527f455243313936373a206e657720696d706c656d656e746174696f6e206973206e60448201526c1bdd08184818dbdb9d1c9858dd609a1b606482015260840161071e565b7f360894a13ba1a3210667c828492db98dca3e2076cc3735a920a3ca505d382bbc80546001600160a01b0319166001600160a01b0392909216919091179055565b6060823b6119635760405162461bcd60e51b815260206004820152602660248201527f416464726573733a2064656c65676174652063616c6c20746f206e6f6e2d636f6044820152651b9d1c9858dd60d21b606482015260840161071e565b600080846001600160a01b03168460405161197e9190611e86565b600060405180830381855af49150503d80600081146119b9576040519150601f19603f3d011682016040523d82523d6000602084013e6119be565b606091505b50915091506119e6828260405180606001604052806027815260200161214960279139611b40565b95945050505050565b6119f88161185f565b6040516001600160a01b038216907fbc7cd75a20ee27fd9adebab32041f755214dbc6bffa90cc0225b39da2e5c2d3b90600090a250565b600054610100900460ff1680611a48575060005460ff16155b611a645760405162461bcd60e51b815260040161071e90611fe2565b600054610100900460ff16158015610a87576000805460ff1961ff001990911661010017166001179055801561068d576000805461ff001916905550565b600054610100900460ff1680611abb575060005460ff16155b611ad75760405162461bcd60e51b815260040161071e90611fe2565b600054610100900460ff16158015611b02576000805460ff1961ff0019909116610100171660011790555b8251611b15906036906020860190611b79565b508151611b29906037906020850190611b79565b508015610784576000805461ff0019169055505050565b60608315611b4f57508161073a565b825115611b5f5782518084602001fd5b8160405162461bcd60e51b815260040161071e9190611f17565b828054611b85906120c1565b90600052602060002090601f016020900481019282611ba75760008555611bed565b82601f10611bc057805160ff1916838001178555611bed565b82800160010185558215611bed579182015b82811115611bed578251825591602001919060010190611bd2565b50611bf9929150611bfd565b5090565b5b80821115611bf95760008155600101611bfe565b600067ffffffffffffffff80841115611c2d57611c2d612112565b604051601f8501601f19908116603f01168101908282118183101715611c5557611c55612112565b81604052809350858152868686011115611c6e57600080fd5b858560208301376000602087830101525050509392505050565b80356001600160a01b03811681146105c657600080fd5b600082601f830112611caf578081fd5b61073a83833560208501611c12565b600060208284031215611ccf578081fd5b61073a82611c88565b60008060408385031215611cea578081fd5b611cf383611c88565b9150611d0160208401611c88565b90509250929050565b600080600060608486031215611d1e578081fd5b611d2784611c88565b9250611d3560208501611c88565b9150604084013590509250925092565b60008060408385031215611d57578182fd5b611d6083611c88565b9150602083013567ffffffffffffffff811115611d7b578182fd5b8301601f81018513611d8b578182fd5b611d9a85823560208401611c12565b9150509250929050565b60008060408385031215611db6578182fd5b611dbf83611c88565b946020939093013593505050565b600060208284031215611dde578081fd5b5035919050565b60008060408385031215611df7578182fd5b82359150611d0160208401611c88565b600060208284031215611e18578081fd5b81356001600160e01b03198116811461073a578182fd5b60008060408385031215611e41578182fd5b823567ffffffffffffffff80821115611e58578384fd5b611e6486838701611c9f565b93506020850135915080821115611e79578283fd5b50611d9a85828601611c9f565b60008251611e9881846020870161207e565b9190910192915050565b60007f416363657373436f6e74726f6c3a206163636f756e742000000000000000000082528351611eda81601785016020880161207e565b7001034b99036b4b9b9b4b733903937b6329607d1b6017918401918201528351611f0b81602884016020880161207e565b01602801949350505050565b6000602082528251806020840152611f3681604085016020870161207e565b601f01601f19169190910160400192915050565b6020808252602c908201527f46756e6374696f6e206d7573742062652063616c6c6564207468726f7567682060408201526b19195b1959d85d1958d85b1b60a21b606082015260800190565b6020808252602c908201527f46756e6374696f6e206d7573742062652063616c6c6564207468726f7567682060408201526b6163746976652070726f787960a01b606082015260800190565b6020808252602e908201527f496e697469616c697a61626c653a20636f6e747261637420697320616c72656160408201526d191e481a5b9a5d1a585b1a5e995960921b606082015260800190565b60008219821115612043576120436120fc565b500190565b6000816000190483118215151615612062576120626120fc565b500290565b600082821015612079576120796120fc565b500390565b60005b83811015612099578181015183820152602001612081565b8381111561102e5750506000910152565b6000816120b9576120b96120fc565b506000190190565b6002810460018216806120d557607f821691505b602082108114156120f657634e487b7160e01b600052602260045260246000fd5b50919050565b634e487b7160e01b600052601160045260246000fd5b634e487b7160e01b600052604160045260246000fdfe70546d1c92f8c2132ae23a23f5177aa8526356051c7510df99f50e012d221529416464726573733a206c6f772d6c6576656c2064656c65676174652063616c6c206661696c6564df8b4c520ffe197c5343c6f5aec59570151ef9a492f2c624fd45ddde6135ec42a2646970667358221220bccb50eeeb1cfddc410f060fdf1b8d593aca5e4934253e8fbe27076b2acb170b64736f6c63430008020033",
  "linkReferences": {},
  "deployedLinkReferences": {}
}