{
  "_format": "hh-sol-artifact-1",
  "contractName": "MEMOries",
  "sourceName": "contracts/mock-memo.sol",
  "abi": [
    {
      "inputs": [],
      "stateMutability": "nonpayable",
      "type": "constructor"
    },
    {
      "anonymous": false,
      "inputs": [
        {
          "indexed": true,
          "internalType": "address",
          "name": "owner",
          "type": "address"
        },
        {
          "indexed": true,
          "internalType": "address",
          "name": "spender",
          "type": "address"
        },
        {
          "indexed": false,
          "internalType": "uint256",
          "name": "value",
          "type": "uint256"
        }
      ],
      "name": "Approval",
      "type": "event"
    },
    {
      "anonymous": false,
      "inputs": [
        {
          "indexed": true,
          "internalType": "uint256",
          "name": "epoch",
          "type": "uint256"
        },
        {
          "indexed": false,
          "internalType": "uint256",
          "name": "rebase",
          "type": "uint256"
        },
        {
          "indexed": false,
          "internalType": "uint256",
          "name": "index",
          "type": "uint256"
        }
      ],
      "name": "LogRebase",
      "type": "event"
    },
    {
      "anonymous": false,
      "inputs": [
        {
          "indexed": false,
          "internalType": "address",
          "name": "stakingContract",
          "type": "address"
        }
      ],
      "name": "LogStakingContractUpdated",
      "type": "event"
    },
    {
      "anonymous": false,
      "inputs": [
        {
          "indexed": true,
          "internalType": "uint256",
          "name": "epoch",
          "type": "uint256"
        },
        {
          "indexed": false,
          "internalType": "uint256",
          "name": "timestamp",
          "type": "uint256"
        },
        {
          "indexed": false,
          "internalType": "uint256",
          "name": "totalSupply",
          "type": "uint256"
        }
      ],
      "name": "LogSupply",
      "type": "event"
    },
    {
      "anonymous": false,
      "inputs": [
        {
          "indexed": true,
          "internalType": "address",
          "name": "previousOwner",
          "type": "address"
        },
        {
          "indexed": true,
          "internalType": "address",
          "name": "newOwner",
          "type": "address"
        }
      ],
      "name": "OwnershipPulled",
      "type": "event"
    },
    {
      "anonymous": false,
      "inputs": [
        {
          "indexed": true,
          "internalType": "address",
          "name": "previousOwner",
          "type": "address"
        },
        {
          "indexed": true,
          "internalType": "address",
          "name": "newOwner",
          "type": "address"
        }
      ],
      "name": "OwnershipPushed",
      "type": "event"
    },
    {
      "anonymous": false,
      "inputs": [
        {
          "indexed": true,
          "internalType": "address",
          "name": "from",
          "type": "address"
        },
        {
          "indexed": true,
          "internalType": "address",
          "name": "to",
          "type": "address"
        },
        {
          "indexed": false,
          "internalType": "uint256",
          "name": "value",
          "type": "uint256"
        }
      ],
      "name": "Transfer",
      "type": "event"
    },
    {
      "inputs": [],
      "name": "DOMAIN_SEPARATOR",
      "outputs": [
        {
          "internalType": "bytes32",
          "name": "",
          "type": "bytes32"
        }
      ],
      "stateMutability": "view",
      "type": "function"
    },
    {
      "inputs": [],
      "name": "INDEX",
      "outputs": [
        {
          "internalType": "uint256",
          "name": "",
          "type": "uint256"
        }
      ],
      "stateMutability": "view",
      "type": "function"
    },
    {
      "inputs": [],
      "name": "PERMIT_TYPEHASH",
      "outputs": [
        {
          "internalType": "bytes32",
          "name": "",
          "type": "bytes32"
        }
      ],
      "stateMutability": "view",
      "type": "function"
    },
    {
      "inputs": [
        {
          "internalType": "address",
          "name": "owner_",
          "type": "address"
        },
        {
          "internalType": "address",
          "name": "spender",
          "type": "address"
        }
      ],
      "name": "allowance",
      "outputs": [
        {
          "internalType": "uint256",
          "name": "",
          "type": "uint256"
        }
      ],
      "stateMutability": "view",
      "type": "function"
    },
    {
      "inputs": [
        {
          "internalType": "address",
          "name": "spender",
          "type": "address"
        },
        {
          "internalType": "uint256",
          "name": "value",
          "type": "uint256"
        }
      ],
      "name": "approve",
      "outputs": [
        {
          "internalType": "bool",
          "name": "",
          "type": "bool"
        }
      ],
      "stateMutability": "nonpayable",
      "type": "function"
    },
    {
      "inputs": [
        {
          "internalType": "uint256",
          "name": "gons",
          "type": "uint256"
        }
      ],
      "name": "balanceForGons",
      "outputs": [
        {
          "internalType": "uint256",
          "name": "",
          "type": "uint256"
        }
      ],
      "stateMutability": "view",
      "type": "function"
    },
    {
      "inputs": [
        {
          "internalType": "address",
          "name": "who",
          "type": "address"
        }
      ],
      "name": "balanceOf",
      "outputs": [
        {
          "internalType": "uint256",
          "name": "",
          "type": "uint256"
        }
      ],
      "stateMutability": "view",
      "type": "function"
    },
    {
      "inputs": [],
      "name": "circulatingSupply",
      "outputs": [
        {
          "internalType": "uint256",
          "name": "",
          "type": "uint256"
        }
      ],
      "stateMutability": "view",
      "type": "function"
    },
    {
      "inputs": [],
      "name": "decimals",
      "outputs": [
        {
          "internalType": "uint8",
          "name": "",
          "type": "uint8"
        }
      ],
      "stateMutability": "view",
      "type": "function"
    },
    {
      "inputs": [
        {
          "internalType": "address",
          "name": "spender",
          "type": "address"
        },
        {
          "internalType": "uint256",
          "name": "subtractedValue",
          "type": "uint256"
        }
      ],
      "name": "decreaseAllowance",
      "outputs": [
        {
          "internalType": "bool",
          "name": "",
          "type": "bool"
        }
      ],
      "stateMutability": "nonpayable",
      "type": "function"
    },
    {
      "inputs": [
        {
          "internalType": "uint256",
          "name": "amount",
          "type": "uint256"
        }
      ],
      "name": "gonsForBalance",
      "outputs": [
        {
          "internalType": "uint256",
          "name": "",
          "type": "uint256"
        }
      ],
      "stateMutability": "view",
      "type": "function"
    },
    {
      "inputs": [
        {
          "internalType": "address",
          "name": "spender",
          "type": "address"
        },
        {
          "internalType": "uint256",
          "name": "addedValue",
          "type": "uint256"
        }
      ],
      "name": "increaseAllowance",
      "outputs": [
        {
          "internalType": "bool",
          "name": "",
          "type": "bool"
        }
      ],
      "stateMutability": "nonpayable",
      "type": "function"
    },
    {
      "inputs": [],
      "name": "index",
      "outputs": [
        {
          "internalType": "uint256",
          "name": "",
          "type": "uint256"
        }
      ],
      "stateMutability": "view",
      "type": "function"
    },
    {
      "inputs": [
        {
          "internalType": "address",
          "name": "stakingContract_",
          "type": "address"
        }
      ],
      "name": "initialize",
      "outputs": [
        {
          "internalType": "bool",
          "name": "",
          "type": "bool"
        }
      ],
      "stateMutability": "nonpayable",
      "type": "function"
    },
    {
      "inputs": [],
      "name": "initializer",
      "outputs": [
        {
          "internalType": "address",
          "name": "",
          "type": "address"
        }
      ],
      "stateMutability": "view",
      "type": "function"
    },
    {
      "inputs": [],
      "name": "manager",
      "outputs": [
        {
          "internalType": "address",
          "name": "",
          "type": "address"
        }
      ],
      "stateMutability": "view",
      "type": "function"
    },
    {
      "inputs": [],
      "name": "name",
      "outputs": [
        {
          "internalType": "string",
          "name": "",
          "type": "string"
        }
      ],
      "stateMutability": "view",
      "type": "function"
    },
    {
      "inputs": [
        {
          "internalType": "address",
          "name": "owner",
          "type": "address"
        }
      ],
      "name": "nonces",
      "outputs": [
        {
          "internalType": "uint256",
          "name": "",
          "type": "uint256"
        }
      ],
      "stateMutability": "view",
      "type": "function"
    },
    {
      "inputs": [
        {
          "internalType": "address",
          "name": "owner",
          "type": "address"
        },
        {
          "internalType": "address",
          "name": "spender",
          "type": "address"
        },
        {
          "internalType": "uint256",
          "name": "amount",
          "type": "uint256"
        },
        {
          "internalType": "uint256",
          "name": "deadline",
          "type": "uint256"
        },
        {
          "internalType": "uint8",
          "name": "v",
          "type": "uint8"
        },
        {
          "internalType": "bytes32",
          "name": "r",
          "type": "bytes32"
        },
        {
          "internalType": "bytes32",
          "name": "s",
          "type": "bytes32"
        }
      ],
      "name": "permit",
      "outputs": [],
      "stateMutability": "nonpayable",
      "type": "function"
    },
    {
      "inputs": [],
      "name": "pullManagement",
      "outputs": [],
      "stateMutability": "nonpayable",
      "type": "function"
    },
    {
      "inputs": [
        {
          "internalType": "address",
          "name": "newOwner_",
          "type": "address"
        }
      ],
      "name": "pushManagement",
      "outputs": [],
      "stateMutability": "nonpayable",
      "type": "function"
    },
    {
      "inputs": [
        {
          "internalType": "uint256",
          "name": "profit_",
          "type": "uint256"
        },
        {
          "internalType": "uint256",
          "name": "epoch_",
          "type": "uint256"
        }
      ],
      "name": "rebase",
      "outputs": [
        {
          "internalType": "uint256",
          "name": "",
          "type": "uint256"
        }
      ],
      "stateMutability": "nonpayable",
      "type": "function"
    },
    {
      "inputs": [
        {
          "internalType": "uint256",
          "name": "",
          "type": "uint256"
        }
      ],
      "name": "rebases",
      "outputs": [
        {
          "internalType": "uint256",
          "name": "epoch",
          "type": "uint256"
        },
        {
          "internalType": "uint256",
          "name": "rebase",
          "type": "uint256"
        },
        {
          "internalType": "uint256",
          "name": "totalStakedBefore",
          "type": "uint256"
        },
        {
          "internalType": "uint256",
          "name": "totalStakedAfter",
          "type": "uint256"
        },
        {
          "internalType": "uint256",
          "name": "amountRebased",
          "type": "uint256"
        },
        {
          "internalType": "uint256",
          "name": "index",
          "type": "uint256"
        },
        {
          "internalType": "uint32",
          "name": "timeOccured",
          "type": "uint32"
        }
      ],
      "stateMutability": "view",
      "type": "function"
    },
    {
      "inputs": [],
      "name": "renounceManagement",
      "outputs": [],
      "stateMutability": "nonpayable",
      "type": "function"
    },
    {
      "inputs": [
        {
          "internalType": "uint256",
          "name": "_INDEX",
          "type": "uint256"
        }
      ],
      "name": "setIndex",
      "outputs": [
        {
          "internalType": "bool",
          "name": "",
          "type": "bool"
        }
      ],
      "stateMutability": "nonpayable",
      "type": "function"
    },
    {
      "inputs": [],
      "name": "stakingContract",
      "outputs": [
        {
          "internalType": "address",
          "name": "",
          "type": "address"
        }
      ],
      "stateMutability": "view",
      "type": "function"
    },
    {
      "inputs": [],
      "name": "symbol",
      "outputs": [
        {
          "internalType": "string",
          "name": "",
          "type": "string"
        }
      ],
      "stateMutability": "view",
      "type": "function"
    },
    {
      "inputs": [],
      "name": "totalSupply",
      "outputs": [
        {
          "internalType": "uint256",
          "name": "",
          "type": "uint256"
        }
      ],
      "stateMutability": "view",
      "type": "function"
    },
    {
      "inputs": [
        {
          "internalType": "address",
          "name": "to",
          "type": "address"
        },
        {
          "internalType": "uint256",
          "name": "value",
          "type": "uint256"
        }
      ],
      "name": "transfer",
      "outputs": [
        {
          "internalType": "bool",
          "name": "",
          "type": "bool"
        }
      ],
      "stateMutability": "nonpayable",
      "type": "function"
    },
    {
      "inputs": [
        {
          "internalType": "address",
          "name": "from",
          "type": "address"
        },
        {
          "internalType": "address",
          "name": "to",
          "type": "address"
        },
        {
          "internalType": "uint256",
          "name": "value",
          "type": "uint256"
        }
      ],
      "name": "transferFrom",
      "outputs": [
        {
          "internalType": "bool",
          "name": "",
          "type": "bool"
        }
      ],
      "stateMutability": "nonpayable",
      "type": "function"
    }
  ],
  "bytecode": "0x60806040523480156200001157600080fd5b5060408051808201825260088152674d454d4f7269657360c01b6020808301918252835180850190945260048452634d454d4f60e01b90840152815191929160099162000062916003919062000310565b5081516200007890600490602085019062000310565b506005805460ff191660ff92909216919091179055504690507f8b73c3c69bb8fe3d512ecc4cf759cc79239f7b179b0ffacaa9a75d522b39400f620000bc620001e0565b805160209182012060408051808201825260018152603160f81b90840152805192830193909352918101919091527fc89efdaa54c0f20c7adf612882df0950f5a951637e0307cdcb4c672f298b8bc66060820152608081018290523060a082015260c00160408051601f19818403018152908290528051602090910120600755600880546001600160a01b0319163317908190556001600160a01b031691506000907fea8258f2d9ddb679928cf34b78cf645b7feda9acc828e4dd82d014eaae270eba908290a3600b80546001600160a01b031916331790556611c37937e080006002819055620001d790620001b58160001962000484565b620001c39060001962000423565b6200027a60201b620010d11790919060201c565b600e55620004b1565b606060038054620001f19062000447565b80601f01602080910402602001604051908101604052809291908181526020018280546200021f9062000447565b8015620002705780601f10620002445761010080835404028352916020019162000270565b820191906000526020600020905b8154815290600101906020018083116200025257829003601f168201915b5050505050905090565b6000620002c483836040518060400160405280601a81526020017f536166654d6174683a206469766973696f6e206279207a65726f000000000000815250620002cb60201b60201c565b9392505050565b60008183620002f85760405162461bcd60e51b8152600401620002ef9190620003b6565b60405180910390fd5b5060006200030784866200040c565b95945050505050565b8280546200031e9062000447565b90600052602060002090601f0160209004810192826200034257600085556200038d565b82601f106200035d57805160ff19168380011785556200038d565b828001600101855582156200038d579182015b828111156200038d57825182559160200191906001019062000370565b506200039b9291506200039f565b5090565b5b808211156200039b5760008155600101620003a0565b6000602080835283518082850152825b81811015620003e457858101830151858201604001528201620003c6565b81811115620003f65783604083870101525b50601f01601f1916929092016040019392505050565b6000826200041e576200041e6200049b565b500490565b6000828210156200044257634e487b7160e01b81526011600452602481fd5b500390565b6002810460018216806200045c57607f821691505b602082108114156200047e57634e487b7160e01b600052602260045260246000fd5b50919050565b6000826200049657620004966200049b565b500690565b634e487b7160e01b600052601260045260246000fd5b61179980620004c16000396000f3fe608060405234801561001057600080fd5b50600436106101da5760003560e01c8063481c6a751161010457806395d89b41116100a2578063c4d66de811610071578063c4d66de814610401578063d505accf14610414578063dd62ed3e14610427578063ee99205c14610460576101da565b806395d89b41146103c05780639ce110d7146103c8578063a457c2d7146103db578063a9059cbb146103ee576101da565b806373c69eb7116100de57806373c69eb7146103445780637965d56d146103925780637ecebe00146103a55780639358928b146103b8576101da565b8063481c6a75146103045780635a96ac0a1461032957806370a0823114610331576101da565b80632986c0e51161017c5780633644e5151161014b5780633644e515146102c257806339509351146102cb57806340a5737f146102de57806346f68ee9146102f1576101da565b80632986c0e5146102755780632df75cb11461027d57806330adf81f14610286578063313ce567146102ad576101da565b8063095ea7b3116101b8578063095ea7b31461022457806318160ddd146102475780631bd396741461024f57806323b872dd14610262576101da565b8063058ecdb4146101df57806306fdde0314610205578063089208d81461021a575b600080fd5b6101f26101ed3660046115bd565b610473565b6040519081526020015b60405180910390f35b61020d6105d3565b6040516101fc91906115de565b610222610665565b005b61023761023236600461157c565b6106e2565b60405190151581526020016101fc565b6002546101f2565b6101f261025d3660046115a5565b61073c565b6102376102703660046114d0565b61075b565b6101f2610898565b6101f2600d5481565b6101f27f6e71edae12b1b97f4d1f60370fef10105fa2faae0126114a169c64845d6126c981565b60055460405160ff90911681526020016101fc565b6101f260075481565b6102376102d936600461157c565b6108aa565b6102376102ec3660046115a5565b61091d565b6102226102ff366004611484565b61096b565b6008546001600160a01b03165b6040516001600160a01b0390911681526020016101fc565b610222610a56565b6101f261033f366004611484565b610b1e565b6103576103523660046115a5565b610b46565b604080519788526020880196909652948601939093526060850191909152608084015260a083015263ffffffff1660c082015260e0016101fc565b6101f26103a03660046115a5565b610b9b565b6101f26103b3366004611484565b610bb2565b6101f2610bd0565b61020d610bf5565b600b54610311906001600160a01b031681565b6102376103e936600461157c565b610c04565b6102376103fc36600461157c565b610cda565b61023761040f366004611484565b610d8c565b61022261042236600461150b565b610ea8565b6101f261043536600461149e565b6001600160a01b03918216600090815260106020908152604080832093909416825291909152205490565b600a54610311906001600160a01b031681565b600a546000906001600160a01b0316331461048d57600080fd5b600080610498610bd0565b90508461053457837f917acfbe39be6509ccf7fecb66a7e42ce2be1083c2d7dd3b9b7491dabddb8da4426002546040516104dc929190918252602082015260400190565b60405180910390a2837f6012dbce857565c4a40974aa5de8373a761fc429077ef0c8c8611d1e20d63fb26000610510610898565b6040805192835260208301919091520160405180910390a2600254925050506105cd565b801561056057610559816105536002548861111a90919063ffffffff16565b906110d1565b9150610564565b8491505b6002546105719083611199565b60028190556001600160801b031015610590576001600160801b036002555b6002546105b6906105aa6611c37937e08000600019611703565b610553906000196116b1565b600e556105c48186866111f8565b50600254925050505b92915050565b6060600380546105e2906116c8565b80601f016020809104026020016040519081016040528092919081815260200182805461060e906116c8565b801561065b5780601f106106305761010080835404028352916020019161065b565b820191906000526020600020905b81548152906001019060200180831161063e57829003601f168201915b5050505050905090565b6008546001600160a01b031633146106985760405162461bcd60e51b815260040161068f90611631565b60405180910390fd5b6008546040516000916001600160a01b0316907fea8258f2d9ddb679928cf34b78cf645b7feda9acc828e4dd82d014eaae270eba908390a3600880546001600160a01b0319169055565b3360008181526010602090815260408083206001600160a01b038716808552925280832085905551919290916000805160206117448339815191529061072b9086815260200190565b60405180910390a350600192915050565b6000610753600e548361111a90919063ffffffff16565b90505b919050565b6001600160a01b03831660009081526010602090815260408083203384529091528120546107899083611357565b6001600160a01b03851660008181526010602090815260408083203380855290835292819020859055519384529092600080516020611744833981519152910160405180910390a360006107dc8361073c565b6001600160a01b0386166000908152600f60205260409020549091506108029082611357565b6001600160a01b038087166000908152600f602052604080822093909355908616815220546108319082611199565b6001600160a01b038086166000818152600f602052604090819020939093559151908716907fddf252ad1be2c89b69c2b068fc378daa952ba7f163c4a11628f55a4df523b3ef906108859087815260200190565b60405180910390a3506001949350505050565b60006108a5600d54610b9b565b905090565b3360009081526010602090815260408083206001600160a01b03861684529091528120546108d89083611199565b3360008181526010602090815260408083206001600160a01b03891680855290835292819020859055519384529092600080516020611744833981519152910161072b565b6008546000906001600160a01b0316331461094a5760405162461bcd60e51b815260040161068f90611631565b600d541561095757600080fd5b6109608261073c565b600d55506001919050565b6008546001600160a01b031633146109955760405162461bcd60e51b815260040161068f90611631565b6001600160a01b0381166109fa5760405162461bcd60e51b815260206004820152602660248201527f4f776e61626c653a206e6577206f776e657220697320746865207a65726f206160448201526564647265737360d01b606482015260840161068f565b6008546040516001600160a01b038084169216907fea8258f2d9ddb679928cf34b78cf645b7feda9acc828e4dd82d014eaae270eba90600090a3600980546001600160a01b0319166001600160a01b0392909216919091179055565b6009546001600160a01b03163314610abb5760405162461bcd60e51b815260206004820152602260248201527f4f776e61626c653a206d757374206265206e6577206f776e657220746f2070756044820152611b1b60f21b606482015260840161068f565b6009546008546040516001600160a01b0392831692909116907faa151555690c956fc3ea32f106bb9f119b5237a061eaa8557cff3e51e3792c8d90600090a3600954600880546001600160a01b0319166001600160a01b03909216919091179055565b600e546001600160a01b0382166000908152600f6020526040812054909161075391906110d1565b600c8181548110610b5657600080fd5b60009182526020909120600790910201805460018201546002830154600384015460048501546005860154600690960154949650929491939092919063ffffffff1687565b6000610753600e54836110d190919063ffffffff16565b6001600160a01b038116600090815260066020526040812054610753565b600a546000906108a590610bec906001600160a01b0316610b1e565b60025490611357565b6060600480546105e2906116c8565b3360009081526010602090815260408083206001600160a01b0386168452909152812054808310610c58573360009081526010602090815260408083206001600160a01b0388168452909152812055610c87565b610c628184611357565b3360009081526010602090815260408083206001600160a01b03891684529091529020555b3360008181526010602090815260408083206001600160a01b0389168085529083529281902054905190815291929160008051602061174483398151915291015b60405180910390a35060019392505050565b600080610cf2600e548461111a90919063ffffffff16565b336000908152600f6020526040902054909150610d0f9082611357565b336000908152600f6020526040808220929092556001600160a01b03861681522054610d3b9082611199565b6001600160a01b0385166000818152600f60205260409081902092909255905133907fddf252ad1be2c89b69c2b068fc378daa952ba7f163c4a11628f55a4df523b3ef90610cc89087815260200190565b600b546000906001600160a01b03163314610da657600080fd5b6001600160a01b038216610db957600080fd5b600a80546001600160a01b0319166001600160a01b038416179055610de76611c37937e08000600019611703565b610df3906000196116b1565b600a80546001600160a01b039081166000908152600f602052604080822094909455915460025493519116927fddf252ad1be2c89b69c2b068fc378daa952ba7f163c4a11628f55a4df523b3ef91610e4d91815260200190565b60405180910390a36040516001600160a01b03831681527f817c653428858ed536dc085c5d8273734c517b55de44b55f5c5877a75e3373a19060200160405180910390a15050600b80546001600160a01b0319169055600190565b83421115610ef85760405162461bcd60e51b815260206004820152601860248201527f5065726d69743a206578706972656420646561646c696e650000000000000000604482015260640161068f565b6001600160a01b0387811660008181526006602090815260408083205481517f6e71edae12b1b97f4d1f60370fef10105fa2faae0126114a169c64845d6126c98185015280830195909552948b166060850152608084018a905260a084019490945260c08084018990528451808503909101815260e08401855280519082012060075461190160f01b61010086015261010285015261012280850182905285518086039091018152610142850180875281519184019190912090849052610162850180875281905260ff89166101828601526101a285018890526101c2850187905294519094936001926101e2808301939192601f198301929081900390910190855afa15801561100d573d6000803e3d6000fd5b5050604051601f1901519150506001600160a01b038116158015906110435750896001600160a01b0316816001600160a01b0316145b6110995760405162461bcd60e51b815260206004820152602160248201527f5a65726f537761705065726d69743a20496e76616c6964207369676e617475726044820152606560f81b606482015260840161068f565b6001600160a01b038a1660009081526006602052604090206110ba90611399565b6110c58a8a8a6113b6565b50505050505050505050565b600061111383836040518060400160405280601a81526020017f536166654d6174683a206469766973696f6e206279207a65726f000000000000815250611405565b9392505050565b600082611129575060006105cd565b60006111358385611692565b905082611142858361167e565b146111135760405162461bcd60e51b815260206004820152602160248201527f536166654d6174683a206d756c7469706c69636174696f6e206f766572666c6f6044820152607760f81b606482015260840161068f565b6000806111a68385611666565b9050838110156111135760405162461bcd60e51b815260206004820152601b60248201527f536166654d6174683a206164646974696f6e206f766572666c6f770000000000604482015260640161068f565b6000806112118561055386670de0b6b3a764000061111a565b9050600c6040518060e0016040528085815260200183815260200187815260200161123a610bd0565b815260200186815260200161124d610898565b81524263ffffffff81811660209384015284546001808201875560009687529584902085516007909202019081558484015195810195909555604080850151600280880191909155606086015160038801556080860151600488015560a0860151600588015560c0909501516006909601805463ffffffff191696909216959095179055915483519283529082015284917f917acfbe39be6509ccf7fecb66a7e42ce2be1083c2d7dd3b9b7491dabddb8da4910160405180910390a2827f6012dbce857565c4a40974aa5de8373a761fc429077ef0c8c8611d1e20d63fb282611334610898565b6040805192835260208301919091520160405180910390a2506001949350505050565b600061111383836040518060400160405280601e81526020017f536166654d6174683a207375627472616374696f6e206f766572666c6f77000081525061143c565b60018160000160008282546113ae9190611666565b909155505050565b6001600160a01b038381166000818152601060209081526040808320948716808452948252918290208590559051848152600080516020611744833981519152910160405180910390a3505050565b600081836114265760405162461bcd60e51b815260040161068f91906115de565b506000611433848661167e565b95945050505050565b600081848411156114605760405162461bcd60e51b815260040161068f91906115de565b50600061143384866116b1565b80356001600160a01b038116811461075657600080fd5b600060208284031215611495578081fd5b6111138261146d565b600080604083850312156114b0578081fd5b6114b98361146d565b91506114c76020840161146d565b90509250929050565b6000806000606084860312156114e4578081fd5b6114ed8461146d565b92506114fb6020850161146d565b9150604084013590509250925092565b600080600080600080600060e0888a031215611525578283fd5b61152e8861146d565b965061153c6020890161146d565b95506040880135945060608801359350608088013560ff8116811461155f578384fd5b9699959850939692959460a0840135945060c09093013592915050565b6000806040838503121561158e578182fd5b6115978361146d565b946020939093013593505050565b6000602082840312156115b6578081fd5b5035919050565b600080604083850312156115cf578182fd5b50508035926020909101359150565b6000602080835283518082850152825b8181101561160a578581018301518582016040015282016115ee565b8181111561161b5783604083870101525b50601f01601f1916929092016040019392505050565b6020808252818101527f4f776e61626c653a2063616c6c6572206973206e6f7420746865206f776e6572604082015260600190565b6000821982111561167957611679611717565b500190565b60008261168d5761168d61172d565b500490565b60008160001904831182151516156116ac576116ac611717565b500290565b6000828210156116c3576116c3611717565b500390565b6002810460018216806116dc57607f821691505b602082108114156116fd57634e487b7160e01b600052602260045260246000fd5b50919050565b6000826117125761171261172d565b500690565b634e487b7160e01b600052601160045260246000fd5b634e487b7160e01b600052601260045260246000fdfe8c5be1e5ebec7d5bd14f71427d1e84f3dd0314c0f7b2291e5b200ac8c7c3b925a2646970667358221220a4d732374dbe39fd06a182b041ff377129a8e6d9e249629e15498b7b0e4225b164736f6c63430008020033",
  "linkReferences": {},
  "deployedLinkReferences": {}
}