{
  "_format": "hh-sol-artifact-1",
  "contractName": "RBPoolController",
  "sourceName": "contracts/rb-pool-controller.sol",
  "abi": [
    {
      "inputs": [],
      "stateMutability": "nonpayable",
      "type": "constructor"
    },
    {
      "anonymous": false,
      "inputs": [
        {
          "indexed": false,
          "internalType": "address",
          "name": "previousAdmin",
          "type": "address"
        },
        {
          "indexed": false,
          "internalType": "address",
          "name": "newAdmin",
          "type": "address"
        }
      ],
      "name": "AdminChanged",
      "type": "event"
    },
    {
      "anonymous": false,
      "inputs": [
        {
          "indexed": true,
          "internalType": "address",
          "name": "beacon",
          "type": "address"
        }
      ],
      "name": "BeaconUpgraded",
      "type": "event"
    },
    {
      "anonymous": false,
      "inputs": [
        {
          "indexed": true,
          "internalType": "address",
          "name": "previousOwner",
          "type": "address"
        },
        {
          "indexed": true,
          "internalType": "address",
          "name": "newOwner",
          "type": "address"
        }
      ],
      "name": "OwnershipTransferred",
      "type": "event"
    },
    {
      "anonymous": false,
      "inputs": [
        {
          "indexed": true,
          "internalType": "address",
          "name": "implementation",
          "type": "address"
        }
      ],
      "name": "Upgraded",
      "type": "event"
    },
    {
      "inputs": [],
      "name": "MEMO_CONTRACT",
      "outputs": [
        {
          "internalType": "contract ERC20Permit",
          "name": "",
          "type": "address"
        }
      ],
      "stateMutability": "view",
      "type": "function"
    },
    {
      "inputs": [
        {
          "internalType": "address",
          "name": "account",
          "type": "address"
        },
        {
          "internalType": "uint256",
          "name": "amount",
          "type": "uint256"
        },
        {
          "internalType": "enum RBPoolController.Pool",
          "name": "pool",
          "type": "uint8"
        },
        {
          "components": [
            {
              "internalType": "address",
              "name": "owner",
              "type": "address"
            },
            {
              "internalType": "address",
              "name": "spender",
              "type": "address"
            },
            {
              "internalType": "uint256",
              "name": "amount",
              "type": "uint256"
            },
            {
              "internalType": "uint256",
              "name": "deadline",
              "type": "uint256"
            },
            {
              "internalType": "uint8",
              "name": "v",
              "type": "uint8"
            },
            {
              "internalType": "bytes32",
              "name": "r",
              "type": "bytes32"
            },
            {
              "internalType": "bytes32",
              "name": "s",
              "type": "bytes32"
            }
          ],
          "internalType": "struct RBPoolController.PermitSignature",
          "name": "permitSignature",
          "type": "tuple"
        }
      ],
      "name": "deposit",
      "outputs": [
        {
          "internalType": "bool",
          "name": "",
          "type": "bool"
        }
      ],
      "stateMutability": "nonpayable",
      "type": "function"
    },
    {
      "inputs": [
        {
          "internalType": "address",
          "name": "redMemoPool",
          "type": "address"
        },
        {
          "internalType": "address",
          "name": "blackMemoPool",
          "type": "address"
        }
      ],
      "name": "initialize",
      "outputs": [],
      "stateMutability": "nonpayable",
      "type": "function"
    },
    {
      "inputs": [
        {
          "components": [
            {
              "internalType": "address",
              "name": "owner",
              "type": "address"
            },
            {
              "internalType": "address",
              "name": "spender",
              "type": "address"
            },
            {
              "internalType": "uint256",
              "name": "amount",
              "type": "uint256"
            },
            {
              "internalType": "uint256",
              "name": "deadline",
              "type": "uint256"
            },
            {
              "internalType": "uint8",
              "name": "v",
              "type": "uint8"
            },
            {
              "internalType": "bytes32",
              "name": "r",
              "type": "bytes32"
            },
            {
              "internalType": "bytes32",
              "name": "s",
              "type": "bytes32"
            }
          ],
          "internalType": "struct RBPoolController.PermitSignature",
          "name": "permitSignature",
          "type": "tuple"
        }
      ],
      "name": "memoPermit",
      "outputs": [],
      "stateMutability": "nonpayable",
      "type": "function"
    },
    {
      "inputs": [],
      "name": "onUpgrade",
      "outputs": [],
      "stateMutability": "nonpayable",
      "type": "function"
    },
    {
      "inputs": [],
      "name": "owner",
      "outputs": [
        {
          "internalType": "address",
          "name": "",
          "type": "address"
        }
      ],
      "stateMutability": "view",
      "type": "function"
    },
    {
      "inputs": [
        {
          "internalType": "address",
          "name": "account",
          "type": "address"
        },
        {
          "internalType": "uint256",
          "name": "amount",
          "type": "uint256"
        },
        {
          "internalType": "enum RBPoolController.Pool",
          "name": "fromPool",
          "type": "uint8"
        },
        {
          "internalType": "enum RBPoolController.Pool",
          "name": "toPool",
          "type": "uint8"
        }
      ],
      "name": "poolSwap",
      "outputs": [],
      "stateMutability": "nonpayable",
      "type": "function"
    },
    {
      "inputs": [],
      "name": "renounceOwnership",
      "outputs": [],
      "stateMutability": "nonpayable",
      "type": "function"
    },
    {
      "inputs": [
        {
          "internalType": "address",
          "name": "newOwner",
          "type": "address"
        }
      ],
      "name": "transferOwnership",
      "outputs": [],
      "stateMutability": "nonpayable",
      "type": "function"
    },
    {
      "inputs": [
        {
          "internalType": "address",
          "name": "newImplementation",
          "type": "address"
        }
      ],
      "name": "upgradeTo",
      "outputs": [],
      "stateMutability": "nonpayable",
      "type": "function"
    },
    {
      "inputs": [
        {
          "internalType": "address",
          "name": "newImplementation",
          "type": "address"
        },
        {
          "internalType": "bytes",
          "name": "data",
          "type": "bytes"
        }
      ],
      "name": "upgradeToAndCall",
      "outputs": [],
      "stateMutability": "payable",
      "type": "function"
    },
    {
      "inputs": [
        {
          "internalType": "address",
          "name": "account",
          "type": "address"
        },
        {
          "internalType": "uint256",
          "name": "amount",
          "type": "uint256"
        },
        {
          "internalType": "enum RBPoolController.Pool",
          "name": "pool",
          "type": "uint8"
        }
      ],
      "name": "withdraw",
      "outputs": [
        {
          "internalType": "bool",
          "name": "",
          "type": "bool"
        }
      ],
      "stateMutability": "nonpayable",
      "type": "function"
    }
  ],
  "bytecode": "0x60a06040523060601b60805234801561001757600080fd5b50600054610100900460ff1680610031575060005460ff16155b6100985760405162461bcd60e51b815260206004820152602e60248201527f496e697469616c697a61626c653a20636f6e747261637420697320616c72656160448201526d191e481a5b9a5d1a585b1a5e995960921b606482015260840160405180910390fd5b600054610100900460ff161580156100c3576000805460ff1961ff0019909116610100171660011790555b80156100d5576000805461ff00191690555b5060805160601c6115ee610109600039600081816103130152818161035301528181610536015261057601526115ee6000f3fe6080604052600436106100a75760003560e01c8063715018a611610064578063715018a61461016b5780638da5cb5b146101805780638e29c338146101b2578063bb8b1c4f146101da578063d7210c78146101fa578063f2fde38b1461021a576100a7565b80631824a46b146100ac5780632892a977146100c35780633659cfe6146100f8578063485cc9551461011857806348a02dfd146101385780634f1ef28614610158575b600080fd5b3480156100b857600080fd5b506100c161023a565b005b3480156100cf57600080fd5b506100e36100de3660046112af565b61026f565b60405190151581526020015b60405180910390f35b34801561010457600080fd5b506100c16101133660046111c3565b610308565b34801561012457600080fd5b506100c16101333660046111dd565b6103d1565b34801561014457600080fd5b506100e3610153366004611336565b610488565b6100c161016636600461120f565b61052b565b34801561017757600080fd5b506100c16105e5565b34801561018c57600080fd5b506033546001600160a01b03165b6040516001600160a01b0390911681526020016100ef565b3480156101be57600080fd5b5061019a73136acd46c134e8269052c62a67042d6bdedde3c981565b3480156101e657600080fd5b506100c16101f5366004611399565b610619565b34801561020657600080fd5b506100c16102153660046112ea565b6106d5565b34801561022657600080fd5b506100c16102353660046111c3565b6107b5565b6033546001600160a01b0316331461026d5760405162461bcd60e51b8152600401610264906114e9565b60405180910390fd5b565b600061027a8261084d565b604051632770a7eb60e21b81526001600160a01b038681166004830152602482018690529190911690639dc29fac90604401600060405180830381600087803b1580156102c657600080fd5b505af11580156102da573d6000803e3d6000fd5b505050506102fd73136acd46c134e8269052c62a67042d6bdedde3c985856108a2565b5060015b9392505050565b306001600160a01b037f00000000000000000000000000000000000000000000000000000000000000001614156103515760405162461bcd60e51b815260040161026490611403565b7f00000000000000000000000000000000000000000000000000000000000000006001600160a01b0316610383610905565b6001600160a01b0316146103a95760405162461bcd60e51b81526004016102649061144f565b6103b281610933565b604080516000808252602082019092526103ce9183919061095d565b50565b600054610100900460ff16806103ea575060005460ff16155b6104065760405162461bcd60e51b81526004016102649061149b565b600054610100900460ff16158015610431576000805460ff1961ff0019909116610100171660011790555b610439610aa1565b610441610b25565b60c980546001600160a01b038086166001600160a01b03199283161790925560ca8054928516929091169190911790558015610483576000805461ff00191690555b505050565b600061049382610619565b6104b373136acd46c134e8269052c62a67042d6bdedde3c9863087610b95565b6104bc8361084d565b6040516340c10f1960e01b81526001600160a01b0387811660048301526024820187905291909116906340c10f1990604401600060405180830381600087803b15801561050857600080fd5b505af115801561051c573d6000803e3d6000fd5b50600198975050505050505050565b306001600160a01b037f00000000000000000000000000000000000000000000000000000000000000001614156105745760405162461bcd60e51b815260040161026490611403565b7f00000000000000000000000000000000000000000000000000000000000000006001600160a01b03166105a6610905565b6001600160a01b0316146105cc5760405162461bcd60e51b81526004016102649061144f565b6105d582610933565b6105e18282600161095d565b5050565b6033546001600160a01b0316331461060f5760405162461bcd60e51b8152600401610264906114e9565b61026d6000610bd3565b805160208201516040808401516060850151608086015160a087015160c0880151945163d505accf60e01b81526001600160a01b0397881660048201529690951660248701526044860192909252606485015260ff16608484015260a483019190915260c482015273136acd46c134e8269052c62a67042d6bdedde3c99063d505accf9060e401600060405180830381600087803b1580156106ba57600080fd5b505af11580156106ce573d6000803e3d6000fd5b5050505050565b6106de8261084d565b604051632770a7eb60e21b81526001600160a01b038681166004830152602482018690529190911690639dc29fac90604401600060405180830381600087803b15801561072a57600080fd5b505af115801561073e573d6000803e3d6000fd5b5050505061074b8161084d565b6040516340c10f1960e01b81526001600160a01b0386811660048301526024820186905291909116906340c10f1990604401600060405180830381600087803b15801561079757600080fd5b505af11580156107ab573d6000803e3d6000fd5b5050505050505050565b6033546001600160a01b031633146107df5760405162461bcd60e51b8152600401610264906114e9565b6001600160a01b0381166108445760405162461bcd60e51b815260206004820152602660248201527f4f776e61626c653a206e6577206f776e657220697320746865207a65726f206160448201526564647265737360d01b6064820152608401610264565b6103ce81610bd3565b600060c982600181111561087157634e487b7160e01b600052602160045260246000fd5b6002811061088f57634e487b7160e01b600052603260045260246000fd5b01546001600160a01b031690505b919050565b6040516001600160a01b03831660248201526044810182905261048390849063a9059cbb60e01b906064015b60408051601f198184030181529190526020810180516001600160e01b03166001600160e01b031990931692909217909152610c25565b7f360894a13ba1a3210667c828492db98dca3e2076cc3735a920a3ca505d382bbc546001600160a01b031690565b6033546001600160a01b031633146103ce5760405162461bcd60e51b8152600401610264906114e9565b6000610967610905565b905061097284610cf7565b60008351118061097f5750815b156109905761098e8484610d9c565b505b7f4910fdfa16fed3260ed0e7147f7cc6da11a60208b5b9406d12a635614ffd9143805460ff166106ce57805460ff191660011781556040516001600160a01b0383166024820152610a0f90869060440160408051601f198184030181529190526020810180516001600160e01b0316631b2ce7f360e11b179052610d9c565b50805460ff19168155610a20610905565b6001600160a01b0316826001600160a01b031614610a985760405162461bcd60e51b815260206004820152602f60248201527f45524331393637557067726164653a207570677261646520627265616b73206660448201526e75727468657220757067726164657360881b6064820152608401610264565b6106ce85610e87565b600054610100900460ff1680610aba575060005460ff16155b610ad65760405162461bcd60e51b81526004016102649061149b565b600054610100900460ff16158015610b01576000805460ff1961ff0019909116610100171660011790555b610b09610ec7565b610b11610f3a565b80156103ce576000805461ff001916905550565b600054610100900460ff1680610b3e575060005460ff16155b610b5a5760405162461bcd60e51b81526004016102649061149b565b600054610100900460ff16158015610b85576000805460ff1961ff0019909116610100171660011790555b610b8d610ec7565b610b11610ec7565b6040516001600160a01b0380851660248301528316604482015260648101829052610bcd9085906323b872dd60e01b906084016108ce565b50505050565b603380546001600160a01b038381166001600160a01b0319831681179093556040519116919082907f8be0079c531659141344cd1fd0a4f28419497f9722a3daafe3b4186f6b6457e090600090a35050565b6000610c7a826040518060400160405280602081526020017f5361666545524332303a206c6f772d6c6576656c2063616c6c206661696c6564815250856001600160a01b0316610fa39092919063ffffffff16565b8051909150156104835780806020019051810190610c989190611379565b6104835760405162461bcd60e51b815260206004820152602a60248201527f5361666545524332303a204552433230206f7065726174696f6e20646964206e6044820152691bdd081cdd58d8d9595960b21b6064820152608401610264565b803b610d5b5760405162461bcd60e51b815260206004820152602d60248201527f455243313936373a206e657720696d706c656d656e746174696f6e206973206e60448201526c1bdd08184818dbdb9d1c9858dd609a1b6064820152608401610264565b7f360894a13ba1a3210667c828492db98dca3e2076cc3735a920a3ca505d382bbc80546001600160a01b0319166001600160a01b0392909216919091179055565b6060823b610dfb5760405162461bcd60e51b815260206004820152602660248201527f416464726573733a2064656c65676174652063616c6c20746f206e6f6e2d636f6044820152651b9d1c9858dd60d21b6064820152608401610264565b600080846001600160a01b031684604051610e1691906113b4565b600060405180830381855af49150503d8060008114610e51576040519150601f19603f3d011682016040523d82523d6000602084013e610e56565b606091505b5091509150610e7e828260405180606001604052806027815260200161159260279139610fba565b95945050505050565b610e9081610cf7565b6040516001600160a01b038216907fbc7cd75a20ee27fd9adebab32041f755214dbc6bffa90cc0225b39da2e5c2d3b90600090a250565b600054610100900460ff1680610ee0575060005460ff16155b610efc5760405162461bcd60e51b81526004016102649061149b565b600054610100900460ff16158015610b11576000805460ff1961ff00199091166101001716600117905580156103ce576000805461ff001916905550565b600054610100900460ff1680610f53575060005460ff16155b610f6f5760405162461bcd60e51b81526004016102649061149b565b600054610100900460ff16158015610f9a576000805460ff1961ff0019909116610100171660011790555b610b1133610bd3565b6060610fb28484600085610ff3565b949350505050565b60608315610fc9575081610301565b825115610fd95782518084602001fd5b8160405162461bcd60e51b815260040161026491906113d0565b6060824710156110545760405162461bcd60e51b815260206004820152602660248201527f416464726573733a20696e73756666696369656e742062616c616e636520666f6044820152651c8818d85b1b60d21b6064820152608401610264565b843b6110a25760405162461bcd60e51b815260206004820152601d60248201527f416464726573733a2063616c6c20746f206e6f6e2d636f6e74726163740000006044820152606401610264565b600080866001600160a01b031685876040516110be91906113b4565b60006040518083038185875af1925050503d80600081146110fb576040519150601f19603f3d011682016040523d82523d6000602084013e611100565b606091505b5091509150611110828286610fba565b979650505050505050565b80356001600160a01b038116811461089d57600080fd5b80356002811061089d57600080fd5b600060e08284031215611152578081fd5b61115c60e061151e565b90506111678261111b565b81526111756020830161111b565b60208201526040820135604082015260608201356060820152608082013560ff811681146111a257600080fd5b8060808301525060a082013560a082015260c082013560c082015292915050565b6000602082840312156111d4578081fd5b6103018261111b565b600080604083850312156111ef578081fd5b6111f88361111b565b91506112066020840161111b565b90509250929050565b60008060408385031215611221578182fd5b61122a8361111b565b915060208084013567ffffffffffffffff80821115611247578384fd5b818601915086601f83011261125a578384fd5b81358181111561126c5761126c61157b565b61127e601f8201601f1916850161151e565b91508082528784828501011115611293578485fd5b8084840185840137810190920192909252919491935090915050565b6000806000606084860312156112c3578081fd5b6112cc8461111b565b9250602084013591506112e160408501611132565b90509250925092565b600080600080608085870312156112ff578081fd5b6113088561111b565b93506020850135925061131d60408601611132565b915061132b60608601611132565b905092959194509250565b600080600080610140858703121561134c578384fd5b6113558561111b565b93506020850135925061136a60408601611132565b915061132b8660608701611141565b60006020828403121561138a578081fd5b81518015158114610301578182fd5b600060e082840312156113aa578081fd5b6103018383611141565b600082516113c681846020870161154f565b9190910192915050565b60006020825282518060208401526113ef81604085016020870161154f565b601f01601f19169190910160400192915050565b6020808252602c908201527f46756e6374696f6e206d7573742062652063616c6c6564207468726f7567682060408201526b19195b1959d85d1958d85b1b60a21b606082015260800190565b6020808252602c908201527f46756e6374696f6e206d7573742062652063616c6c6564207468726f7567682060408201526b6163746976652070726f787960a01b606082015260800190565b6020808252602e908201527f496e697469616c697a61626c653a20636f6e747261637420697320616c72656160408201526d191e481a5b9a5d1a585b1a5e995960921b606082015260800190565b6020808252818101527f4f776e61626c653a2063616c6c6572206973206e6f7420746865206f776e6572604082015260600190565b604051601f8201601f1916810167ffffffffffffffff811182821017156115475761154761157b565b604052919050565b60005b8381101561156a578181015183820152602001611552565b83811115610bcd5750506000910152565b634e487b7160e01b600052604160045260246000fdfe416464726573733a206c6f772d6c6576656c2064656c65676174652063616c6c206661696c6564a26469706673582212200d68714de67a749ce3dfd0fa2679c1022c297902a74ab800cbc27767b359c0dd64736f6c63430008020033",
  "linkReferences": {},
  "deployedLinkReferences": {}
}