{
  "_format": "hh-sol-artifact-1",
  "contractName": "RBPoolController",
  "sourceName": "contracts/rb-pool-controller.sol",
  "abi": [
    {
      "inputs": [],
      "stateMutability": "nonpayable",
      "type": "constructor"
    },
    {
      "anonymous": false,
      "inputs": [
        {
          "indexed": false,
          "internalType": "address",
          "name": "previousAdmin",
          "type": "address"
        },
        {
          "indexed": false,
          "internalType": "address",
          "name": "newAdmin",
          "type": "address"
        }
      ],
      "name": "AdminChanged",
      "type": "event"
    },
    {
      "anonymous": false,
      "inputs": [
        {
          "indexed": true,
          "internalType": "address",
          "name": "beacon",
          "type": "address"
        }
      ],
      "name": "BeaconUpgraded",
      "type": "event"
    },
    {
      "anonymous": false,
      "inputs": [
        {
          "indexed": true,
          "internalType": "uint256",
          "name": "timestamp",
          "type": "uint256"
        },
        {
          "indexed": false,
          "internalType": "uint256",
          "name": "amount",
          "type": "uint256"
        },
        {
          "indexed": false,
          "internalType": "uint256",
          "name": "redSupply",
          "type": "uint256"
        },
        {
          "indexed": false,
          "internalType": "uint256",
          "name": "blackSupply",
          "type": "uint256"
        },
        {
          "indexed": false,
          "internalType": "uint8",
          "name": "selectedPool",
          "type": "uint8"
        }
      ],
      "name": "LogRebase",
      "type": "event"
    },
    {
      "anonymous": false,
      "inputs": [
        {
          "indexed": true,
          "internalType": "address",
          "name": "previousOwner",
          "type": "address"
        },
        {
          "indexed": true,
          "internalType": "address",
          "name": "newOwner",
          "type": "address"
        }
      ],
      "name": "OwnershipTransferred",
      "type": "event"
    },
    {
      "anonymous": false,
      "inputs": [
        {
          "indexed": true,
          "internalType": "address",
          "name": "implementation",
          "type": "address"
        }
      ],
      "name": "Upgraded",
      "type": "event"
    },
    {
      "inputs": [],
      "name": "MEMO_CONTRACT",
      "outputs": [
        {
          "internalType": "contract ERC20Permit",
          "name": "",
          "type": "address"
        }
      ],
      "stateMutability": "view",
      "type": "function"
    },
    {
      "inputs": [
        {
          "internalType": "uint256",
          "name": "amount",
          "type": "uint256"
        },
        {
          "internalType": "enum RBPoolController.Pool",
          "name": "pool",
          "type": "uint8"
        },
        {
          "components": [
            {
              "internalType": "address",
              "name": "owner",
              "type": "address"
            },
            {
              "internalType": "address",
              "name": "spender",
              "type": "address"
            },
            {
              "internalType": "uint256",
              "name": "amount",
              "type": "uint256"
            },
            {
              "internalType": "uint256",
              "name": "deadline",
              "type": "uint256"
            },
            {
              "internalType": "uint8",
              "name": "v",
              "type": "uint8"
            },
            {
              "internalType": "bytes32",
              "name": "r",
              "type": "bytes32"
            },
            {
              "internalType": "bytes32",
              "name": "s",
              "type": "bytes32"
            }
          ],
          "internalType": "struct RBPoolController.PermitSignature",
          "name": "permitSignature",
          "type": "tuple"
        }
      ],
      "name": "deposit",
      "outputs": [
        {
          "internalType": "bool",
          "name": "",
          "type": "bool"
        }
      ],
      "stateMutability": "nonpayable",
      "type": "function"
    },
    {
      "inputs": [],
      "name": "feeBP",
      "outputs": [
        {
          "internalType": "uint16",
          "name": "",
          "type": "uint16"
        }
      ],
      "stateMutability": "view",
      "type": "function"
    },
    {
      "inputs": [],
      "name": "feeCollector",
      "outputs": [
        {
          "internalType": "address payable",
          "name": "",
          "type": "address"
        }
      ],
      "stateMutability": "view",
      "type": "function"
    },
    {
      "inputs": [
        {
          "internalType": "address",
          "name": "redMemoPool",
          "type": "address"
        },
        {
          "internalType": "address",
          "name": "blackMemoPool",
          "type": "address"
        },
        {
          "internalType": "bytes32",
          "name": "initialSeedHash",
          "type": "bytes32"
        },
        {
          "internalType": "address payable",
          "name": "feeCollector_",
          "type": "address"
        },
        {
          "internalType": "uint16",
          "name": "feeBP_",
          "type": "uint16"
        }
      ],
      "name": "initialize",
      "outputs": [],
      "stateMutability": "nonpayable",
      "type": "function"
    },
    {
      "inputs": [
        {
          "components": [
            {
              "internalType": "address",
              "name": "owner",
              "type": "address"
            },
            {
              "internalType": "address",
              "name": "spender",
              "type": "address"
            },
            {
              "internalType": "uint256",
              "name": "amount",
              "type": "uint256"
            },
            {
              "internalType": "uint256",
              "name": "deadline",
              "type": "uint256"
            },
            {
              "internalType": "uint8",
              "name": "v",
              "type": "uint8"
            },
            {
              "internalType": "bytes32",
              "name": "r",
              "type": "bytes32"
            },
            {
              "internalType": "bytes32",
              "name": "s",
              "type": "bytes32"
            }
          ],
          "internalType": "struct RBPoolController.PermitSignature",
          "name": "permitSignature",
          "type": "tuple"
        }
      ],
      "name": "memoPermit",
      "outputs": [],
      "stateMutability": "nonpayable",
      "type": "function"
    },
    {
      "inputs": [],
      "name": "onUpgrade",
      "outputs": [],
      "stateMutability": "nonpayable",
      "type": "function"
    },
    {
      "inputs": [],
      "name": "owner",
      "outputs": [
        {
          "internalType": "address",
          "name": "",
          "type": "address"
        }
      ],
      "stateMutability": "view",
      "type": "function"
    },
    {
      "inputs": [
        {
          "internalType": "uint256",
          "name": "amount",
          "type": "uint256"
        },
        {
          "internalType": "enum RBPoolController.Pool",
          "name": "fromPool",
          "type": "uint8"
        },
        {
          "internalType": "enum RBPoolController.Pool",
          "name": "toPool",
          "type": "uint8"
        }
      ],
      "name": "poolSwap",
      "outputs": [],
      "stateMutability": "nonpayable",
      "type": "function"
    },
    {
      "inputs": [
        {
          "internalType": "bytes32",
          "name": "seedKey",
          "type": "bytes32"
        },
        {
          "internalType": "bytes32",
          "name": "newSeedHash",
          "type": "bytes32"
        }
      ],
      "name": "rebase",
      "outputs": [],
      "stateMutability": "nonpayable",
      "type": "function"
    },
    {
      "inputs": [],
      "name": "renounceOwnership",
      "outputs": [],
      "stateMutability": "nonpayable",
      "type": "function"
    },
    {
      "inputs": [
        {
          "internalType": "uint16",
          "name": "newBP",
          "type": "uint16"
        }
      ],
      "name": "setFeeBP",
      "outputs": [],
      "stateMutability": "nonpayable",
      "type": "function"
    },
    {
      "inputs": [
        {
          "internalType": "address payable",
          "name": "newCollector",
          "type": "address"
        }
      ],
      "name": "setFeeCollector",
      "outputs": [],
      "stateMutability": "nonpayable",
      "type": "function"
    },
    {
      "inputs": [
        {
          "internalType": "address",
          "name": "newOwner",
          "type": "address"
        }
      ],
      "name": "transferOwnership",
      "outputs": [],
      "stateMutability": "nonpayable",
      "type": "function"
    },
    {
      "inputs": [
        {
          "internalType": "address",
          "name": "newImplementation",
          "type": "address"
        }
      ],
      "name": "upgradeTo",
      "outputs": [],
      "stateMutability": "nonpayable",
      "type": "function"
    },
    {
      "inputs": [
        {
          "internalType": "address",
          "name": "newImplementation",
          "type": "address"
        },
        {
          "internalType": "bytes",
          "name": "data",
          "type": "bytes"
        }
      ],
      "name": "upgradeToAndCall",
      "outputs": [],
      "stateMutability": "payable",
      "type": "function"
    },
    {
      "inputs": [
        {
          "internalType": "uint256",
          "name": "amount",
          "type": "uint256"
        },
        {
          "internalType": "enum RBPoolController.Pool",
          "name": "pool",
          "type": "uint8"
        }
      ],
      "name": "withdraw",
      "outputs": [
        {
          "internalType": "bool",
          "name": "",
          "type": "bool"
        }
      ],
      "stateMutability": "nonpayable",
      "type": "function"
    }
  ],
  "bytecode": "0x60a06040523060601b6080523480156200001857600080fd5b50600054610100900460ff16620000365760005460ff161562000040565b62000040620000ee565b620000a85760405162461bcd60e51b815260206004820152602e60248201527f496e697469616c697a61626c653a20636f6e747261637420697320616c72656160448201526d191e481a5b9a5d1a585b1a5e995960921b606482015260840160405180910390fd5b600054610100900460ff16158015620000d4576000805460ff1961ff0019909116610100171660011790555b8015620000e7576000805461ff00191690555b5062000112565b600062000106306200010c60201b6200106a1760201c565b15905090565b3b151590565b60805160601c611fc76200014660003960008181610386015281816103c60152818161044f015261048f0152611fc76000f3fe6080604052600436106100fe5760003560e01c806370e604ed11610095578063903d429611610064578063903d4296146102a6578063a42dce80146102c6578063bb8b1c4f146102e6578063c415b95c14610306578063f2fde38b14610326576100fe565b806370e604ed14610217578063715018a6146102375780638da5cb5b1461024c5780638e29c3381461027e576100fe565b806350c1e478116100d157806350c1e47814610187578063521df5a1146101b75780635529ee4b146101d75780636dd79be8146101f7576100fe565b8063017f6fae146101035780631824a46b1461013d5780633659cfe6146101545780634f1ef28614610174575b600080fd5b34801561010f57600080fd5b5060cd5461012590600160a01b900461ffff1681565b60405161ffff90911681526020015b60405180910390f35b34801561014957600080fd5b50610152610346565b005b34801561016057600080fd5b5061015261016f366004611a90565b61037b565b610152610182366004611b0f565b610444565b34801561019357600080fd5b506101a76101a2366004611ca5565b6104fe565b6040519015158152602001610134565b3480156101c357600080fd5b506101526101d2366004611c6a565b6105d6565b3480156101e357600080fd5b506101526101f2366004611aac565b6106f5565b34801561020357600080fd5b50610152610212366004611bd1565b610826565b34801561022357600080fd5b50610152610232366004611c0d565b610d78565b34801561024357600080fd5b50610152610dc4565b34801561025857600080fd5b506033546001600160a01b03165b6040516001600160a01b039091168152602001610134565b34801561028a57600080fd5b5061026673136acd46c134e8269052c62a67042d6bdedde3c981565b3480156102b257600080fd5b506101a76102c1366004611c3f565b610df8565b3480156102d257600080fd5b506101526102e1366004611a90565b610eca565b3480156102f257600080fd5b50610152610301366004611bf2565b610f16565b34801561031257600080fd5b5060cd54610266906001600160a01b031681565b34801561033257600080fd5b50610152610341366004611a90565b610fd2565b6033546001600160a01b031633146103795760405162461bcd60e51b815260040161037090611dc0565b60405180910390fd5b565b306001600160a01b037f00000000000000000000000000000000000000000000000000000000000000001614156103c45760405162461bcd60e51b815260040161037090611d28565b7f00000000000000000000000000000000000000000000000000000000000000006001600160a01b03166103f6611074565b6001600160a01b03161461041c5760405162461bcd60e51b815260040161037090611d74565b610425816110a2565b60408051600080825260208201909252610441918391906110cc565b50565b306001600160a01b037f000000000000000000000000000000000000000000000000000000000000000016141561048d5760405162461bcd60e51b815260040161037090611d28565b7f00000000000000000000000000000000000000000000000000000000000000006001600160a01b03166104bf611074565b6001600160a01b0316146104e55760405162461bcd60e51b815260040161037090611d74565b6104ee826110a2565b6104fa828260016110cc565b5050565b600061050982610f16565b61052973136acd46c134e8269052c62a67042d6bdedde3c9333087611210565b61053283611281565b6001600160a01b03166340c10f19336040516001600160e01b031960e084901b1681526001600160a01b03909116600482015260248101879052604401600060405180830381600087803b15801561058957600080fd5b505af115801561059d573d6000803e3d6000fd5b505050506105cb6040805133602080830191909152825180830382018152918301909252805191012060cb55565b5060015b9392505050565b6105df82611281565b6001600160a01b0316639dc29fac336040516001600160e01b031960e084901b1681526001600160a01b03909116600482015260248101869052604401600060405180830381600087803b15801561063657600080fd5b505af115801561064a573d6000803e3d6000fd5b5050505061065781611281565b6001600160a01b03166340c10f19336040516001600160e01b031960e084901b1681526001600160a01b03909116600482015260248101869052604401600060405180830381600087803b1580156106ae57600080fd5b505af11580156106c2573d6000803e3d6000fd5b505050506106f06040805133602080830191909152825180830382018152918301909252805191012060cb55565b505050565b600054610100900460ff166107105760005460ff1615610718565b6107186112d4565b61077b5760405162461bcd60e51b815260206004820152602e60248201527f496e697469616c697a61626c653a20636f6e747261637420697320616c72656160448201526d191e481a5b9a5d1a585b1a5e995960921b6064820152608401610370565b600054610100900460ff161580156107a6576000805460ff1961ff0019909116610100171660011790555b6107ae6112e5565b6107b661131c565b60c980546001600160a01b038089166001600160a01b03199283161790925560ca805488841690831617905560cc86905560cd805461ffff8616600160a01b0261ffff60a01b19948816919093161792909216179055801561081e576000805461ff00191690555b505050505050565b6033546001600160a01b031633146108505760405162461bcd60e51b815260040161037090611dc0565b6040516370a0823160e01b815230600482015260009073136acd46c134e8269052c62a67042d6bdedde3c9906370a082319060240160206040518083038186803b15801561089d57600080fd5b505afa1580156108b1573d6000803e3d6000fd5b505050506040513d601f19601f820116820180604052508101906108d59190611c27565b1161091b5760405162461bcd60e51b8152602060048201526016602482015275436f6e74726f6c6c657220686173206e6f204d454d4f60501b6044820152606401610370565b600060405180604001604052806109326000611281565b6001600160a01b03166318160ddd6040518163ffffffff1660e01b815260040160206040518083038186803b15801561096a57600080fd5b505afa15801561097e573d6000803e3d6000fd5b505050506040513d601f19601f820116820180604052508101906109a29190611c27565b81526020016109b16001611281565b6001600160a01b03166318160ddd6040518163ffffffff1660e01b815260040160206040518083038186803b1580156109e957600080fd5b505afa1580156109fd573d6000803e3d6000fd5b505050506040513d601f19601f82011682018060405250810190610a219190611c27565b905260208101518151919250600091610a3a9190611e71565b11610a875760405162461bcd60e51b815260206004820152601a60248201527f4e6f204d454d4f206465706f736974656420696e20706f6f6c730000000000006044820152606401610370565b60208101518151600091610a9a91611e71565b6040516370a0823160e01b8152306004820152909150600090829073136acd46c134e8269052c62a67042d6bdedde3c9906370a082319060240160206040518083038186803b158015610aec57600080fd5b505afa158015610b00573d6000803e3d6000fd5b505050506040513d601f19601f82011682018060405250810190610b249190611c27565b610b2e9190611ebc565b60cd5490915060009061271090610b51908490600160a01b900461ffff16611e9d565b610b5b9190611e89565b60cd5460405163a9059cbb60e01b81526001600160a01b0390911660048201526024810182905290915073136acd46c134e8269052c62a67042d6bdedde3c99063a9059cbb90604401602060405180830381600087803b158015610bbe57600080fd5b505af1158015610bd2573d6000803e3d6000fd5b505050506040513d601f19601f82011682018060405250810190610bf69190611bb1565b506000610c0287611353565b905084816001811115610c2557634e487b7160e01b600052602160045260246000fd5b60028110610c4357634e487b7160e01b600052603260045260246000fd5b6020020151610c80576000816001811115610c6e57634e487b7160e01b600052602160045260246000fd5b14610c7a576000610c7d565b60015b90505b610c8981611281565b6001600160a01b031663bc4f2d6d610ca18486611ebc565b6040518263ffffffff1660e01b8152600401610cbf91815260200190565b600060405180830381600087803b158015610cd957600080fd5b505af1158015610ced573d6000803e3d6000fd5b50505060cc87905550427f5899dee610fd5140296c7bd89bd352c8236705b7339a1078727dc830db7019e5610d228486611ebc565b87516020890151856001811115610d4957634e487b7160e01b600052602160045260246000fd5b6040805194855260208501939093529183015260ff16606082015260800160405180910390a250505050505050565b6033546001600160a01b03163314610da25760405162461bcd60e51b815260040161037090611dc0565b60cd805461ffff909216600160a01b0261ffff60a01b19909216919091179055565b6033546001600160a01b03163314610dee5760405162461bcd60e51b815260040161037090611dc0565b610379600061154c565b6000610e0382611281565b6001600160a01b0316639dc29fac336040516001600160e01b031960e084901b1681526001600160a01b03909116600482015260248101869052604401600060405180830381600087803b158015610e5a57600080fd5b505af1158015610e6e573d6000803e3d6000fd5b50505050610e9773136acd46c134e8269052c62a67042d6bdedde3c9610e913390565b8561159e565b610ec16040805133602080830191909152825180830382018152918301909252805191012060cb55565b50600192915050565b6033546001600160a01b03163314610ef45760405162461bcd60e51b815260040161037090611dc0565b60cd80546001600160a01b0319166001600160a01b0392909216919091179055565b805160208201516040808401516060850151608086015160a087015160c0880151945163d505accf60e01b81526001600160a01b0397881660048201529690951660248701526044860192909252606485015260ff16608484015260a483019190915260c482015273136acd46c134e8269052c62a67042d6bdedde3c99063d505accf9060e401600060405180830381600087803b158015610fb757600080fd5b505af1158015610fcb573d6000803e3d6000fd5b5050505050565b6033546001600160a01b03163314610ffc5760405162461bcd60e51b815260040161037090611dc0565b6001600160a01b0381166110615760405162461bcd60e51b815260206004820152602660248201527f4f776e61626c653a206e6577206f776e657220697320746865207a65726f206160448201526564647265737360d01b6064820152608401610370565b6104418161154c565b803b15155b919050565b7f360894a13ba1a3210667c828492db98dca3e2076cc3735a920a3ca505d382bbc546001600160a01b031690565b6033546001600160a01b031633146104415760405162461bcd60e51b815260040161037090611dc0565b60006110d6611074565b90506110e1846115ce565b6000835111806110ee5750815b156110ff576110fd848461167a565b505b7f4910fdfa16fed3260ed0e7147f7cc6da11a60208b5b9406d12a635614ffd9143805460ff16610fcb57805460ff191660011781556040516001600160a01b038316602482015261117e90869060440160408051601f198184030181529190526020810180516001600160e01b0316631b2ce7f360e11b17905261167a565b50805460ff1916815561118f611074565b6001600160a01b0316826001600160a01b0316146112075760405162461bcd60e51b815260206004820152602f60248201527f45524331393637557067726164653a207570677261646520627265616b73206660448201526e75727468657220757067726164657360881b6064820152608401610370565b610fcb8561176c565b6040516001600160a01b038085166024830152831660448201526064810182905261127b9085906323b872dd60e01b906084015b60408051601f198184030181529190526020810180516001600160e01b03166001600160e01b0319909316929092179091526117ac565b50505050565b600060c98260018111156112a557634e487b7160e01b600052602160045260246000fd5b600281106112c357634e487b7160e01b600052603260045260246000fd5b01546001600160a01b031692915050565b60006112df3061106a565b15905090565b600054610100900460ff1661130c5760405162461bcd60e51b815260040161037090611df5565b61131461187e565b6103796118a5565b600054610100900460ff166113435760405162461bcd60e51b815260040161037090611df5565b61134b61187e565b61037961187e565b60008033604080516001600160a01b039092166020830152810184905260600160405160208183030381529060405280519060200120905060cc5481146113d35760405162461bcd60e51b8152602060048201526014602482015273496e76616c696420524e472073656564206b657960601b6044820152606401610370565b6000836113e1600143611ebc565b4060cb546113ef6000611281565b6001600160a01b03166318160ddd6040518163ffffffff1660e01b815260040160206040518083038186803b15801561142757600080fd5b505afa15801561143b573d6000803e3d6000fd5b505050506040513d601f19601f8201168201806040525081019061145f9190611c27565b6114696001611281565b6001600160a01b03166318160ddd6040518163ffffffff1660e01b815260040160206040518083038186803b1580156114a157600080fd5b505afa1580156114b5573d6000803e3d6000fd5b505050506040513d601f19601f820116820180604052508101906114d99190611c27565b6040805160208101969096528501939093526060840191909152608083015260a082015260c00160408051601f1981840301815291905280516020909101209050611525600282611eff565b600181111561154457634e487b7160e01b600052602160045260246000fd5b949350505050565b603380546001600160a01b038381166001600160a01b0319831681179093556040519116919082907f8be0079c531659141344cd1fd0a4f28419497f9722a3daafe3b4186f6b6457e090600090a35050565b6040516001600160a01b0383166024820152604481018290526106f090849063a9059cbb60e01b90606401611244565b6115d78161106a565b6116395760405162461bcd60e51b815260206004820152602d60248201527f455243313936373a206e657720696d706c656d656e746174696f6e206973206e60448201526c1bdd08184818dbdb9d1c9858dd609a1b6064820152608401610370565b7f360894a13ba1a3210667c828492db98dca3e2076cc3735a920a3ca505d382bbc80546001600160a01b0319166001600160a01b0392909216919091179055565b60606116858361106a565b6116e05760405162461bcd60e51b815260206004820152602660248201527f416464726573733a2064656c65676174652063616c6c20746f206e6f6e2d636f6044820152651b9d1c9858dd60d21b6064820152608401610370565b600080846001600160a01b0316846040516116fb9190611cd9565b600060405180830381855af49150503d8060008114611736576040519150601f19603f3d011682016040523d82523d6000602084013e61173b565b606091505b50915091506117638282604051806060016040528060278152602001611f6b602791396118d5565b95945050505050565b611775816115ce565b6040516001600160a01b038216907fbc7cd75a20ee27fd9adebab32041f755214dbc6bffa90cc0225b39da2e5c2d3b90600090a250565b6000611801826040518060400160405280602081526020017f5361666545524332303a206c6f772d6c6576656c2063616c6c206661696c6564815250856001600160a01b031661190e9092919063ffffffff16565b8051909150156106f0578080602001905181019061181f9190611bb1565b6106f05760405162461bcd60e51b815260206004820152602a60248201527f5361666545524332303a204552433230206f7065726174696f6e20646964206e6044820152691bdd081cdd58d8d9595960b21b6064820152608401610370565b600054610100900460ff166103795760405162461bcd60e51b815260040161037090611df5565b600054610100900460ff166118cc5760405162461bcd60e51b815260040161037090611df5565b6103793361154c565b606083156118e45750816105cf565b8251156118f45782518084602001fd5b8160405162461bcd60e51b81526004016103709190611cf5565b60606115448484600085856119228561106a565b61196e5760405162461bcd60e51b815260206004820152601d60248201527f416464726573733a2063616c6c20746f206e6f6e2d636f6e74726163740000006044820152606401610370565b600080866001600160a01b0316858760405161198a9190611cd9565b60006040518083038185875af1925050503d80600081146119c7576040519150601f19603f3d011682016040523d82523d6000602084013e6119cc565b606091505b50915091506119dc8282866118d5565b979650505050505050565b80356002811061106f57600080fd5b600060e08284031215611a07578081fd5b611a1160e0611e40565b90508135611a1e81611f55565b81526020820135611a2e81611f55565b806020830152506040820135604082015260608201356060820152608082013560ff81168114611a5d57600080fd5b8060808301525060a082013560a082015260c082013560c082015292915050565b803561ffff8116811461106f57600080fd5b600060208284031215611aa1578081fd5b81356105cf81611f55565b600080600080600060a08688031215611ac3578081fd5b8535611ace81611f55565b94506020860135611ade81611f55565b9350604086013592506060860135611af581611f55565b9150611b0360808701611a7e565b90509295509295909350565b60008060408385031215611b21578182fd5b8235611b2c81611f55565b915060208381013567ffffffffffffffff80821115611b49578384fd5b818601915086601f830112611b5c578384fd5b813581811115611b6e57611b6e611f3f565b611b80601f8201601f19168501611e40565b91508082528784828501011115611b95578485fd5b8084840185840137810190920192909252919491935090915050565b600060208284031215611bc2578081fd5b815180151581146105cf578182fd5b60008060408385031215611be3578182fd5b50508035926020909101359150565b600060e08284031215611c03578081fd5b6105cf83836119f6565b600060208284031215611c1e578081fd5b6105cf82611a7e565b600060208284031215611c38578081fd5b5051919050565b60008060408385031215611c51578182fd5b82359150611c61602084016119e7565b90509250929050565b600080600060608486031215611c7e578283fd5b83359250611c8e602085016119e7565b9150611c9c604085016119e7565b90509250925092565b60008060006101208486031215611cba578283fd5b83359250611cca602085016119e7565b9150611c9c85604086016119f6565b60008251611ceb818460208701611ed3565b9190910192915050565b6000602082528251806020840152611d14816040850160208701611ed3565b601f01601f19169190910160400192915050565b6020808252602c908201527f46756e6374696f6e206d7573742062652063616c6c6564207468726f7567682060408201526b19195b1959d85d1958d85b1b60a21b606082015260800190565b6020808252602c908201527f46756e6374696f6e206d7573742062652063616c6c6564207468726f7567682060408201526b6163746976652070726f787960a01b606082015260800190565b6020808252818101527f4f776e61626c653a2063616c6c6572206973206e6f7420746865206f776e6572604082015260600190565b6020808252602b908201527f496e697469616c697a61626c653a20636f6e7472616374206973206e6f74206960408201526a6e697469616c697a696e6760a81b606082015260800190565b604051601f8201601f1916810167ffffffffffffffff81118282101715611e6957611e69611f3f565b604052919050565b60008219821115611e8457611e84611f13565b500190565b600082611e9857611e98611f29565b500490565b6000816000190483118215151615611eb757611eb7611f13565b500290565b600082821015611ece57611ece611f13565b500390565b60005b83811015611eee578181015183820152602001611ed6565b8381111561127b5750506000910152565b600082611f0e57611f0e611f29565b500690565b634e487b7160e01b600052601160045260246000fd5b634e487b7160e01b600052601260045260246000fd5b634e487b7160e01b600052604160045260246000fd5b6001600160a01b038116811461044157600080fdfe416464726573733a206c6f772d6c6576656c2064656c65676174652063616c6c206661696c6564a2646970667358221220694c16b063b88d2adcda83f3ebb9a8ecc4e8cdff4e2f398f2e3990bf69dc614c64736f6c63430008020033",
  "linkReferences": {},
  "deployedLinkReferences": {}
}