{
  "_format": "hh-sol-artifact-1",
  "contractName": "RBPoolController",
  "sourceName": "contracts/rb-pool-controller.sol",
  "abi": [
    {
      "inputs": [],
      "stateMutability": "nonpayable",
      "type": "constructor"
    },
    {
      "anonymous": false,
      "inputs": [
        {
          "indexed": false,
          "internalType": "address",
          "name": "previousAdmin",
          "type": "address"
        },
        {
          "indexed": false,
          "internalType": "address",
          "name": "newAdmin",
          "type": "address"
        }
      ],
      "name": "AdminChanged",
      "type": "event"
    },
    {
      "anonymous": false,
      "inputs": [
        {
          "indexed": true,
          "internalType": "address",
          "name": "beacon",
          "type": "address"
        }
      ],
      "name": "BeaconUpgraded",
      "type": "event"
    },
    {
      "anonymous": false,
      "inputs": [
        {
          "indexed": true,
          "internalType": "address",
          "name": "previousOwner",
          "type": "address"
        },
        {
          "indexed": true,
          "internalType": "address",
          "name": "newOwner",
          "type": "address"
        }
      ],
      "name": "OwnershipTransferred",
      "type": "event"
    },
    {
      "anonymous": false,
      "inputs": [
        {
          "indexed": true,
          "internalType": "address",
          "name": "implementation",
          "type": "address"
        }
      ],
      "name": "Upgraded",
      "type": "event"
    },
    {
      "inputs": [],
      "name": "MEMO_CONTRACT",
      "outputs": [
        {
          "internalType": "contract ERC20Permit",
          "name": "",
          "type": "address"
        }
      ],
      "stateMutability": "view",
      "type": "function"
    },
    {
      "inputs": [
        {
          "internalType": "address",
          "name": "account",
          "type": "address"
        },
        {
          "internalType": "uint256",
          "name": "amount",
          "type": "uint256"
        },
        {
          "internalType": "enum Pool",
          "name": "pool",
          "type": "uint8"
        },
        {
          "components": [
            {
              "internalType": "address",
              "name": "owner",
              "type": "address"
            },
            {
              "internalType": "address",
              "name": "spender",
              "type": "address"
            },
            {
              "internalType": "uint256",
              "name": "amount",
              "type": "uint256"
            },
            {
              "internalType": "uint256",
              "name": "deadline",
              "type": "uint256"
            },
            {
              "internalType": "uint8",
              "name": "v",
              "type": "uint8"
            },
            {
              "internalType": "bytes32",
              "name": "r",
              "type": "bytes32"
            },
            {
              "internalType": "bytes32",
              "name": "s",
              "type": "bytes32"
            }
          ],
          "internalType": "struct PermitSignature",
          "name": "permitSignature",
          "type": "tuple"
        }
      ],
      "name": "deposit",
      "outputs": [
        {
          "internalType": "bool",
          "name": "",
          "type": "bool"
        }
      ],
      "stateMutability": "nonpayable",
      "type": "function"
    },
    {
      "inputs": [
        {
          "internalType": "address",
          "name": "redMemoPool",
          "type": "address"
        },
        {
          "internalType": "address",
          "name": "blackMemoPool",
          "type": "address"
        }
      ],
      "name": "initialize",
      "outputs": [],
      "stateMutability": "nonpayable",
      "type": "function"
    },
    {
      "inputs": [
        {
          "components": [
            {
              "internalType": "address",
              "name": "owner",
              "type": "address"
            },
            {
              "internalType": "address",
              "name": "spender",
              "type": "address"
            },
            {
              "internalType": "uint256",
              "name": "amount",
              "type": "uint256"
            },
            {
              "internalType": "uint256",
              "name": "deadline",
              "type": "uint256"
            },
            {
              "internalType": "uint8",
              "name": "v",
              "type": "uint8"
            },
            {
              "internalType": "bytes32",
              "name": "r",
              "type": "bytes32"
            },
            {
              "internalType": "bytes32",
              "name": "s",
              "type": "bytes32"
            }
          ],
          "internalType": "struct PermitSignature",
          "name": "permitSignature",
          "type": "tuple"
        }
      ],
      "name": "memoPermit",
      "outputs": [],
      "stateMutability": "nonpayable",
      "type": "function"
    },
    {
      "inputs": [],
      "name": "onUpgrade",
      "outputs": [],
      "stateMutability": "nonpayable",
      "type": "function"
    },
    {
      "inputs": [],
      "name": "owner",
      "outputs": [
        {
          "internalType": "address",
          "name": "",
          "type": "address"
        }
      ],
      "stateMutability": "view",
      "type": "function"
    },
    {
      "inputs": [],
      "name": "renounceOwnership",
      "outputs": [],
      "stateMutability": "nonpayable",
      "type": "function"
    },
    {
      "inputs": [
        {
          "internalType": "address",
          "name": "newOwner",
          "type": "address"
        }
      ],
      "name": "transferOwnership",
      "outputs": [],
      "stateMutability": "nonpayable",
      "type": "function"
    },
    {
      "inputs": [
        {
          "internalType": "address",
          "name": "newImplementation",
          "type": "address"
        }
      ],
      "name": "upgradeTo",
      "outputs": [],
      "stateMutability": "nonpayable",
      "type": "function"
    },
    {
      "inputs": [
        {
          "internalType": "address",
          "name": "newImplementation",
          "type": "address"
        },
        {
          "internalType": "bytes",
          "name": "data",
          "type": "bytes"
        }
      ],
      "name": "upgradeToAndCall",
      "outputs": [],
      "stateMutability": "payable",
      "type": "function"
    },
    {
      "inputs": [
        {
          "internalType": "address",
          "name": "account",
          "type": "address"
        },
        {
          "internalType": "uint256",
          "name": "amount",
          "type": "uint256"
        },
        {
          "internalType": "enum Pool",
          "name": "pool",
          "type": "uint8"
        }
      ],
      "name": "withdraw",
      "outputs": [
        {
          "internalType": "bool",
          "name": "",
          "type": "bool"
        }
      ],
      "stateMutability": "nonpayable",
      "type": "function"
    }
  ],
  "bytecode": "0x60a06040523060601b60805234801561001757600080fd5b50600054610100900460ff1680610031575060005460ff16155b6100985760405162461bcd60e51b815260206004820152602e60248201527f496e697469616c697a61626c653a20636f6e747261637420697320616c72656160448201526d191e481a5b9a5d1a585b1a5e995960921b606482015260840160405180910390fd5b600054610100900460ff161580156100c3576000805460ff1961ff0019909116610100171660011790555b80156100d5576000805461ff00191690555b5060805160601c6114a2610109600039600081816102e8015281816103280152818161050b015261054b01526114a26000f3fe60806040526004361061009c5760003560e01c80634f1ef286116100645780634f1ef2861461014d578063715018a6146101605780638da5cb5b146101755780638e29c338146101a7578063bb8b1c4f146101cf578063f2fde38b146101ef5761009c565b80631824a46b146100a15780632892a977146100b85780633659cfe6146100ed578063485cc9551461010d57806348a02dfd1461012d575b600080fd5b3480156100ad57600080fd5b506100b661020f565b005b3480156100c457600080fd5b506100d86100d33660046111a4565b610244565b60405190151581526020015b60405180910390f35b3480156100f957600080fd5b506100b66101083660046110b8565b6102dd565b34801561011957600080fd5b506100b66101283660046110d2565b6103a6565b34801561013957600080fd5b506100d86101483660046111df565b61045d565b6100b661015b366004611104565b610500565b34801561016c57600080fd5b506100b66105ba565b34801561018157600080fd5b506033546001600160a01b03165b6040516001600160a01b0390911681526020016100e4565b3480156101b357600080fd5b5061018f73136acd46c134e8269052c62a67042d6bdedde3c981565b3480156101db57600080fd5b506100b66101ea36600461124d565b6105ee565b3480156101fb57600080fd5b506100b661020a3660046110b8565b6106aa565b6033546001600160a01b031633146102425760405162461bcd60e51b81526004016102399061139d565b60405180910390fd5b565b600061024f82610742565b604051632770a7eb60e21b81526001600160a01b038681166004830152602482018690529190911690639dc29fac90604401600060405180830381600087803b15801561029b57600080fd5b505af11580156102af573d6000803e3d6000fd5b505050506102d273136acd46c134e8269052c62a67042d6bdedde3c98585610797565b5060015b9392505050565b306001600160a01b037f00000000000000000000000000000000000000000000000000000000000000001614156103265760405162461bcd60e51b8152600401610239906112b7565b7f00000000000000000000000000000000000000000000000000000000000000006001600160a01b03166103586107fa565b6001600160a01b03161461037e5760405162461bcd60e51b815260040161023990611303565b61038781610828565b604080516000808252602082019092526103a391839190610852565b50565b600054610100900460ff16806103bf575060005460ff16155b6103db5760405162461bcd60e51b81526004016102399061134f565b600054610100900460ff16158015610406576000805460ff1961ff0019909116610100171660011790555b61040e610996565b610416610a1a565b60c980546001600160a01b038086166001600160a01b03199283161790925560ca8054928516929091169190911790558015610458576000805461ff00191690555b505050565b6000610468826105ee565b61048873136acd46c134e8269052c62a67042d6bdedde3c9863087610a8a565b61049183610742565b6040516340c10f1960e01b81526001600160a01b0387811660048301526024820187905291909116906340c10f1990604401600060405180830381600087803b1580156104dd57600080fd5b505af11580156104f1573d6000803e3d6000fd5b50600198975050505050505050565b306001600160a01b037f00000000000000000000000000000000000000000000000000000000000000001614156105495760405162461bcd60e51b8152600401610239906112b7565b7f00000000000000000000000000000000000000000000000000000000000000006001600160a01b031661057b6107fa565b6001600160a01b0316146105a15760405162461bcd60e51b815260040161023990611303565b6105aa82610828565b6105b682826001610852565b5050565b6033546001600160a01b031633146105e45760405162461bcd60e51b81526004016102399061139d565b6102426000610ac8565b805160208201516040808401516060850151608086015160a087015160c0880151945163d505accf60e01b81526001600160a01b0397881660048201529690951660248701526044860192909252606485015260ff16608484015260a483019190915260c482015273136acd46c134e8269052c62a67042d6bdedde3c99063d505accf9060e401600060405180830381600087803b15801561068f57600080fd5b505af11580156106a3573d6000803e3d6000fd5b5050505050565b6033546001600160a01b031633146106d45760405162461bcd60e51b81526004016102399061139d565b6001600160a01b0381166107395760405162461bcd60e51b815260206004820152602660248201527f4f776e61626c653a206e6577206f776e657220697320746865207a65726f206160448201526564647265737360d01b6064820152608401610239565b6103a381610ac8565b600060c982600181111561076657634e487b7160e01b600052602160045260246000fd5b6002811061078457634e487b7160e01b600052603260045260246000fd5b01546001600160a01b031690505b919050565b6040516001600160a01b03831660248201526044810182905261045890849063a9059cbb60e01b906064015b60408051601f198184030181529190526020810180516001600160e01b03166001600160e01b031990931692909217909152610b1a565b7f360894a13ba1a3210667c828492db98dca3e2076cc3735a920a3ca505d382bbc546001600160a01b031690565b6033546001600160a01b031633146103a35760405162461bcd60e51b81526004016102399061139d565b600061085c6107fa565b905061086784610bec565b6000835111806108745750815b15610885576108838484610c91565b505b7f4910fdfa16fed3260ed0e7147f7cc6da11a60208b5b9406d12a635614ffd9143805460ff166106a357805460ff191660011781556040516001600160a01b038316602482015261090490869060440160408051601f198184030181529190526020810180516001600160e01b0316631b2ce7f360e11b179052610c91565b50805460ff191681556109156107fa565b6001600160a01b0316826001600160a01b03161461098d5760405162461bcd60e51b815260206004820152602f60248201527f45524331393637557067726164653a207570677261646520627265616b73206660448201526e75727468657220757067726164657360881b6064820152608401610239565b6106a385610d7c565b600054610100900460ff16806109af575060005460ff16155b6109cb5760405162461bcd60e51b81526004016102399061134f565b600054610100900460ff161580156109f6576000805460ff1961ff0019909116610100171660011790555b6109fe610dbc565b610a06610e2f565b80156103a3576000805461ff001916905550565b600054610100900460ff1680610a33575060005460ff16155b610a4f5760405162461bcd60e51b81526004016102399061134f565b600054610100900460ff16158015610a7a576000805460ff1961ff0019909116610100171660011790555b610a82610dbc565b610a06610dbc565b6040516001600160a01b0380851660248301528316604482015260648101829052610ac29085906323b872dd60e01b906084016107c3565b50505050565b603380546001600160a01b038381166001600160a01b0319831681179093556040519116919082907f8be0079c531659141344cd1fd0a4f28419497f9722a3daafe3b4186f6b6457e090600090a35050565b6000610b6f826040518060400160405280602081526020017f5361666545524332303a206c6f772d6c6576656c2063616c6c206661696c6564815250856001600160a01b0316610e989092919063ffffffff16565b8051909150156104585780806020019051810190610b8d919061122d565b6104585760405162461bcd60e51b815260206004820152602a60248201527f5361666545524332303a204552433230206f7065726174696f6e20646964206e6044820152691bdd081cdd58d8d9595960b21b6064820152608401610239565b803b610c505760405162461bcd60e51b815260206004820152602d60248201527f455243313936373a206e657720696d706c656d656e746174696f6e206973206e60448201526c1bdd08184818dbdb9d1c9858dd609a1b6064820152608401610239565b7f360894a13ba1a3210667c828492db98dca3e2076cc3735a920a3ca505d382bbc80546001600160a01b0319166001600160a01b0392909216919091179055565b6060823b610cf05760405162461bcd60e51b815260206004820152602660248201527f416464726573733a2064656c65676174652063616c6c20746f206e6f6e2d636f6044820152651b9d1c9858dd60d21b6064820152608401610239565b600080846001600160a01b031684604051610d0b9190611268565b600060405180830381855af49150503d8060008114610d46576040519150601f19603f3d011682016040523d82523d6000602084013e610d4b565b606091505b5091509150610d73828260405180606001604052806027815260200161144660279139610eaf565b95945050505050565b610d8581610bec565b6040516001600160a01b038216907fbc7cd75a20ee27fd9adebab32041f755214dbc6bffa90cc0225b39da2e5c2d3b90600090a250565b600054610100900460ff1680610dd5575060005460ff16155b610df15760405162461bcd60e51b81526004016102399061134f565b600054610100900460ff16158015610a06576000805460ff1961ff00199091166101001716600117905580156103a3576000805461ff001916905550565b600054610100900460ff1680610e48575060005460ff16155b610e645760405162461bcd60e51b81526004016102399061134f565b600054610100900460ff16158015610e8f576000805460ff1961ff0019909116610100171660011790555b610a0633610ac8565b6060610ea78484600085610ee8565b949350505050565b60608315610ebe5750816102d6565b825115610ece5782518084602001fd5b8160405162461bcd60e51b81526004016102399190611284565b606082471015610f495760405162461bcd60e51b815260206004820152602660248201527f416464726573733a20696e73756666696369656e742062616c616e636520666f6044820152651c8818d85b1b60d21b6064820152608401610239565b843b610f975760405162461bcd60e51b815260206004820152601d60248201527f416464726573733a2063616c6c20746f206e6f6e2d636f6e74726163740000006044820152606401610239565b600080866001600160a01b03168587604051610fb39190611268565b60006040518083038185875af1925050503d8060008114610ff0576040519150601f19603f3d011682016040523d82523d6000602084013e610ff5565b606091505b5091509150611005828286610eaf565b979650505050505050565b80356001600160a01b038116811461079257600080fd5b80356002811061079257600080fd5b600060e08284031215611047578081fd5b61105160e06113d2565b905061105c82611010565b815261106a60208301611010565b60208201526040820135604082015260608201356060820152608082013560ff8116811461109757600080fd5b8060808301525060a082013560a082015260c082013560c082015292915050565b6000602082840312156110c9578081fd5b6102d682611010565b600080604083850312156110e4578081fd5b6110ed83611010565b91506110fb60208401611010565b90509250929050565b60008060408385031215611116578182fd5b61111f83611010565b915060208084013567ffffffffffffffff8082111561113c578384fd5b818601915086601f83011261114f578384fd5b8135818111156111615761116161142f565b611173601f8201601f191685016113d2565b91508082528784828501011115611188578485fd5b8084840185840137810190920192909252919491935090915050565b6000806000606084860312156111b8578081fd5b6111c184611010565b9250602084013591506111d660408501611027565b90509250925092565b60008060008061014085870312156111f5578081fd5b6111fe85611010565b93506020850135925061121360408601611027565b91506112228660608701611036565b905092959194509250565b60006020828403121561123e578081fd5b815180151581146102d6578182fd5b600060e0828403121561125e578081fd5b6102d68383611036565b6000825161127a818460208701611403565b9190910192915050565b60006020825282518060208401526112a3816040850160208701611403565b601f01601f19169190910160400192915050565b6020808252602c908201527f46756e6374696f6e206d7573742062652063616c6c6564207468726f7567682060408201526b19195b1959d85d1958d85b1b60a21b606082015260800190565b6020808252602c908201527f46756e6374696f6e206d7573742062652063616c6c6564207468726f7567682060408201526b6163746976652070726f787960a01b606082015260800190565b6020808252602e908201527f496e697469616c697a61626c653a20636f6e747261637420697320616c72656160408201526d191e481a5b9a5d1a585b1a5e995960921b606082015260800190565b6020808252818101527f4f776e61626c653a2063616c6c6572206973206e6f7420746865206f776e6572604082015260600190565b604051601f8201601f1916810167ffffffffffffffff811182821017156113fb576113fb61142f565b604052919050565b60005b8381101561141e578181015183820152602001611406565b83811115610ac25750506000910152565b634e487b7160e01b600052604160045260246000fdfe416464726573733a206c6f772d6c6576656c2064656c65676174652063616c6c206661696c6564a2646970667358221220d0ea56349790817ce9287d035b12a26fe46caf220ab4791c08779abb425ee00f64736f6c63430008020033",
  "linkReferences": {},
  "deployedLinkReferences": {}
}