{
  "_format": "hh-sol-artifact-1",
  "contractName": "RBPoolController",
  "sourceName": "contracts/rb-pool-controller.sol",
  "abi": [
    {
      "inputs": [],
      "stateMutability": "nonpayable",
      "type": "constructor"
    },
    {
      "anonymous": false,
      "inputs": [
        {
          "indexed": false,
          "internalType": "address",
          "name": "previousAdmin",
          "type": "address"
        },
        {
          "indexed": false,
          "internalType": "address",
          "name": "newAdmin",
          "type": "address"
        }
      ],
      "name": "AdminChanged",
      "type": "event"
    },
    {
      "anonymous": false,
      "inputs": [
        {
          "indexed": true,
          "internalType": "address",
          "name": "beacon",
          "type": "address"
        }
      ],
      "name": "BeaconUpgraded",
      "type": "event"
    },
    {
      "anonymous": false,
      "inputs": [
        {
          "indexed": true,
          "internalType": "uint256",
          "name": "timestamp",
          "type": "uint256"
        },
        {
          "indexed": false,
          "internalType": "uint256",
          "name": "amount",
          "type": "uint256"
        }
      ],
      "name": "LogRebase",
      "type": "event"
    },
    {
      "anonymous": false,
      "inputs": [
        {
          "indexed": true,
          "internalType": "address",
          "name": "previousOwner",
          "type": "address"
        },
        {
          "indexed": true,
          "internalType": "address",
          "name": "newOwner",
          "type": "address"
        }
      ],
      "name": "OwnershipTransferred",
      "type": "event"
    },
    {
      "anonymous": false,
      "inputs": [
        {
          "indexed": true,
          "internalType": "address",
          "name": "implementation",
          "type": "address"
        }
      ],
      "name": "Upgraded",
      "type": "event"
    },
    {
      "inputs": [],
      "name": "MEMO_CONTRACT",
      "outputs": [
        {
          "internalType": "contract ERC20Permit",
          "name": "",
          "type": "address"
        }
      ],
      "stateMutability": "view",
      "type": "function"
    },
    {
      "inputs": [
        {
          "internalType": "address",
          "name": "account",
          "type": "address"
        },
        {
          "internalType": "uint256",
          "name": "amount",
          "type": "uint256"
        },
        {
          "internalType": "enum RBPoolController.Pool",
          "name": "pool",
          "type": "uint8"
        },
        {
          "components": [
            {
              "internalType": "address",
              "name": "owner",
              "type": "address"
            },
            {
              "internalType": "address",
              "name": "spender",
              "type": "address"
            },
            {
              "internalType": "uint256",
              "name": "amount",
              "type": "uint256"
            },
            {
              "internalType": "uint256",
              "name": "deadline",
              "type": "uint256"
            },
            {
              "internalType": "uint8",
              "name": "v",
              "type": "uint8"
            },
            {
              "internalType": "bytes32",
              "name": "r",
              "type": "bytes32"
            },
            {
              "internalType": "bytes32",
              "name": "s",
              "type": "bytes32"
            }
          ],
          "internalType": "struct RBPoolController.PermitSignature",
          "name": "permitSignature",
          "type": "tuple"
        }
      ],
      "name": "deposit",
      "outputs": [
        {
          "internalType": "bool",
          "name": "",
          "type": "bool"
        }
      ],
      "stateMutability": "nonpayable",
      "type": "function"
    },
    {
      "inputs": [],
      "name": "feeBP",
      "outputs": [
        {
          "internalType": "uint16",
          "name": "",
          "type": "uint16"
        }
      ],
      "stateMutability": "view",
      "type": "function"
    },
    {
      "inputs": [],
      "name": "feeCollector",
      "outputs": [
        {
          "internalType": "address payable",
          "name": "",
          "type": "address"
        }
      ],
      "stateMutability": "view",
      "type": "function"
    },
    {
      "inputs": [
        {
          "internalType": "address",
          "name": "redMemoPool",
          "type": "address"
        },
        {
          "internalType": "address",
          "name": "blackMemoPool",
          "type": "address"
        },
        {
          "internalType": "bytes32",
          "name": "initialSeedHash",
          "type": "bytes32"
        },
        {
          "internalType": "address payable",
          "name": "feeCollector_",
          "type": "address"
        },
        {
          "internalType": "uint16",
          "name": "feeBP_",
          "type": "uint16"
        }
      ],
      "name": "initialize",
      "outputs": [],
      "stateMutability": "nonpayable",
      "type": "function"
    },
    {
      "inputs": [
        {
          "components": [
            {
              "internalType": "address",
              "name": "owner",
              "type": "address"
            },
            {
              "internalType": "address",
              "name": "spender",
              "type": "address"
            },
            {
              "internalType": "uint256",
              "name": "amount",
              "type": "uint256"
            },
            {
              "internalType": "uint256",
              "name": "deadline",
              "type": "uint256"
            },
            {
              "internalType": "uint8",
              "name": "v",
              "type": "uint8"
            },
            {
              "internalType": "bytes32",
              "name": "r",
              "type": "bytes32"
            },
            {
              "internalType": "bytes32",
              "name": "s",
              "type": "bytes32"
            }
          ],
          "internalType": "struct RBPoolController.PermitSignature",
          "name": "permitSignature",
          "type": "tuple"
        }
      ],
      "name": "memoPermit",
      "outputs": [],
      "stateMutability": "nonpayable",
      "type": "function"
    },
    {
      "inputs": [],
      "name": "onUpgrade",
      "outputs": [],
      "stateMutability": "nonpayable",
      "type": "function"
    },
    {
      "inputs": [],
      "name": "owner",
      "outputs": [
        {
          "internalType": "address",
          "name": "",
          "type": "address"
        }
      ],
      "stateMutability": "view",
      "type": "function"
    },
    {
      "inputs": [
        {
          "internalType": "address",
          "name": "account",
          "type": "address"
        },
        {
          "internalType": "uint256",
          "name": "amount",
          "type": "uint256"
        },
        {
          "internalType": "enum RBPoolController.Pool",
          "name": "fromPool",
          "type": "uint8"
        },
        {
          "internalType": "enum RBPoolController.Pool",
          "name": "toPool",
          "type": "uint8"
        }
      ],
      "name": "poolSwap",
      "outputs": [],
      "stateMutability": "nonpayable",
      "type": "function"
    },
    {
      "inputs": [
        {
          "internalType": "bytes32",
          "name": "seedKey",
          "type": "bytes32"
        },
        {
          "internalType": "bytes32",
          "name": "newSeedHash",
          "type": "bytes32"
        }
      ],
      "name": "rebase",
      "outputs": [],
      "stateMutability": "nonpayable",
      "type": "function"
    },
    {
      "inputs": [],
      "name": "renounceOwnership",
      "outputs": [],
      "stateMutability": "nonpayable",
      "type": "function"
    },
    {
      "inputs": [
        {
          "internalType": "address",
          "name": "newOwner",
          "type": "address"
        }
      ],
      "name": "transferOwnership",
      "outputs": [],
      "stateMutability": "nonpayable",
      "type": "function"
    },
    {
      "inputs": [
        {
          "internalType": "address",
          "name": "newImplementation",
          "type": "address"
        }
      ],
      "name": "upgradeTo",
      "outputs": [],
      "stateMutability": "nonpayable",
      "type": "function"
    },
    {
      "inputs": [
        {
          "internalType": "address",
          "name": "newImplementation",
          "type": "address"
        },
        {
          "internalType": "bytes",
          "name": "data",
          "type": "bytes"
        }
      ],
      "name": "upgradeToAndCall",
      "outputs": [],
      "stateMutability": "payable",
      "type": "function"
    },
    {
      "inputs": [
        {
          "internalType": "address",
          "name": "account",
          "type": "address"
        },
        {
          "internalType": "uint256",
          "name": "amount",
          "type": "uint256"
        },
        {
          "internalType": "enum RBPoolController.Pool",
          "name": "pool",
          "type": "uint8"
        }
      ],
      "name": "withdraw",
      "outputs": [
        {
          "internalType": "bool",
          "name": "",
          "type": "bool"
        }
      ],
      "stateMutability": "nonpayable",
      "type": "function"
    }
  ],
  "bytecode": "0x60a06040523060601b60805234801561001757600080fd5b50600054610100900460ff1680610031575060005460ff16155b6100985760405162461bcd60e51b815260206004820152602e60248201527f496e697469616c697a61626c653a20636f6e747261637420697320616c72656160448201526d191e481a5b9a5d1a585b1a5e995960921b606482015260840160405180910390fd5b600054610100900460ff161580156100c3576000805460ff1961ff0019909116610100171660011790555b80156100d5576000805461ff00191690555b5060805160601c611ef7610109600039600081816103f3015281816104330152818161058901526105c90152611ef76000f3fe6080604052600436106100e85760003560e01c80636dd79be81161008a578063bb8b1c4f11610059578063bb8b1c4f14610270578063c415b95c14610290578063d7210c78146102b0578063f2fde38b146102d0576100e8565b80636dd79be8146101e1578063715018a6146102015780638da5cb5b146102165780638e29c33814610248576100e8565b80633659cfe6116100c65780633659cfe61461016e57806348a02dfd1461018e5780634f1ef286146101ae5780635529ee4b146101c1576100e8565b8063017f6fae146100ed5780631824a46b146101275780632892a9771461013e575b600080fd5b3480156100f957600080fd5b5060cd5461010f90600160a01b900461ffff1681565b60405161ffff90911681526020015b60405180910390f35b34801561013357600080fd5b5061013c6102f0565b005b34801561014a57600080fd5b5061015e610159366004611ac2565b610325565b604051901515815260200161011e565b34801561017a57600080fd5b5061013c610189366004611997565b6103e8565b34801561019a57600080fd5b5061015e6101a9366004611b4d565b6104b1565b61013c6101bc366004611a20565b61057e565b3480156101cd57600080fd5b5061013c6101dc3660046119b3565b610638565b3480156101ed57600080fd5b5061013c6101fc366004611bb2565b610718565b34801561020d57600080fd5b5061013c610ba8565b34801561022257600080fd5b506033546001600160a01b03165b6040516001600160a01b03909116815260200161011e565b34801561025457600080fd5b5061023073136acd46c134e8269052c62a67042d6bdedde3c981565b34801561027c57600080fd5b5061013c61028b366004611bd3565b610bdc565b34801561029c57600080fd5b5060cd54610230906001600160a01b031681565b3480156102bc57600080fd5b5061013c6102cb366004611aff565b610c98565b3480156102dc57600080fd5b5061013c6102eb366004611997565b610da2565b6033546001600160a01b031633146103235760405162461bcd60e51b815260040161031a90611d3b565b60405180910390fd5b565b600061033082610e3a565b604051632770a7eb60e21b81526001600160a01b038681166004830152602482018690529190911690639dc29fac90604401600060405180830381600087803b15801561037c57600080fd5b505af1158015610390573d6000803e3d6000fd5b505050506103b373136acd46c134e8269052c62a67042d6bdedde3c98585610e8f565b6103dd6040805133602080830191909152825180830382018152918301909252805191012060cb55565b5060015b9392505050565b306001600160a01b037f00000000000000000000000000000000000000000000000000000000000000001614156104315760405162461bcd60e51b815260040161031a90611c55565b7f00000000000000000000000000000000000000000000000000000000000000006001600160a01b0316610463610ef7565b6001600160a01b0316146104895760405162461bcd60e51b815260040161031a90611ca1565b61049281610f25565b604080516000808252602082019092526104ae91839190610f4f565b50565b60006104bc82610bdc565b6104dc73136acd46c134e8269052c62a67042d6bdedde3c9863087611093565b6104e583610e3a565b6040516340c10f1960e01b81526001600160a01b0387811660048301526024820187905291909116906340c10f1990604401600060405180830381600087803b15801561053157600080fd5b505af1158015610545573d6000803e3d6000fd5b505050506105736040805133602080830191909152825180830382018152918301909252805191012060cb55565b506001949350505050565b306001600160a01b037f00000000000000000000000000000000000000000000000000000000000000001614156105c75760405162461bcd60e51b815260040161031a90611c55565b7f00000000000000000000000000000000000000000000000000000000000000006001600160a01b03166105f9610ef7565b6001600160a01b03161461061f5760405162461bcd60e51b815260040161031a90611ca1565b61062882610f25565b61063482826001610f4f565b5050565b600054610100900460ff1680610651575060005460ff16155b61066d5760405162461bcd60e51b815260040161031a90611ced565b600054610100900460ff16158015610698576000805460ff1961ff0019909116610100171660011790555b6106a06110cb565b6106a861114f565b60c980546001600160a01b038089166001600160a01b03199283161790925560ca805488841690831617905560cc86905560cd805461ffff8616600160a01b0261ffff60a01b199488169190931617929092161790558015610710576000805461ff00191690555b505050505050565b6033546001600160a01b031633146107425760405162461bcd60e51b815260040161031a90611d3b565b6040516370a0823160e01b815230600482015260009073136acd46c134e8269052c62a67042d6bdedde3c9906370a082319060240160206040518083038186803b15801561078f57600080fd5b505afa1580156107a3573d6000803e3d6000fd5b505050506040513d601f19601f820116820180604052508101906107c79190611bee565b1161080d5760405162461bcd60e51b8152602060048201526016602482015275436f6e74726f6c6c657220686173206e6f204d454d4f60501b604482015260640161031a565b600060405180604001604052806108246000610e3a565b6001600160a01b03166318160ddd6040518163ffffffff1660e01b815260040160206040518083038186803b15801561085c57600080fd5b505afa158015610870573d6000803e3d6000fd5b505050506040513d601f19601f820116820180604052508101906108949190611bee565b81526020016108a36001610e3a565b6001600160a01b03166318160ddd6040518163ffffffff1660e01b815260040160206040518083038186803b1580156108db57600080fd5b505afa1580156108ef573d6000803e3d6000fd5b505050506040513d601f19601f820116820180604052508101906109139190611bee565b905280519091501580159061092b5750602081015115155b6109775760405162461bcd60e51b815260206004820152601b60248201527f4e6f204d454d4f206465706f736974656420696e206120706f6f6c0000000000604482015260640161031a565b6020810151815160009161098a91611da1565b6040516370a0823160e01b8152306004820152909150600090829073136acd46c134e8269052c62a67042d6bdedde3c9906370a082319060240160206040518083038186803b1580156109dc57600080fd5b505afa1580156109f0573d6000803e3d6000fd5b505050506040513d601f19601f82011682018060405250810190610a149190611bee565b610a1e9190611dec565b60cd5490915060009061271090610a41908490600160a01b900461ffff16611dcd565b610a4b9190611db9565b60cd5460405163a9059cbb60e01b81526001600160a01b0390911660048201526024810182905290915073136acd46c134e8269052c62a67042d6bdedde3c99063a9059cbb90604401602060405180830381600087803b158015610aae57600080fd5b505af1158015610ac2573d6000803e3d6000fd5b505050506040513d601f19601f82011682018060405250810190610ae69190611b92565b506000610af2876111bf565b90506001600160a01b03811663240bd75b610b0d8486611dec565b6040518263ffffffff1660e01b8152600401610b2b91815260200190565b600060405180830381600087803b158015610b4557600080fd5b505af1158015610b59573d6000803e3d6000fd5b50505060cc87905550427f72725a3b1e5bd622d6bcd1339bb31279c351abe8f541ac7fd320f24e1b1641f2610b8e8486611dec565b60405190815260200160405180910390a250505050505050565b6033546001600160a01b03163314610bd25760405162461bcd60e51b815260040161031a90611d3b565b61032360006113c0565b805160208201516040808401516060850151608086015160a087015160c0880151945163d505accf60e01b81526001600160a01b0397881660048201529690951660248701526044860192909252606485015260ff16608484015260a483019190915260c482015273136acd46c134e8269052c62a67042d6bdedde3c99063d505accf9060e401600060405180830381600087803b158015610c7d57600080fd5b505af1158015610c91573d6000803e3d6000fd5b5050505050565b610ca182610e3a565b604051632770a7eb60e21b81526001600160a01b038681166004830152602482018690529190911690639dc29fac90604401600060405180830381600087803b158015610ced57600080fd5b505af1158015610d01573d6000803e3d6000fd5b50505050610d0e81610e3a565b6040516340c10f1960e01b81526001600160a01b0386811660048301526024820186905291909116906340c10f1990604401600060405180830381600087803b158015610d5a57600080fd5b505af1158015610d6e573d6000803e3d6000fd5b50505050610d9c6040805133602080830191909152825180830382018152918301909252805191012060cb55565b50505050565b6033546001600160a01b03163314610dcc5760405162461bcd60e51b815260040161031a90611d3b565b6001600160a01b038116610e315760405162461bcd60e51b815260206004820152602660248201527f4f776e61626c653a206e6577206f776e657220697320746865207a65726f206160448201526564647265737360d01b606482015260840161031a565b6104ae816113c0565b600060c9826001811115610e5e57634e487b7160e01b600052602160045260246000fd5b60028110610e7c57634e487b7160e01b600052603260045260246000fd5b01546001600160a01b031690505b919050565b6040516001600160a01b038316602482015260448101829052610ef290849063a9059cbb60e01b906064015b60408051601f198184030181529190526020810180516001600160e01b03166001600160e01b031990931692909217909152611412565b505050565b7f360894a13ba1a3210667c828492db98dca3e2076cc3735a920a3ca505d382bbc546001600160a01b031690565b6033546001600160a01b031633146104ae5760405162461bcd60e51b815260040161031a90611d3b565b6000610f59610ef7565b9050610f64846114e4565b600083511180610f715750815b15610f8257610f808484611589565b505b7f4910fdfa16fed3260ed0e7147f7cc6da11a60208b5b9406d12a635614ffd9143805460ff16610c9157805460ff191660011781556040516001600160a01b038316602482015261100190869060440160408051601f198184030181529190526020810180516001600160e01b0316631b2ce7f360e11b179052611589565b50805460ff19168155611012610ef7565b6001600160a01b0316826001600160a01b03161461108a5760405162461bcd60e51b815260206004820152602f60248201527f45524331393637557067726164653a207570677261646520627265616b73206660448201526e75727468657220757067726164657360881b606482015260840161031a565b610c9185611674565b6040516001600160a01b0380851660248301528316604482015260648101829052610d9c9085906323b872dd60e01b90608401610ebb565b600054610100900460ff16806110e4575060005460ff16155b6111005760405162461bcd60e51b815260040161031a90611ced565b600054610100900460ff1615801561112b576000805460ff1961ff0019909116610100171660011790555b6111336116b4565b61113b611727565b80156104ae576000805461ff001916905550565b600054610100900460ff1680611168575060005460ff16155b6111845760405162461bcd60e51b815260040161031a90611ced565b600054610100900460ff161580156111af576000805460ff1961ff0019909116610100171660011790555b6111b76116b4565b61113b6116b4565b60008033604080516001600160a01b039092166020830152810184905260600160405160208183030381529060405280519060200120905060cc54811461123f5760405162461bcd60e51b8152602060048201526014602482015273496e76616c696420524e472073656564206b657960601b604482015260640161031a565b60008361124d600143611dec565b4060cb5461125b6000610e3a565b6001600160a01b03166318160ddd6040518163ffffffff1660e01b815260040160206040518083038186803b15801561129357600080fd5b505afa1580156112a7573d6000803e3d6000fd5b505050506040513d601f19601f820116820180604052508101906112cb9190611bee565b6112d56001610e3a565b6001600160a01b03166318160ddd6040518163ffffffff1660e01b815260040160206040518083038186803b15801561130d57600080fd5b505afa158015611321573d6000803e3d6000fd5b505050506040513d601f19601f820116820180604052508101906113459190611bee565b6040805160208101969096528501939093526060840191909152608083015260a082015260c00160408051601f19818403018152919052805160209091012090506113b8611394600283611e2f565b60018111156113b357634e487b7160e01b600052602160045260246000fd5b610e3a565b949350505050565b603380546001600160a01b038381166001600160a01b0319831681179093556040519116919082907f8be0079c531659141344cd1fd0a4f28419497f9722a3daafe3b4186f6b6457e090600090a35050565b6000611467826040518060400160405280602081526020017f5361666545524332303a206c6f772d6c6576656c2063616c6c206661696c6564815250856001600160a01b03166117909092919063ffffffff16565b805190915015610ef257808060200190518101906114859190611b92565b610ef25760405162461bcd60e51b815260206004820152602a60248201527f5361666545524332303a204552433230206f7065726174696f6e20646964206e6044820152691bdd081cdd58d8d9595960b21b606482015260840161031a565b803b6115485760405162461bcd60e51b815260206004820152602d60248201527f455243313936373a206e657720696d706c656d656e746174696f6e206973206e60448201526c1bdd08184818dbdb9d1c9858dd609a1b606482015260840161031a565b7f360894a13ba1a3210667c828492db98dca3e2076cc3735a920a3ca505d382bbc80546001600160a01b0319166001600160a01b0392909216919091179055565b6060823b6115e85760405162461bcd60e51b815260206004820152602660248201527f416464726573733a2064656c65676174652063616c6c20746f206e6f6e2d636f6044820152651b9d1c9858dd60d21b606482015260840161031a565b600080846001600160a01b0316846040516116039190611c06565b600060405180830381855af49150503d806000811461163e576040519150601f19603f3d011682016040523d82523d6000602084013e611643565b606091505b509150915061166b8282604051806060016040528060278152602001611e9b6027913961179f565b95945050505050565b61167d816114e4565b6040516001600160a01b038216907fbc7cd75a20ee27fd9adebab32041f755214dbc6bffa90cc0225b39da2e5c2d3b90600090a250565b600054610100900460ff16806116cd575060005460ff16155b6116e95760405162461bcd60e51b815260040161031a90611ced565b600054610100900460ff1615801561113b576000805460ff1961ff00199091166101001716600117905580156104ae576000805461ff001916905550565b600054610100900460ff1680611740575060005460ff16155b61175c5760405162461bcd60e51b815260040161031a90611ced565b600054610100900460ff16158015611787576000805460ff1961ff0019909116610100171660011790555b61113b336113c0565b60606113b884846000856117d8565b606083156117ae5750816103e1565b8251156117be5782518084602001fd5b8160405162461bcd60e51b815260040161031a9190611c22565b6060824710156118395760405162461bcd60e51b815260206004820152602660248201527f416464726573733a20696e73756666696369656e742062616c616e636520666f6044820152651c8818d85b1b60d21b606482015260840161031a565b843b6118875760405162461bcd60e51b815260206004820152601d60248201527f416464726573733a2063616c6c20746f206e6f6e2d636f6e7472616374000000604482015260640161031a565b600080866001600160a01b031685876040516118a39190611c06565b60006040518083038185875af1925050503d80600081146118e0576040519150601f19603f3d011682016040523d82523d6000602084013e6118e5565b606091505b50915091506118f582828661179f565b979650505050505050565b803560028110610e8a57600080fd5b600060e08284031215611920578081fd5b61192a60e0611d70565b9050813561193781611e85565b8152602082013561194781611e85565b806020830152506040820135604082015260608201356060820152608082013560ff8116811461197657600080fd5b8060808301525060a082013560a082015260c082013560c082015292915050565b6000602082840312156119a8578081fd5b81356103e181611e85565b600080600080600060a086880312156119ca578081fd5b85356119d581611e85565b945060208601356119e581611e85565b93506040860135925060608601356119fc81611e85565b9150608086013561ffff81168114611a12578182fd5b809150509295509295909350565b60008060408385031215611a32578182fd5b8235611a3d81611e85565b915060208381013567ffffffffffffffff80821115611a5a578384fd5b818601915086601f830112611a6d578384fd5b813581811115611a7f57611a7f611e6f565b611a91601f8201601f19168501611d70565b91508082528784828501011115611aa6578485fd5b8084840185840137810190920192909252919491935090915050565b600080600060608486031215611ad6578283fd5b8335611ae181611e85565b925060208401359150611af660408501611900565b90509250925092565b60008060008060808587031215611b14578384fd5b8435611b1f81611e85565b935060208501359250611b3460408601611900565b9150611b4260608601611900565b905092959194509250565b6000806000806101408587031215611b63578384fd5b8435611b6e81611e85565b935060208501359250611b8360408601611900565b9150611b42866060870161190f565b600060208284031215611ba3578081fd5b815180151581146103e1578182fd5b60008060408385031215611bc4578182fd5b50508035926020909101359150565b600060e08284031215611be4578081fd5b6103e1838361190f565b600060208284031215611bff578081fd5b5051919050565b60008251611c18818460208701611e03565b9190910192915050565b6000602082528251806020840152611c41816040850160208701611e03565b601f01601f19169190910160400192915050565b6020808252602c908201527f46756e6374696f6e206d7573742062652063616c6c6564207468726f7567682060408201526b19195b1959d85d1958d85b1b60a21b606082015260800190565b6020808252602c908201527f46756e6374696f6e206d7573742062652063616c6c6564207468726f7567682060408201526b6163746976652070726f787960a01b606082015260800190565b6020808252602e908201527f496e697469616c697a61626c653a20636f6e747261637420697320616c72656160408201526d191e481a5b9a5d1a585b1a5e995960921b606082015260800190565b6020808252818101527f4f776e61626c653a2063616c6c6572206973206e6f7420746865206f776e6572604082015260600190565b604051601f8201601f1916810167ffffffffffffffff81118282101715611d9957611d99611e6f565b604052919050565b60008219821115611db457611db4611e43565b500190565b600082611dc857611dc8611e59565b500490565b6000816000190483118215151615611de757611de7611e43565b500290565b600082821015611dfe57611dfe611e43565b500390565b60005b83811015611e1e578181015183820152602001611e06565b83811115610d9c5750506000910152565b600082611e3e57611e3e611e59565b500690565b634e487b7160e01b600052601160045260246000fd5b634e487b7160e01b600052601260045260246000fd5b634e487b7160e01b600052604160045260246000fd5b6001600160a01b03811681146104ae57600080fdfe416464726573733a206c6f772d6c6576656c2064656c65676174652063616c6c206661696c6564a26469706673582212203a110607402240b74a9e64ed8121f696c1d45fa804b041acb87c3834fc6a0d9d64736f6c63430008020033",
  "linkReferences": {},
  "deployedLinkReferences": {}
}