{
  "_format": "hh-sol-artifact-1",
  "contractName": "RBPoolController",
  "sourceName": "contracts/rb-pool-controller.sol",
  "abi": [
    {
      "inputs": [
        {
          "internalType": "address",
          "name": "redMemoPool",
          "type": "address"
        },
        {
          "internalType": "address",
          "name": "blackMemoPool",
          "type": "address"
        },
        {
          "internalType": "bytes32",
          "name": "initialSeedHash",
          "type": "bytes32"
        },
        {
          "internalType": "address payable",
          "name": "feeCollector_",
          "type": "address"
        },
        {
          "internalType": "uint16",
          "name": "feeBP_",
          "type": "uint16"
        }
      ],
      "stateMutability": "nonpayable",
      "type": "constructor"
    },
    {
      "anonymous": false,
      "inputs": [
        {
          "indexed": true,
          "internalType": "uint256",
          "name": "timestamp",
          "type": "uint256"
        },
        {
          "indexed": false,
          "internalType": "uint256",
          "name": "amount",
          "type": "uint256"
        },
        {
          "indexed": false,
          "internalType": "uint256",
          "name": "redSupply",
          "type": "uint256"
        },
        {
          "indexed": false,
          "internalType": "uint256",
          "name": "blackSupply",
          "type": "uint256"
        },
        {
          "indexed": false,
          "internalType": "uint8",
          "name": "selectedPool",
          "type": "uint8"
        }
      ],
      "name": "LogRebase",
      "type": "event"
    },
    {
      "anonymous": false,
      "inputs": [
        {
          "indexed": true,
          "internalType": "address",
          "name": "previousOwner",
          "type": "address"
        },
        {
          "indexed": true,
          "internalType": "address",
          "name": "newOwner",
          "type": "address"
        }
      ],
      "name": "OwnershipTransferred",
      "type": "event"
    },
    {
      "inputs": [],
      "name": "MEMO_CONTRACT",
      "outputs": [
        {
          "internalType": "contract ERC20Permit",
          "name": "",
          "type": "address"
        }
      ],
      "stateMutability": "view",
      "type": "function"
    },
    {
      "inputs": [
        {
          "internalType": "uint256",
          "name": "amount",
          "type": "uint256"
        },
        {
          "internalType": "enum RBPoolController.Pool",
          "name": "pool",
          "type": "uint8"
        },
        {
          "components": [
            {
              "internalType": "address",
              "name": "owner",
              "type": "address"
            },
            {
              "internalType": "address",
              "name": "spender",
              "type": "address"
            },
            {
              "internalType": "uint256",
              "name": "amount",
              "type": "uint256"
            },
            {
              "internalType": "uint256",
              "name": "deadline",
              "type": "uint256"
            },
            {
              "internalType": "uint8",
              "name": "v",
              "type": "uint8"
            },
            {
              "internalType": "bytes32",
              "name": "r",
              "type": "bytes32"
            },
            {
              "internalType": "bytes32",
              "name": "s",
              "type": "bytes32"
            }
          ],
          "internalType": "struct RBPoolController.PermitSignature",
          "name": "permitSignature",
          "type": "tuple"
        }
      ],
      "name": "deposit",
      "outputs": [
        {
          "internalType": "bool",
          "name": "",
          "type": "bool"
        }
      ],
      "stateMutability": "nonpayable",
      "type": "function"
    },
    {
      "inputs": [],
      "name": "depositLock",
      "outputs": [
        {
          "internalType": "bool",
          "name": "",
          "type": "bool"
        }
      ],
      "stateMutability": "view",
      "type": "function"
    },
    {
      "inputs": [],
      "name": "feeBP",
      "outputs": [
        {
          "internalType": "uint16",
          "name": "",
          "type": "uint16"
        }
      ],
      "stateMutability": "view",
      "type": "function"
    },
    {
      "inputs": [],
      "name": "feeCollector",
      "outputs": [
        {
          "internalType": "address payable",
          "name": "",
          "type": "address"
        }
      ],
      "stateMutability": "view",
      "type": "function"
    },
    {
      "inputs": [
        {
          "components": [
            {
              "internalType": "address",
              "name": "owner",
              "type": "address"
            },
            {
              "internalType": "address",
              "name": "spender",
              "type": "address"
            },
            {
              "internalType": "uint256",
              "name": "amount",
              "type": "uint256"
            },
            {
              "internalType": "uint256",
              "name": "deadline",
              "type": "uint256"
            },
            {
              "internalType": "uint8",
              "name": "v",
              "type": "uint8"
            },
            {
              "internalType": "bytes32",
              "name": "r",
              "type": "bytes32"
            },
            {
              "internalType": "bytes32",
              "name": "s",
              "type": "bytes32"
            }
          ],
          "internalType": "struct RBPoolController.PermitSignature",
          "name": "permitSignature",
          "type": "tuple"
        }
      ],
      "name": "memoPermit",
      "outputs": [],
      "stateMutability": "nonpayable",
      "type": "function"
    },
    {
      "inputs": [],
      "name": "owner",
      "outputs": [
        {
          "internalType": "address",
          "name": "",
          "type": "address"
        }
      ],
      "stateMutability": "view",
      "type": "function"
    },
    {
      "inputs": [
        {
          "internalType": "uint256",
          "name": "amount",
          "type": "uint256"
        },
        {
          "internalType": "enum RBPoolController.Pool",
          "name": "fromPool",
          "type": "uint8"
        },
        {
          "internalType": "enum RBPoolController.Pool",
          "name": "toPool",
          "type": "uint8"
        }
      ],
      "name": "poolSwap",
      "outputs": [],
      "stateMutability": "nonpayable",
      "type": "function"
    },
    {
      "inputs": [
        {
          "internalType": "bytes32",
          "name": "seedKey",
          "type": "bytes32"
        },
        {
          "internalType": "bytes32",
          "name": "newSeedHash",
          "type": "bytes32"
        }
      ],
      "name": "rebase",
      "outputs": [],
      "stateMutability": "nonpayable",
      "type": "function"
    },
    {
      "inputs": [],
      "name": "renounceOwnership",
      "outputs": [],
      "stateMutability": "nonpayable",
      "type": "function"
    },
    {
      "inputs": [
        {
          "internalType": "bool",
          "name": "lockStatus",
          "type": "bool"
        }
      ],
      "name": "setDepositLock",
      "outputs": [],
      "stateMutability": "nonpayable",
      "type": "function"
    },
    {
      "inputs": [
        {
          "internalType": "uint16",
          "name": "newBP",
          "type": "uint16"
        }
      ],
      "name": "setFeeBP",
      "outputs": [],
      "stateMutability": "nonpayable",
      "type": "function"
    },
    {
      "inputs": [
        {
          "internalType": "address payable",
          "name": "newCollector",
          "type": "address"
        }
      ],
      "name": "setFeeCollector",
      "outputs": [],
      "stateMutability": "nonpayable",
      "type": "function"
    },
    {
      "inputs": [
        {
          "internalType": "bool",
          "name": "lockStatus",
          "type": "bool"
        }
      ],
      "name": "setWithdrawLock",
      "outputs": [],
      "stateMutability": "nonpayable",
      "type": "function"
    },
    {
      "inputs": [
        {
          "internalType": "address",
          "name": "newOwner",
          "type": "address"
        }
      ],
      "name": "transferOwnership",
      "outputs": [],
      "stateMutability": "nonpayable",
      "type": "function"
    },
    {
      "inputs": [
        {
          "internalType": "uint256",
          "name": "amount",
          "type": "uint256"
        },
        {
          "internalType": "enum RBPoolController.Pool",
          "name": "pool",
          "type": "uint8"
        }
      ],
      "name": "withdraw",
      "outputs": [
        {
          "internalType": "bool",
          "name": "",
          "type": "bool"
        }
      ],
      "stateMutability": "nonpayable",
      "type": "function"
    },
    {
      "inputs": [],
      "name": "withdrawLock",
      "outputs": [
        {
          "internalType": "bool",
          "name": "",
          "type": "bool"
        }
      ],
      "stateMutability": "view",
      "type": "function"
    }
  ],
  "bytecode": "0x60806040523480156200001157600080fd5b5060405162001905380380620019058339810160408190526200003491620000fc565b6200003f33620000ac565b600180546001600160a01b03199081166001600160a01b0397881617909155600280548216958716959095179094556004929092556005805490931693169290921761ffff60a01b1916600160a01b61ffff909316929092029190911761ffff60b01b191690556200018d565b600080546001600160a01b038381166001600160a01b0319831681178455604051919092169283917f8be0079c531659141344cd1fd0a4f28419497f9722a3daafe3b4186f6b6457e09190a35050565b600080600080600060a0868803121562000114578081fd5b8551620001218162000174565b6020870151909550620001348162000174565b6040870151606088015191955093506200014e8162000174565b608087015190925061ffff8116811462000166578182fd5b809150509295509295909350565b6001600160a01b03811681146200018a57600080fd5b50565b611768806200019d6000396000f3fe608060405234801561001057600080fd5b506004361061010b5760003560e01c8063715018a6116100a2578063a42dce8011610071578063a42dce8014610231578063bb8b1c4f14610244578063c415b95c14610257578063f2fde38b1461026a578063fe4170bc1461027d5761010b565b8063715018a6146101d65780638da5cb5b146101de5780638e29c33814610203578063903d42961461021e5761010b565b8063521df5a1116100de578063521df5a1146101895780635c388ca61461019c5780636dd79be8146101b057806370e604ed146101c35761010b565b8063017f6fae146101105780633011113a1461013d57806340d4aee41461015257806350c1e47814610176575b600080fd5b60055461012590600160a01b900461ffff1681565b60405161ffff90911681526020015b60405180910390f35b61015061014b366004611475565b610290565b005b60055461016690600160b01b900460ff1681565b6040519015158152602001610134565b610166610184366004611589565b6102e1565b61015061019736600461154e565b610408565b60055461016690600160b81b900460ff1681565b6101506101be3660046114ad565b610581565b6101506101d13660046114e9565b610ae1565b610150610b2d565b6000546001600160a01b03165b6040516001600160a01b039091168152602001610134565b6101eb73136acd46c134e8269052c62a67042d6bdedde3c981565b61016661022c366004611523565b610b63565b61015061023f366004611459565b610c85565b6101506102523660046114ce565b610cd1565b6005546101eb906001600160a01b031681565b610150610278366004611459565b610d8d565b61015061028b366004611475565b610e28565b6000546001600160a01b031633146102c35760405162461bcd60e51b81526004016102ba9061160c565b60405180910390fd5b60058054911515600160b81b0260ff60b81b19909216919091179055565b600554600090600160b01b900460ff16156103325760405162461bcd60e51b815260206004820152601160248201527011195c1bdcda5d081a5cc81b1bd8dad959607a1b60448201526064016102ba565b61033b82610cd1565b61035b73136acd46c134e8269052c62a67042d6bdedde3c9333087610e70565b61036483610ee1565b6001600160a01b03166340c10f19336040516001600160e01b031960e084901b1681526001600160a01b03909116600482015260248101879052604401600060405180830381600087803b1580156103bb57600080fd5b505af11580156103cf573d6000803e3d6000fd5b505050506103fd60408051336020808301919091528251808303820181529183019092528051910120600355565b5060015b9392505050565b600554600160b81b900460ff16156104625760405162461bcd60e51b815260206004820152601c60248201527f53776170206973206c6f636b65642066726f6d2077697468647261770000000060448201526064016102ba565b61046b82610ee1565b6001600160a01b0316639dc29fac336040516001600160e01b031960e084901b1681526001600160a01b03909116600482015260248101869052604401600060405180830381600087803b1580156104c257600080fd5b505af11580156104d6573d6000803e3d6000fd5b505050506104e381610ee1565b6001600160a01b03166340c10f19336040516001600160e01b031960e084901b1681526001600160a01b03909116600482015260248101869052604401600060405180830381600087803b15801561053a57600080fd5b505af115801561054e573d6000803e3d6000fd5b5050505061057c60408051336020808301919091528251808303820181529183019092528051910120600355565b505050565b6000546001600160a01b031633146105ab5760405162461bcd60e51b81526004016102ba9061160c565b6040516370a0823160e01b815230600482015260009073136acd46c134e8269052c62a67042d6bdedde3c9906370a082319060240160206040518083038186803b1580156105f857600080fd5b505afa15801561060c573d6000803e3d6000fd5b505050506040513d601f19601f82011682018060405250810190610630919061150b565b116106765760405162461bcd60e51b8152602060048201526016602482015275436f6e74726f6c6c657220686173206e6f204d454d4f60501b60448201526064016102ba565b6000604051806040016040528061068d6000610ee1565b6001600160a01b03166318160ddd6040518163ffffffff1660e01b815260040160206040518083038186803b1580156106c557600080fd5b505afa1580156106d9573d6000803e3d6000fd5b505050506040513d601f19601f820116820180604052508101906106fd919061150b565b815260200161070c6001610ee1565b6001600160a01b03166318160ddd6040518163ffffffff1660e01b815260040160206040518083038186803b15801561074457600080fd5b505afa158015610758573d6000803e3d6000fd5b505050506040513d601f19601f8201168201806040525081019061077c919061150b565b9052602081015181519192506000916107959190611641565b116107e25760405162461bcd60e51b815260206004820152601a60248201527f4e6f204d454d4f206465706f736974656420696e20706f6f6c7300000000000060448201526064016102ba565b602081015181516000916107f591611641565b6040516370a0823160e01b8152306004820152909150600090829073136acd46c134e8269052c62a67042d6bdedde3c9906370a082319060240160206040518083038186803b15801561084757600080fd5b505afa15801561085b573d6000803e3d6000fd5b505050506040513d601f19601f8201168201806040525081019061087f919061150b565b610889919061168c565b600554909150600090612710906108ac908490600160a01b900461ffff1661166d565b6108b69190611659565b60055460405163a9059cbb60e01b81526001600160a01b0390911660048201526024810182905290915073136acd46c134e8269052c62a67042d6bdedde3c99063a9059cbb90604401602060405180830381600087803b15801561091957600080fd5b505af115801561092d573d6000803e3d6000fd5b505050506040513d601f19601f820116820180604052508101906109519190611491565b50600061095d87610f36565b90508481600181111561098057634e487b7160e01b600052602160045260246000fd5b6002811061099e57634e487b7160e01b600052603260045260246000fd5b60200201516109db5760008160018111156109c957634e487b7160e01b600052602160045260246000fd5b146109d55760006109d8565b60015b90505b6109e481610ee1565b6001600160a01b031663bc4f2d6d6109fc848661168c565b6040518263ffffffff1660e01b8152600401610a1a91815260200190565b600060405180830381600087803b158015610a3457600080fd5b505af1158015610a48573d6000803e3d6000fd5b5050506004879055506005805461ffff60b01b19169055427f5899dee610fd5140296c7bd89bd352c8236705b7339a1078727dc830db7019e5610a8b848661168c565b87516020890151856001811115610ab257634e487b7160e01b600052602160045260246000fd5b6040805194855260208501939093529183015260ff16606082015260800160405180910390a250505050505050565b6000546001600160a01b03163314610b0b5760405162461bcd60e51b81526004016102ba9061160c565b6005805461ffff909216600160a01b0261ffff60a01b19909216919091179055565b6000546001600160a01b03163314610b575760405162461bcd60e51b81526004016102ba9061160c565b610b61600061112f565b565b600554600090600160b81b900460ff1615610bb55760405162461bcd60e51b815260206004820152601260248201527115da5d1a191c985dc81a5cc81b1bd8dad95960721b60448201526064016102ba565b610bbe82610ee1565b6001600160a01b0316639dc29fac336040516001600160e01b031960e084901b1681526001600160a01b03909116600482015260248101869052604401600060405180830381600087803b158015610c1557600080fd5b505af1158015610c29573d6000803e3d6000fd5b50505050610c5273136acd46c134e8269052c62a67042d6bdedde3c9610c4c3390565b8561117f565b610c7c60408051336020808301919091528251808303820181529183019092528051910120600355565b50600192915050565b6000546001600160a01b03163314610caf5760405162461bcd60e51b81526004016102ba9061160c565b600580546001600160a01b0319166001600160a01b0392909216919091179055565b805160208201516040808401516060850151608086015160a087015160c0880151945163d505accf60e01b81526001600160a01b0397881660048201529690951660248701526044860192909252606485015260ff16608484015260a483019190915260c482015273136acd46c134e8269052c62a67042d6bdedde3c99063d505accf9060e401600060405180830381600087803b158015610d7257600080fd5b505af1158015610d86573d6000803e3d6000fd5b5050505050565b6000546001600160a01b03163314610db75760405162461bcd60e51b81526004016102ba9061160c565b6001600160a01b038116610e1c5760405162461bcd60e51b815260206004820152602660248201527f4f776e61626c653a206e6577206f776e657220697320746865207a65726f206160448201526564647265737360d01b60648201526084016102ba565b610e258161112f565b50565b6000546001600160a01b03163314610e525760405162461bcd60e51b81526004016102ba9061160c565b60058054911515600160b01b0260ff60b01b19909216919091179055565b6040516001600160a01b0380851660248301528316604482015260648101829052610edb9085906323b872dd60e01b906084015b60408051601f198184030181529190526020810180516001600160e01b03166001600160e01b0319909316929092179091526111af565b50505050565b60006001826001811115610f0557634e487b7160e01b600052602160045260246000fd5b60028110610f2357634e487b7160e01b600052603260045260246000fd5b01546001600160a01b031690505b919050565b60008033604080516001600160a01b03909216602083015281018490526060016040516020818303038152906040528051906020012090506004548114610fb65760405162461bcd60e51b8152602060048201526014602482015273496e76616c696420524e472073656564206b657960601b60448201526064016102ba565b600083610fc460014361168c565b40600354610fd26000610ee1565b6001600160a01b03166318160ddd6040518163ffffffff1660e01b815260040160206040518083038186803b15801561100a57600080fd5b505afa15801561101e573d6000803e3d6000fd5b505050506040513d601f19601f82011682018060405250810190611042919061150b565b61104c6001610ee1565b6001600160a01b03166318160ddd6040518163ffffffff1660e01b815260040160206040518083038186803b15801561108457600080fd5b505afa158015611098573d6000803e3d6000fd5b505050506040513d601f19601f820116820180604052508101906110bc919061150b565b6040805160208101969096528501939093526060840191909152608083015260a082015260c00160408051601f19818403018152919052805160209091012090506111086002826116cf565b600181111561112757634e487b7160e01b600052602160045260246000fd5b949350505050565b600080546001600160a01b038381166001600160a01b0319831681178455604051919092169283917f8be0079c531659141344cd1fd0a4f28419497f9722a3daafe3b4186f6b6457e09190a35050565b6040516001600160a01b03831660248201526044810182905261057c90849063a9059cbb60e01b90606401610ea4565b6000611204826040518060400160405280602081526020017f5361666545524332303a206c6f772d6c6576656c2063616c6c206661696c6564815250856001600160a01b03166112819092919063ffffffff16565b80519091501561057c57808060200190518101906112229190611491565b61057c5760405162461bcd60e51b815260206004820152602a60248201527f5361666545524332303a204552433230206f7065726174696f6e20646964206e6044820152691bdd081cdd58d8d9595960b21b60648201526084016102ba565b6060611127848460008585843b6112da5760405162461bcd60e51b815260206004820152601d60248201527f416464726573733a2063616c6c20746f206e6f6e2d636f6e747261637400000060448201526064016102ba565b600080866001600160a01b031685876040516112f691906115bd565b60006040518083038185875af1925050503d8060008114611333576040519150601f19603f3d011682016040523d82523d6000602084013e611338565b606091505b5091509150611348828286611353565b979650505050505050565b60608315611362575081610401565b8251156113725782518084602001fd5b8160405162461bcd60e51b81526004016102ba91906115d9565b8035610f318161170f565b803560028110610f3157600080fd5b600060e082840312156113b7578081fd5b60405160e0810181811067ffffffffffffffff821117156113e657634e487b7160e01b83526041600452602483fd5b6040529050806113f58361138c565b81526114036020840161138c565b6020820152604083013560408201526060830135606082015261142860808401611448565b608082015260a083013560a082015260c083013560c08201525092915050565b803560ff81168114610f3157600080fd5b60006020828403121561146a578081fd5b81356104018161170f565b600060208284031215611486578081fd5b813561040181611724565b6000602082840312156114a2578081fd5b815161040181611724565b600080604083850312156114bf578081fd5b50508035926020909101359150565b600060e082840312156114df578081fd5b61040183836113a6565b6000602082840312156114fa578081fd5b813561ffff81168114610401578182fd5b60006020828403121561151c578081fd5b5051919050565b60008060408385031215611535578182fd5b8235915061154560208401611397565b90509250929050565b600080600060608486031215611562578081fd5b8335925061157260208501611397565b915061158060408501611397565b90509250925092565b6000806000610120848603121561159e578283fd5b833592506115ae60208501611397565b915061158085604086016113a6565b600082516115cf8184602087016116a3565b9190910192915050565b60006020825282518060208401526115f88160408501602087016116a3565b601f01601f19169190910160400192915050565b6020808252818101527f4f776e61626c653a2063616c6c6572206973206e6f7420746865206f776e6572604082015260600190565b60008219821115611654576116546116e3565b500190565b600082611668576116686116f9565b500490565b6000816000190483118215151615611687576116876116e3565b500290565b60008282101561169e5761169e6116e3565b500390565b60005b838110156116be5781810151838201526020016116a6565b83811115610edb5750506000910152565b6000826116de576116de6116f9565b500690565b634e487b7160e01b600052601160045260246000fd5b634e487b7160e01b600052601260045260246000fd5b6001600160a01b0381168114610e2557600080fd5b8015158114610e2557600080fdfea26469706673582212203fd0c1705c12f04a6a48340bf65852865791b6eea4470895a460d322e8da5d2064736f6c63430008020033",
  "linkReferences": {},
  "deployedLinkReferences": {}
}