{
  "_format": "hh-sol-artifact-1",
  "contractName": "RBPoolController",
  "sourceName": "contracts/rb-pool-controller.sol",
  "abi": [
    {
      "inputs": [],
      "stateMutability": "nonpayable",
      "type": "constructor"
    },
    {
      "anonymous": false,
      "inputs": [
        {
          "indexed": false,
          "internalType": "address",
          "name": "previousAdmin",
          "type": "address"
        },
        {
          "indexed": false,
          "internalType": "address",
          "name": "newAdmin",
          "type": "address"
        }
      ],
      "name": "AdminChanged",
      "type": "event"
    },
    {
      "anonymous": false,
      "inputs": [
        {
          "indexed": true,
          "internalType": "address",
          "name": "beacon",
          "type": "address"
        }
      ],
      "name": "BeaconUpgraded",
      "type": "event"
    },
    {
      "anonymous": false,
      "inputs": [
        {
          "indexed": true,
          "internalType": "address",
          "name": "previousOwner",
          "type": "address"
        },
        {
          "indexed": true,
          "internalType": "address",
          "name": "newOwner",
          "type": "address"
        }
      ],
      "name": "OwnershipTransferred",
      "type": "event"
    },
    {
      "anonymous": false,
      "inputs": [
        {
          "indexed": true,
          "internalType": "address",
          "name": "implementation",
          "type": "address"
        }
      ],
      "name": "Upgraded",
      "type": "event"
    },
    {
      "inputs": [],
      "name": "MEMO_CONTRACT",
      "outputs": [
        {
          "internalType": "contract ERC20Permit",
          "name": "",
          "type": "address"
        }
      ],
      "stateMutability": "view",
      "type": "function"
    },
    {
      "inputs": [
        {
          "internalType": "address",
          "name": "account",
          "type": "address"
        },
        {
          "internalType": "uint256",
          "name": "amount",
          "type": "uint256"
        },
        {
          "internalType": "enum RBPoolController.Pool",
          "name": "pool",
          "type": "uint8"
        },
        {
          "components": [
            {
              "internalType": "address",
              "name": "owner",
              "type": "address"
            },
            {
              "internalType": "address",
              "name": "spender",
              "type": "address"
            },
            {
              "internalType": "uint256",
              "name": "amount",
              "type": "uint256"
            },
            {
              "internalType": "uint256",
              "name": "deadline",
              "type": "uint256"
            },
            {
              "internalType": "uint8",
              "name": "v",
              "type": "uint8"
            },
            {
              "internalType": "bytes32",
              "name": "r",
              "type": "bytes32"
            },
            {
              "internalType": "bytes32",
              "name": "s",
              "type": "bytes32"
            }
          ],
          "internalType": "struct RBPoolController.PermitSignature",
          "name": "permitSignature",
          "type": "tuple"
        }
      ],
      "name": "deposit",
      "outputs": [
        {
          "internalType": "bool",
          "name": "",
          "type": "bool"
        }
      ],
      "stateMutability": "nonpayable",
      "type": "function"
    },
    {
      "inputs": [],
      "name": "feeBP",
      "outputs": [
        {
          "internalType": "uint16",
          "name": "",
          "type": "uint16"
        }
      ],
      "stateMutability": "view",
      "type": "function"
    },
    {
      "inputs": [],
      "name": "feeCollector",
      "outputs": [
        {
          "internalType": "address payable",
          "name": "",
          "type": "address"
        }
      ],
      "stateMutability": "view",
      "type": "function"
    },
    {
      "inputs": [
        {
          "internalType": "address",
          "name": "redMemoPool",
          "type": "address"
        },
        {
          "internalType": "address",
          "name": "blackMemoPool",
          "type": "address"
        },
        {
          "internalType": "bytes32",
          "name": "initialSeedHash",
          "type": "bytes32"
        },
        {
          "internalType": "address payable",
          "name": "feeCollector_",
          "type": "address"
        },
        {
          "internalType": "uint16",
          "name": "feeBP_",
          "type": "uint16"
        }
      ],
      "name": "initialize",
      "outputs": [],
      "stateMutability": "nonpayable",
      "type": "function"
    },
    {
      "inputs": [
        {
          "components": [
            {
              "internalType": "address",
              "name": "owner",
              "type": "address"
            },
            {
              "internalType": "address",
              "name": "spender",
              "type": "address"
            },
            {
              "internalType": "uint256",
              "name": "amount",
              "type": "uint256"
            },
            {
              "internalType": "uint256",
              "name": "deadline",
              "type": "uint256"
            },
            {
              "internalType": "uint8",
              "name": "v",
              "type": "uint8"
            },
            {
              "internalType": "bytes32",
              "name": "r",
              "type": "bytes32"
            },
            {
              "internalType": "bytes32",
              "name": "s",
              "type": "bytes32"
            }
          ],
          "internalType": "struct RBPoolController.PermitSignature",
          "name": "permitSignature",
          "type": "tuple"
        }
      ],
      "name": "memoPermit",
      "outputs": [],
      "stateMutability": "nonpayable",
      "type": "function"
    },
    {
      "inputs": [],
      "name": "onUpgrade",
      "outputs": [],
      "stateMutability": "nonpayable",
      "type": "function"
    },
    {
      "inputs": [],
      "name": "owner",
      "outputs": [
        {
          "internalType": "address",
          "name": "",
          "type": "address"
        }
      ],
      "stateMutability": "view",
      "type": "function"
    },
    {
      "inputs": [
        {
          "internalType": "address",
          "name": "account",
          "type": "address"
        },
        {
          "internalType": "uint256",
          "name": "amount",
          "type": "uint256"
        },
        {
          "internalType": "enum RBPoolController.Pool",
          "name": "fromPool",
          "type": "uint8"
        },
        {
          "internalType": "enum RBPoolController.Pool",
          "name": "toPool",
          "type": "uint8"
        }
      ],
      "name": "poolSwap",
      "outputs": [],
      "stateMutability": "nonpayable",
      "type": "function"
    },
    {
      "inputs": [
        {
          "internalType": "bytes32",
          "name": "seedKey",
          "type": "bytes32"
        },
        {
          "internalType": "bytes32",
          "name": "newSeedHash",
          "type": "bytes32"
        }
      ],
      "name": "rebase",
      "outputs": [],
      "stateMutability": "nonpayable",
      "type": "function"
    },
    {
      "inputs": [],
      "name": "renounceOwnership",
      "outputs": [],
      "stateMutability": "nonpayable",
      "type": "function"
    },
    {
      "inputs": [
        {
          "internalType": "address",
          "name": "newOwner",
          "type": "address"
        }
      ],
      "name": "transferOwnership",
      "outputs": [],
      "stateMutability": "nonpayable",
      "type": "function"
    },
    {
      "inputs": [
        {
          "internalType": "address",
          "name": "newImplementation",
          "type": "address"
        }
      ],
      "name": "upgradeTo",
      "outputs": [],
      "stateMutability": "nonpayable",
      "type": "function"
    },
    {
      "inputs": [
        {
          "internalType": "address",
          "name": "newImplementation",
          "type": "address"
        },
        {
          "internalType": "bytes",
          "name": "data",
          "type": "bytes"
        }
      ],
      "name": "upgradeToAndCall",
      "outputs": [],
      "stateMutability": "payable",
      "type": "function"
    },
    {
      "inputs": [
        {
          "internalType": "address",
          "name": "account",
          "type": "address"
        },
        {
          "internalType": "uint256",
          "name": "amount",
          "type": "uint256"
        },
        {
          "internalType": "enum RBPoolController.Pool",
          "name": "pool",
          "type": "uint8"
        }
      ],
      "name": "withdraw",
      "outputs": [
        {
          "internalType": "bool",
          "name": "",
          "type": "bool"
        }
      ],
      "stateMutability": "nonpayable",
      "type": "function"
    }
  ],
  "bytecode": "0x60a06040523060601b60805234801561001757600080fd5b50600054610100900460ff1680610031575060005460ff16155b6100985760405162461bcd60e51b815260206004820152602e60248201527f496e697469616c697a61626c653a20636f6e747261637420697320616c72656160448201526d191e481a5b9a5d1a585b1a5e995960921b606482015260840160405180910390fd5b600054610100900460ff161580156100c3576000805460ff1961ff0019909116610100171660011790555b80156100d5576000805461ff00191690555b5060805160601c611d83610109600039600081816103f3015281816104330152818161058901526105c90152611d836000f3fe6080604052600436106100e85760003560e01c80636dd79be81161008a578063bb8b1c4f11610059578063bb8b1c4f14610270578063c415b95c14610290578063d7210c78146102b0578063f2fde38b146102d0576100e8565b80636dd79be8146101e1578063715018a6146102015780638da5cb5b146102165780638e29c33814610248576100e8565b80633659cfe6116100c65780633659cfe61461016e57806348a02dfd1461018e5780634f1ef286146101ae5780635529ee4b146101c1576100e8565b8063017f6fae146100ed5780631824a46b146101275780632892a9771461013e575b600080fd5b3480156100f957600080fd5b5060cd5461010f90600160a01b900461ffff1681565b60405161ffff90911681526020015b60405180910390f35b34801561013357600080fd5b5061013c6102f0565b005b34801561014a57600080fd5b5061015e61015936600461194e565b610325565b604051901515815260200161011e565b34801561017a57600080fd5b5061013c610189366004611823565b6103e8565b34801561019a57600080fd5b5061015e6101a93660046119d9565b6104b1565b61013c6101bc3660046118ac565b61057e565b3480156101cd57600080fd5b5061013c6101dc36600461183f565b610638565b3480156101ed57600080fd5b5061013c6101fc366004611a3e565b610718565b34801561020d57600080fd5b5061013c610a34565b34801561022257600080fd5b506033546001600160a01b03165b6040516001600160a01b03909116815260200161011e565b34801561025457600080fd5b5061023073136acd46c134e8269052c62a67042d6bdedde3c981565b34801561027c57600080fd5b5061013c61028b366004611a5f565b610a68565b34801561029c57600080fd5b5060cd54610230906001600160a01b031681565b3480156102bc57600080fd5b5061013c6102cb36600461198b565b610b24565b3480156102dc57600080fd5b5061013c6102eb366004611823565b610c2e565b6033546001600160a01b031633146103235760405162461bcd60e51b815260040161031a90611bc7565b60405180910390fd5b565b600061033082610cc6565b604051632770a7eb60e21b81526001600160a01b038681166004830152602482018690529190911690639dc29fac90604401600060405180830381600087803b15801561037c57600080fd5b505af1158015610390573d6000803e3d6000fd5b505050506103b373136acd46c134e8269052c62a67042d6bdedde3c98585610d1b565b6103dd6040805133602080830191909152825180830382018152918301909252805191012060cb55565b5060015b9392505050565b306001600160a01b037f00000000000000000000000000000000000000000000000000000000000000001614156104315760405162461bcd60e51b815260040161031a90611ae1565b7f00000000000000000000000000000000000000000000000000000000000000006001600160a01b0316610463610d83565b6001600160a01b0316146104895760405162461bcd60e51b815260040161031a90611b2d565b61049281610db1565b604080516000808252602082019092526104ae91839190610ddb565b50565b60006104bc82610a68565b6104dc73136acd46c134e8269052c62a67042d6bdedde3c9863087610f1f565b6104e583610cc6565b6040516340c10f1960e01b81526001600160a01b0387811660048301526024820187905291909116906340c10f1990604401600060405180830381600087803b15801561053157600080fd5b505af1158015610545573d6000803e3d6000fd5b505050506105736040805133602080830191909152825180830382018152918301909252805191012060cb55565b506001949350505050565b306001600160a01b037f00000000000000000000000000000000000000000000000000000000000000001614156105c75760405162461bcd60e51b815260040161031a90611ae1565b7f00000000000000000000000000000000000000000000000000000000000000006001600160a01b03166105f9610d83565b6001600160a01b03161461061f5760405162461bcd60e51b815260040161031a90611b2d565b61062882610db1565b61063482826001610ddb565b5050565b600054610100900460ff1680610651575060005460ff16155b61066d5760405162461bcd60e51b815260040161031a90611b79565b600054610100900460ff16158015610698576000805460ff1961ff0019909116610100171660011790555b6106a0610f57565b6106a8610fdb565b60c980546001600160a01b038089166001600160a01b03199283161790925560ca805488841690831617905560cc86905560cd805461ffff8616600160a01b0261ffff60a01b199488169190931617929092161790558015610710576000805461ff00191690555b505050505050565b6033546001600160a01b031633146107425760405162461bcd60e51b815260040161031a90611bc7565b600060405180604001604052806107596000610cc6565b6001600160a01b03166318160ddd6040518163ffffffff1660e01b815260040160206040518083038186803b15801561079157600080fd5b505afa1580156107a5573d6000803e3d6000fd5b505050506040513d601f19601f820116820180604052508101906107c99190611a7a565b81526020016107d86001610cc6565b6001600160a01b03166318160ddd6040518163ffffffff1660e01b815260040160206040518083038186803b15801561081057600080fd5b505afa158015610824573d6000803e3d6000fd5b505050506040513d601f19601f820116820180604052508101906108489190611a7a565b90528051909150158015906108605750602081015115155b6108ac5760405162461bcd60e51b815260206004820152601b60248201527f4e6f204d454d4f206465706f736974656420696e206120706f6f6c0000000000604482015260640161031a565b60006108b78461104b565b602083015183519192506000916108ce9190611c2d565b6040516370a0823160e01b8152306004820152909150600090829073136acd46c134e8269052c62a67042d6bdedde3c9906370a082319060240160206040518083038186803b15801561092057600080fd5b505afa158015610934573d6000803e3d6000fd5b505050506040513d601f19601f820116820180604052508101906109589190611a7a565b6109629190611c78565b60cd5490915060009061271090610985908490600160a01b900461ffff16611c59565b61098f9190611c45565b60cd5460405163a9059cbb60e01b81526001600160a01b0390911660048201526024810182905290915073136acd46c134e8269052c62a67042d6bdedde3c99063a9059cbb90604401602060405180830381600087803b1580156109f257600080fd5b505af1158015610a06573d6000803e3d6000fd5b505050506040513d601f19601f82011682018060405250810190610a2a9190611a1e565b5050505050505050565b6033546001600160a01b03163314610a5e5760405162461bcd60e51b815260040161031a90611bc7565b610323600061124c565b805160208201516040808401516060850151608086015160a087015160c0880151945163d505accf60e01b81526001600160a01b0397881660048201529690951660248701526044860192909252606485015260ff16608484015260a483019190915260c482015273136acd46c134e8269052c62a67042d6bdedde3c99063d505accf9060e401600060405180830381600087803b158015610b0957600080fd5b505af1158015610b1d573d6000803e3d6000fd5b5050505050565b610b2d82610cc6565b604051632770a7eb60e21b81526001600160a01b038681166004830152602482018690529190911690639dc29fac90604401600060405180830381600087803b158015610b7957600080fd5b505af1158015610b8d573d6000803e3d6000fd5b50505050610b9a81610cc6565b6040516340c10f1960e01b81526001600160a01b0386811660048301526024820186905291909116906340c10f1990604401600060405180830381600087803b158015610be657600080fd5b505af1158015610bfa573d6000803e3d6000fd5b50505050610c286040805133602080830191909152825180830382018152918301909252805191012060cb55565b50505050565b6033546001600160a01b03163314610c585760405162461bcd60e51b815260040161031a90611bc7565b6001600160a01b038116610cbd5760405162461bcd60e51b815260206004820152602660248201527f4f776e61626c653a206e6577206f776e657220697320746865207a65726f206160448201526564647265737360d01b606482015260840161031a565b6104ae8161124c565b600060c9826001811115610cea57634e487b7160e01b600052602160045260246000fd5b60028110610d0857634e487b7160e01b600052603260045260246000fd5b01546001600160a01b031690505b919050565b6040516001600160a01b038316602482015260448101829052610d7e90849063a9059cbb60e01b906064015b60408051601f198184030181529190526020810180516001600160e01b03166001600160e01b03199093169290921790915261129e565b505050565b7f360894a13ba1a3210667c828492db98dca3e2076cc3735a920a3ca505d382bbc546001600160a01b031690565b6033546001600160a01b031633146104ae5760405162461bcd60e51b815260040161031a90611bc7565b6000610de5610d83565b9050610df084611370565b600083511180610dfd5750815b15610e0e57610e0c8484611415565b505b7f4910fdfa16fed3260ed0e7147f7cc6da11a60208b5b9406d12a635614ffd9143805460ff16610b1d57805460ff191660011781556040516001600160a01b0383166024820152610e8d90869060440160408051601f198184030181529190526020810180516001600160e01b0316631b2ce7f360e11b179052611415565b50805460ff19168155610e9e610d83565b6001600160a01b0316826001600160a01b031614610f165760405162461bcd60e51b815260206004820152602f60248201527f45524331393637557067726164653a207570677261646520627265616b73206660448201526e75727468657220757067726164657360881b606482015260840161031a565b610b1d85611500565b6040516001600160a01b0380851660248301528316604482015260648101829052610c289085906323b872dd60e01b90608401610d47565b600054610100900460ff1680610f70575060005460ff16155b610f8c5760405162461bcd60e51b815260040161031a90611b79565b600054610100900460ff16158015610fb7576000805460ff1961ff0019909116610100171660011790555b610fbf611540565b610fc76115b3565b80156104ae576000805461ff001916905550565b600054610100900460ff1680610ff4575060005460ff16155b6110105760405162461bcd60e51b815260040161031a90611b79565b600054610100900460ff1615801561103b576000805460ff1961ff0019909116610100171660011790555b611043611540565b610fc7611540565b60008033604080516001600160a01b039092166020830152810184905260600160405160208183030381529060405280519060200120905060cc5481146110cb5760405162461bcd60e51b8152602060048201526014602482015273496e76616c696420524e472073656564206b657960601b604482015260640161031a565b6000836110d9600143611c78565b4060cb546110e76000610cc6565b6001600160a01b03166318160ddd6040518163ffffffff1660e01b815260040160206040518083038186803b15801561111f57600080fd5b505afa158015611133573d6000803e3d6000fd5b505050506040513d601f19601f820116820180604052508101906111579190611a7a565b6111616001610cc6565b6001600160a01b03166318160ddd6040518163ffffffff1660e01b815260040160206040518083038186803b15801561119957600080fd5b505afa1580156111ad573d6000803e3d6000fd5b505050506040513d601f19601f820116820180604052508101906111d19190611a7a565b6040805160208101969096528501939093526060840191909152608083015260a082015260c00160408051601f1981840301815291905280516020909101209050611244611220600283611cbb565b600181111561123f57634e487b7160e01b600052602160045260246000fd5b610cc6565b949350505050565b603380546001600160a01b038381166001600160a01b0319831681179093556040519116919082907f8be0079c531659141344cd1fd0a4f28419497f9722a3daafe3b4186f6b6457e090600090a35050565b60006112f3826040518060400160405280602081526020017f5361666545524332303a206c6f772d6c6576656c2063616c6c206661696c6564815250856001600160a01b031661161c9092919063ffffffff16565b805190915015610d7e57808060200190518101906113119190611a1e565b610d7e5760405162461bcd60e51b815260206004820152602a60248201527f5361666545524332303a204552433230206f7065726174696f6e20646964206e6044820152691bdd081cdd58d8d9595960b21b606482015260840161031a565b803b6113d45760405162461bcd60e51b815260206004820152602d60248201527f455243313936373a206e657720696d706c656d656e746174696f6e206973206e60448201526c1bdd08184818dbdb9d1c9858dd609a1b606482015260840161031a565b7f360894a13ba1a3210667c828492db98dca3e2076cc3735a920a3ca505d382bbc80546001600160a01b0319166001600160a01b0392909216919091179055565b6060823b6114745760405162461bcd60e51b815260206004820152602660248201527f416464726573733a2064656c65676174652063616c6c20746f206e6f6e2d636f6044820152651b9d1c9858dd60d21b606482015260840161031a565b600080846001600160a01b03168460405161148f9190611a92565b600060405180830381855af49150503d80600081146114ca576040519150601f19603f3d011682016040523d82523d6000602084013e6114cf565b606091505b50915091506114f78282604051806060016040528060278152602001611d276027913961162b565b95945050505050565b61150981611370565b6040516001600160a01b038216907fbc7cd75a20ee27fd9adebab32041f755214dbc6bffa90cc0225b39da2e5c2d3b90600090a250565b600054610100900460ff1680611559575060005460ff16155b6115755760405162461bcd60e51b815260040161031a90611b79565b600054610100900460ff16158015610fc7576000805460ff1961ff00199091166101001716600117905580156104ae576000805461ff001916905550565b600054610100900460ff16806115cc575060005460ff16155b6115e85760405162461bcd60e51b815260040161031a90611b79565b600054610100900460ff16158015611613576000805460ff1961ff0019909116610100171660011790555b610fc73361124c565b60606112448484600085611664565b6060831561163a5750816103e1565b82511561164a5782518084602001fd5b8160405162461bcd60e51b815260040161031a9190611aae565b6060824710156116c55760405162461bcd60e51b815260206004820152602660248201527f416464726573733a20696e73756666696369656e742062616c616e636520666f6044820152651c8818d85b1b60d21b606482015260840161031a565b843b6117135760405162461bcd60e51b815260206004820152601d60248201527f416464726573733a2063616c6c20746f206e6f6e2d636f6e7472616374000000604482015260640161031a565b600080866001600160a01b0316858760405161172f9190611a92565b60006040518083038185875af1925050503d806000811461176c576040519150601f19603f3d011682016040523d82523d6000602084013e611771565b606091505b509150915061178182828661162b565b979650505050505050565b803560028110610d1657600080fd5b600060e082840312156117ac578081fd5b6117b660e0611bfc565b905081356117c381611d11565b815260208201356117d381611d11565b806020830152506040820135604082015260608201356060820152608082013560ff8116811461180257600080fd5b8060808301525060a082013560a082015260c082013560c082015292915050565b600060208284031215611834578081fd5b81356103e181611d11565b600080600080600060a08688031215611856578081fd5b853561186181611d11565b9450602086013561187181611d11565b935060408601359250606086013561188881611d11565b9150608086013561ffff8116811461189e578182fd5b809150509295509295909350565b600080604083850312156118be578182fd5b82356118c981611d11565b915060208381013567ffffffffffffffff808211156118e6578384fd5b818601915086601f8301126118f9578384fd5b81358181111561190b5761190b611cfb565b61191d601f8201601f19168501611bfc565b91508082528784828501011115611932578485fd5b8084840185840137810190920192909252919491935090915050565b600080600060608486031215611962578283fd5b833561196d81611d11565b9250602084013591506119826040850161178c565b90509250925092565b600080600080608085870312156119a0578384fd5b84356119ab81611d11565b9350602085013592506119c06040860161178c565b91506119ce6060860161178c565b905092959194509250565b60008060008061014085870312156119ef578384fd5b84356119fa81611d11565b935060208501359250611a0f6040860161178c565b91506119ce866060870161179b565b600060208284031215611a2f578081fd5b815180151581146103e1578182fd5b60008060408385031215611a50578182fd5b50508035926020909101359150565b600060e08284031215611a70578081fd5b6103e1838361179b565b600060208284031215611a8b578081fd5b5051919050565b60008251611aa4818460208701611c8f565b9190910192915050565b6000602082528251806020840152611acd816040850160208701611c8f565b601f01601f19169190910160400192915050565b6020808252602c908201527f46756e6374696f6e206d7573742062652063616c6c6564207468726f7567682060408201526b19195b1959d85d1958d85b1b60a21b606082015260800190565b6020808252602c908201527f46756e6374696f6e206d7573742062652063616c6c6564207468726f7567682060408201526b6163746976652070726f787960a01b606082015260800190565b6020808252602e908201527f496e697469616c697a61626c653a20636f6e747261637420697320616c72656160408201526d191e481a5b9a5d1a585b1a5e995960921b606082015260800190565b6020808252818101527f4f776e61626c653a2063616c6c6572206973206e6f7420746865206f776e6572604082015260600190565b604051601f8201601f1916810167ffffffffffffffff81118282101715611c2557611c25611cfb565b604052919050565b60008219821115611c4057611c40611ccf565b500190565b600082611c5457611c54611ce5565b500490565b6000816000190483118215151615611c7357611c73611ccf565b500290565b600082821015611c8a57611c8a611ccf565b500390565b60005b83811015611caa578181015183820152602001611c92565b83811115610c285750506000910152565b600082611cca57611cca611ce5565b500690565b634e487b7160e01b600052601160045260246000fd5b634e487b7160e01b600052601260045260246000fd5b634e487b7160e01b600052604160045260246000fd5b6001600160a01b03811681146104ae57600080fdfe416464726573733a206c6f772d6c6576656c2064656c65676174652063616c6c206661696c6564a26469706673582212200cec2e8f6f3211ccbd13e498fdf936d662f78e959236855ef55156c0bbc1585364736f6c63430008020033",
  "linkReferences": {},
  "deployedLinkReferences": {}
}