{
  "_format": "hh-sol-artifact-1",
  "contractName": "RBPoolController",
  "sourceName": "contracts/rb-pool-controller.sol",
  "abi": [
    {
      "inputs": [],
      "stateMutability": "nonpayable",
      "type": "constructor"
    },
    {
      "anonymous": false,
      "inputs": [
        {
          "indexed": false,
          "internalType": "address",
          "name": "previousAdmin",
          "type": "address"
        },
        {
          "indexed": false,
          "internalType": "address",
          "name": "newAdmin",
          "type": "address"
        }
      ],
      "name": "AdminChanged",
      "type": "event"
    },
    {
      "anonymous": false,
      "inputs": [
        {
          "indexed": true,
          "internalType": "address",
          "name": "beacon",
          "type": "address"
        }
      ],
      "name": "BeaconUpgraded",
      "type": "event"
    },
    {
      "anonymous": false,
      "inputs": [
        {
          "indexed": true,
          "internalType": "address",
          "name": "previousOwner",
          "type": "address"
        },
        {
          "indexed": true,
          "internalType": "address",
          "name": "newOwner",
          "type": "address"
        }
      ],
      "name": "OwnershipTransferred",
      "type": "event"
    },
    {
      "anonymous": false,
      "inputs": [
        {
          "indexed": true,
          "internalType": "address",
          "name": "implementation",
          "type": "address"
        }
      ],
      "name": "Upgraded",
      "type": "event"
    },
    {
      "inputs": [],
      "name": "MEMO_CONTRACT",
      "outputs": [
        {
          "internalType": "contract ERC20Permit",
          "name": "",
          "type": "address"
        }
      ],
      "stateMutability": "view",
      "type": "function"
    },
    {
      "inputs": [
        {
          "internalType": "address",
          "name": "account",
          "type": "address"
        },
        {
          "internalType": "uint256",
          "name": "amount",
          "type": "uint256"
        },
        {
          "internalType": "enum RBPoolController.Pool",
          "name": "pool",
          "type": "uint8"
        },
        {
          "components": [
            {
              "internalType": "address",
              "name": "owner",
              "type": "address"
            },
            {
              "internalType": "address",
              "name": "spender",
              "type": "address"
            },
            {
              "internalType": "uint256",
              "name": "amount",
              "type": "uint256"
            },
            {
              "internalType": "uint256",
              "name": "deadline",
              "type": "uint256"
            },
            {
              "internalType": "uint8",
              "name": "v",
              "type": "uint8"
            },
            {
              "internalType": "bytes32",
              "name": "r",
              "type": "bytes32"
            },
            {
              "internalType": "bytes32",
              "name": "s",
              "type": "bytes32"
            }
          ],
          "internalType": "struct RBPoolController.PermitSignature",
          "name": "permitSignature",
          "type": "tuple"
        }
      ],
      "name": "deposit",
      "outputs": [
        {
          "internalType": "bool",
          "name": "",
          "type": "bool"
        }
      ],
      "stateMutability": "nonpayable",
      "type": "function"
    },
    {
      "inputs": [],
      "name": "feeBP",
      "outputs": [
        {
          "internalType": "uint16",
          "name": "",
          "type": "uint16"
        }
      ],
      "stateMutability": "view",
      "type": "function"
    },
    {
      "inputs": [],
      "name": "feeCollector",
      "outputs": [
        {
          "internalType": "address payable",
          "name": "",
          "type": "address"
        }
      ],
      "stateMutability": "view",
      "type": "function"
    },
    {
      "inputs": [
        {
          "internalType": "address",
          "name": "redMemoPool",
          "type": "address"
        },
        {
          "internalType": "address",
          "name": "blackMemoPool",
          "type": "address"
        },
        {
          "internalType": "bytes32",
          "name": "initialSeedHash",
          "type": "bytes32"
        },
        {
          "internalType": "address payable",
          "name": "feeCollector_",
          "type": "address"
        },
        {
          "internalType": "uint16",
          "name": "feeBP_",
          "type": "uint16"
        }
      ],
      "name": "initialize",
      "outputs": [],
      "stateMutability": "nonpayable",
      "type": "function"
    },
    {
      "inputs": [
        {
          "components": [
            {
              "internalType": "address",
              "name": "owner",
              "type": "address"
            },
            {
              "internalType": "address",
              "name": "spender",
              "type": "address"
            },
            {
              "internalType": "uint256",
              "name": "amount",
              "type": "uint256"
            },
            {
              "internalType": "uint256",
              "name": "deadline",
              "type": "uint256"
            },
            {
              "internalType": "uint8",
              "name": "v",
              "type": "uint8"
            },
            {
              "internalType": "bytes32",
              "name": "r",
              "type": "bytes32"
            },
            {
              "internalType": "bytes32",
              "name": "s",
              "type": "bytes32"
            }
          ],
          "internalType": "struct RBPoolController.PermitSignature",
          "name": "permitSignature",
          "type": "tuple"
        }
      ],
      "name": "memoPermit",
      "outputs": [],
      "stateMutability": "nonpayable",
      "type": "function"
    },
    {
      "inputs": [],
      "name": "onUpgrade",
      "outputs": [],
      "stateMutability": "nonpayable",
      "type": "function"
    },
    {
      "inputs": [],
      "name": "owner",
      "outputs": [
        {
          "internalType": "address",
          "name": "",
          "type": "address"
        }
      ],
      "stateMutability": "view",
      "type": "function"
    },
    {
      "inputs": [
        {
          "internalType": "address",
          "name": "account",
          "type": "address"
        },
        {
          "internalType": "uint256",
          "name": "amount",
          "type": "uint256"
        },
        {
          "internalType": "enum RBPoolController.Pool",
          "name": "fromPool",
          "type": "uint8"
        },
        {
          "internalType": "enum RBPoolController.Pool",
          "name": "toPool",
          "type": "uint8"
        }
      ],
      "name": "poolSwap",
      "outputs": [],
      "stateMutability": "nonpayable",
      "type": "function"
    },
    {
      "inputs": [
        {
          "internalType": "bytes32",
          "name": "seedKey",
          "type": "bytes32"
        },
        {
          "internalType": "bytes32",
          "name": "newSeedHash",
          "type": "bytes32"
        }
      ],
      "name": "rebase",
      "outputs": [],
      "stateMutability": "nonpayable",
      "type": "function"
    },
    {
      "inputs": [],
      "name": "renounceOwnership",
      "outputs": [],
      "stateMutability": "nonpayable",
      "type": "function"
    },
    {
      "inputs": [
        {
          "internalType": "uint16",
          "name": "newBP",
          "type": "uint16"
        }
      ],
      "name": "setFeeBP",
      "outputs": [],
      "stateMutability": "nonpayable",
      "type": "function"
    },
    {
      "inputs": [
        {
          "internalType": "address payable",
          "name": "newCollector",
          "type": "address"
        }
      ],
      "name": "setFeeCollector",
      "outputs": [],
      "stateMutability": "nonpayable",
      "type": "function"
    },
    {
      "inputs": [
        {
          "internalType": "address",
          "name": "newOwner",
          "type": "address"
        }
      ],
      "name": "transferOwnership",
      "outputs": [],
      "stateMutability": "nonpayable",
      "type": "function"
    },
    {
      "inputs": [
        {
          "internalType": "address",
          "name": "newImplementation",
          "type": "address"
        }
      ],
      "name": "upgradeTo",
      "outputs": [],
      "stateMutability": "nonpayable",
      "type": "function"
    },
    {
      "inputs": [
        {
          "internalType": "address",
          "name": "newImplementation",
          "type": "address"
        },
        {
          "internalType": "bytes",
          "name": "data",
          "type": "bytes"
        }
      ],
      "name": "upgradeToAndCall",
      "outputs": [],
      "stateMutability": "payable",
      "type": "function"
    },
    {
      "inputs": [
        {
          "internalType": "address",
          "name": "account",
          "type": "address"
        },
        {
          "internalType": "uint256",
          "name": "amount",
          "type": "uint256"
        },
        {
          "internalType": "enum RBPoolController.Pool",
          "name": "pool",
          "type": "uint8"
        }
      ],
      "name": "withdraw",
      "outputs": [
        {
          "internalType": "bool",
          "name": "",
          "type": "bool"
        }
      ],
      "stateMutability": "nonpayable",
      "type": "function"
    }
  ],
  "bytecode": "0x60a06040523060601b6080523480156200001857600080fd5b50600054610100900460ff16620000365760005460ff161562000040565b62000040620000ee565b620000a85760405162461bcd60e51b815260206004820152602e60248201527f496e697469616c697a61626c653a20636f6e747261637420697320616c72656160448201526d191e481a5b9a5d1a585b1a5e995960921b606482015260840160405180910390fd5b600054610100900460ff16158015620000d4576000805460ff1961ff0019909116610100171660011790555b8015620000e7576000805461ff00191690555b5062000112565b600062000106306200010c60201b62000f3c1760201c565b15905090565b3b151590565b60805160601c611f3b620001466000396000818161044901528181610489015281816105df015261061f0152611f3b6000f3fe6080604052600436106100fe5760003560e01c806370e604ed11610095578063a42dce8011610064578063a42dce80146102a6578063bb8b1c4f146102c6578063c415b95c146102e6578063d7210c7814610306578063f2fde38b14610326576100fe565b806370e604ed14610217578063715018a6146102375780638da5cb5b1461024c5780638e29c3381461027e576100fe565b806348a02dfd116100d157806348a02dfd146101a45780634f1ef286146101c45780635529ee4b146101d75780636dd79be8146101f7576100fe565b8063017f6fae146101035780631824a46b1461013d5780632892a977146101545780633659cfe614610184575b600080fd5b34801561010f57600080fd5b5060cd5461012590600160a01b900461ffff1681565b60405161ffff90911681526020015b60405180910390f35b34801561014957600080fd5b50610152610346565b005b34801561016057600080fd5b5061017461016f366004611aef565b61037b565b6040519015158152602001610134565b34801561019057600080fd5b5061015261019f3660046119ce565b61043e565b3480156101b057600080fd5b506101746101bf366004611b7a565b610507565b6101526101d2366004611a4d565b6105d4565b3480156101e357600080fd5b506101526101f23660046119ea565b61068e565b34801561020357600080fd5b50610152610212366004611bdf565b6107bf565b34801561022357600080fd5b50610152610232366004611c1b565b610c12565b34801561024357600080fd5b50610152610c5e565b34801561025857600080fd5b506033546001600160a01b03165b6040516001600160a01b039091168152602001610134565b34801561028a57600080fd5b5061026673136acd46c134e8269052c62a67042d6bdedde3c981565b3480156102b257600080fd5b506101526102c13660046119ce565b610c92565b3480156102d257600080fd5b506101526102e1366004611c00565b610cde565b3480156102f257600080fd5b5060cd54610266906001600160a01b031681565b34801561031257600080fd5b50610152610321366004611b2c565b610d9a565b34801561033257600080fd5b506101526103413660046119ce565b610ea4565b6033546001600160a01b031633146103795760405162461bcd60e51b815260040161037090611d34565b60405180910390fd5b565b600061038682610f46565b604051632770a7eb60e21b81526001600160a01b038681166004830152602482018690529190911690639dc29fac90604401600060405180830381600087803b1580156103d257600080fd5b505af11580156103e6573d6000803e3d6000fd5b5050505061040973136acd46c134e8269052c62a67042d6bdedde3c98585610f99565b6104336040805133602080830191909152825180830382018152918301909252805191012060cb55565b5060015b9392505050565b306001600160a01b037f00000000000000000000000000000000000000000000000000000000000000001614156104875760405162461bcd60e51b815260040161037090611c9c565b7f00000000000000000000000000000000000000000000000000000000000000006001600160a01b03166104b9611001565b6001600160a01b0316146104df5760405162461bcd60e51b815260040161037090611ce8565b6104e88161102f565b6040805160008082526020820190925261050491839190611059565b50565b600061051282610cde565b61053273136acd46c134e8269052c62a67042d6bdedde3c986308761119d565b61053b83610f46565b6040516340c10f1960e01b81526001600160a01b0387811660048301526024820187905291909116906340c10f1990604401600060405180830381600087803b15801561058757600080fd5b505af115801561059b573d6000803e3d6000fd5b505050506105c96040805133602080830191909152825180830382018152918301909252805191012060cb55565b506001949350505050565b306001600160a01b037f000000000000000000000000000000000000000000000000000000000000000016141561061d5760405162461bcd60e51b815260040161037090611c9c565b7f00000000000000000000000000000000000000000000000000000000000000006001600160a01b031661064f611001565b6001600160a01b0316146106755760405162461bcd60e51b815260040161037090611ce8565b61067e8261102f565b61068a82826001611059565b5050565b600054610100900460ff166106a95760005460ff16156106b1565b6106b16111d5565b6107145760405162461bcd60e51b815260206004820152602e60248201527f496e697469616c697a61626c653a20636f6e747261637420697320616c72656160448201526d191e481a5b9a5d1a585b1a5e995960921b6064820152608401610370565b600054610100900460ff1615801561073f576000805460ff1961ff0019909116610100171660011790555b6107476111e6565b61074f61121d565b60c980546001600160a01b038089166001600160a01b03199283161790925560ca805488841690831617905560cc86905560cd805461ffff8616600160a01b0261ffff60a01b1994881691909316179290921617905580156107b7576000805461ff00191690555b505050505050565b6033546001600160a01b031633146107e95760405162461bcd60e51b815260040161037090611d34565b6040516370a0823160e01b815230600482015260009073136acd46c134e8269052c62a67042d6bdedde3c9906370a082319060240160206040518083038186803b15801561083657600080fd5b505afa15801561084a573d6000803e3d6000fd5b505050506040513d601f19601f8201168201806040525081019061086e9190611c35565b116108b45760405162461bcd60e51b8152602060048201526016602482015275436f6e74726f6c6c657220686173206e6f204d454d4f60501b6044820152606401610370565b600060405180604001604052806108cb6000610f46565b6001600160a01b03166318160ddd6040518163ffffffff1660e01b815260040160206040518083038186803b15801561090357600080fd5b505afa158015610917573d6000803e3d6000fd5b505050506040513d601f19601f8201168201806040525081019061093b9190611c35565b815260200161094a6001610f46565b6001600160a01b03166318160ddd6040518163ffffffff1660e01b815260040160206040518083038186803b15801561098257600080fd5b505afa158015610996573d6000803e3d6000fd5b505050506040513d601f19601f820116820180604052508101906109ba9190611c35565b90528051909150158015906109d25750602081015115155b610a1e5760405162461bcd60e51b815260206004820152601b60248201527f4e6f204d454d4f206465706f736974656420696e206120706f6f6c00000000006044820152606401610370565b60208101518151600091610a3191611de5565b6040516370a0823160e01b8152306004820152909150600090829073136acd46c134e8269052c62a67042d6bdedde3c9906370a082319060240160206040518083038186803b158015610a8357600080fd5b505afa158015610a97573d6000803e3d6000fd5b505050506040513d601f19601f82011682018060405250810190610abb9190611c35565b610ac59190611e30565b60cd5490915060009061271090610ae8908490600160a01b900461ffff16611e11565b610af29190611dfd565b60cd5460405163a9059cbb60e01b81526001600160a01b0390911660048201526024810182905290915073136acd46c134e8269052c62a67042d6bdedde3c99063a9059cbb90604401602060405180830381600087803b158015610b5557600080fd5b505af1158015610b69573d6000803e3d6000fd5b505050506040513d601f19601f82011682018060405250810190610b8d9190611bbf565b506000610b9987611254565b90506001600160a01b03811663bc4f2d6d610bb48486611e30565b6040518263ffffffff1660e01b8152600401610bd291815260200190565b600060405180830381600087803b158015610bec57600080fd5b505af1158015610c00573d6000803e3d6000fd5b50505060cc9690965550505050505050565b6033546001600160a01b03163314610c3c5760405162461bcd60e51b815260040161037090611d34565b60cd805461ffff909216600160a01b0261ffff60a01b19909216919091179055565b6033546001600160a01b03163314610c885760405162461bcd60e51b815260040161037090611d34565b6103796000611455565b6033546001600160a01b03163314610cbc5760405162461bcd60e51b815260040161037090611d34565b60cd80546001600160a01b0319166001600160a01b0392909216919091179055565b805160208201516040808401516060850151608086015160a087015160c0880151945163d505accf60e01b81526001600160a01b0397881660048201529690951660248701526044860192909252606485015260ff16608484015260a483019190915260c482015273136acd46c134e8269052c62a67042d6bdedde3c99063d505accf9060e401600060405180830381600087803b158015610d7f57600080fd5b505af1158015610d93573d6000803e3d6000fd5b5050505050565b610da382610f46565b604051632770a7eb60e21b81526001600160a01b038681166004830152602482018690529190911690639dc29fac90604401600060405180830381600087803b158015610def57600080fd5b505af1158015610e03573d6000803e3d6000fd5b50505050610e1081610f46565b6040516340c10f1960e01b81526001600160a01b0386811660048301526024820186905291909116906340c10f1990604401600060405180830381600087803b158015610e5c57600080fd5b505af1158015610e70573d6000803e3d6000fd5b50505050610e9e6040805133602080830191909152825180830382018152918301909252805191012060cb55565b50505050565b6033546001600160a01b03163314610ece5760405162461bcd60e51b815260040161037090611d34565b6001600160a01b038116610f335760405162461bcd60e51b815260206004820152602660248201527f4f776e61626c653a206e6577206f776e657220697320746865207a65726f206160448201526564647265737360d01b6064820152608401610370565b61050481611455565b803b15155b919050565b600060c9826001811115610f6a57634e487b7160e01b600052602160045260246000fd5b60028110610f8857634e487b7160e01b600052603260045260246000fd5b01546001600160a01b031692915050565b6040516001600160a01b038316602482015260448101829052610ffc90849063a9059cbb60e01b906064015b60408051601f198184030181529190526020810180516001600160e01b03166001600160e01b0319909316929092179091526114a7565b505050565b7f360894a13ba1a3210667c828492db98dca3e2076cc3735a920a3ca505d382bbc546001600160a01b031690565b6033546001600160a01b031633146105045760405162461bcd60e51b815260040161037090611d34565b6000611063611001565b905061106e84611579565b60008351118061107b5750815b1561108c5761108a8484611625565b505b7f4910fdfa16fed3260ed0e7147f7cc6da11a60208b5b9406d12a635614ffd9143805460ff16610d9357805460ff191660011781556040516001600160a01b038316602482015261110b90869060440160408051601f198184030181529190526020810180516001600160e01b0316631b2ce7f360e11b179052611625565b50805460ff1916815561111c611001565b6001600160a01b0316826001600160a01b0316146111945760405162461bcd60e51b815260206004820152602f60248201527f45524331393637557067726164653a207570677261646520627265616b73206660448201526e75727468657220757067726164657360881b6064820152608401610370565b610d9385611717565b6040516001600160a01b0380851660248301528316604482015260648101829052610e9e9085906323b872dd60e01b90608401610fc5565b60006111e030610f3c565b15905090565b600054610100900460ff1661120d5760405162461bcd60e51b815260040161037090611d69565b611215611757565b61037961177e565b600054610100900460ff166112445760405162461bcd60e51b815260040161037090611d69565b61124c611757565b610379611757565b60008033604080516001600160a01b039092166020830152810184905260600160405160208183030381529060405280519060200120905060cc5481146112d45760405162461bcd60e51b8152602060048201526014602482015273496e76616c696420524e472073656564206b657960601b6044820152606401610370565b6000836112e2600143611e30565b4060cb546112f06000610f46565b6001600160a01b03166318160ddd6040518163ffffffff1660e01b815260040160206040518083038186803b15801561132857600080fd5b505afa15801561133c573d6000803e3d6000fd5b505050506040513d601f19601f820116820180604052508101906113609190611c35565b61136a6001610f46565b6001600160a01b03166318160ddd6040518163ffffffff1660e01b815260040160206040518083038186803b1580156113a257600080fd5b505afa1580156113b6573d6000803e3d6000fd5b505050506040513d601f19601f820116820180604052508101906113da9190611c35565b6040805160208101969096528501939093526060840191909152608083015260a082015260c00160408051601f198184030181529190528051602090910120905061144d611429600283611e73565b600181111561144857634e487b7160e01b600052602160045260246000fd5b610f46565b949350505050565b603380546001600160a01b038381166001600160a01b0319831681179093556040519116919082907f8be0079c531659141344cd1fd0a4f28419497f9722a3daafe3b4186f6b6457e090600090a35050565b60006114fc826040518060400160405280602081526020017f5361666545524332303a206c6f772d6c6576656c2063616c6c206661696c6564815250856001600160a01b03166117ae9092919063ffffffff16565b805190915015610ffc578080602001905181019061151a9190611bbf565b610ffc5760405162461bcd60e51b815260206004820152602a60248201527f5361666545524332303a204552433230206f7065726174696f6e20646964206e6044820152691bdd081cdd58d8d9595960b21b6064820152608401610370565b61158281610f3c565b6115e45760405162461bcd60e51b815260206004820152602d60248201527f455243313936373a206e657720696d706c656d656e746174696f6e206973206e60448201526c1bdd08184818dbdb9d1c9858dd609a1b6064820152608401610370565b7f360894a13ba1a3210667c828492db98dca3e2076cc3735a920a3ca505d382bbc80546001600160a01b0319166001600160a01b0392909216919091179055565b606061163083610f3c565b61168b5760405162461bcd60e51b815260206004820152602660248201527f416464726573733a2064656c65676174652063616c6c20746f206e6f6e2d636f6044820152651b9d1c9858dd60d21b6064820152608401610370565b600080846001600160a01b0316846040516116a69190611c4d565b600060405180830381855af49150503d80600081146116e1576040519150601f19603f3d011682016040523d82523d6000602084013e6116e6565b606091505b509150915061170e8282604051806060016040528060278152602001611edf602791396117bd565b95945050505050565b61172081611579565b6040516001600160a01b038216907fbc7cd75a20ee27fd9adebab32041f755214dbc6bffa90cc0225b39da2e5c2d3b90600090a250565b600054610100900460ff166103795760405162461bcd60e51b815260040161037090611d69565b600054610100900460ff166117a55760405162461bcd60e51b815260040161037090611d69565b61037933611455565b606061144d84846000856117f6565b606083156117cc575081610437565b8251156117dc5782518084602001fd5b8160405162461bcd60e51b81526004016103709190611c69565b6060824710156118575760405162461bcd60e51b815260206004820152602660248201527f416464726573733a20696e73756666696369656e742062616c616e636520666f6044820152651c8818d85b1b60d21b6064820152608401610370565b61186085610f3c565b6118ac5760405162461bcd60e51b815260206004820152601d60248201527f416464726573733a2063616c6c20746f206e6f6e2d636f6e74726163740000006044820152606401610370565b600080866001600160a01b031685876040516118c89190611c4d565b60006040518083038185875af1925050503d8060008114611905576040519150601f19603f3d011682016040523d82523d6000602084013e61190a565b606091505b509150915061191a8282866117bd565b979650505050505050565b803560028110610f4157600080fd5b600060e08284031215611945578081fd5b61194f60e0611db4565b9050813561195c81611ec9565b8152602082013561196c81611ec9565b806020830152506040820135604082015260608201356060820152608082013560ff8116811461199b57600080fd5b8060808301525060a082013560a082015260c082013560c082015292915050565b803561ffff81168114610f4157600080fd5b6000602082840312156119df578081fd5b813561043781611ec9565b600080600080600060a08688031215611a01578081fd5b8535611a0c81611ec9565b94506020860135611a1c81611ec9565b9350604086013592506060860135611a3381611ec9565b9150611a41608087016119bc565b90509295509295909350565b60008060408385031215611a5f578182fd5b8235611a6a81611ec9565b915060208381013567ffffffffffffffff80821115611a87578384fd5b818601915086601f830112611a9a578384fd5b813581811115611aac57611aac611eb3565b611abe601f8201601f19168501611db4565b91508082528784828501011115611ad3578485fd5b8084840185840137810190920192909252919491935090915050565b600080600060608486031215611b03578283fd5b8335611b0e81611ec9565b925060208401359150611b2360408501611925565b90509250925092565b60008060008060808587031215611b41578384fd5b8435611b4c81611ec9565b935060208501359250611b6160408601611925565b9150611b6f60608601611925565b905092959194509250565b6000806000806101408587031215611b90578384fd5b8435611b9b81611ec9565b935060208501359250611bb060408601611925565b9150611b6f8660608701611934565b600060208284031215611bd0578081fd5b81518015158114610437578182fd5b60008060408385031215611bf1578182fd5b50508035926020909101359150565b600060e08284031215611c11578081fd5b6104378383611934565b600060208284031215611c2c578081fd5b610437826119bc565b600060208284031215611c46578081fd5b5051919050565b60008251611c5f818460208701611e47565b9190910192915050565b6000602082528251806020840152611c88816040850160208701611e47565b601f01601f19169190910160400192915050565b6020808252602c908201527f46756e6374696f6e206d7573742062652063616c6c6564207468726f7567682060408201526b19195b1959d85d1958d85b1b60a21b606082015260800190565b6020808252602c908201527f46756e6374696f6e206d7573742062652063616c6c6564207468726f7567682060408201526b6163746976652070726f787960a01b606082015260800190565b6020808252818101527f4f776e61626c653a2063616c6c6572206973206e6f7420746865206f776e6572604082015260600190565b6020808252602b908201527f496e697469616c697a61626c653a20636f6e7472616374206973206e6f74206960408201526a6e697469616c697a696e6760a81b606082015260800190565b604051601f8201601f1916810167ffffffffffffffff81118282101715611ddd57611ddd611eb3565b604052919050565b60008219821115611df857611df8611e87565b500190565b600082611e0c57611e0c611e9d565b500490565b6000816000190483118215151615611e2b57611e2b611e87565b500290565b600082821015611e4257611e42611e87565b500390565b60005b83811015611e62578181015183820152602001611e4a565b83811115610e9e5750506000910152565b600082611e8257611e82611e9d565b500690565b634e487b7160e01b600052601160045260246000fd5b634e487b7160e01b600052601260045260246000fd5b634e487b7160e01b600052604160045260246000fd5b6001600160a01b038116811461050457600080fdfe416464726573733a206c6f772d6c6576656c2064656c65676174652063616c6c206661696c6564a264697066735822122078b1490ea2486a72b620ccc63d8ec9cad1b23a04287762842c25620ae844f04364736f6c63430008020033",
  "linkReferences": {},
  "deployedLinkReferences": {}
}