{
  "address": "0xBBA9AEE38a5025fC405D1D279DB7E4D6D840Bc9f",
  "abi": [
    {
      "inputs": [
        {
          "internalType": "address",
          "name": "redMemoPool",
          "type": "address"
        },
        {
          "internalType": "address",
          "name": "blackMemoPool",
          "type": "address"
        },
        {
          "internalType": "bytes32",
          "name": "initialSeedHash",
          "type": "bytes32"
        },
        {
          "internalType": "address payable",
          "name": "feeCollector_",
          "type": "address"
        },
        {
          "internalType": "uint16",
          "name": "feeBP_",
          "type": "uint16"
        }
      ],
      "stateMutability": "nonpayable",
      "type": "constructor"
    },
    {
      "anonymous": false,
      "inputs": [
        {
          "indexed": true,
          "internalType": "uint256",
          "name": "timestamp",
          "type": "uint256"
        },
        {
          "indexed": false,
          "internalType": "uint256",
          "name": "amount",
          "type": "uint256"
        },
        {
          "indexed": false,
          "internalType": "uint256",
          "name": "redSupply",
          "type": "uint256"
        },
        {
          "indexed": false,
          "internalType": "uint256",
          "name": "blackSupply",
          "type": "uint256"
        },
        {
          "indexed": false,
          "internalType": "uint8",
          "name": "selectedPool",
          "type": "uint8"
        }
      ],
      "name": "LogRebase",
      "type": "event"
    },
    {
      "anonymous": false,
      "inputs": [
        {
          "indexed": true,
          "internalType": "address",
          "name": "previousOwner",
          "type": "address"
        },
        {
          "indexed": true,
          "internalType": "address",
          "name": "newOwner",
          "type": "address"
        }
      ],
      "name": "OwnershipTransferred",
      "type": "event"
    },
    {
      "inputs": [],
      "name": "MEMO_CONTRACT",
      "outputs": [
        {
          "internalType": "contract ERC20Permit",
          "name": "",
          "type": "address"
        }
      ],
      "stateMutability": "view",
      "type": "function"
    },
    {
      "inputs": [
        {
          "internalType": "uint256",
          "name": "amount",
          "type": "uint256"
        },
        {
          "internalType": "enum RBPoolController.Pool",
          "name": "pool",
          "type": "uint8"
        },
        {
          "components": [
            {
              "internalType": "address",
              "name": "owner",
              "type": "address"
            },
            {
              "internalType": "address",
              "name": "spender",
              "type": "address"
            },
            {
              "internalType": "uint256",
              "name": "amount",
              "type": "uint256"
            },
            {
              "internalType": "uint256",
              "name": "deadline",
              "type": "uint256"
            },
            {
              "internalType": "uint8",
              "name": "v",
              "type": "uint8"
            },
            {
              "internalType": "bytes32",
              "name": "r",
              "type": "bytes32"
            },
            {
              "internalType": "bytes32",
              "name": "s",
              "type": "bytes32"
            }
          ],
          "internalType": "struct RBPoolController.PermitSignature",
          "name": "permitSignature",
          "type": "tuple"
        }
      ],
      "name": "deposit",
      "outputs": [
        {
          "internalType": "bool",
          "name": "",
          "type": "bool"
        }
      ],
      "stateMutability": "nonpayable",
      "type": "function"
    },
    {
      "inputs": [],
      "name": "feeBP",
      "outputs": [
        {
          "internalType": "uint16",
          "name": "",
          "type": "uint16"
        }
      ],
      "stateMutability": "view",
      "type": "function"
    },
    {
      "inputs": [],
      "name": "feeCollector",
      "outputs": [
        {
          "internalType": "address payable",
          "name": "",
          "type": "address"
        }
      ],
      "stateMutability": "view",
      "type": "function"
    },
    {
      "inputs": [
        {
          "components": [
            {
              "internalType": "address",
              "name": "owner",
              "type": "address"
            },
            {
              "internalType": "address",
              "name": "spender",
              "type": "address"
            },
            {
              "internalType": "uint256",
              "name": "amount",
              "type": "uint256"
            },
            {
              "internalType": "uint256",
              "name": "deadline",
              "type": "uint256"
            },
            {
              "internalType": "uint8",
              "name": "v",
              "type": "uint8"
            },
            {
              "internalType": "bytes32",
              "name": "r",
              "type": "bytes32"
            },
            {
              "internalType": "bytes32",
              "name": "s",
              "type": "bytes32"
            }
          ],
          "internalType": "struct RBPoolController.PermitSignature",
          "name": "permitSignature",
          "type": "tuple"
        }
      ],
      "name": "memoPermit",
      "outputs": [],
      "stateMutability": "nonpayable",
      "type": "function"
    },
    {
      "inputs": [],
      "name": "owner",
      "outputs": [
        {
          "internalType": "address",
          "name": "",
          "type": "address"
        }
      ],
      "stateMutability": "view",
      "type": "function"
    },
    {
      "inputs": [
        {
          "internalType": "uint256",
          "name": "amount",
          "type": "uint256"
        },
        {
          "internalType": "enum RBPoolController.Pool",
          "name": "fromPool",
          "type": "uint8"
        },
        {
          "internalType": "enum RBPoolController.Pool",
          "name": "toPool",
          "type": "uint8"
        }
      ],
      "name": "poolSwap",
      "outputs": [],
      "stateMutability": "nonpayable",
      "type": "function"
    },
    {
      "inputs": [
        {
          "internalType": "bytes32",
          "name": "seedKey",
          "type": "bytes32"
        },
        {
          "internalType": "bytes32",
          "name": "newSeedHash",
          "type": "bytes32"
        }
      ],
      "name": "rebase",
      "outputs": [],
      "stateMutability": "nonpayable",
      "type": "function"
    },
    {
      "inputs": [],
      "name": "renounceOwnership",
      "outputs": [],
      "stateMutability": "nonpayable",
      "type": "function"
    },
    {
      "inputs": [
        {
          "internalType": "uint16",
          "name": "newBP",
          "type": "uint16"
        }
      ],
      "name": "setFeeBP",
      "outputs": [],
      "stateMutability": "nonpayable",
      "type": "function"
    },
    {
      "inputs": [
        {
          "internalType": "address payable",
          "name": "newCollector",
          "type": "address"
        }
      ],
      "name": "setFeeCollector",
      "outputs": [],
      "stateMutability": "nonpayable",
      "type": "function"
    },
    {
      "inputs": [
        {
          "internalType": "address",
          "name": "newOwner",
          "type": "address"
        }
      ],
      "name": "transferOwnership",
      "outputs": [],
      "stateMutability": "nonpayable",
      "type": "function"
    },
    {
      "inputs": [
        {
          "internalType": "uint256",
          "name": "amount",
          "type": "uint256"
        },
        {
          "internalType": "enum RBPoolController.Pool",
          "name": "pool",
          "type": "uint8"
        }
      ],
      "name": "withdraw",
      "outputs": [
        {
          "internalType": "bool",
          "name": "",
          "type": "bool"
        }
      ],
      "stateMutability": "nonpayable",
      "type": "function"
    }
  ],
  "transactionHash": "0x23a41666af522530a1f6bfe1e8aff19fef47f6942fd8c4d634bb1477dc01e006",
  "args": [
    "0x45221958b06308fEb55a34C2FcC3A2BbA30b6890",
    "0x216e66ff9c2A714396f7d2Ff09684e1a3A3D9032",
    "0x692f1d5a761baae5380fb51b0fac68243a51e191e5be0ac00ae76548a5d8c7a7",
    "0xA50A977C76FB49Fbc3Ba68a4e73CF40053A688FE",
    "330"
  ],
  "numDeployments": 1,
  "solcInputHash": "6987248469b705ac8bd48ed7016aff7c",
  "bytecode": "0x60806040523480156200001157600080fd5b50604051620016b6380380620016b68339810160408190526200003491620000f4565b6200003f33620000a4565b600180546001600160a01b03199081166001600160a01b0397881617909155600280548216958716959095179094556004929092556005805490931693169290921761ffff60a01b1916600160a01b61ffff9093169290920291909117905562000185565b600080546001600160a01b038381166001600160a01b0319831681178455604051919092169283917f8be0079c531659141344cd1fd0a4f28419497f9722a3daafe3b4186f6b6457e09190a35050565b600080600080600060a086880312156200010c578081fd5b855162000119816200016c565b60208701519095506200012c816200016c565b60408701516060880151919550935062000146816200016c565b608087015190925061ffff811681146200015e578182fd5b809150509295509295909350565b6001600160a01b03811681146200018257600080fd5b50565b61152180620001956000396000f3fe608060405234801561001057600080fd5b50600436106100cf5760003560e01c80638da5cb5b1161008c578063a42dce8011610066578063a42dce80146101ba578063bb8b1c4f146101cd578063c415b95c146101e0578063f2fde38b146101f3576100cf565b80638da5cb5b146101675780638e29c3381461018c578063903d4296146101a7576100cf565b8063017f6fae146100d457806350c1e47814610101578063521df5a1146101245780636dd79be81461013957806370e604ed1461014c578063715018a61461015f575b600080fd5b6005546100e990600160a01b900461ffff1681565b60405161ffff90911681526020015b60405180910390f35b61011461010f366004611350565b610206565b60405190151581526020016100f8565b610137610132366004611315565b6102de565b005b610137610147366004611274565b6103fd565b61013761015a3660046112b0565b610958565b6101376109a4565b6000546001600160a01b03165b6040516001600160a01b0390911681526020016100f8565b61017473136acd46c134e8269052c62a67042d6bdedde3c981565b6101146101b53660046112ea565b6109da565b6101376101c8366004611238565b610aac565b6101376101db366004611295565b610af8565b600554610174906001600160a01b031681565b610137610201366004611238565b610bb4565b600061021182610af8565b61023173136acd46c134e8269052c62a67042d6bdedde3c9333087610c4f565b61023a83610cc0565b6001600160a01b03166340c10f19336040516001600160e01b031960e084901b1681526001600160a01b03909116600482015260248101879052604401600060405180830381600087803b15801561029157600080fd5b505af11580156102a5573d6000803e3d6000fd5b505050506102d360408051336020808301919091528251808303820181529183019092528051910120600355565b5060015b9392505050565b6102e782610cc0565b6001600160a01b0316639dc29fac336040516001600160e01b031960e084901b1681526001600160a01b03909116600482015260248101869052604401600060405180830381600087803b15801561033e57600080fd5b505af1158015610352573d6000803e3d6000fd5b5050505061035f81610cc0565b6001600160a01b03166340c10f19336040516001600160e01b031960e084901b1681526001600160a01b03909116600482015260248101869052604401600060405180830381600087803b1580156103b657600080fd5b505af11580156103ca573d6000803e3d6000fd5b505050506103f860408051336020808301919091528251808303820181529183019092528051910120600355565b505050565b6000546001600160a01b031633146104305760405162461bcd60e51b8152600401610427906113d3565b60405180910390fd5b6040516370a0823160e01b815230600482015260009073136acd46c134e8269052c62a67042d6bdedde3c9906370a082319060240160206040518083038186803b15801561047d57600080fd5b505afa158015610491573d6000803e3d6000fd5b505050506040513d601f19601f820116820180604052508101906104b591906112d2565b116104fb5760405162461bcd60e51b8152602060048201526016602482015275436f6e74726f6c6c657220686173206e6f204d454d4f60501b6044820152606401610427565b600060405180604001604052806105126000610cc0565b6001600160a01b03166318160ddd6040518163ffffffff1660e01b815260040160206040518083038186803b15801561054a57600080fd5b505afa15801561055e573d6000803e3d6000fd5b505050506040513d601f19601f8201168201806040525081019061058291906112d2565b81526020016105916001610cc0565b6001600160a01b03166318160ddd6040518163ffffffff1660e01b815260040160206040518083038186803b1580156105c957600080fd5b505afa1580156105dd573d6000803e3d6000fd5b505050506040513d601f19601f8201168201806040525081019061060191906112d2565b90526020810151815191925060009161061a9190611408565b116106675760405162461bcd60e51b815260206004820152601a60248201527f4e6f204d454d4f206465706f736974656420696e20706f6f6c730000000000006044820152606401610427565b6020810151815160009161067a91611408565b6040516370a0823160e01b8152306004820152909150600090829073136acd46c134e8269052c62a67042d6bdedde3c9906370a082319060240160206040518083038186803b1580156106cc57600080fd5b505afa1580156106e0573d6000803e3d6000fd5b505050506040513d601f19601f8201168201806040525081019061070491906112d2565b61070e9190611453565b60055490915060009061271090610731908490600160a01b900461ffff16611434565b61073b9190611420565b60055460405163a9059cbb60e01b81526001600160a01b0390911660048201526024810182905290915073136acd46c134e8269052c62a67042d6bdedde3c99063a9059cbb90604401602060405180830381600087803b15801561079e57600080fd5b505af11580156107b2573d6000803e3d6000fd5b505050506040513d601f19601f820116820180604052508101906107d69190611254565b5060006107e287610d15565b90508481600181111561080557634e487b7160e01b600052602160045260246000fd5b6002811061082357634e487b7160e01b600052603260045260246000fd5b602002015161086057600081600181111561084e57634e487b7160e01b600052602160045260246000fd5b1461085a57600061085d565b60015b90505b61086981610cc0565b6001600160a01b031663bc4f2d6d6108818486611453565b6040518263ffffffff1660e01b815260040161089f91815260200190565b600060405180830381600087803b1580156108b957600080fd5b505af11580156108cd573d6000803e3d6000fd5b505050600487905550427f5899dee610fd5140296c7bd89bd352c8236705b7339a1078727dc830db7019e56109028486611453565b8751602089015185600181111561092957634e487b7160e01b600052602160045260246000fd5b6040805194855260208501939093529183015260ff16606082015260800160405180910390a250505050505050565b6000546001600160a01b031633146109825760405162461bcd60e51b8152600401610427906113d3565b6005805461ffff909216600160a01b0261ffff60a01b19909216919091179055565b6000546001600160a01b031633146109ce5760405162461bcd60e51b8152600401610427906113d3565b6109d86000610f0e565b565b60006109e582610cc0565b6001600160a01b0316639dc29fac336040516001600160e01b031960e084901b1681526001600160a01b03909116600482015260248101869052604401600060405180830381600087803b158015610a3c57600080fd5b505af1158015610a50573d6000803e3d6000fd5b50505050610a7973136acd46c134e8269052c62a67042d6bdedde3c9610a733390565b85610f5e565b610aa360408051336020808301919091528251808303820181529183019092528051910120600355565b50600192915050565b6000546001600160a01b03163314610ad65760405162461bcd60e51b8152600401610427906113d3565b600580546001600160a01b0319166001600160a01b0392909216919091179055565b805160208201516040808401516060850151608086015160a087015160c0880151945163d505accf60e01b81526001600160a01b0397881660048201529690951660248701526044860192909252606485015260ff16608484015260a483019190915260c482015273136acd46c134e8269052c62a67042d6bdedde3c99063d505accf9060e401600060405180830381600087803b158015610b9957600080fd5b505af1158015610bad573d6000803e3d6000fd5b5050505050565b6000546001600160a01b03163314610bde5760405162461bcd60e51b8152600401610427906113d3565b6001600160a01b038116610c435760405162461bcd60e51b815260206004820152602660248201527f4f776e61626c653a206e6577206f776e657220697320746865207a65726f206160448201526564647265737360d01b6064820152608401610427565b610c4c81610f0e565b50565b6040516001600160a01b0380851660248301528316604482015260648101829052610cba9085906323b872dd60e01b906084015b60408051601f198184030181529190526020810180516001600160e01b03166001600160e01b031990931692909217909152610f8e565b50505050565b60006001826001811115610ce457634e487b7160e01b600052602160045260246000fd5b60028110610d0257634e487b7160e01b600052603260045260246000fd5b01546001600160a01b031690505b919050565b60008033604080516001600160a01b03909216602083015281018490526060016040516020818303038152906040528051906020012090506004548114610d955760405162461bcd60e51b8152602060048201526014602482015273496e76616c696420524e472073656564206b657960601b6044820152606401610427565b600083610da3600143611453565b40600354610db16000610cc0565b6001600160a01b03166318160ddd6040518163ffffffff1660e01b815260040160206040518083038186803b158015610de957600080fd5b505afa158015610dfd573d6000803e3d6000fd5b505050506040513d601f19601f82011682018060405250810190610e2191906112d2565b610e2b6001610cc0565b6001600160a01b03166318160ddd6040518163ffffffff1660e01b815260040160206040518083038186803b158015610e6357600080fd5b505afa158015610e77573d6000803e3d6000fd5b505050506040513d601f19601f82011682018060405250810190610e9b91906112d2565b6040805160208101969096528501939093526060840191909152608083015260a082015260c00160408051601f1981840301815291905280516020909101209050610ee7600282611496565b6001811115610f0657634e487b7160e01b600052602160045260246000fd5b949350505050565b600080546001600160a01b038381166001600160a01b0319831681178455604051919092169283917f8be0079c531659141344cd1fd0a4f28419497f9722a3daafe3b4186f6b6457e09190a35050565b6040516001600160a01b0383166024820152604481018290526103f890849063a9059cbb60e01b90606401610c83565b6000610fe3826040518060400160405280602081526020017f5361666545524332303a206c6f772d6c6576656c2063616c6c206661696c6564815250856001600160a01b03166110609092919063ffffffff16565b8051909150156103f857808060200190518101906110019190611254565b6103f85760405162461bcd60e51b815260206004820152602a60248201527f5361666545524332303a204552433230206f7065726174696f6e20646964206e6044820152691bdd081cdd58d8d9595960b21b6064820152608401610427565b6060610f06848460008585843b6110b95760405162461bcd60e51b815260206004820152601d60248201527f416464726573733a2063616c6c20746f206e6f6e2d636f6e74726163740000006044820152606401610427565b600080866001600160a01b031685876040516110d59190611384565b60006040518083038185875af1925050503d8060008114611112576040519150601f19603f3d011682016040523d82523d6000602084013e611117565b606091505b5091509150611127828286611132565b979650505050505050565b606083156111415750816102d7565b8251156111515782518084602001fd5b8160405162461bcd60e51b815260040161042791906113a0565b8035610d10816114d6565b803560028110610d1057600080fd5b600060e08284031215611196578081fd5b60405160e0810181811067ffffffffffffffff821117156111c557634e487b7160e01b83526041600452602483fd5b6040529050806111d48361116b565b81526111e26020840161116b565b6020820152604083013560408201526060830135606082015261120760808401611227565b608082015260a083013560a082015260c083013560c08201525092915050565b803560ff81168114610d1057600080fd5b600060208284031215611249578081fd5b81356102d7816114d6565b600060208284031215611265578081fd5b815180151581146102d7578182fd5b60008060408385031215611286578081fd5b50508035926020909101359150565b600060e082840312156112a6578081fd5b6102d78383611185565b6000602082840312156112c1578081fd5b813561ffff811681146102d7578182fd5b6000602082840312156112e3578081fd5b5051919050565b600080604083850312156112fc578182fd5b8235915061130c60208401611176565b90509250929050565b600080600060608486031215611329578081fd5b8335925061133960208501611176565b915061134760408501611176565b90509250925092565b60008060006101208486031215611365578283fd5b8335925061137560208501611176565b91506113478560408601611185565b6000825161139681846020870161146a565b9190910192915050565b60006020825282518060208401526113bf81604085016020870161146a565b601f01601f19169190910160400192915050565b6020808252818101527f4f776e61626c653a2063616c6c6572206973206e6f7420746865206f776e6572604082015260600190565b6000821982111561141b5761141b6114aa565b500190565b60008261142f5761142f6114c0565b500490565b600081600019048311821515161561144e5761144e6114aa565b500290565b600082821015611465576114656114aa565b500390565b60005b8381101561148557818101518382015260200161146d565b83811115610cba5750506000910152565b6000826114a5576114a56114c0565b500690565b634e487b7160e01b600052601160045260246000fd5b634e487b7160e01b600052601260045260246000fd5b6001600160a01b0381168114610c4c57600080fdfea2646970667358221220be90a071b7550e54c634140d1632f8ae11bc68b836646343a0065acab74610b164736f6c63430008020033",
  "devdoc": {
    "kind": "dev",
    "methods": {
      "owner()": {
        "details": "Returns the address of the current owner."
      },
      "renounceOwnership()": {
        "details": "Leaves the contract without owner. It will not be possible to call `onlyOwner` functions anymore. Can only be called by the current owner. NOTE: Renouncing ownership will leave the contract without an owner, thereby removing any functionality that is only available to the owner."
      },
      "transferOwnership(address)": {
        "details": "Transfers ownership of the contract to a new account (`newOwner`). Can only be called by the current owner."
      }
    },
    "version": 1
  },
  "userdoc": {
    "kind": "user",
    "methods": {},
    "version": 1
  },
  "storageLayout": {
    "storage": [
      {
        "astId": 389,
        "contract": "contracts/rb-pool-controller.sol:RBPoolController",
        "label": "_owner",
        "offset": 0,
        "slot": "0",
        "type": "t_address"
      },
      {
        "astId": 3797,
        "contract": "contracts/rb-pool-controller.sol:RBPoolController",
        "label": "_pools",
        "offset": 0,
        "slot": "1",
        "type": "t_array(t_contract(TokenPool)3755)2_storage"
      },
      {
        "astId": 3799,
        "contract": "contracts/rb-pool-controller.sol:RBPoolController",
        "label": "_lastActorHash",
        "offset": 0,
        "slot": "3",
        "type": "t_bytes32"
      },
      {
        "astId": 3801,
        "contract": "contracts/rb-pool-controller.sol:RBPoolController",
        "label": "_seedHash",
        "offset": 0,
        "slot": "4",
        "type": "t_bytes32"
      },
      {
        "astId": 3803,
        "contract": "contracts/rb-pool-controller.sol:RBPoolController",
        "label": "feeCollector",
        "offset": 0,
        "slot": "5",
        "type": "t_address_payable"
      },
      {
        "astId": 3805,
        "contract": "contracts/rb-pool-controller.sol:RBPoolController",
        "label": "feeBP",
        "offset": 20,
        "slot": "5",
        "type": "t_uint16"
      }
    ],
    "types": {
      "t_address": {
        "encoding": "inplace",
        "label": "address",
        "numberOfBytes": "20"
      },
      "t_address_payable": {
        "encoding": "inplace",
        "label": "address payable",
        "numberOfBytes": "20"
      },
      "t_array(t_contract(TokenPool)3755)2_storage": {
        "base": "t_contract(TokenPool)3755",
        "encoding": "inplace",
        "label": "contract TokenPool[2]",
        "numberOfBytes": "64"
      },
      "t_bytes32": {
        "encoding": "inplace",
        "label": "bytes32",
        "numberOfBytes": "32"
      },
      "t_contract(TokenPool)3755": {
        "encoding": "inplace",
        "label": "contract TokenPool",
        "numberOfBytes": "20"
      },
      "t_uint16": {
        "encoding": "inplace",
        "label": "uint16",
        "numberOfBytes": "2"
      }
    }
  }
}