{
  "address": "0x2ab2fd6bDFf23dD80EC674dc34ca3ACE1e1ecb00",
  "abi": [
    {
      "inputs": [],
      "stateMutability": "nonpayable",
      "type": "constructor"
    },
    {
      "anonymous": false,
      "inputs": [
        {
          "indexed": false,
          "internalType": "address",
          "name": "previousAdmin",
          "type": "address"
        },
        {
          "indexed": false,
          "internalType": "address",
          "name": "newAdmin",
          "type": "address"
        }
      ],
      "name": "AdminChanged",
      "type": "event"
    },
    {
      "anonymous": false,
      "inputs": [
        {
          "indexed": true,
          "internalType": "address",
          "name": "owner",
          "type": "address"
        },
        {
          "indexed": true,
          "internalType": "address",
          "name": "spender",
          "type": "address"
        },
        {
          "indexed": false,
          "internalType": "uint256",
          "name": "value",
          "type": "uint256"
        }
      ],
      "name": "Approval",
      "type": "event"
    },
    {
      "anonymous": false,
      "inputs": [
        {
          "indexed": true,
          "internalType": "address",
          "name": "beacon",
          "type": "address"
        }
      ],
      "name": "BeaconUpgraded",
      "type": "event"
    },
    {
      "anonymous": false,
      "inputs": [
        {
          "indexed": true,
          "internalType": "address",
          "name": "previousOwner",
          "type": "address"
        },
        {
          "indexed": true,
          "internalType": "address",
          "name": "newOwner",
          "type": "address"
        }
      ],
      "name": "OwnershipTransferred",
      "type": "event"
    },
    {
      "anonymous": false,
      "inputs": [
        {
          "indexed": false,
          "internalType": "address",
          "name": "account",
          "type": "address"
        }
      ],
      "name": "Paused",
      "type": "event"
    },
    {
      "anonymous": false,
      "inputs": [
        {
          "indexed": true,
          "internalType": "address",
          "name": "from",
          "type": "address"
        },
        {
          "indexed": true,
          "internalType": "address",
          "name": "to",
          "type": "address"
        },
        {
          "indexed": false,
          "internalType": "uint256",
          "name": "value",
          "type": "uint256"
        }
      ],
      "name": "Transfer",
      "type": "event"
    },
    {
      "anonymous": false,
      "inputs": [
        {
          "indexed": false,
          "internalType": "address",
          "name": "account",
          "type": "address"
        }
      ],
      "name": "Unpaused",
      "type": "event"
    },
    {
      "anonymous": false,
      "inputs": [
        {
          "indexed": true,
          "internalType": "address",
          "name": "implementation",
          "type": "address"
        }
      ],
      "name": "Upgraded",
      "type": "event"
    },
    {
      "inputs": [
        {
          "internalType": "address",
          "name": "owner",
          "type": "address"
        },
        {
          "internalType": "address",
          "name": "spender",
          "type": "address"
        }
      ],
      "name": "allowance",
      "outputs": [
        {
          "internalType": "uint256",
          "name": "",
          "type": "uint256"
        }
      ],
      "stateMutability": "view",
      "type": "function"
    },
    {
      "inputs": [
        {
          "internalType": "address",
          "name": "spender",
          "type": "address"
        },
        {
          "internalType": "uint256",
          "name": "amount",
          "type": "uint256"
        }
      ],
      "name": "approve",
      "outputs": [
        {
          "internalType": "bool",
          "name": "",
          "type": "bool"
        }
      ],
      "stateMutability": "nonpayable",
      "type": "function"
    },
    {
      "inputs": [
        {
          "internalType": "address",
          "name": "account",
          "type": "address"
        }
      ],
      "name": "balanceOf",
      "outputs": [
        {
          "internalType": "uint256",
          "name": "",
          "type": "uint256"
        }
      ],
      "stateMutability": "view",
      "type": "function"
    },
    {
      "inputs": [
        {
          "internalType": "uint256",
          "name": "amount",
          "type": "uint256"
        }
      ],
      "name": "burn",
      "outputs": [],
      "stateMutability": "nonpayable",
      "type": "function"
    },
    {
      "inputs": [
        {
          "internalType": "address",
          "name": "account",
          "type": "address"
        },
        {
          "internalType": "uint256",
          "name": "amount",
          "type": "uint256"
        }
      ],
      "name": "burnFrom",
      "outputs": [],
      "stateMutability": "nonpayable",
      "type": "function"
    },
    {
      "inputs": [],
      "name": "decimals",
      "outputs": [
        {
          "internalType": "uint8",
          "name": "",
          "type": "uint8"
        }
      ],
      "stateMutability": "view",
      "type": "function"
    },
    {
      "inputs": [
        {
          "internalType": "address",
          "name": "spender",
          "type": "address"
        },
        {
          "internalType": "uint256",
          "name": "subtractedValue",
          "type": "uint256"
        }
      ],
      "name": "decreaseAllowance",
      "outputs": [
        {
          "internalType": "bool",
          "name": "",
          "type": "bool"
        }
      ],
      "stateMutability": "nonpayable",
      "type": "function"
    },
    {
      "inputs": [
        {
          "internalType": "address",
          "name": "spender",
          "type": "address"
        },
        {
          "internalType": "uint256",
          "name": "addedValue",
          "type": "uint256"
        }
      ],
      "name": "increaseAllowance",
      "outputs": [
        {
          "internalType": "bool",
          "name": "",
          "type": "bool"
        }
      ],
      "stateMutability": "nonpayable",
      "type": "function"
    },
    {
      "inputs": [],
      "name": "initialize",
      "outputs": [],
      "stateMutability": "nonpayable",
      "type": "function"
    },
    {
      "inputs": [
        {
          "internalType": "address",
          "name": "to",
          "type": "address"
        },
        {
          "internalType": "uint256",
          "name": "amount",
          "type": "uint256"
        }
      ],
      "name": "mint",
      "outputs": [],
      "stateMutability": "nonpayable",
      "type": "function"
    },
    {
      "inputs": [],
      "name": "name",
      "outputs": [
        {
          "internalType": "string",
          "name": "",
          "type": "string"
        }
      ],
      "stateMutability": "view",
      "type": "function"
    },
    {
      "inputs": [],
      "name": "onUpgrade",
      "outputs": [],
      "stateMutability": "nonpayable",
      "type": "function"
    },
    {
      "inputs": [],
      "name": "owner",
      "outputs": [
        {
          "internalType": "address",
          "name": "",
          "type": "address"
        }
      ],
      "stateMutability": "view",
      "type": "function"
    },
    {
      "inputs": [],
      "name": "pause",
      "outputs": [],
      "stateMutability": "nonpayable",
      "type": "function"
    },
    {
      "inputs": [],
      "name": "paused",
      "outputs": [
        {
          "internalType": "bool",
          "name": "",
          "type": "bool"
        }
      ],
      "stateMutability": "view",
      "type": "function"
    },
    {
      "inputs": [],
      "name": "renounceOwnership",
      "outputs": [],
      "stateMutability": "nonpayable",
      "type": "function"
    },
    {
      "inputs": [],
      "name": "symbol",
      "outputs": [
        {
          "internalType": "string",
          "name": "",
          "type": "string"
        }
      ],
      "stateMutability": "view",
      "type": "function"
    },
    {
      "inputs": [],
      "name": "totalSupply",
      "outputs": [
        {
          "internalType": "uint256",
          "name": "",
          "type": "uint256"
        }
      ],
      "stateMutability": "view",
      "type": "function"
    },
    {
      "inputs": [
        {
          "internalType": "address",
          "name": "recipient",
          "type": "address"
        },
        {
          "internalType": "uint256",
          "name": "amount",
          "type": "uint256"
        }
      ],
      "name": "transfer",
      "outputs": [
        {
          "internalType": "bool",
          "name": "",
          "type": "bool"
        }
      ],
      "stateMutability": "nonpayable",
      "type": "function"
    },
    {
      "inputs": [
        {
          "internalType": "address",
          "name": "sender",
          "type": "address"
        },
        {
          "internalType": "address",
          "name": "recipient",
          "type": "address"
        },
        {
          "internalType": "uint256",
          "name": "amount",
          "type": "uint256"
        }
      ],
      "name": "transferFrom",
      "outputs": [
        {
          "internalType": "bool",
          "name": "",
          "type": "bool"
        }
      ],
      "stateMutability": "nonpayable",
      "type": "function"
    },
    {
      "inputs": [
        {
          "internalType": "address",
          "name": "newOwner",
          "type": "address"
        }
      ],
      "name": "transferOwnership",
      "outputs": [],
      "stateMutability": "nonpayable",
      "type": "function"
    },
    {
      "inputs": [],
      "name": "unpause",
      "outputs": [],
      "stateMutability": "nonpayable",
      "type": "function"
    },
    {
      "inputs": [
        {
          "internalType": "address",
          "name": "newImplementation",
          "type": "address"
        }
      ],
      "name": "upgradeTo",
      "outputs": [],
      "stateMutability": "nonpayable",
      "type": "function"
    },
    {
      "inputs": [
        {
          "internalType": "address",
          "name": "newImplementation",
          "type": "address"
        },
        {
          "internalType": "bytes",
          "name": "data",
          "type": "bytes"
        }
      ],
      "name": "upgradeToAndCall",
      "outputs": [],
      "stateMutability": "payable",
      "type": "function"
    }
  ],
  "transactionHash": "0x82c78db572a75d5ce8a44ffbbc9f8c10d1ff6a5705ab5c1fc834833aad0c0bfc",
  "args": [],
  "solcInputHash": "48cdc40f4046734c5daa09fccc1ed29b",
  "bytecode": "0x60a06040523060601b60805234801561001757600080fd5b50600054610100900460ff1680610031575060005460ff16155b6100985760405162461bcd60e51b815260206004820152602e60248201527f496e697469616c697a61626c653a20636f6e747261637420697320616c72656160448201526d191e481a5b9a5d1a585b1a5e995960921b606482015260840160405180910390fd5b600054610100900460ff161580156100c3576000805460ff1961ff0019909116610100171660011790555b80156100d5576000805461ff00191690555b5060805160601c611e7b610109600039600081816105d3015281816106130152818161077601526107b60152611e7b6000f3fe60806040526004361061014b5760003560e01c80635c975abb116100b65780638da5cb5b1161006f5780638da5cb5b1461035c57806395d89b4114610384578063a457c2d714610399578063a9059cbb146103b9578063dd62ed3e146103d9578063f2fde38b1461041f5761014b565b80635c975abb146102c557806370a08231146102dd578063715018a6146102fd57806379cc6790146103125780638129fc1c146103325780638456cb59146103475761014b565b80633659cfe6116101085780633659cfe61461021d578063395093511461023d5780633f4ba83a1461025d57806340c10f191461027257806342966c68146102925780634f1ef286146102b25761014b565b806306fdde0314610150578063095ea7b31461017b57806318160ddd146101ab5780631824a46b146101ca57806323b872dd146101e1578063313ce56714610201575b600080fd5b34801561015c57600080fd5b5061016561043f565b6040516101729190611c0e565b60405180910390f35b34801561018757600080fd5b5061019b610196366004611bb1565b6104d1565b6040519015158152602001610172565b3480156101b757600080fd5b506035545b604051908152602001610172565b3480156101d657600080fd5b506101df6104e7565b005b3480156101ed57600080fd5b5061019b6101fc366004611ab9565b61051c565b34801561020d57600080fd5b5060405160128152602001610172565b34801561022957600080fd5b506101df610238366004611a6d565b6105c8565b34801561024957600080fd5b5061019b610258366004611bb1565b610691565b34801561026957600080fd5b506101df6106cd565b34801561027e57600080fd5b506101df61028d366004611bb1565b6106ff565b34801561029e57600080fd5b506101df6102ad366004611bda565b610737565b6101df6102c0366004611af4565b61076b565b3480156102d157600080fd5b5060975460ff1661019b565b3480156102e957600080fd5b506101bc6102f8366004611a6d565b610821565b34801561030957600080fd5b506101df610840565b34801561031e57600080fd5b506101df61032d366004611bb1565b610874565b34801561033e57600080fd5b506101df6108fa565b34801561035357600080fd5b506101df6109d2565b34801561036857600080fd5b5060c9546040516001600160a01b039091168152602001610172565b34801561039057600080fd5b50610165610a04565b3480156103a557600080fd5b5061019b6103b4366004611bb1565b610a13565b3480156103c557600080fd5b5061019b6103d4366004611bb1565b610aac565b3480156103e557600080fd5b506101bc6103f4366004611a87565b6001600160a01b03918216600090815260346020908152604080832093909416825291909152205490565b34801561042b57600080fd5b506101df61043a366004611a6d565b610ab9565b60606036805461044e90611db7565b80601f016020809104026020016040519081016040528092919081815260200182805461047a90611db7565b80156104c75780601f1061049c576101008083540402835291602001916104c7565b820191906000526020600020905b8154815290600101906020018083116104aa57829003601f168201915b5050505050905090565b60006104de338484610b51565b50600192915050565b60c9546001600160a01b0316331461051a5760405162461bcd60e51b815260040161051190611d27565b60405180910390fd5b565b6000610529848484610c75565b6001600160a01b0384166000908152603460209081526040808320338452909152902054828110156105ae5760405162461bcd60e51b815260206004820152602860248201527f45524332303a207472616e7366657220616d6f756e74206578636565647320616044820152676c6c6f77616e636560c01b6064820152608401610511565b6105bb8533858403610b51565b60019150505b9392505050565b306001600160a01b037f00000000000000000000000000000000000000000000000000000000000000001614156106115760405162461bcd60e51b815260040161051190611c41565b7f00000000000000000000000000000000000000000000000000000000000000006001600160a01b0316610643610e50565b6001600160a01b0316146106695760405162461bcd60e51b815260040161051190611c8d565b61067281610e7e565b6040805160008082526020820190925261068e91839190610ea8565b50565b3360008181526034602090815260408083206001600160a01b038716845290915281205490916104de9185906106c8908690611d5c565b610b51565b60c9546001600160a01b031633146106f75760405162461bcd60e51b815260040161051190611d27565b61051a610ff3565b60c9546001600160a01b031633146107295760405162461bcd60e51b815260040161051190611d27565b6107338282611086565b5050565b60c9546001600160a01b031633146107615760405162461bcd60e51b815260040161051190611d27565b61068e3382611172565b306001600160a01b037f00000000000000000000000000000000000000000000000000000000000000001614156107b45760405162461bcd60e51b815260040161051190611c41565b7f00000000000000000000000000000000000000000000000000000000000000006001600160a01b03166107e6610e50565b6001600160a01b03161461080c5760405162461bcd60e51b815260040161051190611c8d565b61081582610e7e565b61073382826001610ea8565b6001600160a01b0381166000908152603360205260409020545b919050565b60c9546001600160a01b0316331461086a5760405162461bcd60e51b815260040161051190611d27565b61051a60006112cc565b600061088083336103f4565b9050818110156108de5760405162461bcd60e51b8152602060048201526024808201527f45524332303a206275726e20616d6f756e74206578636565647320616c6c6f77604482015263616e636560e01b6064820152608401610511565b6108eb8333848403610b51565b6108f58383611172565b505050565b600054610100900460ff1680610913575060005460ff16155b61092f5760405162461bcd60e51b815260040161051190611cd9565b600054610100900460ff1615801561095a576000805460ff1961ff0019909116610100171660011790555b61099e60405180604001604052806007815260200166149959141bdbdb60ca1b8152506040518060400160405280600381526020016214941360ea1b81525061131e565b6109a66113a6565b6109ae611416565b6109b6611486565b6109be6113a6565b801561068e576000805461ff001916905550565b60c9546001600160a01b031633146109fc5760405162461bcd60e51b815260040161051190611d27565b61051a6114f6565b60606037805461044e90611db7565b3360009081526034602090815260408083206001600160a01b038616845290915281205482811015610a955760405162461bcd60e51b815260206004820152602560248201527f45524332303a2064656372656173656420616c6c6f77616e63652062656c6f77604482015264207a65726f60d81b6064820152608401610511565b610aa23385858403610b51565b5060019392505050565b60006104de338484610c75565b60c9546001600160a01b03163314610ae35760405162461bcd60e51b815260040161051190611d27565b6001600160a01b038116610b485760405162461bcd60e51b815260206004820152602660248201527f4f776e61626c653a206e6577206f776e657220697320746865207a65726f206160448201526564647265737360d01b6064820152608401610511565b61068e816112cc565b6001600160a01b038316610bb35760405162461bcd60e51b8152602060048201526024808201527f45524332303a20617070726f76652066726f6d20746865207a65726f206164646044820152637265737360e01b6064820152608401610511565b6001600160a01b038216610c145760405162461bcd60e51b815260206004820152602260248201527f45524332303a20617070726f766520746f20746865207a65726f206164647265604482015261737360f01b6064820152608401610511565b6001600160a01b0383811660008181526034602090815260408083209487168084529482529182902085905590518481527f8c5be1e5ebec7d5bd14f71427d1e84f3dd0314c0f7b2291e5b200ac8c7c3b925910160405180910390a3505050565b6001600160a01b038316610cd95760405162461bcd60e51b815260206004820152602560248201527f45524332303a207472616e736665722066726f6d20746865207a65726f206164604482015264647265737360d81b6064820152608401610511565b6001600160a01b038216610d3b5760405162461bcd60e51b815260206004820152602360248201527f45524332303a207472616e7366657220746f20746865207a65726f206164647260448201526265737360e81b6064820152608401610511565b610d46838383611571565b6001600160a01b03831660009081526033602052604090205481811015610dbe5760405162461bcd60e51b815260206004820152602660248201527f45524332303a207472616e7366657220616d6f756e7420657863656564732062604482015265616c616e636560d01b6064820152608401610511565b6001600160a01b03808516600090815260336020526040808220858503905591851681529081208054849290610df5908490611d5c565b92505081905550826001600160a01b0316846001600160a01b03167fddf252ad1be2c89b69c2b068fc378daa952ba7f163c4a11628f55a4df523b3ef84604051610e4191815260200190565b60405180910390a35b50505050565b7f360894a13ba1a3210667c828492db98dca3e2076cc3735a920a3ca505d382bbc546001600160a01b031690565b60c9546001600160a01b0316331461068e5760405162461bcd60e51b815260040161051190611d27565b6000610eb2610e50565b9050610ebd846115bc565b600083511180610eca5750815b15610edb57610ed98484611661565b505b7f4910fdfa16fed3260ed0e7147f7cc6da11a60208b5b9406d12a635614ffd9143805460ff16610fec57805460ff191660011781556040516001600160a01b0383166024820152610f5a90869060440160408051601f198184030181529190526020810180516001600160e01b0316631b2ce7f360e11b179052611661565b50805460ff19168155610f6b610e50565b6001600160a01b0316826001600160a01b031614610fe35760405162461bcd60e51b815260206004820152602f60248201527f45524331393637557067726164653a207570677261646520627265616b73206660448201526e75727468657220757067726164657360881b6064820152608401610511565b610fec8561174c565b5050505050565b60975460ff1661103c5760405162461bcd60e51b815260206004820152601460248201527314185d5cd8589b194e881b9bdd081c185d5cd95960621b6044820152606401610511565b6097805460ff191690557f5db9ee0a495bf2e6ff9c91a7834c1ba4fdd244a5e8aa4e537bd38aeae4b073aa335b6040516001600160a01b03909116815260200160405180910390a1565b6001600160a01b0382166110dc5760405162461bcd60e51b815260206004820152601f60248201527f45524332303a206d696e7420746f20746865207a65726f2061646472657373006044820152606401610511565b6110e860008383611571565b80603560008282546110fa9190611d5c565b90915550506001600160a01b03821660009081526033602052604081208054839290611127908490611d5c565b90915550506040518181526001600160a01b038316906000907fddf252ad1be2c89b69c2b068fc378daa952ba7f163c4a11628f55a4df523b3ef9060200160405180910390a3610733565b6001600160a01b0382166111d25760405162461bcd60e51b815260206004820152602160248201527f45524332303a206275726e2066726f6d20746865207a65726f206164647265736044820152607360f81b6064820152608401610511565b6111de82600083611571565b6001600160a01b038216600090815260336020526040902054818110156112525760405162461bcd60e51b815260206004820152602260248201527f45524332303a206275726e20616d6f756e7420657863656564732062616c616e604482015261636560f01b6064820152608401610511565b6001600160a01b0383166000908152603360205260408120838303905560358054849290611281908490611d74565b90915550506040518281526000906001600160a01b038516907fddf252ad1be2c89b69c2b068fc378daa952ba7f163c4a11628f55a4df523b3ef9060200160405180910390a36108f5565b60c980546001600160a01b038381166001600160a01b0319831681179093556040519116919082907f8be0079c531659141344cd1fd0a4f28419497f9722a3daafe3b4186f6b6457e090600090a35050565b600054610100900460ff1680611337575060005460ff16155b6113535760405162461bcd60e51b815260040161051190611cd9565b600054610100900460ff1615801561137e576000805460ff1961ff0019909116610100171660011790555b61138661178c565b61139083836117ff565b80156108f5576000805461ff0019169055505050565b600054610100900460ff16806113bf575060005460ff16155b6113db5760405162461bcd60e51b815260040161051190611cd9565b600054610100900460ff16158015611406576000805460ff1961ff0019909116610100171660011790555b61140e61178c565b6109be61178c565b600054610100900460ff168061142f575060005460ff16155b61144b5760405162461bcd60e51b815260040161051190611cd9565b600054610100900460ff16158015611476576000805460ff1961ff0019909116610100171660011790555b61147e61178c565b6109be61189d565b600054610100900460ff168061149f575060005460ff16155b6114bb5760405162461bcd60e51b815260040161051190611cd9565b600054610100900460ff161580156114e6576000805460ff1961ff0019909116610100171660011790555b6114ee61178c565b6109be61191b565b60975460ff161561153c5760405162461bcd60e51b815260206004820152601060248201526f14185d5cd8589b194e881c185d5cd95960821b6044820152606401610511565b6097805460ff191660011790557f62e78cea01bee320cd4e420270b5ea74000d11b0c9f74754ebdbfc544b05a2586110693390565b60975460ff16156115b75760405162461bcd60e51b815260206004820152601060248201526f14185d5cd8589b194e881c185d5cd95960821b6044820152606401610511565b6108f5565b803b6116205760405162461bcd60e51b815260206004820152602d60248201527f455243313936373a206e657720696d706c656d656e746174696f6e206973206e60448201526c1bdd08184818dbdb9d1c9858dd609a1b6064820152608401610511565b7f360894a13ba1a3210667c828492db98dca3e2076cc3735a920a3ca505d382bbc80546001600160a01b0319166001600160a01b0392909216919091179055565b6060823b6116c05760405162461bcd60e51b815260206004820152602660248201527f416464726573733a2064656c65676174652063616c6c20746f206e6f6e2d636f6044820152651b9d1c9858dd60d21b6064820152608401610511565b600080846001600160a01b0316846040516116db9190611bf2565b600060405180830381855af49150503d8060008114611716576040519150601f19603f3d011682016040523d82523d6000602084013e61171b565b606091505b50915091506117438282604051806060016040528060278152602001611e1f60279139611984565b95945050505050565b611755816115bc565b6040516001600160a01b038216907fbc7cd75a20ee27fd9adebab32041f755214dbc6bffa90cc0225b39da2e5c2d3b90600090a250565b600054610100900460ff16806117a5575060005460ff16155b6117c15760405162461bcd60e51b815260040161051190611cd9565b600054610100900460ff161580156109be576000805460ff1961ff001990911661010017166001179055801561068e576000805461ff001916905550565b600054610100900460ff1680611818575060005460ff16155b6118345760405162461bcd60e51b815260040161051190611cd9565b600054610100900460ff1615801561185f576000805460ff1961ff0019909116610100171660011790555b82516118729060369060208601906119bd565b5081516118869060379060208501906119bd565b5080156108f5576000805461ff0019169055505050565b600054610100900460ff16806118b6575060005460ff16155b6118d25760405162461bcd60e51b815260040161051190611cd9565b600054610100900460ff161580156118fd576000805460ff1961ff0019909116610100171660011790555b6097805460ff19169055801561068e576000805461ff001916905550565b600054610100900460ff1680611934575060005460ff16155b6119505760405162461bcd60e51b815260040161051190611cd9565b600054610100900460ff1615801561197b576000805460ff1961ff0019909116610100171660011790555b6109be336112cc565b606083156119935750816105c1565b8251156119a35782518084602001fd5b8160405162461bcd60e51b81526004016105119190611c0e565b8280546119c990611db7565b90600052602060002090601f0160209004810192826119eb5760008555611a31565b82601f10611a0457805160ff1916838001178555611a31565b82800160010185558215611a31579182015b82811115611a31578251825591602001919060010190611a16565b50611a3d929150611a41565b5090565b5b80821115611a3d5760008155600101611a42565b80356001600160a01b038116811461083b57600080fd5b600060208284031215611a7e578081fd5b6105c182611a56565b60008060408385031215611a99578081fd5b611aa283611a56565b9150611ab060208401611a56565b90509250929050565b600080600060608486031215611acd578081fd5b611ad684611a56565b9250611ae460208501611a56565b9150604084013590509250925092565b60008060408385031215611b06578182fd5b611b0f83611a56565b9150602083013567ffffffffffffffff80821115611b2b578283fd5b818501915085601f830112611b3e578283fd5b813581811115611b5057611b50611e08565b604051601f8201601f19908116603f01168101908382118183101715611b7857611b78611e08565b81604052828152886020848701011115611b90578586fd5b82602086016020830137856020848301015280955050505050509250929050565b60008060408385031215611bc3578182fd5b611bcc83611a56565b946020939093013593505050565b600060208284031215611beb578081fd5b5035919050565b60008251611c04818460208701611d8b565b9190910192915050565b6000602082528251806020840152611c2d816040850160208701611d8b565b601f01601f19169190910160400192915050565b6020808252602c908201527f46756e6374696f6e206d7573742062652063616c6c6564207468726f7567682060408201526b19195b1959d85d1958d85b1b60a21b606082015260800190565b6020808252602c908201527f46756e6374696f6e206d7573742062652063616c6c6564207468726f7567682060408201526b6163746976652070726f787960a01b606082015260800190565b6020808252602e908201527f496e697469616c697a61626c653a20636f6e747261637420697320616c72656160408201526d191e481a5b9a5d1a585b1a5e995960921b606082015260800190565b6020808252818101527f4f776e61626c653a2063616c6c6572206973206e6f7420746865206f776e6572604082015260600190565b60008219821115611d6f57611d6f611df2565b500190565b600082821015611d8657611d86611df2565b500390565b60005b83811015611da6578181015183820152602001611d8e565b83811115610e4a5750506000910152565b600281046001821680611dcb57607f821691505b60208210811415611dec57634e487b7160e01b600052602260045260246000fd5b50919050565b634e487b7160e01b600052601160045260246000fd5b634e487b7160e01b600052604160045260246000fdfe416464726573733a206c6f772d6c6576656c2064656c65676174652063616c6c206661696c6564a26469706673582212204d8ee1b0a2c34800359e90e0050666edc289c2f0b6a9122c2c74afa52a9a039364736f6c63430008020033",
  "devdoc": {
    "kind": "dev",
    "methods": {
      "allowance(address,address)": {
        "details": "See {IERC20-allowance}."
      },
      "approve(address,uint256)": {
        "details": "See {IERC20-approve}. Requirements: - `spender` cannot be the zero address."
      },
      "balanceOf(address)": {
        "details": "See {IERC20-balanceOf}."
      },
      "burn(uint256)": {
        "details": "Destroys `amount` tokens from the caller. See {ERC20-_burn}."
      },
      "burnFrom(address,uint256)": {
        "details": "Destroys `amount` tokens from `account`, deducting from the caller's allowance. See {ERC20-_burn} and {ERC20-allowance}. Requirements: - the caller must have allowance for ``accounts``'s tokens of at least `amount`."
      },
      "constructor": {
        "custom:oz-upgrades-unsafe-allow": "constructor"
      },
      "decimals()": {
        "details": "Returns the number of decimals used to get its user representation. For example, if `decimals` equals `2`, a balance of `505` tokens should be displayed to a user as `5.05` (`505 / 10 ** 2`). Tokens usually opt for a value of 18, imitating the relationship between Ether and Wei. This is the value {ERC20} uses, unless this function is overridden; NOTE: This information is only used for _display_ purposes: it in no way affects any of the arithmetic of the contract, including {IERC20-balanceOf} and {IERC20-transfer}."
      },
      "decreaseAllowance(address,uint256)": {
        "details": "Atomically decreases the allowance granted to `spender` by the caller. This is an alternative to {approve} that can be used as a mitigation for problems described in {IERC20-approve}. Emits an {Approval} event indicating the updated allowance. Requirements: - `spender` cannot be the zero address. - `spender` must have allowance for the caller of at least `subtractedValue`."
      },
      "increaseAllowance(address,uint256)": {
        "details": "Atomically increases the allowance granted to `spender` by the caller. This is an alternative to {approve} that can be used as a mitigation for problems described in {IERC20-approve}. Emits an {Approval} event indicating the updated allowance. Requirements: - `spender` cannot be the zero address."
      },
      "name()": {
        "details": "Returns the name of the token."
      },
      "owner()": {
        "details": "Returns the address of the current owner."
      },
      "paused()": {
        "details": "Returns true if the contract is paused, and false otherwise."
      },
      "renounceOwnership()": {
        "details": "Leaves the contract without owner. It will not be possible to call `onlyOwner` functions anymore. Can only be called by the current owner. NOTE: Renouncing ownership will leave the contract without an owner, thereby removing any functionality that is only available to the owner."
      },
      "symbol()": {
        "details": "Returns the symbol of the token, usually a shorter version of the name."
      },
      "totalSupply()": {
        "details": "See {IERC20-totalSupply}."
      },
      "transfer(address,uint256)": {
        "details": "See {IERC20-transfer}. Requirements: - `recipient` cannot be the zero address. - the caller must have a balance of at least `amount`."
      },
      "transferFrom(address,address,uint256)": {
        "details": "See {IERC20-transferFrom}. Emits an {Approval} event indicating the updated allowance. This is not required by the EIP. See the note at the beginning of {ERC20}. Requirements: - `sender` and `recipient` cannot be the zero address. - `sender` must have a balance of at least `amount`. - the caller must have allowance for ``sender``'s tokens of at least `amount`."
      },
      "transferOwnership(address)": {
        "details": "Transfers ownership of the contract to a new account (`newOwner`). Can only be called by the current owner."
      },
      "upgradeTo(address)": {
        "details": "Upgrade the implementation of the proxy to `newImplementation`. Calls {_authorizeUpgrade}. Emits an {Upgraded} event."
      },
      "upgradeToAndCall(address,bytes)": {
        "details": "Upgrade the implementation of the proxy to `newImplementation`, and subsequently execute the function call encoded in `data`. Calls {_authorizeUpgrade}. Emits an {Upgraded} event."
      }
    },
    "version": 1
  },
  "userdoc": {
    "kind": "user",
    "methods": {},
    "version": 1
  },
  "storageLayout": {
    "storage": [
      {
        "astId": 539,
        "contract": "contracts/red-pool.sol:RedPool",
        "label": "_initialized",
        "offset": 0,
        "slot": "0",
        "type": "t_bool"
      },
      {
        "astId": 542,
        "contract": "contracts/red-pool.sol:RedPool",
        "label": "_initializing",
        "offset": 1,
        "slot": "0",
        "type": "t_bool"
      },
      {
        "astId": 1854,
        "contract": "contracts/red-pool.sol:RedPool",
        "label": "__gap",
        "offset": 0,
        "slot": "1",
        "type": "t_array(t_uint256)50_storage"
      },
      {
        "astId": 822,
        "contract": "contracts/red-pool.sol:RedPool",
        "label": "_balances",
        "offset": 0,
        "slot": "51",
        "type": "t_mapping(t_address,t_uint256)"
      },
      {
        "astId": 828,
        "contract": "contracts/red-pool.sol:RedPool",
        "label": "_allowances",
        "offset": 0,
        "slot": "52",
        "type": "t_mapping(t_address,t_mapping(t_address,t_uint256))"
      },
      {
        "astId": 830,
        "contract": "contracts/red-pool.sol:RedPool",
        "label": "_totalSupply",
        "offset": 0,
        "slot": "53",
        "type": "t_uint256"
      },
      {
        "astId": 832,
        "contract": "contracts/red-pool.sol:RedPool",
        "label": "_name",
        "offset": 0,
        "slot": "54",
        "type": "t_string_storage"
      },
      {
        "astId": 834,
        "contract": "contracts/red-pool.sol:RedPool",
        "label": "_symbol",
        "offset": 0,
        "slot": "55",
        "type": "t_string_storage"
      },
      {
        "astId": 1375,
        "contract": "contracts/red-pool.sol:RedPool",
        "label": "__gap",
        "offset": 0,
        "slot": "56",
        "type": "t_array(t_uint256)45_storage"
      },
      {
        "astId": 1540,
        "contract": "contracts/red-pool.sol:RedPool",
        "label": "__gap",
        "offset": 0,
        "slot": "101",
        "type": "t_array(t_uint256)50_storage"
      },
      {
        "astId": 711,
        "contract": "contracts/red-pool.sol:RedPool",
        "label": "_paused",
        "offset": 0,
        "slot": "151",
        "type": "t_bool"
      },
      {
        "astId": 802,
        "contract": "contracts/red-pool.sol:RedPool",
        "label": "__gap",
        "offset": 0,
        "slot": "152",
        "type": "t_array(t_uint256)49_storage"
      },
      {
        "astId": 10,
        "contract": "contracts/red-pool.sol:RedPool",
        "label": "_owner",
        "offset": 0,
        "slot": "201",
        "type": "t_address"
      },
      {
        "astId": 124,
        "contract": "contracts/red-pool.sol:RedPool",
        "label": "__gap",
        "offset": 0,
        "slot": "202",
        "type": "t_array(t_uint256)49_storage"
      },
      {
        "astId": 522,
        "contract": "contracts/red-pool.sol:RedPool",
        "label": "__gap",
        "offset": 0,
        "slot": "251",
        "type": "t_array(t_uint256)50_storage"
      },
      {
        "astId": 689,
        "contract": "contracts/red-pool.sol:RedPool",
        "label": "__gap",
        "offset": 0,
        "slot": "301",
        "type": "t_array(t_uint256)50_storage"
      }
    ],
    "types": {
      "t_address": {
        "encoding": "inplace",
        "label": "address",
        "numberOfBytes": "20"
      },
      "t_array(t_uint256)45_storage": {
        "base": "t_uint256",
        "encoding": "inplace",
        "label": "uint256[45]",
        "numberOfBytes": "1440"
      },
      "t_array(t_uint256)49_storage": {
        "base": "t_uint256",
        "encoding": "inplace",
        "label": "uint256[49]",
        "numberOfBytes": "1568"
      },
      "t_array(t_uint256)50_storage": {
        "base": "t_uint256",
        "encoding": "inplace",
        "label": "uint256[50]",
        "numberOfBytes": "1600"
      },
      "t_bool": {
        "encoding": "inplace",
        "label": "bool",
        "numberOfBytes": "1"
      },
      "t_mapping(t_address,t_mapping(t_address,t_uint256))": {
        "encoding": "mapping",
        "key": "t_address",
        "label": "mapping(address => mapping(address => uint256))",
        "numberOfBytes": "32",
        "value": "t_mapping(t_address,t_uint256)"
      },
      "t_mapping(t_address,t_uint256)": {
        "encoding": "mapping",
        "key": "t_address",
        "label": "mapping(address => uint256)",
        "numberOfBytes": "32",
        "value": "t_uint256"
      },
      "t_string_storage": {
        "encoding": "bytes",
        "label": "string",
        "numberOfBytes": "32"
      },
      "t_uint256": {
        "encoding": "inplace",
        "label": "uint256",
        "numberOfBytes": "32"
      }
    }
  }
}