{
  "address": "0x75c2C9e79c6129ed1702348eb47511515a75572E",
  "abi": [
    {
      "inputs": [],
      "stateMutability": "nonpayable",
      "type": "constructor"
    },
    {
      "anonymous": false,
      "inputs": [
        {
          "indexed": false,
          "internalType": "address",
          "name": "previousAdmin",
          "type": "address"
        },
        {
          "indexed": false,
          "internalType": "address",
          "name": "newAdmin",
          "type": "address"
        }
      ],
      "name": "AdminChanged",
      "type": "event"
    },
    {
      "anonymous": false,
      "inputs": [
        {
          "indexed": true,
          "internalType": "address",
          "name": "beacon",
          "type": "address"
        }
      ],
      "name": "BeaconUpgraded",
      "type": "event"
    },
    {
      "anonymous": false,
      "inputs": [
        {
          "indexed": true,
          "internalType": "uint256",
          "name": "timestamp",
          "type": "uint256"
        },
        {
          "indexed": false,
          "internalType": "uint256",
          "name": "amount",
          "type": "uint256"
        },
        {
          "indexed": false,
          "internalType": "uint256",
          "name": "redSupply",
          "type": "uint256"
        },
        {
          "indexed": false,
          "internalType": "uint256",
          "name": "blackSupply",
          "type": "uint256"
        },
        {
          "indexed": false,
          "internalType": "uint8",
          "name": "selectedPool",
          "type": "uint8"
        }
      ],
      "name": "LogRebase",
      "type": "event"
    },
    {
      "anonymous": false,
      "inputs": [
        {
          "indexed": true,
          "internalType": "address",
          "name": "previousOwner",
          "type": "address"
        },
        {
          "indexed": true,
          "internalType": "address",
          "name": "newOwner",
          "type": "address"
        }
      ],
      "name": "OwnershipTransferred",
      "type": "event"
    },
    {
      "anonymous": false,
      "inputs": [
        {
          "indexed": true,
          "internalType": "address",
          "name": "implementation",
          "type": "address"
        }
      ],
      "name": "Upgraded",
      "type": "event"
    },
    {
      "inputs": [],
      "name": "MEMO_CONTRACT",
      "outputs": [
        {
          "internalType": "contract ERC20Permit",
          "name": "",
          "type": "address"
        }
      ],
      "stateMutability": "view",
      "type": "function"
    },
    {
      "inputs": [
        {
          "internalType": "address",
          "name": "account",
          "type": "address"
        },
        {
          "internalType": "uint256",
          "name": "amount",
          "type": "uint256"
        },
        {
          "internalType": "enum RBPoolController.Pool",
          "name": "pool",
          "type": "uint8"
        },
        {
          "components": [
            {
              "internalType": "address",
              "name": "owner",
              "type": "address"
            },
            {
              "internalType": "address",
              "name": "spender",
              "type": "address"
            },
            {
              "internalType": "uint256",
              "name": "amount",
              "type": "uint256"
            },
            {
              "internalType": "uint256",
              "name": "deadline",
              "type": "uint256"
            },
            {
              "internalType": "uint8",
              "name": "v",
              "type": "uint8"
            },
            {
              "internalType": "bytes32",
              "name": "r",
              "type": "bytes32"
            },
            {
              "internalType": "bytes32",
              "name": "s",
              "type": "bytes32"
            }
          ],
          "internalType": "struct RBPoolController.PermitSignature",
          "name": "permitSignature",
          "type": "tuple"
        }
      ],
      "name": "deposit",
      "outputs": [
        {
          "internalType": "bool",
          "name": "",
          "type": "bool"
        }
      ],
      "stateMutability": "nonpayable",
      "type": "function"
    },
    {
      "inputs": [],
      "name": "feeBP",
      "outputs": [
        {
          "internalType": "uint16",
          "name": "",
          "type": "uint16"
        }
      ],
      "stateMutability": "view",
      "type": "function"
    },
    {
      "inputs": [],
      "name": "feeCollector",
      "outputs": [
        {
          "internalType": "address payable",
          "name": "",
          "type": "address"
        }
      ],
      "stateMutability": "view",
      "type": "function"
    },
    {
      "inputs": [
        {
          "internalType": "address",
          "name": "redMemoPool",
          "type": "address"
        },
        {
          "internalType": "address",
          "name": "blackMemoPool",
          "type": "address"
        },
        {
          "internalType": "bytes32",
          "name": "initialSeedHash",
          "type": "bytes32"
        },
        {
          "internalType": "address payable",
          "name": "feeCollector_",
          "type": "address"
        },
        {
          "internalType": "uint16",
          "name": "feeBP_",
          "type": "uint16"
        }
      ],
      "name": "initialize",
      "outputs": [],
      "stateMutability": "nonpayable",
      "type": "function"
    },
    {
      "inputs": [
        {
          "components": [
            {
              "internalType": "address",
              "name": "owner",
              "type": "address"
            },
            {
              "internalType": "address",
              "name": "spender",
              "type": "address"
            },
            {
              "internalType": "uint256",
              "name": "amount",
              "type": "uint256"
            },
            {
              "internalType": "uint256",
              "name": "deadline",
              "type": "uint256"
            },
            {
              "internalType": "uint8",
              "name": "v",
              "type": "uint8"
            },
            {
              "internalType": "bytes32",
              "name": "r",
              "type": "bytes32"
            },
            {
              "internalType": "bytes32",
              "name": "s",
              "type": "bytes32"
            }
          ],
          "internalType": "struct RBPoolController.PermitSignature",
          "name": "permitSignature",
          "type": "tuple"
        }
      ],
      "name": "memoPermit",
      "outputs": [],
      "stateMutability": "nonpayable",
      "type": "function"
    },
    {
      "inputs": [],
      "name": "onUpgrade",
      "outputs": [],
      "stateMutability": "nonpayable",
      "type": "function"
    },
    {
      "inputs": [],
      "name": "owner",
      "outputs": [
        {
          "internalType": "address",
          "name": "",
          "type": "address"
        }
      ],
      "stateMutability": "view",
      "type": "function"
    },
    {
      "inputs": [
        {
          "internalType": "uint256",
          "name": "amount",
          "type": "uint256"
        },
        {
          "internalType": "enum RBPoolController.Pool",
          "name": "fromPool",
          "type": "uint8"
        },
        {
          "internalType": "enum RBPoolController.Pool",
          "name": "toPool",
          "type": "uint8"
        }
      ],
      "name": "poolSwap",
      "outputs": [],
      "stateMutability": "nonpayable",
      "type": "function"
    },
    {
      "inputs": [
        {
          "internalType": "bytes32",
          "name": "seedKey",
          "type": "bytes32"
        },
        {
          "internalType": "bytes32",
          "name": "newSeedHash",
          "type": "bytes32"
        }
      ],
      "name": "rebase",
      "outputs": [],
      "stateMutability": "nonpayable",
      "type": "function"
    },
    {
      "inputs": [],
      "name": "renounceOwnership",
      "outputs": [],
      "stateMutability": "nonpayable",
      "type": "function"
    },
    {
      "inputs": [
        {
          "internalType": "uint16",
          "name": "newBP",
          "type": "uint16"
        }
      ],
      "name": "setFeeBP",
      "outputs": [],
      "stateMutability": "nonpayable",
      "type": "function"
    },
    {
      "inputs": [
        {
          "internalType": "address payable",
          "name": "newCollector",
          "type": "address"
        }
      ],
      "name": "setFeeCollector",
      "outputs": [],
      "stateMutability": "nonpayable",
      "type": "function"
    },
    {
      "inputs": [
        {
          "internalType": "address",
          "name": "newOwner",
          "type": "address"
        }
      ],
      "name": "transferOwnership",
      "outputs": [],
      "stateMutability": "nonpayable",
      "type": "function"
    },
    {
      "inputs": [
        {
          "internalType": "address",
          "name": "newImplementation",
          "type": "address"
        }
      ],
      "name": "upgradeTo",
      "outputs": [],
      "stateMutability": "nonpayable",
      "type": "function"
    },
    {
      "inputs": [
        {
          "internalType": "address",
          "name": "newImplementation",
          "type": "address"
        },
        {
          "internalType": "bytes",
          "name": "data",
          "type": "bytes"
        }
      ],
      "name": "upgradeToAndCall",
      "outputs": [],
      "stateMutability": "payable",
      "type": "function"
    },
    {
      "inputs": [
        {
          "internalType": "address",
          "name": "account",
          "type": "address"
        },
        {
          "internalType": "uint256",
          "name": "amount",
          "type": "uint256"
        },
        {
          "internalType": "enum RBPoolController.Pool",
          "name": "pool",
          "type": "uint8"
        }
      ],
      "name": "withdraw",
      "outputs": [
        {
          "internalType": "bool",
          "name": "",
          "type": "bool"
        }
      ],
      "stateMutability": "nonpayable",
      "type": "function"
    }
  ],
  "transactionHash": "0x8378e722e8d0c5f60751308264cb1ee10002ddbc8c5e39ef99966037960a722f",
  "args": [],
  "numDeployments": 2,
  "solcInputHash": "7775207cc7602681c13f800008f7b3ba",
  "bytecode": "0x60a06040523060601b6080523480156200001857600080fd5b50600054610100900460ff16620000365760005460ff161562000040565b62000040620000ee565b620000a85760405162461bcd60e51b815260206004820152602e60248201527f496e697469616c697a61626c653a20636f6e747261637420697320616c72656160448201526d191e481a5b9a5d1a585b1a5e995960921b606482015260840160405180910390fd5b600054610100900460ff16158015620000d4576000805460ff1961ff0019909116610100171660011790555b8015620000e7576000805461ff00191690555b5062000112565b600062000106306200010c60201b620010501760201c565b15905090565b3b151590565b60805160601c612037620001466000396000818161044901528181610489015281816105df015261061f01526120376000f3fe6080604052600436106100fe5760003560e01c80636dd79be8116100955780638e29c338116100645780638e29c3381461029e578063a42dce80146102c6578063bb8b1c4f146102e6578063c415b95c14610306578063f2fde38b14610326576100fe565b80636dd79be81461021757806370e604ed14610237578063715018a6146102575780638da5cb5b1461026c576100fe565b806348a02dfd116100d157806348a02dfd146101a45780634f1ef286146101c4578063521df5a1146101d75780635529ee4b146101f7576100fe565b8063017f6fae146101035780631824a46b1461013d5780632892a977146101545780633659cfe614610184575b600080fd5b34801561010f57600080fd5b5060cd5461012590600160a01b900461ffff1681565b60405161ffff90911681526020015b60405180910390f35b34801561014957600080fd5b50610152610346565b005b34801561016057600080fd5b5061017461016f366004611bfc565b61037b565b6040519015158152602001610134565b34801561019057600080fd5b5061015261019f366004611adb565b61043e565b3480156101b057600080fd5b506101746101bf366004611c39565b610507565b6101526101d2366004611b5a565b6105d4565b3480156101e357600080fd5b506101526101f2366004611d17565b61068e565b34801561020357600080fd5b50610152610212366004611af7565b6107ad565b34801561022357600080fd5b50610152610232366004611ca9565b6108de565b34801561024357600080fd5b50610152610252366004611ce5565b610e30565b34801561026357600080fd5b50610152610e7c565b34801561027857600080fd5b506033546001600160a01b03165b6040516001600160a01b039091168152602001610134565b3480156102aa57600080fd5b5061028673136acd46c134e8269052c62a67042d6bdedde3c981565b3480156102d257600080fd5b506101526102e1366004611adb565b610eb0565b3480156102f257600080fd5b50610152610301366004611cca565b610efc565b34801561031257600080fd5b5060cd54610286906001600160a01b031681565b34801561033257600080fd5b50610152610341366004611adb565b610fb8565b6033546001600160a01b031633146103795760405162461bcd60e51b815260040161037090611e30565b60405180910390fd5b565b60006103868261105a565b604051632770a7eb60e21b81526001600160a01b038681166004830152602482018690529190911690639dc29fac90604401600060405180830381600087803b1580156103d257600080fd5b505af11580156103e6573d6000803e3d6000fd5b5050505061040973136acd46c134e8269052c62a67042d6bdedde3c985856110ad565b6104336040805133602080830191909152825180830382018152918301909252805191012060cb55565b5060015b9392505050565b306001600160a01b037f00000000000000000000000000000000000000000000000000000000000000001614156104875760405162461bcd60e51b815260040161037090611d98565b7f00000000000000000000000000000000000000000000000000000000000000006001600160a01b03166104b9611110565b6001600160a01b0316146104df5760405162461bcd60e51b815260040161037090611de4565b6104e88161113e565b6040805160008082526020820190925261050491839190611168565b50565b600061051282610efc565b61053273136acd46c134e8269052c62a67042d6bdedde3c98630876112ac565b61053b8361105a565b6040516340c10f1960e01b81526001600160a01b0387811660048301526024820187905291909116906340c10f1990604401600060405180830381600087803b15801561058757600080fd5b505af115801561059b573d6000803e3d6000fd5b505050506105c96040805133602080830191909152825180830382018152918301909252805191012060cb55565b506001949350505050565b306001600160a01b037f000000000000000000000000000000000000000000000000000000000000000016141561061d5760405162461bcd60e51b815260040161037090611d98565b7f00000000000000000000000000000000000000000000000000000000000000006001600160a01b031661064f611110565b6001600160a01b0316146106755760405162461bcd60e51b815260040161037090611de4565b61067e8261113e565b61068a82826001611168565b5050565b6106978261105a565b6001600160a01b0316639dc29fac336040516001600160e01b031960e084901b1681526001600160a01b03909116600482015260248101869052604401600060405180830381600087803b1580156106ee57600080fd5b505af1158015610702573d6000803e3d6000fd5b5050505061070f8161105a565b6001600160a01b03166340c10f19336040516001600160e01b031960e084901b1681526001600160a01b03909116600482015260248101869052604401600060405180830381600087803b15801561076657600080fd5b505af115801561077a573d6000803e3d6000fd5b505050506107a86040805133602080830191909152825180830382018152918301909252805191012060cb55565b505050565b600054610100900460ff166107c85760005460ff16156107d0565b6107d06112ea565b6108335760405162461bcd60e51b815260206004820152602e60248201527f496e697469616c697a61626c653a20636f6e747261637420697320616c72656160448201526d191e481a5b9a5d1a585b1a5e995960921b6064820152608401610370565b600054610100900460ff1615801561085e576000805460ff1961ff0019909116610100171660011790555b6108666112fb565b61086e611332565b60c980546001600160a01b038089166001600160a01b03199283161790925560ca805488841690831617905560cc86905560cd805461ffff8616600160a01b0261ffff60a01b1994881691909316179290921617905580156108d6576000805461ff00191690555b505050505050565b6033546001600160a01b031633146109085760405162461bcd60e51b815260040161037090611e30565b6040516370a0823160e01b815230600482015260009073136acd46c134e8269052c62a67042d6bdedde3c9906370a082319060240160206040518083038186803b15801561095557600080fd5b505afa158015610969573d6000803e3d6000fd5b505050506040513d601f19601f8201168201806040525081019061098d9190611cff565b116109d35760405162461bcd60e51b8152602060048201526016602482015275436f6e74726f6c6c657220686173206e6f204d454d4f60501b6044820152606401610370565b600060405180604001604052806109ea600061105a565b6001600160a01b03166318160ddd6040518163ffffffff1660e01b815260040160206040518083038186803b158015610a2257600080fd5b505afa158015610a36573d6000803e3d6000fd5b505050506040513d601f19601f82011682018060405250810190610a5a9190611cff565b8152602001610a69600161105a565b6001600160a01b03166318160ddd6040518163ffffffff1660e01b815260040160206040518083038186803b158015610aa157600080fd5b505afa158015610ab5573d6000803e3d6000fd5b505050506040513d601f19601f82011682018060405250810190610ad99190611cff565b905260208101518151919250600091610af29190611ee1565b11610b3f5760405162461bcd60e51b815260206004820152601a60248201527f4e6f204d454d4f206465706f736974656420696e20706f6f6c730000000000006044820152606401610370565b60208101518151600091610b5291611ee1565b6040516370a0823160e01b8152306004820152909150600090829073136acd46c134e8269052c62a67042d6bdedde3c9906370a082319060240160206040518083038186803b158015610ba457600080fd5b505afa158015610bb8573d6000803e3d6000fd5b505050506040513d601f19601f82011682018060405250810190610bdc9190611cff565b610be69190611f2c565b60cd5490915060009061271090610c09908490600160a01b900461ffff16611f0d565b610c139190611ef9565b60cd5460405163a9059cbb60e01b81526001600160a01b0390911660048201526024810182905290915073136acd46c134e8269052c62a67042d6bdedde3c99063a9059cbb90604401602060405180830381600087803b158015610c7657600080fd5b505af1158015610c8a573d6000803e3d6000fd5b505050506040513d601f19601f82011682018060405250810190610cae9190611c89565b506000610cba87611369565b905084816001811115610cdd57634e487b7160e01b600052602160045260246000fd5b60028110610cfb57634e487b7160e01b600052603260045260246000fd5b6020020151610d38576000816001811115610d2657634e487b7160e01b600052602160045260246000fd5b14610d32576000610d35565b60015b90505b610d418161105a565b6001600160a01b031663bc4f2d6d610d598486611f2c565b6040518263ffffffff1660e01b8152600401610d7791815260200190565b600060405180830381600087803b158015610d9157600080fd5b505af1158015610da5573d6000803e3d6000fd5b50505060cc87905550427f5899dee610fd5140296c7bd89bd352c8236705b7339a1078727dc830db7019e5610dda8486611f2c565b87516020890151856001811115610e0157634e487b7160e01b600052602160045260246000fd5b6040805194855260208501939093529183015260ff16606082015260800160405180910390a250505050505050565b6033546001600160a01b03163314610e5a5760405162461bcd60e51b815260040161037090611e30565b60cd805461ffff909216600160a01b0261ffff60a01b19909216919091179055565b6033546001600160a01b03163314610ea65760405162461bcd60e51b815260040161037090611e30565b6103796000611562565b6033546001600160a01b03163314610eda5760405162461bcd60e51b815260040161037090611e30565b60cd80546001600160a01b0319166001600160a01b0392909216919091179055565b805160208201516040808401516060850151608086015160a087015160c0880151945163d505accf60e01b81526001600160a01b0397881660048201529690951660248701526044860192909252606485015260ff16608484015260a483019190915260c482015273136acd46c134e8269052c62a67042d6bdedde3c99063d505accf9060e401600060405180830381600087803b158015610f9d57600080fd5b505af1158015610fb1573d6000803e3d6000fd5b5050505050565b6033546001600160a01b03163314610fe25760405162461bcd60e51b815260040161037090611e30565b6001600160a01b0381166110475760405162461bcd60e51b815260206004820152602660248201527f4f776e61626c653a206e6577206f776e657220697320746865207a65726f206160448201526564647265737360d01b6064820152608401610370565b61050481611562565b803b15155b919050565b600060c982600181111561107e57634e487b7160e01b600052602160045260246000fd5b6002811061109c57634e487b7160e01b600052603260045260246000fd5b01546001600160a01b031692915050565b6040516001600160a01b0383166024820152604481018290526107a890849063a9059cbb60e01b906064015b60408051601f198184030181529190526020810180516001600160e01b03166001600160e01b0319909316929092179091526115b4565b7f360894a13ba1a3210667c828492db98dca3e2076cc3735a920a3ca505d382bbc546001600160a01b031690565b6033546001600160a01b031633146105045760405162461bcd60e51b815260040161037090611e30565b6000611172611110565b905061117d84611686565b60008351118061118a5750815b1561119b576111998484611732565b505b7f4910fdfa16fed3260ed0e7147f7cc6da11a60208b5b9406d12a635614ffd9143805460ff16610fb157805460ff191660011781556040516001600160a01b038316602482015261121a90869060440160408051601f198184030181529190526020810180516001600160e01b0316631b2ce7f360e11b179052611732565b50805460ff1916815561122b611110565b6001600160a01b0316826001600160a01b0316146112a35760405162461bcd60e51b815260206004820152602f60248201527f45524331393637557067726164653a207570677261646520627265616b73206660448201526e75727468657220757067726164657360881b6064820152608401610370565b610fb185611824565b6040516001600160a01b03808516602483015283166044820152606481018290526112e49085906323b872dd60e01b906084016110d9565b50505050565b60006112f530611050565b15905090565b600054610100900460ff166113225760405162461bcd60e51b815260040161037090611e65565b61132a611864565b61037961188b565b600054610100900460ff166113595760405162461bcd60e51b815260040161037090611e65565b611361611864565b610379611864565b60008033604080516001600160a01b039092166020830152810184905260600160405160208183030381529060405280519060200120905060cc5481146113e95760405162461bcd60e51b8152602060048201526014602482015273496e76616c696420524e472073656564206b657960601b6044820152606401610370565b6000836113f7600143611f2c565b4060cb54611405600061105a565b6001600160a01b03166318160ddd6040518163ffffffff1660e01b815260040160206040518083038186803b15801561143d57600080fd5b505afa158015611451573d6000803e3d6000fd5b505050506040513d601f19601f820116820180604052508101906114759190611cff565b61147f600161105a565b6001600160a01b03166318160ddd6040518163ffffffff1660e01b815260040160206040518083038186803b1580156114b757600080fd5b505afa1580156114cb573d6000803e3d6000fd5b505050506040513d601f19601f820116820180604052508101906114ef9190611cff565b6040805160208101969096528501939093526060840191909152608083015260a082015260c00160408051601f198184030181529190528051602090910120905061153b600282611f6f565b600181111561155a57634e487b7160e01b600052602160045260246000fd5b949350505050565b603380546001600160a01b038381166001600160a01b0319831681179093556040519116919082907f8be0079c531659141344cd1fd0a4f28419497f9722a3daafe3b4186f6b6457e090600090a35050565b6000611609826040518060400160405280602081526020017f5361666545524332303a206c6f772d6c6576656c2063616c6c206661696c6564815250856001600160a01b03166118bb9092919063ffffffff16565b8051909150156107a857808060200190518101906116279190611c89565b6107a85760405162461bcd60e51b815260206004820152602a60248201527f5361666545524332303a204552433230206f7065726174696f6e20646964206e6044820152691bdd081cdd58d8d9595960b21b6064820152608401610370565b61168f81611050565b6116f15760405162461bcd60e51b815260206004820152602d60248201527f455243313936373a206e657720696d706c656d656e746174696f6e206973206e60448201526c1bdd08184818dbdb9d1c9858dd609a1b6064820152608401610370565b7f360894a13ba1a3210667c828492db98dca3e2076cc3735a920a3ca505d382bbc80546001600160a01b0319166001600160a01b0392909216919091179055565b606061173d83611050565b6117985760405162461bcd60e51b815260206004820152602660248201527f416464726573733a2064656c65676174652063616c6c20746f206e6f6e2d636f6044820152651b9d1c9858dd60d21b6064820152608401610370565b600080846001600160a01b0316846040516117b39190611d49565b600060405180830381855af49150503d80600081146117ee576040519150601f19603f3d011682016040523d82523d6000602084013e6117f3565b606091505b509150915061181b8282604051806060016040528060278152602001611fdb602791396118ca565b95945050505050565b61182d81611686565b6040516001600160a01b038216907fbc7cd75a20ee27fd9adebab32041f755214dbc6bffa90cc0225b39da2e5c2d3b90600090a250565b600054610100900460ff166103795760405162461bcd60e51b815260040161037090611e65565b600054610100900460ff166118b25760405162461bcd60e51b815260040161037090611e65565b61037933611562565b606061155a8484600085611903565b606083156118d9575081610437565b8251156118e95782518084602001fd5b8160405162461bcd60e51b81526004016103709190611d65565b6060824710156119645760405162461bcd60e51b815260206004820152602660248201527f416464726573733a20696e73756666696369656e742062616c616e636520666f6044820152651c8818d85b1b60d21b6064820152608401610370565b61196d85611050565b6119b95760405162461bcd60e51b815260206004820152601d60248201527f416464726573733a2063616c6c20746f206e6f6e2d636f6e74726163740000006044820152606401610370565b600080866001600160a01b031685876040516119d59190611d49565b60006040518083038185875af1925050503d8060008114611a12576040519150601f19603f3d011682016040523d82523d6000602084013e611a17565b606091505b5091509150611a278282866118ca565b979650505050505050565b80356002811061105557600080fd5b600060e08284031215611a52578081fd5b611a5c60e0611eb0565b90508135611a6981611fc5565b81526020820135611a7981611fc5565b806020830152506040820135604082015260608201356060820152608082013560ff81168114611aa857600080fd5b8060808301525060a082013560a082015260c082013560c082015292915050565b803561ffff8116811461105557600080fd5b600060208284031215611aec578081fd5b813561043781611fc5565b600080600080600060a08688031215611b0e578081fd5b8535611b1981611fc5565b94506020860135611b2981611fc5565b9350604086013592506060860135611b4081611fc5565b9150611b4e60808701611ac9565b90509295509295909350565b60008060408385031215611b6c578182fd5b8235611b7781611fc5565b915060208381013567ffffffffffffffff80821115611b94578384fd5b818601915086601f830112611ba7578384fd5b813581811115611bb957611bb9611faf565b611bcb601f8201601f19168501611eb0565b91508082528784828501011115611be0578485fd5b8084840185840137810190920192909252919491935090915050565b600080600060608486031215611c10578283fd5b8335611c1b81611fc5565b925060208401359150611c3060408501611a32565b90509250925092565b6000806000806101408587031215611c4f578384fd5b8435611c5a81611fc5565b935060208501359250611c6f60408601611a32565b9150611c7e8660608701611a41565b905092959194509250565b600060208284031215611c9a578081fd5b81518015158114610437578182fd5b60008060408385031215611cbb578182fd5b50508035926020909101359150565b600060e08284031215611cdb578081fd5b6104378383611a41565b600060208284031215611cf6578081fd5b61043782611ac9565b600060208284031215611d10578081fd5b5051919050565b600080600060608486031215611d2b578081fd5b83359250611d3b60208501611a32565b9150611c3060408501611a32565b60008251611d5b818460208701611f43565b9190910192915050565b6000602082528251806020840152611d84816040850160208701611f43565b601f01601f19169190910160400192915050565b6020808252602c908201527f46756e6374696f6e206d7573742062652063616c6c6564207468726f7567682060408201526b19195b1959d85d1958d85b1b60a21b606082015260800190565b6020808252602c908201527f46756e6374696f6e206d7573742062652063616c6c6564207468726f7567682060408201526b6163746976652070726f787960a01b606082015260800190565b6020808252818101527f4f776e61626c653a2063616c6c6572206973206e6f7420746865206f776e6572604082015260600190565b6020808252602b908201527f496e697469616c697a61626c653a20636f6e7472616374206973206e6f74206960408201526a6e697469616c697a696e6760a81b606082015260800190565b604051601f8201601f1916810167ffffffffffffffff81118282101715611ed957611ed9611faf565b604052919050565b60008219821115611ef457611ef4611f83565b500190565b600082611f0857611f08611f99565b500490565b6000816000190483118215151615611f2757611f27611f83565b500290565b600082821015611f3e57611f3e611f83565b500390565b60005b83811015611f5e578181015183820152602001611f46565b838111156112e45750506000910152565b600082611f7e57611f7e611f99565b500690565b634e487b7160e01b600052601160045260246000fd5b634e487b7160e01b600052601260045260246000fd5b634e487b7160e01b600052604160045260246000fd5b6001600160a01b038116811461050457600080fdfe416464726573733a206c6f772d6c6576656c2064656c65676174652063616c6c206661696c6564a264697066735822122021de35f35051a1184566df2c30a41a75b7c9d0d87b83146f23bd4289f97d10f864736f6c63430008020033",
  "devdoc": {
    "kind": "dev",
    "methods": {
      "owner()": {
        "details": "Returns the address of the current owner."
      },
      "renounceOwnership()": {
        "details": "Leaves the contract without owner. It will not be possible to call `onlyOwner` functions anymore. Can only be called by the current owner. NOTE: Renouncing ownership will leave the contract without an owner, thereby removing any functionality that is only available to the owner."
      },
      "transferOwnership(address)": {
        "details": "Transfers ownership of the contract to a new account (`newOwner`). Can only be called by the current owner."
      },
      "upgradeTo(address)": {
        "details": "Upgrade the implementation of the proxy to `newImplementation`. Calls {_authorizeUpgrade}. Emits an {Upgraded} event."
      },
      "upgradeToAndCall(address,bytes)": {
        "details": "Upgrade the implementation of the proxy to `newImplementation`, and subsequently execute the function call encoded in `data`. Calls {_authorizeUpgrade}. Emits an {Upgraded} event."
      }
    },
    "version": 1
  },
  "userdoc": {
    "kind": "user",
    "methods": {},
    "version": 1
  },
  "storageLayout": {
    "storage": [
      {
        "astId": 950,
        "contract": "contracts/rb-pool-controller.sol:RBPoolController",
        "label": "_initialized",
        "offset": 0,
        "slot": "0",
        "type": "t_bool"
      },
      {
        "astId": 953,
        "contract": "contracts/rb-pool-controller.sol:RBPoolController",
        "label": "_initializing",
        "offset": 1,
        "slot": "0",
        "type": "t_bool"
      },
      {
        "astId": 2325,
        "contract": "contracts/rb-pool-controller.sol:RBPoolController",
        "label": "__gap",
        "offset": 0,
        "slot": "1",
        "type": "t_array(t_uint256)50_storage"
      },
      {
        "astId": 420,
        "contract": "contracts/rb-pool-controller.sol:RBPoolController",
        "label": "_owner",
        "offset": 0,
        "slot": "51",
        "type": "t_address"
      },
      {
        "astId": 534,
        "contract": "contracts/rb-pool-controller.sol:RBPoolController",
        "label": "__gap",
        "offset": 0,
        "slot": "52",
        "type": "t_array(t_uint256)49_storage"
      },
      {
        "astId": 932,
        "contract": "contracts/rb-pool-controller.sol:RBPoolController",
        "label": "__gap",
        "offset": 0,
        "slot": "101",
        "type": "t_array(t_uint256)50_storage"
      },
      {
        "astId": 1127,
        "contract": "contracts/rb-pool-controller.sol:RBPoolController",
        "label": "__gap",
        "offset": 0,
        "slot": "151",
        "type": "t_array(t_uint256)50_storage"
      },
      {
        "astId": 6605,
        "contract": "contracts/rb-pool-controller.sol:RBPoolController",
        "label": "_pools",
        "offset": 0,
        "slot": "201",
        "type": "t_array(t_contract(TokenPool)6551)2_storage"
      },
      {
        "astId": 6607,
        "contract": "contracts/rb-pool-controller.sol:RBPoolController",
        "label": "_lastActorHash",
        "offset": 0,
        "slot": "203",
        "type": "t_bytes32"
      },
      {
        "astId": 6609,
        "contract": "contracts/rb-pool-controller.sol:RBPoolController",
        "label": "_seedHash",
        "offset": 0,
        "slot": "204",
        "type": "t_bytes32"
      },
      {
        "astId": 6611,
        "contract": "contracts/rb-pool-controller.sol:RBPoolController",
        "label": "feeCollector",
        "offset": 0,
        "slot": "205",
        "type": "t_address_payable"
      },
      {
        "astId": 6613,
        "contract": "contracts/rb-pool-controller.sol:RBPoolController",
        "label": "feeBP",
        "offset": 20,
        "slot": "205",
        "type": "t_uint16"
      }
    ],
    "types": {
      "t_address": {
        "encoding": "inplace",
        "label": "address",
        "numberOfBytes": "20"
      },
      "t_address_payable": {
        "encoding": "inplace",
        "label": "address payable",
        "numberOfBytes": "20"
      },
      "t_array(t_contract(TokenPool)6551)2_storage": {
        "base": "t_contract(TokenPool)6551",
        "encoding": "inplace",
        "label": "contract TokenPool[2]",
        "numberOfBytes": "64"
      },
      "t_array(t_uint256)49_storage": {
        "base": "t_uint256",
        "encoding": "inplace",
        "label": "uint256[49]",
        "numberOfBytes": "1568"
      },
      "t_array(t_uint256)50_storage": {
        "base": "t_uint256",
        "encoding": "inplace",
        "label": "uint256[50]",
        "numberOfBytes": "1600"
      },
      "t_bool": {
        "encoding": "inplace",
        "label": "bool",
        "numberOfBytes": "1"
      },
      "t_bytes32": {
        "encoding": "inplace",
        "label": "bytes32",
        "numberOfBytes": "32"
      },
      "t_contract(TokenPool)6551": {
        "encoding": "inplace",
        "label": "contract TokenPool",
        "numberOfBytes": "20"
      },
      "t_uint16": {
        "encoding": "inplace",
        "label": "uint16",
        "numberOfBytes": "2"
      },
      "t_uint256": {
        "encoding": "inplace",
        "label": "uint256",
        "numberOfBytes": "32"
      }
    }
  }
}