{
  "_format": "hh-sol-artifact-1",
  "contractName": "BlackMemoPool",
  "sourceName": "contracts/black-pool.sol",
  "abi": [
    {
      "inputs": [],
      "stateMutability": "nonpayable",
      "type": "constructor"
    },
    {
      "anonymous": false,
      "inputs": [
        {
          "indexed": false,
          "internalType": "address",
          "name": "previousAdmin",
          "type": "address"
        },
        {
          "indexed": false,
          "internalType": "address",
          "name": "newAdmin",
          "type": "address"
        }
      ],
      "name": "AdminChanged",
      "type": "event"
    },
    {
      "anonymous": false,
      "inputs": [
        {
          "indexed": true,
          "internalType": "address",
          "name": "owner",
          "type": "address"
        },
        {
          "indexed": true,
          "internalType": "address",
          "name": "spender",
          "type": "address"
        },
        {
          "indexed": false,
          "internalType": "uint256",
          "name": "value",
          "type": "uint256"
        }
      ],
      "name": "Approval",
      "type": "event"
    },
    {
      "anonymous": false,
      "inputs": [
        {
          "indexed": true,
          "internalType": "address",
          "name": "beacon",
          "type": "address"
        }
      ],
      "name": "BeaconUpgraded",
      "type": "event"
    },
    {
      "anonymous": false,
      "inputs": [
        {
          "indexed": true,
          "internalType": "address",
          "name": "previousOwner",
          "type": "address"
        },
        {
          "indexed": true,
          "internalType": "address",
          "name": "newOwner",
          "type": "address"
        }
      ],
      "name": "OwnershipTransferred",
      "type": "event"
    },
    {
      "anonymous": false,
      "inputs": [
        {
          "indexed": false,
          "internalType": "address",
          "name": "account",
          "type": "address"
        }
      ],
      "name": "Paused",
      "type": "event"
    },
    {
      "anonymous": false,
      "inputs": [
        {
          "indexed": true,
          "internalType": "address",
          "name": "from",
          "type": "address"
        },
        {
          "indexed": true,
          "internalType": "address",
          "name": "to",
          "type": "address"
        },
        {
          "indexed": false,
          "internalType": "uint256",
          "name": "value",
          "type": "uint256"
        }
      ],
      "name": "Transfer",
      "type": "event"
    },
    {
      "anonymous": false,
      "inputs": [
        {
          "indexed": false,
          "internalType": "address",
          "name": "account",
          "type": "address"
        }
      ],
      "name": "Unpaused",
      "type": "event"
    },
    {
      "anonymous": false,
      "inputs": [
        {
          "indexed": true,
          "internalType": "address",
          "name": "implementation",
          "type": "address"
        }
      ],
      "name": "Upgraded",
      "type": "event"
    },
    {
      "inputs": [
        {
          "internalType": "address",
          "name": "owner",
          "type": "address"
        },
        {
          "internalType": "address",
          "name": "spender",
          "type": "address"
        }
      ],
      "name": "allowance",
      "outputs": [
        {
          "internalType": "uint256",
          "name": "",
          "type": "uint256"
        }
      ],
      "stateMutability": "view",
      "type": "function"
    },
    {
      "inputs": [
        {
          "internalType": "address",
          "name": "spender",
          "type": "address"
        },
        {
          "internalType": "uint256",
          "name": "amount",
          "type": "uint256"
        }
      ],
      "name": "approve",
      "outputs": [
        {
          "internalType": "bool",
          "name": "",
          "type": "bool"
        }
      ],
      "stateMutability": "nonpayable",
      "type": "function"
    },
    {
      "inputs": [
        {
          "internalType": "address",
          "name": "account",
          "type": "address"
        }
      ],
      "name": "balanceOf",
      "outputs": [
        {
          "internalType": "uint256",
          "name": "",
          "type": "uint256"
        }
      ],
      "stateMutability": "view",
      "type": "function"
    },
    {
      "inputs": [
        {
          "internalType": "address",
          "name": "account",
          "type": "address"
        },
        {
          "internalType": "uint256",
          "name": "amount",
          "type": "uint256"
        }
      ],
      "name": "burn",
      "outputs": [],
      "stateMutability": "nonpayable",
      "type": "function"
    },
    {
      "inputs": [],
      "name": "decimals",
      "outputs": [
        {
          "internalType": "uint8",
          "name": "",
          "type": "uint8"
        }
      ],
      "stateMutability": "view",
      "type": "function"
    },
    {
      "inputs": [
        {
          "internalType": "address",
          "name": "spender",
          "type": "address"
        },
        {
          "internalType": "uint256",
          "name": "subtractedValue",
          "type": "uint256"
        }
      ],
      "name": "decreaseAllowance",
      "outputs": [
        {
          "internalType": "bool",
          "name": "",
          "type": "bool"
        }
      ],
      "stateMutability": "nonpayable",
      "type": "function"
    },
    {
      "inputs": [
        {
          "internalType": "address",
          "name": "spender",
          "type": "address"
        },
        {
          "internalType": "uint256",
          "name": "addedValue",
          "type": "uint256"
        }
      ],
      "name": "increaseAllowance",
      "outputs": [
        {
          "internalType": "bool",
          "name": "",
          "type": "bool"
        }
      ],
      "stateMutability": "nonpayable",
      "type": "function"
    },
    {
      "inputs": [],
      "name": "initialize",
      "outputs": [],
      "stateMutability": "nonpayable",
      "type": "function"
    },
    {
      "inputs": [
        {
          "internalType": "address",
          "name": "account",
          "type": "address"
        },
        {
          "internalType": "uint256",
          "name": "amount",
          "type": "uint256"
        }
      ],
      "name": "mint",
      "outputs": [],
      "stateMutability": "nonpayable",
      "type": "function"
    },
    {
      "inputs": [],
      "name": "name",
      "outputs": [
        {
          "internalType": "string",
          "name": "",
          "type": "string"
        }
      ],
      "stateMutability": "view",
      "type": "function"
    },
    {
      "inputs": [],
      "name": "onUpgrade",
      "outputs": [],
      "stateMutability": "nonpayable",
      "type": "function"
    },
    {
      "inputs": [],
      "name": "owner",
      "outputs": [
        {
          "internalType": "address",
          "name": "",
          "type": "address"
        }
      ],
      "stateMutability": "view",
      "type": "function"
    },
    {
      "inputs": [],
      "name": "pause",
      "outputs": [],
      "stateMutability": "nonpayable",
      "type": "function"
    },
    {
      "inputs": [],
      "name": "paused",
      "outputs": [
        {
          "internalType": "bool",
          "name": "",
          "type": "bool"
        }
      ],
      "stateMutability": "view",
      "type": "function"
    },
    {
      "inputs": [],
      "name": "renounceOwnership",
      "outputs": [],
      "stateMutability": "nonpayable",
      "type": "function"
    },
    {
      "inputs": [],
      "name": "symbol",
      "outputs": [
        {
          "internalType": "string",
          "name": "",
          "type": "string"
        }
      ],
      "stateMutability": "view",
      "type": "function"
    },
    {
      "inputs": [],
      "name": "totalSupply",
      "outputs": [
        {
          "internalType": "uint256",
          "name": "",
          "type": "uint256"
        }
      ],
      "stateMutability": "view",
      "type": "function"
    },
    {
      "inputs": [
        {
          "internalType": "address",
          "name": "recipient",
          "type": "address"
        },
        {
          "internalType": "uint256",
          "name": "amount",
          "type": "uint256"
        }
      ],
      "name": "transfer",
      "outputs": [
        {
          "internalType": "bool",
          "name": "",
          "type": "bool"
        }
      ],
      "stateMutability": "nonpayable",
      "type": "function"
    },
    {
      "inputs": [
        {
          "internalType": "address",
          "name": "sender",
          "type": "address"
        },
        {
          "internalType": "address",
          "name": "recipient",
          "type": "address"
        },
        {
          "internalType": "uint256",
          "name": "amount",
          "type": "uint256"
        }
      ],
      "name": "transferFrom",
      "outputs": [
        {
          "internalType": "bool",
          "name": "",
          "type": "bool"
        }
      ],
      "stateMutability": "nonpayable",
      "type": "function"
    },
    {
      "inputs": [
        {
          "internalType": "address",
          "name": "newOwner",
          "type": "address"
        }
      ],
      "name": "transferOwnership",
      "outputs": [],
      "stateMutability": "nonpayable",
      "type": "function"
    },
    {
      "inputs": [],
      "name": "unpause",
      "outputs": [],
      "stateMutability": "nonpayable",
      "type": "function"
    },
    {
      "inputs": [
        {
          "internalType": "address",
          "name": "newImplementation",
          "type": "address"
        }
      ],
      "name": "upgradeTo",
      "outputs": [],
      "stateMutability": "nonpayable",
      "type": "function"
    },
    {
      "inputs": [
        {
          "internalType": "address",
          "name": "newImplementation",
          "type": "address"
        },
        {
          "internalType": "bytes",
          "name": "data",
          "type": "bytes"
        }
      ],
      "name": "upgradeToAndCall",
      "outputs": [],
      "stateMutability": "payable",
      "type": "function"
    }
  ],
  "bytecode": "0x60a06040523060601b60805234801561001757600080fd5b50600054610100900460ff1680610031575060005460ff16155b6100985760405162461bcd60e51b815260206004820152602e60248201527f496e697469616c697a61626c653a20636f6e747261637420697320616c72656160448201526d191e481a5b9a5d1a585b1a5e995960921b606482015260840160405180910390fd5b600054610100900460ff161580156100c3576000805460ff1961ff0019909116610100171660011790555b80156100d5576000805461ff00191690555b5060805160601c611db2610109600039600081816105a8015281816105e80152818161071701526107570152611db26000f3fe6080604052600436106101405760003560e01c80635c975abb116100b657806395d89b411161006f57806395d89b41146103395780639dc29fac1461034e578063a457c2d71461036e578063a9059cbb1461038e578063dd62ed3e146103ae578063f2fde38b146103f457610140565b80635c975abb1461029a57806370a08231146102b2578063715018a6146102d25780638129fc1c146102e75780638456cb59146102fc5780638da5cb5b1461031157610140565b8063313ce56711610108578063313ce567146101f65780633659cfe61461021257806339509351146102325780633f4ba83a1461025257806340c10f19146102675780634f1ef2861461028757610140565b806306fdde0314610145578063095ea7b31461017057806318160ddd146101a05780631824a46b146101bf57806323b872dd146101d6575b600080fd5b34801561015157600080fd5b5061015a610414565b6040516101679190611b45565b60405180910390f35b34801561017c57600080fd5b5061019061018b366004611b00565b6104a6565b6040519015158152602001610167565b3480156101ac57600080fd5b506035545b604051908152602001610167565b3480156101cb57600080fd5b506101d46104bc565b005b3480156101e257600080fd5b506101906101f1366004611a08565b6104f1565b34801561020257600080fd5b5060405160128152602001610167565b34801561021e57600080fd5b506101d461022d3660046119bc565b61059d565b34801561023e57600080fd5b5061019061024d366004611b00565b610666565b34801561025e57600080fd5b506101d46106a2565b34801561027357600080fd5b506101d4610282366004611b00565b6106d4565b6101d4610295366004611a43565b61070c565b3480156102a657600080fd5b5060655460ff16610190565b3480156102be57600080fd5b506101b16102cd3660046119bc565b6107c2565b3480156102de57600080fd5b506101d46107e1565b3480156102f357600080fd5b506101d4610815565b34801561030857600080fd5b506101d46108ec565b34801561031d57600080fd5b506097546040516001600160a01b039091168152602001610167565b34801561034557600080fd5b5061015a61091e565b34801561035a57600080fd5b506101d4610369366004611b00565b61092d565b34801561037a57600080fd5b50610190610389366004611b00565b610961565b34801561039a57600080fd5b506101906103a9366004611b00565b6109fa565b3480156103ba57600080fd5b506101b16103c93660046119d6565b6001600160a01b03918216600090815260346020908152604080832093909416825291909152205490565b34801561040057600080fd5b506101d461040f3660046119bc565b610a07565b60606036805461042390611cee565b80601f016020809104026020016040519081016040528092919081815260200182805461044f90611cee565b801561049c5780601f106104715761010080835404028352916020019161049c565b820191906000526020600020905b81548152906001019060200180831161047f57829003601f168201915b5050505050905090565b60006104b3338484610a9f565b50600192915050565b6097546001600160a01b031633146104ef5760405162461bcd60e51b81526004016104e690611c5e565b60405180910390fd5b565b60006104fe848484610bc3565b6001600160a01b0384166000908152603460209081526040808320338452909152902054828110156105835760405162461bcd60e51b815260206004820152602860248201527f45524332303a207472616e7366657220616d6f756e74206578636565647320616044820152676c6c6f77616e636560c01b60648201526084016104e6565b6105908533858403610a9f565b60019150505b9392505050565b306001600160a01b037f00000000000000000000000000000000000000000000000000000000000000001614156105e65760405162461bcd60e51b81526004016104e690611b78565b7f00000000000000000000000000000000000000000000000000000000000000006001600160a01b0316610618610d9e565b6001600160a01b03161461063e5760405162461bcd60e51b81526004016104e690611bc4565b61064781610dcc565b6040805160008082526020820190925261066391839190610df6565b50565b3360008181526034602090815260408083206001600160a01b038716845290915281205490916104b391859061069d908690611c93565b610a9f565b6097546001600160a01b031633146106cc5760405162461bcd60e51b81526004016104e690611c5e565b6104ef610f41565b6097546001600160a01b031633146106fe5760405162461bcd60e51b81526004016104e690611c5e565b6107088282610fd4565b5050565b306001600160a01b037f00000000000000000000000000000000000000000000000000000000000000001614156107555760405162461bcd60e51b81526004016104e690611b78565b7f00000000000000000000000000000000000000000000000000000000000000006001600160a01b0316610787610d9e565b6001600160a01b0316146107ad5760405162461bcd60e51b81526004016104e690611bc4565b6107b682610dcc565b61070882826001610df6565b6001600160a01b0381166000908152603360205260409020545b919050565b6097546001600160a01b0316331461080b5760405162461bcd60e51b81526004016104e690611c5e565b6104ef60006110c0565b600054610100900460ff168061082e575060005460ff16155b61084a5760405162461bcd60e51b81526004016104e690611c10565b600054610100900460ff16158015610875576000805460ff1961ff0019909116610100171660011790555b6108c06040518060400160405280600d81526020016c109b1858dad3595b5bd41bdbdb609a1b815250604051806040016040528060048152602001631093541360e21b815250611112565b6108c861119b565b6108d061120b565b6108d861127b565b8015610663576000805461ff001916905550565b6097546001600160a01b031633146109165760405162461bcd60e51b81526004016104e690611c5e565b6104ef6112eb565b60606037805461042390611cee565b6097546001600160a01b031633146109575760405162461bcd60e51b81526004016104e690611c5e565b6107088282611366565b3360009081526034602090815260408083206001600160a01b0386168452909152812054828110156109e35760405162461bcd60e51b815260206004820152602560248201527f45524332303a2064656372656173656420616c6c6f77616e63652062656c6f77604482015264207a65726f60d81b60648201526084016104e6565b6109f03385858403610a9f565b5060019392505050565b60006104b3338484610bc3565b6097546001600160a01b03163314610a315760405162461bcd60e51b81526004016104e690611c5e565b6001600160a01b038116610a965760405162461bcd60e51b815260206004820152602660248201527f4f776e61626c653a206e6577206f776e657220697320746865207a65726f206160448201526564647265737360d01b60648201526084016104e6565b610663816110c0565b6001600160a01b038316610b015760405162461bcd60e51b8152602060048201526024808201527f45524332303a20617070726f76652066726f6d20746865207a65726f206164646044820152637265737360e01b60648201526084016104e6565b6001600160a01b038216610b625760405162461bcd60e51b815260206004820152602260248201527f45524332303a20617070726f766520746f20746865207a65726f206164647265604482015261737360f01b60648201526084016104e6565b6001600160a01b0383811660008181526034602090815260408083209487168084529482529182902085905590518481527f8c5be1e5ebec7d5bd14f71427d1e84f3dd0314c0f7b2291e5b200ac8c7c3b925910160405180910390a3505050565b6001600160a01b038316610c275760405162461bcd60e51b815260206004820152602560248201527f45524332303a207472616e736665722066726f6d20746865207a65726f206164604482015264647265737360d81b60648201526084016104e6565b6001600160a01b038216610c895760405162461bcd60e51b815260206004820152602360248201527f45524332303a207472616e7366657220746f20746865207a65726f206164647260448201526265737360e81b60648201526084016104e6565b610c948383836114c0565b6001600160a01b03831660009081526033602052604090205481811015610d0c5760405162461bcd60e51b815260206004820152602660248201527f45524332303a207472616e7366657220616d6f756e7420657863656564732062604482015265616c616e636560d01b60648201526084016104e6565b6001600160a01b03808516600090815260336020526040808220858503905591851681529081208054849290610d43908490611c93565b92505081905550826001600160a01b0316846001600160a01b03167fddf252ad1be2c89b69c2b068fc378daa952ba7f163c4a11628f55a4df523b3ef84604051610d8f91815260200190565b60405180910390a35b50505050565b7f360894a13ba1a3210667c828492db98dca3e2076cc3735a920a3ca505d382bbc546001600160a01b031690565b6097546001600160a01b031633146106635760405162461bcd60e51b81526004016104e690611c5e565b6000610e00610d9e565b9050610e0b8461150b565b600083511180610e185750815b15610e2957610e2784846115b0565b505b7f4910fdfa16fed3260ed0e7147f7cc6da11a60208b5b9406d12a635614ffd9143805460ff16610f3a57805460ff191660011781556040516001600160a01b0383166024820152610ea890869060440160408051601f198184030181529190526020810180516001600160e01b0316631b2ce7f360e11b1790526115b0565b50805460ff19168155610eb9610d9e565b6001600160a01b0316826001600160a01b031614610f315760405162461bcd60e51b815260206004820152602f60248201527f45524331393637557067726164653a207570677261646520627265616b73206660448201526e75727468657220757067726164657360881b60648201526084016104e6565b610f3a8561169b565b5050505050565b60655460ff16610f8a5760405162461bcd60e51b815260206004820152601460248201527314185d5cd8589b194e881b9bdd081c185d5cd95960621b60448201526064016104e6565b6065805460ff191690557f5db9ee0a495bf2e6ff9c91a7834c1ba4fdd244a5e8aa4e537bd38aeae4b073aa335b6040516001600160a01b03909116815260200160405180910390a1565b6001600160a01b03821661102a5760405162461bcd60e51b815260206004820152601f60248201527f45524332303a206d696e7420746f20746865207a65726f20616464726573730060448201526064016104e6565b611036600083836114c0565b80603560008282546110489190611c93565b90915550506001600160a01b03821660009081526033602052604081208054839290611075908490611c93565b90915550506040518181526001600160a01b038316906000907fddf252ad1be2c89b69c2b068fc378daa952ba7f163c4a11628f55a4df523b3ef9060200160405180910390a3610708565b609780546001600160a01b038381166001600160a01b0319831681179093556040519116919082907f8be0079c531659141344cd1fd0a4f28419497f9722a3daafe3b4186f6b6457e090600090a35050565b600054610100900460ff168061112b575060005460ff16155b6111475760405162461bcd60e51b81526004016104e690611c10565b600054610100900460ff16158015611172576000805460ff1961ff0019909116610100171660011790555b61117a6116db565b611184838361174e565b8015611196576000805461ff00191690555b505050565b600054610100900460ff16806111b4575060005460ff16155b6111d05760405162461bcd60e51b81526004016104e690611c10565b600054610100900460ff161580156111fb576000805460ff1961ff0019909116610100171660011790555b6112036116db565b6108d86117ec565b600054610100900460ff1680611224575060005460ff16155b6112405760405162461bcd60e51b81526004016104e690611c10565b600054610100900460ff1615801561126b576000805460ff1961ff0019909116610100171660011790555b6112736116db565b6108d861186a565b600054610100900460ff1680611294575060005460ff16155b6112b05760405162461bcd60e51b81526004016104e690611c10565b600054610100900460ff161580156112db576000805460ff1961ff0019909116610100171660011790555b6112e36116db565b6108d86116db565b60655460ff16156113315760405162461bcd60e51b815260206004820152601060248201526f14185d5cd8589b194e881c185d5cd95960821b60448201526064016104e6565b6065805460ff191660011790557f62e78cea01bee320cd4e420270b5ea74000d11b0c9f74754ebdbfc544b05a258610fb73390565b6001600160a01b0382166113c65760405162461bcd60e51b815260206004820152602160248201527f45524332303a206275726e2066726f6d20746865207a65726f206164647265736044820152607360f81b60648201526084016104e6565b6113d2826000836114c0565b6001600160a01b038216600090815260336020526040902054818110156114465760405162461bcd60e51b815260206004820152602260248201527f45524332303a206275726e20616d6f756e7420657863656564732062616c616e604482015261636560f01b60648201526084016104e6565b6001600160a01b0383166000908152603360205260408120838303905560358054849290611475908490611cab565b90915550506040518281526000906001600160a01b038516907fddf252ad1be2c89b69c2b068fc378daa952ba7f163c4a11628f55a4df523b3ef9060200160405180910390a3611196565b60655460ff16156115065760405162461bcd60e51b815260206004820152601060248201526f14185d5cd8589b194e881c185d5cd95960821b60448201526064016104e6565b611196565b803b61156f5760405162461bcd60e51b815260206004820152602d60248201527f455243313936373a206e657720696d706c656d656e746174696f6e206973206e60448201526c1bdd08184818dbdb9d1c9858dd609a1b60648201526084016104e6565b7f360894a13ba1a3210667c828492db98dca3e2076cc3735a920a3ca505d382bbc80546001600160a01b0319166001600160a01b0392909216919091179055565b6060823b61160f5760405162461bcd60e51b815260206004820152602660248201527f416464726573733a2064656c65676174652063616c6c20746f206e6f6e2d636f6044820152651b9d1c9858dd60d21b60648201526084016104e6565b600080846001600160a01b03168460405161162a9190611b29565b600060405180830381855af49150503d8060008114611665576040519150601f19603f3d011682016040523d82523d6000602084013e61166a565b606091505b50915091506116928282604051806060016040528060278152602001611d56602791396118d3565b95945050505050565b6116a48161150b565b6040516001600160a01b038216907fbc7cd75a20ee27fd9adebab32041f755214dbc6bffa90cc0225b39da2e5c2d3b90600090a250565b600054610100900460ff16806116f4575060005460ff16155b6117105760405162461bcd60e51b81526004016104e690611c10565b600054610100900460ff161580156108d8576000805460ff1961ff0019909116610100171660011790558015610663576000805461ff001916905550565b600054610100900460ff1680611767575060005460ff16155b6117835760405162461bcd60e51b81526004016104e690611c10565b600054610100900460ff161580156117ae576000805460ff1961ff0019909116610100171660011790555b82516117c190603690602086019061190c565b5081516117d590603790602085019061190c565b508015611196576000805461ff0019169055505050565b600054610100900460ff1680611805575060005460ff16155b6118215760405162461bcd60e51b81526004016104e690611c10565b600054610100900460ff1615801561184c576000805460ff1961ff0019909116610100171660011790555b6065805460ff191690558015610663576000805461ff001916905550565b600054610100900460ff1680611883575060005460ff16155b61189f5760405162461bcd60e51b81526004016104e690611c10565b600054610100900460ff161580156118ca576000805460ff1961ff0019909116610100171660011790555b6108d8336110c0565b606083156118e2575081610596565b8251156118f25782518084602001fd5b8160405162461bcd60e51b81526004016104e69190611b45565b82805461191890611cee565b90600052602060002090601f01602090048101928261193a5760008555611980565b82601f1061195357805160ff1916838001178555611980565b82800160010185558215611980579182015b82811115611980578251825591602001919060010190611965565b5061198c929150611990565b5090565b5b8082111561198c5760008155600101611991565b80356001600160a01b03811681146107dc57600080fd5b6000602082840312156119cd578081fd5b610596826119a5565b600080604083850312156119e8578081fd5b6119f1836119a5565b91506119ff602084016119a5565b90509250929050565b600080600060608486031215611a1c578081fd5b611a25846119a5565b9250611a33602085016119a5565b9150604084013590509250925092565b60008060408385031215611a55578182fd5b611a5e836119a5565b9150602083013567ffffffffffffffff80821115611a7a578283fd5b818501915085601f830112611a8d578283fd5b813581811115611a9f57611a9f611d3f565b604051601f8201601f19908116603f01168101908382118183101715611ac757611ac7611d3f565b81604052828152886020848701011115611adf578586fd5b82602086016020830137856020848301015280955050505050509250929050565b60008060408385031215611b12578182fd5b611b1b836119a5565b946020939093013593505050565b60008251611b3b818460208701611cc2565b9190910192915050565b6000602082528251806020840152611b64816040850160208701611cc2565b601f01601f19169190910160400192915050565b6020808252602c908201527f46756e6374696f6e206d7573742062652063616c6c6564207468726f7567682060408201526b19195b1959d85d1958d85b1b60a21b606082015260800190565b6020808252602c908201527f46756e6374696f6e206d7573742062652063616c6c6564207468726f7567682060408201526b6163746976652070726f787960a01b606082015260800190565b6020808252602e908201527f496e697469616c697a61626c653a20636f6e747261637420697320616c72656160408201526d191e481a5b9a5d1a585b1a5e995960921b606082015260800190565b6020808252818101527f4f776e61626c653a2063616c6c6572206973206e6f7420746865206f776e6572604082015260600190565b60008219821115611ca657611ca6611d29565b500190565b600082821015611cbd57611cbd611d29565b500390565b60005b83811015611cdd578181015183820152602001611cc5565b83811115610d985750506000910152565b600281046001821680611d0257607f821691505b60208210811415611d2357634e487b7160e01b600052602260045260246000fd5b50919050565b634e487b7160e01b600052601160045260246000fd5b634e487b7160e01b600052604160045260246000fdfe416464726573733a206c6f772d6c6576656c2064656c65676174652063616c6c206661696c6564a2646970667358221220f8dd4b0218e23696272cf124191f646f22806f0cab5e4a7cee22888d33f851c564736f6c63430008020033",
  "linkReferences": {},
  "deployedLinkReferences": {}
}