{
  "_format": "hh-sol-artifact-1",
  "contractName": "BlackMemoPool",
  "sourceName": "contracts/black-pool.sol",
  "abi": [
    {
      "inputs": [],
      "stateMutability": "nonpayable",
      "type": "constructor"
    },
    {
      "anonymous": false,
      "inputs": [
        {
          "indexed": false,
          "internalType": "address",
          "name": "previousAdmin",
          "type": "address"
        },
        {
          "indexed": false,
          "internalType": "address",
          "name": "newAdmin",
          "type": "address"
        }
      ],
      "name": "AdminChanged",
      "type": "event"
    },
    {
      "anonymous": false,
      "inputs": [
        {
          "indexed": true,
          "internalType": "address",
          "name": "owner",
          "type": "address"
        },
        {
          "indexed": true,
          "internalType": "address",
          "name": "spender",
          "type": "address"
        },
        {
          "indexed": false,
          "internalType": "uint256",
          "name": "value",
          "type": "uint256"
        }
      ],
      "name": "Approval",
      "type": "event"
    },
    {
      "anonymous": false,
      "inputs": [
        {
          "indexed": true,
          "internalType": "address",
          "name": "beacon",
          "type": "address"
        }
      ],
      "name": "BeaconUpgraded",
      "type": "event"
    },
    {
      "anonymous": false,
      "inputs": [
        {
          "indexed": true,
          "internalType": "bytes32",
          "name": "role",
          "type": "bytes32"
        },
        {
          "indexed": true,
          "internalType": "bytes32",
          "name": "previousAdminRole",
          "type": "bytes32"
        },
        {
          "indexed": true,
          "internalType": "bytes32",
          "name": "newAdminRole",
          "type": "bytes32"
        }
      ],
      "name": "RoleAdminChanged",
      "type": "event"
    },
    {
      "anonymous": false,
      "inputs": [
        {
          "indexed": true,
          "internalType": "bytes32",
          "name": "role",
          "type": "bytes32"
        },
        {
          "indexed": true,
          "internalType": "address",
          "name": "account",
          "type": "address"
        },
        {
          "indexed": true,
          "internalType": "address",
          "name": "sender",
          "type": "address"
        }
      ],
      "name": "RoleGranted",
      "type": "event"
    },
    {
      "anonymous": false,
      "inputs": [
        {
          "indexed": true,
          "internalType": "bytes32",
          "name": "role",
          "type": "bytes32"
        },
        {
          "indexed": true,
          "internalType": "address",
          "name": "account",
          "type": "address"
        },
        {
          "indexed": true,
          "internalType": "address",
          "name": "sender",
          "type": "address"
        }
      ],
      "name": "RoleRevoked",
      "type": "event"
    },
    {
      "anonymous": false,
      "inputs": [
        {
          "indexed": true,
          "internalType": "address",
          "name": "from",
          "type": "address"
        },
        {
          "indexed": true,
          "internalType": "address",
          "name": "to",
          "type": "address"
        },
        {
          "indexed": false,
          "internalType": "uint256",
          "name": "value",
          "type": "uint256"
        }
      ],
      "name": "Transfer",
      "type": "event"
    },
    {
      "anonymous": false,
      "inputs": [
        {
          "indexed": true,
          "internalType": "address",
          "name": "implementation",
          "type": "address"
        }
      ],
      "name": "Upgraded",
      "type": "event"
    },
    {
      "inputs": [],
      "name": "ADMIN",
      "outputs": [
        {
          "internalType": "bytes32",
          "name": "",
          "type": "bytes32"
        }
      ],
      "stateMutability": "view",
      "type": "function"
    },
    {
      "inputs": [],
      "name": "CONTROLLER",
      "outputs": [
        {
          "internalType": "bytes32",
          "name": "",
          "type": "bytes32"
        }
      ],
      "stateMutability": "view",
      "type": "function"
    },
    {
      "inputs": [],
      "name": "DEFAULT_ADMIN_ROLE",
      "outputs": [
        {
          "internalType": "bytes32",
          "name": "",
          "type": "bytes32"
        }
      ],
      "stateMutability": "view",
      "type": "function"
    },
    {
      "inputs": [
        {
          "internalType": "address",
          "name": "owner",
          "type": "address"
        },
        {
          "internalType": "address",
          "name": "spender",
          "type": "address"
        }
      ],
      "name": "allowance",
      "outputs": [
        {
          "internalType": "uint256",
          "name": "",
          "type": "uint256"
        }
      ],
      "stateMutability": "view",
      "type": "function"
    },
    {
      "inputs": [
        {
          "internalType": "address",
          "name": "spender",
          "type": "address"
        },
        {
          "internalType": "uint256",
          "name": "amount",
          "type": "uint256"
        }
      ],
      "name": "approve",
      "outputs": [
        {
          "internalType": "bool",
          "name": "",
          "type": "bool"
        }
      ],
      "stateMutability": "nonpayable",
      "type": "function"
    },
    {
      "inputs": [
        {
          "internalType": "address",
          "name": "account",
          "type": "address"
        }
      ],
      "name": "balanceOf",
      "outputs": [
        {
          "internalType": "uint256",
          "name": "",
          "type": "uint256"
        }
      ],
      "stateMutability": "view",
      "type": "function"
    },
    {
      "inputs": [
        {
          "internalType": "address",
          "name": "account",
          "type": "address"
        },
        {
          "internalType": "uint256",
          "name": "amount",
          "type": "uint256"
        }
      ],
      "name": "burn",
      "outputs": [],
      "stateMutability": "nonpayable",
      "type": "function"
    },
    {
      "inputs": [],
      "name": "decimals",
      "outputs": [
        {
          "internalType": "uint8",
          "name": "",
          "type": "uint8"
        }
      ],
      "stateMutability": "view",
      "type": "function"
    },
    {
      "inputs": [
        {
          "internalType": "address",
          "name": "spender",
          "type": "address"
        },
        {
          "internalType": "uint256",
          "name": "subtractedValue",
          "type": "uint256"
        }
      ],
      "name": "decreaseAllowance",
      "outputs": [
        {
          "internalType": "bool",
          "name": "",
          "type": "bool"
        }
      ],
      "stateMutability": "nonpayable",
      "type": "function"
    },
    {
      "inputs": [
        {
          "internalType": "bytes32",
          "name": "role",
          "type": "bytes32"
        }
      ],
      "name": "getRoleAdmin",
      "outputs": [
        {
          "internalType": "bytes32",
          "name": "",
          "type": "bytes32"
        }
      ],
      "stateMutability": "view",
      "type": "function"
    },
    {
      "inputs": [
        {
          "internalType": "bytes32",
          "name": "role",
          "type": "bytes32"
        },
        {
          "internalType": "address",
          "name": "account",
          "type": "address"
        }
      ],
      "name": "grantRole",
      "outputs": [],
      "stateMutability": "nonpayable",
      "type": "function"
    },
    {
      "inputs": [
        {
          "internalType": "bytes32",
          "name": "role",
          "type": "bytes32"
        },
        {
          "internalType": "address",
          "name": "account",
          "type": "address"
        }
      ],
      "name": "hasRole",
      "outputs": [
        {
          "internalType": "bool",
          "name": "",
          "type": "bool"
        }
      ],
      "stateMutability": "view",
      "type": "function"
    },
    {
      "inputs": [
        {
          "internalType": "address",
          "name": "spender",
          "type": "address"
        },
        {
          "internalType": "uint256",
          "name": "addedValue",
          "type": "uint256"
        }
      ],
      "name": "increaseAllowance",
      "outputs": [
        {
          "internalType": "bool",
          "name": "",
          "type": "bool"
        }
      ],
      "stateMutability": "nonpayable",
      "type": "function"
    },
    {
      "inputs": [],
      "name": "initialize",
      "outputs": [],
      "stateMutability": "nonpayable",
      "type": "function"
    },
    {
      "inputs": [
        {
          "internalType": "address",
          "name": "account",
          "type": "address"
        },
        {
          "internalType": "uint256",
          "name": "amount",
          "type": "uint256"
        }
      ],
      "name": "mint",
      "outputs": [],
      "stateMutability": "nonpayable",
      "type": "function"
    },
    {
      "inputs": [],
      "name": "name",
      "outputs": [
        {
          "internalType": "string",
          "name": "",
          "type": "string"
        }
      ],
      "stateMutability": "view",
      "type": "function"
    },
    {
      "inputs": [],
      "name": "onUpgrade",
      "outputs": [],
      "stateMutability": "nonpayable",
      "type": "function"
    },
    {
      "inputs": [
        {
          "internalType": "bytes32",
          "name": "role",
          "type": "bytes32"
        },
        {
          "internalType": "address",
          "name": "account",
          "type": "address"
        }
      ],
      "name": "renounceRole",
      "outputs": [],
      "stateMutability": "nonpayable",
      "type": "function"
    },
    {
      "inputs": [
        {
          "internalType": "bytes32",
          "name": "role",
          "type": "bytes32"
        },
        {
          "internalType": "address",
          "name": "account",
          "type": "address"
        }
      ],
      "name": "revokeRole",
      "outputs": [],
      "stateMutability": "nonpayable",
      "type": "function"
    },
    {
      "inputs": [
        {
          "internalType": "address",
          "name": "controller",
          "type": "address"
        }
      ],
      "name": "setController",
      "outputs": [],
      "stateMutability": "nonpayable",
      "type": "function"
    },
    {
      "inputs": [
        {
          "internalType": "bytes4",
          "name": "interfaceId",
          "type": "bytes4"
        }
      ],
      "name": "supportsInterface",
      "outputs": [
        {
          "internalType": "bool",
          "name": "",
          "type": "bool"
        }
      ],
      "stateMutability": "view",
      "type": "function"
    },
    {
      "inputs": [],
      "name": "symbol",
      "outputs": [
        {
          "internalType": "string",
          "name": "",
          "type": "string"
        }
      ],
      "stateMutability": "view",
      "type": "function"
    },
    {
      "inputs": [],
      "name": "totalSupply",
      "outputs": [
        {
          "internalType": "uint256",
          "name": "",
          "type": "uint256"
        }
      ],
      "stateMutability": "view",
      "type": "function"
    },
    {
      "inputs": [
        {
          "internalType": "address",
          "name": "recipient",
          "type": "address"
        },
        {
          "internalType": "uint256",
          "name": "amount",
          "type": "uint256"
        }
      ],
      "name": "transfer",
      "outputs": [
        {
          "internalType": "bool",
          "name": "",
          "type": "bool"
        }
      ],
      "stateMutability": "nonpayable",
      "type": "function"
    },
    {
      "inputs": [
        {
          "internalType": "address",
          "name": "sender",
          "type": "address"
        },
        {
          "internalType": "address",
          "name": "recipient",
          "type": "address"
        },
        {
          "internalType": "uint256",
          "name": "amount",
          "type": "uint256"
        }
      ],
      "name": "transferFrom",
      "outputs": [
        {
          "internalType": "bool",
          "name": "",
          "type": "bool"
        }
      ],
      "stateMutability": "nonpayable",
      "type": "function"
    },
    {
      "inputs": [
        {
          "internalType": "address",
          "name": "newImplementation",
          "type": "address"
        }
      ],
      "name": "upgradeTo",
      "outputs": [],
      "stateMutability": "nonpayable",
      "type": "function"
    },
    {
      "inputs": [
        {
          "internalType": "address",
          "name": "newImplementation",
          "type": "address"
        },
        {
          "internalType": "bytes",
          "name": "data",
          "type": "bytes"
        }
      ],
      "name": "upgradeToAndCall",
      "outputs": [],
      "stateMutability": "payable",
      "type": "function"
    }
  ],
  "bytecode": "0x60a06040523060601b60805234801561001757600080fd5b50600054610100900460ff1680610031575060005460ff16155b6100985760405162461bcd60e51b815260206004820152602e60248201527f496e697469616c697a61626c653a20636f6e747261637420697320616c72656160448201526d191e481a5b9a5d1a585b1a5e995960921b606482015260840160405180910390fd5b600054610100900460ff161580156100c3576000805460ff1961ff0019909116610100171660011790555b80156100d5576000805461ff00191690555b5060805160601c6120506101096000396000818161078f015281816107cf015281816108b401526108f401526120506000f3fe60806040526004361061019c5760003560e01c806340c10f19116100ec5780639dc29fac1161008a578063a9059cbb11610064578063a9059cbb14610484578063d547741f146104a4578063dd62ed3e146104c4578063ee0fc1211461050a5761019c565b80639dc29fac1461042f578063a217fddf1461044f578063a457c2d7146104645761019c565b80638129fc1c116100c65780638129fc1c146103c557806391d14854146103da57806392eefe9b146103fa57806395d89b411461041a5761019c565b806340c10f191461035c5780634f1ef2861461037c57806370a082311461038f5761019c565b8063248a9ca311610159578063313ce56711610133578063313ce567146102e057806336568abe146102fc5780633659cfe61461031c578063395093511461033c5761019c565b8063248a9ca31461026e5780632a0acc6a1461029e5780632f2ff15d146102c05761019c565b806301ffc9a7146101a157806306fdde03146101d6578063095ea7b3146101f857806318160ddd146102185780631824a46b1461023757806323b872dd1461024e575b600080fd5b3480156101ad57600080fd5b506101c16101bc366004611ce9565b61052c565b60405190151581526020015b60405180910390f35b3480156101e257600080fd5b506101eb610565565b6040516101cd9190611da2565b34801561020457600080fd5b506101c1610213366004611c86565b6105f7565b34801561022457600080fd5b506035545b6040519081526020016101cd565b34801561024357600080fd5b5061024c61060d565b005b34801561025a57600080fd5b506101c1610269366004611b8e565b61062a565b34801561027a57600080fd5b50610229610289366004611caf565b60009081526097602052604090206001015490565b3480156102aa57600080fd5b50610229600080516020611ffb83398151915281565b3480156102cc57600080fd5b5061024c6102db366004611cc7565b6106db565b3480156102ec57600080fd5b50604051600981526020016101cd565b34801561030857600080fd5b5061024c610317366004611cc7565b610706565b34801561032857600080fd5b5061024c610337366004611b42565b610784565b34801561034857600080fd5b506101c1610357366004611c86565b61084a565b34801561036857600080fd5b5061024c610377366004611c86565b610886565b61024c61038a366004611bc9565b6108a9565b34801561039b57600080fd5b506102296103aa366004611b42565b6001600160a01b031660009081526033602052604090205490565b3480156103d157600080fd5b5061024c61095f565b3480156103e657600080fd5b506101c16103f5366004611cc7565b610a85565b34801561040657600080fd5b5061024c610415366004611b42565b610ab0565b34801561042657600080fd5b506101eb610ae1565b34801561043b57600080fd5b5061024c61044a366004611c86565b610af0565b34801561045b57600080fd5b50610229600081565b34801561047057600080fd5b506101c161047f366004611c86565b610b13565b34801561049057600080fd5b506101c161049f366004611c86565b610bac565b3480156104b057600080fd5b5061024c6104bf366004611cc7565b610bb9565b3480156104d057600080fd5b506102296104df366004611b5c565b6001600160a01b03918216600090815260346020908152604080832093909416825291909152205490565b34801561051657600080fd5b50610229600080516020611fb483398151915281565b60006001600160e01b03198216637965db0b60e01b148061055d57506301ffc9a760e01b6001600160e01b03198316145b90505b919050565b60606036805461057490611f4c565b80601f01602080910402602001604051908101604052809291908181526020018280546105a090611f4c565b80156105ed5780601f106105c2576101008083540402835291602001916105ed565b820191906000526020600020905b8154815290600101906020018083116105d057829003601f168201915b5050505050905090565b6000610604338484610bdf565b50600192915050565b600080516020611ffb83398151915261062781335b610d03565b50565b6000610637848484610d67565b6001600160a01b0384166000908152603460209081526040808320338452909152902054828110156106c15760405162461bcd60e51b815260206004820152602860248201527f45524332303a207472616e7366657220616d6f756e74206578636565647320616044820152676c6c6f77616e636560c01b60648201526084015b60405180910390fd5b6106ce8533858403610bdf565b60019150505b9392505050565b6000828152609760205260409020600101546106f78133610622565b6107018383610f37565b505050565b6001600160a01b03811633146107765760405162461bcd60e51b815260206004820152602f60248201527f416363657373436f6e74726f6c3a2063616e206f6e6c792072656e6f756e636560448201526e103937b632b9903337b91039b2b63360891b60648201526084016106b8565b6107808282610fbd565b5050565b306001600160a01b037f00000000000000000000000000000000000000000000000000000000000000001614156107cd5760405162461bcd60e51b81526004016106b890611dd5565b7f00000000000000000000000000000000000000000000000000000000000000006001600160a01b03166107ff611024565b6001600160a01b0316146108255760405162461bcd60e51b81526004016106b890611e21565b61082e81611052565b604080516000808252602082019092526106279183919061106b565b3360008181526034602090815260408083206001600160a01b03871684529091528120549091610604918590610881908690611ebb565b610bdf565b600080516020611fb483398151915261089f8133610622565b61070183836111b6565b306001600160a01b037f00000000000000000000000000000000000000000000000000000000000000001614156108f25760405162461bcd60e51b81526004016106b890611dd5565b7f00000000000000000000000000000000000000000000000000000000000000006001600160a01b0316610924611024565b6001600160a01b03161461094a5760405162461bcd60e51b81526004016106b890611e21565b61095382611052565b6107808282600161106b565b600054610100900460ff1680610978575060005460ff16155b6109945760405162461bcd60e51b81526004016106b890611e6d565b600054610100900460ff161580156109bf576000805460ff1961ff0019909116610100171660011790555b610a0a6040518060400160405280600d81526020016c109b1858dad3595b5bd41bdbdb609a1b815250604051806040016040528060048152602001631093541360e21b815250611296565b610a1261131e565b610a1a611396565b610a33600080516020611ffb833981519152335b610f37565b610a4b600080516020611fb483398151915233610a2e565b610a71600080516020611fb4833981519152600080516020611ffb8339815191526113fd565b8015610627576000805461ff001916905550565b60009182526097602090815260408084206001600160a01b0393909316845291905290205460ff1690565b600080516020611ffb833981519152610ac98133610622565b610780600080516020611fb483398151915283610f37565b60606037805461057490611f4c565b600080516020611fb4833981519152610b098133610622565b6107018383611448565b3360009081526034602090815260408083206001600160a01b038616845290915281205482811015610b955760405162461bcd60e51b815260206004820152602560248201527f45524332303a2064656372656173656420616c6c6f77616e63652062656c6f77604482015264207a65726f60d81b60648201526084016106b8565b610ba23385858403610bdf565b5060019392505050565b6000610604338484610d67565b600082815260976020526040902060010154610bd58133610622565b6107018383610fbd565b6001600160a01b038316610c415760405162461bcd60e51b8152602060048201526024808201527f45524332303a20617070726f76652066726f6d20746865207a65726f206164646044820152637265737360e01b60648201526084016106b8565b6001600160a01b038216610ca25760405162461bcd60e51b815260206004820152602260248201527f45524332303a20617070726f766520746f20746865207a65726f206164647265604482015261737360f01b60648201526084016106b8565b6001600160a01b0383811660008181526034602090815260408083209487168084529482529182902085905590518481527f8c5be1e5ebec7d5bd14f71427d1e84f3dd0314c0f7b2291e5b200ac8c7c3b925910160405180910390a3505050565b610d0d8282610a85565b61078057610d25816001600160a01b03166014611596565b610d30836020611596565b604051602001610d41929190611d2d565b60408051601f198184030181529082905262461bcd60e51b82526106b891600401611da2565b6001600160a01b038316610dcb5760405162461bcd60e51b815260206004820152602560248201527f45524332303a207472616e736665722066726f6d20746865207a65726f206164604482015264647265737360d81b60648201526084016106b8565b6001600160a01b038216610e2d5760405162461bcd60e51b815260206004820152602360248201527f45524332303a207472616e7366657220746f20746865207a65726f206164647260448201526265737360e81b60648201526084016106b8565b6001600160a01b03831660009081526033602052604090205481811015610ea55760405162461bcd60e51b815260206004820152602660248201527f45524332303a207472616e7366657220616d6f756e7420657863656564732062604482015265616c616e636560d01b60648201526084016106b8565b6001600160a01b03808516600090815260336020526040808220858503905591851681529081208054849290610edc908490611ebb565b92505081905550826001600160a01b0316846001600160a01b03167fddf252ad1be2c89b69c2b068fc378daa952ba7f163c4a11628f55a4df523b3ef84604051610f2891815260200190565b60405180910390a35b50505050565b610f418282610a85565b6107805760008281526097602090815260408083206001600160a01b03851684529091529020805460ff19166001179055610f793390565b6001600160a01b0316816001600160a01b0316837f2f8788117e7eff1d82e926ec794901d17c78024a50270940304540a733656f0d60405160405180910390a45050565b610fc78282610a85565b156107805760008281526097602090815260408083206001600160a01b0385168085529252808320805460ff1916905551339285917ff6391f5c32d9c69d2a47ea670b442974b53935d1edc7fd64eb21e047a839171b9190a45050565b7f360894a13ba1a3210667c828492db98dca3e2076cc3735a920a3ca505d382bbc546001600160a01b031690565b600080516020611ffb8339815191526107808133610622565b6000611075611024565b905061108084611778565b60008351118061108d5750815b1561109e5761109c848461181d565b505b7f4910fdfa16fed3260ed0e7147f7cc6da11a60208b5b9406d12a635614ffd9143805460ff166111af57805460ff191660011781556040516001600160a01b038316602482015261111d90869060440160408051601f198184030181529190526020810180516001600160e01b0316631b2ce7f360e11b17905261181d565b50805460ff1916815561112e611024565b6001600160a01b0316826001600160a01b0316146111a65760405162461bcd60e51b815260206004820152602f60248201527f45524331393637557067726164653a207570677261646520627265616b73206660448201526e75727468657220757067726164657360881b60648201526084016106b8565b6111af85611908565b5050505050565b6001600160a01b03821661120c5760405162461bcd60e51b815260206004820152601f60248201527f45524332303a206d696e7420746f20746865207a65726f20616464726573730060448201526064016106b8565b806035600082825461121e9190611ebb565b90915550506001600160a01b0382166000908152603360205260408120805483929061124b908490611ebb565b90915550506040518181526001600160a01b038316906000907fddf252ad1be2c89b69c2b068fc378daa952ba7f163c4a11628f55a4df523b3ef9060200160405180910390a3610780565b600054610100900460ff16806112af575060005460ff16155b6112cb5760405162461bcd60e51b81526004016106b890611e6d565b600054610100900460ff161580156112f6576000805460ff1961ff0019909116610100171660011790555b6112fe611948565b61130883836119bb565b8015610701576000805461ff0019169055505050565b600054610100900460ff1680611337575060005460ff16155b6113535760405162461bcd60e51b81526004016106b890611e6d565b600054610100900460ff1615801561137e576000805460ff1961ff0019909116610100171660011790555b611386611948565b61138e611948565b610a71611948565b600054610100900460ff16806113af575060005460ff16155b6113cb5760405162461bcd60e51b81526004016106b890611e6d565b600054610100900460ff16158015611386576000805460ff1961ff00199091166101001716600117905561138e611948565b600082815260976020526040808220600101805490849055905190918391839186917fbd79b86ffe0ab8e8776151514217cd7cacd52c909f66475c3af44e129f0b00ff9190a4505050565b6001600160a01b0382166114a85760405162461bcd60e51b815260206004820152602160248201527f45524332303a206275726e2066726f6d20746865207a65726f206164647265736044820152607360f81b60648201526084016106b8565b6001600160a01b0382166000908152603360205260409020548181101561151c5760405162461bcd60e51b815260206004820152602260248201527f45524332303a206275726e20616d6f756e7420657863656564732062616c616e604482015261636560f01b60648201526084016106b8565b6001600160a01b038316600090815260336020526040812083830390556035805484929061154b908490611ef2565b90915550506040518281526000906001600160a01b038516907fddf252ad1be2c89b69c2b068fc378daa952ba7f163c4a11628f55a4df523b3ef9060200160405180910390a3610701565b606060006115a5836002611ed3565b6115b0906002611ebb565b67ffffffffffffffff8111156115d657634e487b7160e01b600052604160045260246000fd5b6040519080825280601f01601f191660200182016040528015611600576020820181803683370190505b509050600360fc1b8160008151811061162957634e487b7160e01b600052603260045260246000fd5b60200101906001600160f81b031916908160001a905350600f60fb1b8160018151811061166657634e487b7160e01b600052603260045260246000fd5b60200101906001600160f81b031916908160001a905350600061168a846002611ed3565b611695906001611ebb565b90505b6001811115611729576f181899199a1a9b1b9c1cb0b131b232b360811b85600f16601081106116d757634e487b7160e01b600052603260045260246000fd5b1a60f81b8282815181106116fb57634e487b7160e01b600052603260045260246000fd5b60200101906001600160f81b031916908160001a90535060049490941c9361172281611f35565b9050611698565b5083156106d45760405162461bcd60e51b815260206004820181905260248201527f537472696e67733a20686578206c656e67746820696e73756666696369656e7460448201526064016106b8565b803b6117dc5760405162461bcd60e51b815260206004820152602d60248201527f455243313936373a206e657720696d706c656d656e746174696f6e206973206e60448201526c1bdd08184818dbdb9d1c9858dd609a1b60648201526084016106b8565b7f360894a13ba1a3210667c828492db98dca3e2076cc3735a920a3ca505d382bbc80546001600160a01b0319166001600160a01b0392909216919091179055565b6060823b61187c5760405162461bcd60e51b815260206004820152602660248201527f416464726573733a2064656c65676174652063616c6c20746f206e6f6e2d636f6044820152651b9d1c9858dd60d21b60648201526084016106b8565b600080846001600160a01b0316846040516118979190611d11565b600060405180830381855af49150503d80600081146118d2576040519150601f19603f3d011682016040523d82523d6000602084013e6118d7565b606091505b50915091506118ff8282604051806060016040528060278152602001611fd460279139611a59565b95945050505050565b61191181611778565b6040516001600160a01b038216907fbc7cd75a20ee27fd9adebab32041f755214dbc6bffa90cc0225b39da2e5c2d3b90600090a250565b600054610100900460ff1680611961575060005460ff16155b61197d5760405162461bcd60e51b81526004016106b890611e6d565b600054610100900460ff16158015610a71576000805460ff1961ff0019909116610100171660011790558015610627576000805461ff001916905550565b600054610100900460ff16806119d4575060005460ff16155b6119f05760405162461bcd60e51b81526004016106b890611e6d565b600054610100900460ff16158015611a1b576000805460ff1961ff0019909116610100171660011790555b8251611a2e906036906020860190611a92565b508151611a42906037906020850190611a92565b508015610701576000805461ff0019169055505050565b60608315611a685750816106d4565b825115611a785782518084602001fd5b8160405162461bcd60e51b81526004016106b89190611da2565b828054611a9e90611f4c565b90600052602060002090601f016020900481019282611ac05760008555611b06565b82601f10611ad957805160ff1916838001178555611b06565b82800160010185558215611b06579182015b82811115611b06578251825591602001919060010190611aeb565b50611b12929150611b16565b5090565b5b80821115611b125760008155600101611b17565b80356001600160a01b038116811461056057600080fd5b600060208284031215611b53578081fd5b6106d482611b2b565b60008060408385031215611b6e578081fd5b611b7783611b2b565b9150611b8560208401611b2b565b90509250929050565b600080600060608486031215611ba2578081fd5b611bab84611b2b565b9250611bb960208501611b2b565b9150604084013590509250925092565b60008060408385031215611bdb578182fd5b611be483611b2b565b9150602083013567ffffffffffffffff80821115611c00578283fd5b818501915085601f830112611c13578283fd5b813581811115611c2557611c25611f9d565b604051601f8201601f19908116603f01168101908382118183101715611c4d57611c4d611f9d565b81604052828152886020848701011115611c65578586fd5b82602086016020830137856020848301015280955050505050509250929050565b60008060408385031215611c98578182fd5b611ca183611b2b565b946020939093013593505050565b600060208284031215611cc0578081fd5b5035919050565b60008060408385031215611cd9578182fd5b82359150611b8560208401611b2b565b600060208284031215611cfa578081fd5b81356001600160e01b0319811681146106d4578182fd5b60008251611d23818460208701611f09565b9190910192915050565b60007f416363657373436f6e74726f6c3a206163636f756e742000000000000000000082528351611d65816017850160208801611f09565b7001034b99036b4b9b9b4b733903937b6329607d1b6017918401918201528351611d96816028840160208801611f09565b01602801949350505050565b6000602082528251806020840152611dc1816040850160208701611f09565b601f01601f19169190910160400192915050565b6020808252602c908201527f46756e6374696f6e206d7573742062652063616c6c6564207468726f7567682060408201526b19195b1959d85d1958d85b1b60a21b606082015260800190565b6020808252602c908201527f46756e6374696f6e206d7573742062652063616c6c6564207468726f7567682060408201526b6163746976652070726f787960a01b606082015260800190565b6020808252602e908201527f496e697469616c697a61626c653a20636f6e747261637420697320616c72656160408201526d191e481a5b9a5d1a585b1a5e995960921b606082015260800190565b60008219821115611ece57611ece611f87565b500190565b6000816000190483118215151615611eed57611eed611f87565b500290565b600082821015611f0457611f04611f87565b500390565b60005b83811015611f24578181015183820152602001611f0c565b83811115610f315750506000910152565b600081611f4457611f44611f87565b506000190190565b600281046001821680611f6057607f821691505b60208210811415611f8157634e487b7160e01b600052602260045260246000fd5b50919050565b634e487b7160e01b600052601160045260246000fd5b634e487b7160e01b600052604160045260246000fdfe70546d1c92f8c2132ae23a23f5177aa8526356051c7510df99f50e012d221529416464726573733a206c6f772d6c6576656c2064656c65676174652063616c6c206661696c6564df8b4c520ffe197c5343c6f5aec59570151ef9a492f2c624fd45ddde6135ec42a26469706673582212207b03b376ed0b85c4c335406f7f5c65f6681d3a3ff7f691f0f4c4bdc8159aa47464736f6c63430008020033",
  "linkReferences": {},
  "deployedLinkReferences": {}
}